:020000040040BA
:10000000E00A4020ED014000E9014000E901400024
:10001000E9014000E9014000E90140000000000062
:10002000000000000000000000000000E9014000A6
:10003000E901400000000000E9014000E901400042
:10004000E9014000E9014000E9014000E901400008
:10005000E9014000E9014000E9014000E9014000F8
:10006000251B400000000000E9014000E9014000BC
:10007000E9014000E9014000E9014000E9014000D8
:10008000E9014000E9014000E9014000E9014000C8
:10009000E9014000E9014000E9014000711640001B
:1000A000E9014000E9014000E9014000E9014000A8
:1000B000E9014000E5124000E9014000E90140008B
:1000C000E9014000E9014000E9014000E901400088
:1000D000E9014000E9014000E9014000E901400078
:1000E000F9124000E9014000E9014000E901400047
:1000F000E9014000E9014000E9014000E901400058
:10010000E9014000E9014000E9014000E901400047
:10011000E9014000E901400000000000000000008B
:10012000E9014000E9014000E9014000E901400027
:10013000E9014000E9014000E9014000E901400017
:10014000E9014000E9014000E9014000E901400007
:10015000E9014000E9014000E9014000E9014000F7
:10016000E9014000E901400010B5054C237833B99E
:10017000044B13B10448AFF300800123237010BD7A
:100180008800402000000000286540000C4B43B16F
:100190000C480D4910B5AFF300800C48036823B933
:1001A00010BD0A48036833B97047094B002BF7D0DC
:1001B000BDE810401847064B002BF5D0184700BF8C
:1001C00000000000286540008C00402028654000A9
:1001D0000000000008B5024B9847024B984708BD45
:1001E0007505400001254000FEE7000008B5104BF2
:1001F000104A9A4209D00E4B0E4A03E0116819606A
:10020000043304320C498B42F8D30C4B02E0002239
:100210001A6004330A4A9342F9D30A4A0A4B23F07C
:100220007F039360094B9847094B9847FEE700BF4F
:1002300000004020286540008800402088004020C1
:10024000DC04402000ED00E000004000892E40006A
:10025000C521400008B5084B9B6913F4000F03D17A
:100260004FF40002044B1A61044B984702460449BC
:100270000448054B984708BD00060E406D16400027
:1002800000C00040EC034020390B4000F0B585B0C1
:100290002E4BD3F8083113F4807F04D14FF48072D1
:1002A0002A4BC3F800212A4D2A4C002602962A4BDD
:1002B00001930723009306232A4628492046284F06
:1002C000B847102305F1080231462046254EB047B5
:1002D000102305F1180201212046B047102305F133
:1002E000280202212046B047102305F138020321DD
:1002F0002046B047102305F1480204212046B047AC
:10030000102305F1580205212046B047102305F1BE
:10031000680206212046B0470222134B1A6003F5FB
:1003200000734FF400521A604FF400421A604FF409
:1003300080521A604FF000521A604FF080421A60EB
:100340004FF000421A6005B0F0BD00BF00060E403D
:10035000A4004020C003402044024020004006404A
:100360001D084000C508400000100E402DE9F04176
:1003700084B0354B9B6913F0005F03D14FF00052FE
:10038000314B1A61314D324C00260296314B0193AC
:10039000072700970A2305F178022F492046DFF846
:1003A000C880C047102305F18402314620462B4EF9
:1003B000B047102305F1940201212046B0471023D5
:1003C00005F1A40202212046B047102305F1B40232
:1003D00005212046B047102305F1C40239462046C6
:1003E000B047102305F1D40208212046B04710235E
:1003F00005F1E4020A212046B0474FF08042184B35
:100400001A60A3F5C0634FF400121A60154A082160
:100410001160042111604FF4802119604FF4002114
:100420001960012111604FF480725A611A66C3F895
:100430009420196F11431967596F21F4807159671E
:100440005A6004B0BDE8F08100060E40A4004020D0
:10045000EC0240201803402000C00340C5084000C3
:1004600000140E4000100E401D0840000B4B1A6F88
:1004700022F400721A675A6F22F400725A674FF41E
:1004800000725A601A6F22F480621A675A6F22F45F
:1004900080625A674FF480625A607047000E0E40C7
:1004A000044B9B6913F0800F02D18022014B1A612B
:1004B000704700BF00060E4008B5064B9847064B34
:1004C0009847024605490648064B9847064B984709
:1004D00008BD00BFA10440001D1B400000080E40E5
:1004E000380240203D0F40006D044000044B9B69E2
:1004F00013F4807F03D14FF48072014B1A6170476F
:1005000000060E400A4B1A6F22F020021A675A6F3B
:1005100042F020025A6720225A601A6F22F010021D
:100520001A675A6F42F010025A6710225A607047D9
:10053000000E0E4010B582B0074B9847074B984706
:1005400000901023064A07490748084CA047084B6B
:10055000984702B010BD00BFED044000211B4000D1
:1005600098014020000A0E40E8014020AD0D4000F7
:1005700005054000F8B5844B9847844B9B6913F4FC
:10058000806F03D14FF48062804B1A617F4B9B696F
:1005900013F4805F03D14FF480527C4B1A617B4B84
:1005A0009B6913F4803F03D14FF48032774B1A617B
:1005B000764B9B6913F4003F03D14FF40032734B29
:1005C0001A61734A536843F400435360714B4FF40C
:1005D00000025A631A611A604FF080745C611C66F5
:1005E000C3F894401C604FF0806058611866C3F8EF
:1005F000940018604FF0805159611966C3F8941047
:1006000019604FF080425A611A66C3F894201A604C
:1006100003F5806301225A611A66C3F894201A60B8
:100620004FF0040EC3F834E0C3F810E0C3F800E064
:1006300010225A611A66C3F894201A6040255D6141
:100640001D66C3F894501D6080275F631F611F60A3
:100650004FF480761E631E611E6003F500734FF039
:10066000020CC3F814C0C3F860C0C3F894C0C3F848
:1006700000C0C3F814E0C3F860E0C3F890E0C3F82A
:1006800000E04FF0080EC3F834E0C3F810E0C3F800
:1006900000E05A631A611A604FF0200EC3F814E0AC
:1006A000C3F860E0C3F894E0C3F800E05D611D6644
:1006B000C3F894501D605F611F66C3F894701F609B
:1006C0005E611E66C3F894601E604FF400755D6144
:1006D0001D66C3F894501D604FF480655D611D6612
:1006E000C3F894501D604FF400655D611D66C3F84A
:1006F00094501D604FF480555D631D611D604FF483
:1007000000555D631D611D604FF480455D631D6193
:100710001D604FF400455D631D611D604FF4802531
:100720005D611D66C3F894501D604FF400255D6146
:100730001D66C3F894501D605C611C66C3F894404C
:100740001C6058611866C3F89400186059611966F6
:10075000C3F8941019604FF0005159611966C3F83D
:100760009410196003F500735A61C3F890205A661B
:100770001A60094B9847094B9847094B9847094B12
:100780009847094B9847F8BD1D14400000060E40DD
:1007900050180E40000E0E406D0340008D024000C8
:1007A00055024000B90440003505400008B5836992
:1007B00003B1984708BD08B5C36903B1984708BDA0
:1007C0002DE9F047054688469146036A5B5C876AD7
:1007D00003EB4303DE00BC1904F1040AD1B2504616
:1007E0000C4B984728460C4B9847012807D94FEAED
:1007F00019215046074B9847A38A0133A382A38A45
:100800000133A382BB5913B1414628469847BDE83E
:10081000F08700BF99104000CD1340002DE9F84F3C
:1008200016461C469DF828800B9D074689460028E1
:1008300018BF00290BD0131C18BF0123B8F1000FFB
:1008400017D0B3B10DB1012002E0002000E000207C
:10085000DFF868B03F225946DFF864A0D047601C3B
:10086000402259468045CCBF00200120D0470023BC
:1008700005E00020ECE7FF22F2540133DBB2A34293
:10088000F9D93E6287F8244087F82580BD62494641
:100890003846064B9847034628B9054ABA60054AC8
:1008A0003A60054A7A601846BDE8F88F0D1340009B
:1008B000C1074000AD074000B7074000A055400009
:1008C000B10F40002DE9F8430E461F4605469046FD
:1008D000002818BF002A02D0C3B9002000E0002081
:1008E000DFF8949066224946214CA04795F82400F1
:1008F00067224946B04234BF00200120A047296A40
:100900008B5DFF2B2BD10024234603E00120E7E77A
:100910000133DBB295F82420934205D8CA5CFF2A44
:10092000F6D00134E4B2F3E795F825309C4219D8AB
:10093000A86A04EB44034FEAC30948443A464146D7
:1009400004300C4B9847024678B92B6A9C55AB6A29
:1009500099440023A9F814301046BDE8F8836FF0DD
:100960000C02F9E76FF01B02F6E76FF00C02F3E7F9
:10097000B10F400011104000A0554000F8B50D46E1
:100980000B4F044683223946003018BF0120094E20
:10099000B04794F8240084223946A84234BF00208E
:1009A0000120B04729462046034B98470020F8BD58
:1009B000A0554000B10F4000C113400010B50446DF
:1009C000D6220549003018BF0120044B9847204625
:1009D000034B9847002010BDA0554000B10F4000C8
:1009E000D1134000EFF31083036072B6BFF35F8F43
:1009F0007047BFF35F8F036883F310887047000070
:100A000010B5044B1C68044B984701462046034B25
:100A1000984710BDA801402005144000171440005D
:100A200070B5164604460D46002818BF002914BFAD
:100A30000120002034220449044B984723683246A1
:100A400029462046984770BDBC554000B10F400074
:100A500070B5164604460D46002818BF002914BF7D
:100A6000012000203D220449044B98476368324628
:100A700029462046984770BDBC554000B10F400044
:100A8000F8B5076817B13C4600260BE00E4B9847B7
:100A9000F8BDA5682B449B1A01338D68AB4209D27F
:100AA0002646246834B163689342F2D8A5689B1A3D
:100AB0002B44F2E7BC4203D03046044B9847F8BDC4
:100AC000014B9847F8BD00BFCD0F4000F90F400023
:100AD000F8B54469066901360661037E13F0010F1B
:100AE00005D1037E13F0020F01D1054609E0037E14
:100AF00043F002030376F8BD6F69E3682046984728
:100B00003C469CB16368F31AA26893420ED305F188
:100B100014073846064B9847237C012BECD16660BE
:100B2000324621463846034B9847E5E7F8BD00BFFB
:100B300001104000810A400038B504460D460028E7
:100B400018BF002914BF012000203B220549064B95
:100B5000984729462046054B984700202061044BC2
:100B6000236038BDD0554000B10F400085154000CE
:100B7000D10A400010B5044653220949003018BF7D
:100B80000120084B98472046074B984720B920463C
:100B9000064B9847002010BD6FF0100010BD00BF3D
:100BA000D0554000B10F40004916400041164000AA
:100BB00070B582B004460D46002818BF002914BF46
:100BC000012000207A221D491D4B9847237E43F0C7
:100BD0000103237604F1140629463046194B984741
:100BE00088B923696B60226929463046164B9847BD
:100BF000237E03F0FE032376237E13F0020F0ED133
:100C0000002002B070BD237E03F0FE0323767F2216
:100C10000A4900200A4B98476FF01100F1E701A83C
:100C20000A4B9847237E03F0FD0323762046084BAA
:100C3000984701A8074B98470020E2E7D0554000AD
:100C4000B10F4000B70F4000810A4000E5094000A5
:100C500055164000F309400008B500238362C369BC
:100C60001BB1A0F108021046984708BD08B5002343
:100C70008362436A1BB1A0F108021046984708BD81
:100C800038B50446A0F108052C30034B9847236A79
:100C90000BB12846984738BD9910400070B51546ED
:100CA00004460E46002818BF002902D0DAB90020F9
:100CB00000E0002040F23B120D490E4B9847B4F87B
:100CC0004420B4F84C309A420FD1A664A4F84C509A
:100CD0000023A4F844300123236304F10800064BE9
:100CE0009847284670BD0120E4E76FF01B0070BDF7
:100CF000E8554000B10F4000D11A400010B504463D
:100D0000838FB0F84420934209D0026C591C81872C
:100D1000D15C044B98472046034B984710BD034BCA
:100D2000984710BD111A4000D11A4000F51A400032
:100D30002DE9F04182B0174605468846002818BFC5
:100D4000002902D0A2B9002000E000204FF4AC72CC
:100D50001049114B984701A8104B98473435284645
:100D60000F4B9847064601A80E4B9847002407E012
:100D70000120EBE70134A4B2414428460A4B9847CE
:100D80002146A64201D9BC42F4D3204602B0BDE8B8
:100D9000F08100BFE8554000B10F4000E509400078
:100DA000D9104000F309400055104000F8B5154631
:100DB0001E4604460F46002818BF002908D0131C01
:100DC00018BF012316B10BB1012002E0002000E0A2
:100DD00000203A221049114B98473246294604F127
:100DE00034000F4B9847A0B9394604F108000D4B69
:100DF0009847034658B90C4A62600C4A22600C4A74
:100E0000A2600C4AE2600C4A22610C4A62611846F8
:100E1000F8BD6FF00C03FAE7E8554000B10F400051
:100E200011104000D9184000310D40009D0C4000C9
:100E3000FD0C4000810C4000590C40006D0C40003E
:100E400010B5044661220649003018BF0120054B49
:100E5000984704F10800044B9847002010BD00BFDC
:100E6000E8554000B10F4000B9194000F8B51646EA
:100E700005460F46002818BF002902D00ABB0020F3
:100E800000E00020F1221049104B984705F10804BA
:100E900020460F4B98470028F8D00025795D204662
:100EA0000C4B984720460A4B98470028FAD001354A
:100EB000B542F3D32046084B98470028FAD028467D
:100EC000F8BD0120DEE700BF08564000B10F40002A
:100ED000591A4000ED194000811A40002DE9F041F7
:100EE000174605468846002818BF002902D0D2B907
:100EF000002000E000204FF486720C490C4B98470C
:100F0000002605F1080420460A4B98470028F8D02F
:100F10002046094B984708F806000136BE42F0D338
:100F20003046BDE8F0810120E5E700BF08564000EB
:100F3000B10F4000A91A4000351A400038B50446E8
:100F40000D46002818BF002914BF012000203422BC
:100F50000749084B9847294604F10800064B984773
:100F6000034618B9054A6260054A2260184638BD32
:100F700008564000B10F4000A1184000DD0E4000AF
:100F80006D0E400010B5044653220649003018BFCC
:100F90000120054B984704F10800044B98470020B6
:100FA00010BD00BF08564000B10F40008519400039
:100FB00000B900BE704703681BB18B4203D01B68A9
:100FC000FAE70020704701207047000038B504465A
:100FD0000D46064B984780F0010039220449C0B203
:100FE000044B984723682B60256038BDB70F40003D
:100FF00024564000B10F400003680B600160704749
:1010000003681BB11A6802601846704700207047D9
:1010100070B5154604460E46002818BF002902D0B8
:101020007AB9002000E0002028220849084B9847A0
:101030006B1E1D4207D163600020A060E060266047
:1010400070BD0120F0E76FF00C0070BD4456400009
:10105000B10F400038B504460D46002818BF0029DE
:1010600014BF01200020402209490A4B9847E2683A
:10107000A3689A4209D0226861680B40D35C2B7048
:10108000A3680133A360002038BD6FF0090038BDAC
:1010900044564000B10F400038B50D460446512279
:1010A0000B49003018BF01200A4B98472268E368BB
:1010B00061680B40D554E368A2689A1A61688A4255
:1010C00001D9591AA1600133E360002038BD00BF87
:1010D00044564000B10F400010B504466722054950
:1010E000003018BF0120044B9847E068A368C01A7D
:1010F00010BD00BF44564000B10F40000346064AF1
:10110000126822B1044A106803441360704703490F
:10111000014A1160F6E700BFAC014020E00A402020
:101120004FF0FF3070474FF400534B600020704782
:1011300001207047002070474369074A934205D059
:1011400002F52032934203D1282070471D207047BA
:101150004FF0FF30704700BF00C00340064B98427D
:1011600003D0064B984203D07047054B1960F8E74F
:10117000034B5960F8E700BF00C003400040064041
:10118000B001402064231D4A03FB01235A684260DA
:101190009A688260DA68C2601A6902615A690265F7
:1011A0009A694265DA6902661A6AC0F894205A6A36
:1011B000C0F8A0209A6AC0F8D020DA6AC0F8D4201B
:1011C0001B6BC0F8D83000220B2A14D810B442662A
:1011D00001EB810303EB830313440C33074C04EB53
:1011E00083035B68C3660132D2B20B2AEFD90020B9
:1011F0005DF8044B70470020704700BF6856400000
:1012000030B583B005464269116BD36A0B40019338
:10121000019B13F0806F0ED1019B13F0007F0ED164
:10122000019BC3F30B030193019CB4FA84F4C4F152
:101230002004E4B21FE0036800219847ECE76B68E4
:10124000002128469847EBE7013CE4B26B695C66F5
:10125000AB686A69926E92B221462846984701238C
:10126000A340019C24EA03040194019CB4FA84F491
:10127000C4F12004E4B2002CE6D103B030BD00007C
:1012800008B5094B98420AD003F52033984208D09C
:10129000A72206490020064B9847002008BD0020E1
:1012A00008BD012008BD00BF00C00340305740000A
:1012B000B10F400008B5094B98470023012B09D80E
:1012C000642202FB03F206498A5C904203D0013398
:1012D000DBB2F3E70023184608BD00BF81124000CF
:1012E0006856400008B5024B1868024B984708BD85
:1012F000B00140200112400008B5024B5868024B73
:10130000984708BDB00140200112400070B50C465E
:1013100005464FF4A1722349003018BF0120224B2B
:1013200098472046214B984701462046204B984736
:10133000064608B1304670BD6C61294620461D4BFB
:10134000984728461C4B984700280DDB430900F0BE
:101350001F00012202FA00F02033184A42F823004D
:10136000BFF34F8FBFF36F8F2846134B984700286A
:1013700009DB430900F01F00012202FA00F060338C
:101380000E4A42F8230028460B4B98470028D1DB31
:10139000420900F01F00012303FA00F0074B43F855
:1013A0002200C7E730574000B10F4000B51240009F
:1013B000851140005D1140003911400000E100E05E
:1013C0004269012303FA01F151617047022070471D
:1013D000436902221A607047436959664369986EEF
:1013E00080B2704743B2002B09DB5B0900F01F009D
:1013F000012202FA00F04033014A42F8230070470C
:1014000000E100E04FF4967303FB00F04FF47A73B1
:1014100003FB00F070470139FDD8704700B583B079
:1014200001A80E4B98470E4AD2F8883043F4700357
:10143000C2F88830BFF34F8FBFF36F8F01A8094BFD
:101440009847094A136823F4706343F4C063136038
:10145000064B984703B05DF804FB00BFE509400068
:1014600000ED00E0F3094000000C0E400D154000B7
:101470000E490A6A22F002020D4B13430B620B4B1A
:101480009B6E13F0010FFAD0084B196A094A0A4300
:101490001A62996A084A0A409A62084A9A62034B99
:1014A0009B6E13F0020FFAD0704700BF00060E408B
:1014B000013E370000003701FFFF00F8013F182010
:1014C000114A136B23F0700313630F4B9B6E13F0E1
:1014D000080FFAD00C4A136B23F4407343F4807363
:1014E0001363094B9B6E13F0080FFAD0064A136B77
:1014F00023F0030343F002031363034B9B6E13F0CB
:10150000080FFAD0704700BF00060E4008B5024B26
:101510009847024B984708BD71144000C114400021
:1015200000233BB10020704703EBC304A30008462F
:1015300018440CE010B403EBC3018A0005498A5833
:101540008242F1D00133DBB2002BF4D000205DF8F1
:10155000044B704700004020034B984200D0704776
:10156000024B1960FBE700BF00C00040B8014020FB
:1015700008B5C3681B6A13F0100F00D108BD0368DB
:101580009847FBE7F8B507460C460846274B9847AF
:1015900005468668FC60912225490120254B984725
:1015A00016F4004F01D046F4142666606B6963613F
:1015B000AB69A361EB682363EB69E36110236362AA
:1015C0002B69C4F8D830394620461B4B984795F90B
:1015D0000430002B0DDB5A0903F01F03012101FA2F
:1015E00003F32032154941F82230BFF34F8FBFF388
:1015F0006F8F95F90430002B09DB5A0903F01F03A4
:10160000012101FA03F360320C4941F8223095F9C7
:101610000430002B08DB590903F01F03012202FAF2
:1016200003F3064A42F821300020F8BD211540009E
:1016300048574000B10F40005915400000E100E05C
:10164000C36805221A607047C368186AC0F3004077
:101650007047000008B5C068024B98470079024BFC
:10166000984708BD21154000E51340000020704751
:1016700008B5024B1868024B984708BDB8014020D6
:1016800071154000034B984200D07047024B19601F
:10169000FBE700BF000A0E40BC01402010B5044625
:1016A00040F21D221249003018BF0120114B98470B
:1016B000114B9C4213D003F500739C4211D003F5EB
:1016C00080539C420FD003F500739C420DD003F56C
:1016D00000739C4201D0FF2010BD042010BD0020EB
:1016E00010BD012010BD022010BD032010BD00BFA1
:1016F00074574000B10F400000080E4010B504467A
:1017000040F2AA220F49003018BF01200E4B984723
:1017100020460E4B98470023012B09D803EB4301C9
:101720008A000B498A5C904209D00133DBB2F3E7AF
:101730004FF42D7203490020034B984700231846AD
:1017400010BD00BF74574000B10F40009D1640000F
:101750005C57400038B5044640F2C1220E490030C3
:1017600018BF01200D4B984720460D4B98470D4B55
:10177000C4F8E430AC2323604FF4807323600A4A3A
:1017800043001D18A9000D461144496861602A44B0
:1017900093682362002038BD74574000B10F4000A9
:1017A000FD164000005241555C57400010B50446FC
:1017B00088221049003018BF01200F4B984720465F
:1017C0000E4B984704280CD8DFE800F003120507F9
:1017D0000900072010BD2C2010BD2D2010BD2E208B
:1017E00010BD9A2203490020034B9847FF2010BDEB
:1017F000082010BD74574000B10F40009D164000F6
:1018000010B5044640F281222349003018BF012060
:10181000224B9847A3695A6912F0020F03D01A6944
:1018200012F0020F18D15A6912F4007F03D01A691E
:1018300012F4007F16D15A6912F0010F1FD01A69F5
:1018400012F0010F1BD05A6912F0E00F11D09A6903
:101850004FF480721A6010BD0222DA6023682046BD
:10186000984710BD4FF40072DA60A368204698478D
:1018700010BD62689969C9B22046904710BD5A6987
:1018800012F0E00F00D110BD4FF480721A60E368CF
:1018900020469847F7E700BF74574000B10F40005B
:1018A000F8B50C46094E0746AE223146003018BF47
:1018B0000120074DA847AF223146201C18BF012048
:1018C000A8473C602046034B9847F8BD745740003A
:1018D000B10F40005517400070B50C460646BD22BA
:1018E0002249003018BF0120214B98472046214B48
:1018F0009847054608B1284670BDB4613146204678
:101900001D4B984720461D4B984743B2002B0DDBDB
:101910005B0900F01F00012202FA00F02033184A90
:1019200042F82300BFF34F8FBFF36F8F2046134B56
:10193000984743B2002B09DB5B0900F01F0001222E
:1019400002FA00F060330E4A42F8230020460B4BA7
:10195000984743B2002BCEDB5B0900F01F00012249
:1019600002FA00F0064A42F82300C4E77457400028
:10197000B10F40005517400085164000AD174000DC
:1019800000E100E070B50A4E0446F722314600300F
:1019900018BF0120074DA847246840F2E5223146D0
:1019A000201C18BF0120A8475023236070BD00BF32
:1019B00074574000B10F400070B50A4E04464FF412
:1019C00080723146003018BF0120074DA847A46936
:1019D00040F2E5223146201C18BF0120A8475023C1
:1019E000236070BD74574000B10F400038B50C46FD
:1019F000054640F299120449003018BF0120034BFC
:101A000098472B68DC6138BD74574000B10F400027
:101A100038B50C4605464FF4D1720449003018BF62
:101A20000120034B9847AB69DC6138BD7457400017
:101A3000B10F400010B5044640F2AB12044900302B
:101A400018BF0120034B984723689869C0B210BDA6
:101A500074574000B10F400010B504464FF4DA72DD
:101A60000549003018BF0120044B98472368586986
:101A7000C0F3400010BD00BF74574000B10F4000DC
:101A800010B5044640F2BD120549003018BF0120D0
:101A9000044B984723685869C0F3402010BD00BF2D
:101AA00074574000B10F400010B5044640F2CF1209
:101AB0000549003018BF0120044B98472368586936
:101AC00000F0010010BD00BF74574000B10F40008E
:101AD00010B5044640F20A220449003018BF012024
:101AE000034B9847A36902229A6010BD74574000C7
:101AF000B10F400010B5044640F2132205490030F2
:101B000018BF0120044B9847A3694FF400729A60F4
:101B100010BD00BF74574000B10F40000020704757
:101B20000020704708B5024B1868024B984708BD63
:101B3000BC01402001184000F0B52DED028B83B0B0
:101B4000B148B24CA047B24F00213846B14EB04721
:101B500001900146B048A047DDED017AF8EE677AC2
:101B6000DFEDAE8A87EEA87A17EE100AAC4DA847D3
:101B700001213846B04701900146AA48A047DDED53
:101B8000017AF8EE677A87EEA87A17EE100AA8476E
:101B900002213846B04701900146A348A047DDED39
:101BA000017AF8EE677A9FEDA18A87EE887A17EEC0
:101BB000100AA84705213846B047019001469C48C5
:101BC000A047DDED017AF8EE677A87EE887A17EEA6
:101BD000100AA84707213846B047019001469548AA
:101BE000A047DDED017AF8EE677A87EE887A17EE86
:101BF000100AA8470A213846B047019001468E488E
:101C0000A047DDED017AF8EE677A87EE887A17EE65
:101C1000100AA847894F00213846B0470190014675
:101C20008748A047DDED017AF8EE677A87EE887A7B
:101C300017EE100AA84702213846B0470190014626
:101C40008048A047DDED017AF8EE677A87EE887A62
:101C500017EE100AA84703213846B0470190014605
:101C60007948A047DDED017AF8EE677A87EE887A49
:101C700017EE100AA84704213846B04701900146E4
:101C80007248A047DDED017AF8EE677A87EE887A30
:101C900017EE100AA84705213846B04701900146C3
:101CA0006B48A047DDED017AF8EE677A87EEA87AF7
:101CB00017EE100AA84706213846B04701900146A2
:101CC0006448A047DDED017AF8EE677A87EEA87ADE
:101CD00017EE100AA8470A205F4B98475F48A047B5
:101CE0005F4BDB6B13F0010F00F06B815D48A04789
:101CF0005D48464B98475D4BDB6B13F0100F00F0CF
:101D000064815B48414B98475A48404B9847544B35
:101D1000DB6B13F0100F00F05C8157483B4B98478A
:101D2000564BDB6B13F0806F00F057815448374BF4
:101D30009847524BDB6B13F0807F00F05281514883
:101D4000324B9847504BDB6B13F0807F00F04D8196
:101D50004E482E4B98474C4BDB6B13F0806F00F0D6
:101D600048814B48294B9847444BDB6B13F0805F0D
:101D700000F043814748254B9847404BDB6B13F4F9
:101D8000002F00F03E814448204B98473B4BDB6BD3
:101D900013F4802F00F0398140481C4B9847374B93
:101DA000DB6B13F4006F00F034813D48174B98470C
:101DB000324BDB6B13F4806F00F02F813948134BEB
:101DC00098472E4BDB6B13F4007F00F02A813648D6
:101DD0000E4B98472C4BDB6B13F0805F00F0258196
:101DE00032480A4B9847254BDB6B13F4807F00F099
:101DF00020812F48054B9847234BDB6B13F0804F16
:101E000000F01B8156E000BF8C574000E12E4000DF
:101E1000EC024020D9134000C457400000F69F4414
:101E200021254000FC5740003C58400000009B44E6
:101E300080584000C058400004594000C003402072
:101E40004459400080594000B8594000F0594000C2
:101E5000285A4000605A4000112F4000985A400014
:101E600000120E40DC5A4000205B400000160E407D
:101E7000445B4000885B4000AC5B400000140E40B7
:101E8000F45B40003C5C4000000E0E40805C400073
:101E9000C45C4000045D4000445D40008C5D400037
:101EA000CC5D4000045E40004C5E4000945E40000B
:101EB000D45E40007548764B9847764BDB6B13F049
:101EC000800F00F0BE807448714B9847714BDB6BFC
:101ED00013F0400F00F0B98070486D4B98476D4B80
:101EE000DB6B13F0200F00F0B4806D48684B98470F
:101EF000684BDB6B13F0100F00F0AF806948644B48
:101F00009847644BDB6B13F0080F00F0AA8066481B
:101F10005F4B98475F4BDB6B13F0040F00F0A5801D
:101F200062485B4B98475B4BDB6B13F0020F00F092
:101F3000A0805F48564B98475E4BDB6B13F0400F19
:101F400000F09B805C48524B9847524BDB6B13F080
:101F5000005F40F0968059484D4B984758484C4E8A
:101F6000B0475848B047534C042727633220564D9A
:101F7000A84767635548B04704F500744FF480479D
:101F800027633220A84767635148B0474FF4005792
:101F900027633220A84767634E48B0474FF4805606
:101FA00026633220A84766634B484C4B98474FF452
:101FB000004626633220A847666303B0BDEC028B5F
:101FC000F0BD4748324B984792E64648304B984719
:101FD0009AE645482E4B9847A2E644482C4B984732
:101FE000A7E643482A4B9847ACE64248284B984717
:101FF000B1E64148264B9847B6E64048244B9847FF
:10200000BBE63F48224B9847C0E63E48204B9847E6
:10201000C5E63D481E4B9847CAE63C481C4B9847CE
:10202000CFE63B481A4B9847D4E63A48184B9847B6
:10203000D9E63948164B9847DEE63848144B98479E
:102040003BE73748124B984740E73648104B9847D4
:1020500045E735480E4B98474AE734480C4B9847BC
:102060004FE733480A4B984754E73248084B9847A4
:1020700059E73148064B98475EE73048044B98478C
:1020800063E72F48024B984768E700BF1C5F40009A
:10209000E12E400000140E405C5F4000A45F400051
:1020A000E45F40002860400074604000C46040006D
:1020B0001461400000120E404C614000B4614000C9
:1020C000DC6140001C624000010A40003C624000AC
:1020D0005C6240007862400090624000F12F400056
:1020E000005B4000685B4000D05B4000185C400033
:1020F000605C4000A45C4000E45C4000245D400063
:10210000685D4000AC5D4000E85D4000285E400036
:10211000705E4000B45E4000F85E40003C5F4000EE
:10212000805F4000C45F4000086040005060400095
:102130009C604000EC604000306140006C614000F9
:102140008C61400038B50C4C002120460B4DA8474F
:1021500001212046A84702212046A8470521204604
:10216000A84707212046A8470A212046A84720461D
:10217000034B984738BD00BFEC0240207D0940006A
:10218000BD09400038B50C4C002120460B4DA84736
:1021900002212046A84703212046A84704212046C3
:1021A000A84705212046A84706212046A8472046E3
:1021B000034B984738BD00BFC00340207D09400055
:1021C000BD09400008B50A4B98470A480A4B984792
:1021D0000A4B98470A4B98470A480B4CA0470B48B4
:1021E000A0470B48A0470B4B98470B4B9847FCE781
:1021F000D5014000E8014020410E4000452140004B
:1022000085214000A8624000F12F4000C4624000D8
:10221000EC624000391B4000612240000022014B6B
:102220001A707047C001402010B508490423CB60E4
:10223000074B0B6100230B75064C04312046064BFF
:1022400098472046054B984710BD00BFC00140206D
:102250001D224000EC034020B10B4000750B4000F4
:102260002DE9F041002304E00021694A22F813100F
:1022700001330B2BF8DD674B98470122664B1A7030
:1022800000242646A046644B1B78002B00F0978064
:1022900006216248624B98475F4B18835C4B9B8AD0
:1022A000984201D95A4B988204215C485C4B98476C
:1022B000594B1883564B9B88984201D9544B9880B0
:1022C00002215848564DA847534F3883012153489F
:1022D000A8474F4B1A883B8B9A4202D24C4A138034
:1022E000804605214F484E4DA8474B4F388301216A
:1022F0004A48A847464BDA8A3B8B9A4202D2444A64
:10230000D382064607214748454B9847424B1883DE
:102310003F4B5B88984201D93D4B58800A21414888
:102320003F4DA8473C4F388301213C48A847384BD4
:102330001A893B8B9A4202D2354A13810446032103
:102340003648374B9847344B1883314B5B8998425A
:1023500001D92F4B588102213048314B98472E4BE1
:1023600018832B4BB3F89E30984202D9284BA3F820
:102370009E0001212B482A4B9847274B1883244B5A
:102380009B89984201D9224B988105212348244BEF
:102390009847214B18831E4BDB89984201D91C4B6F
:1023A000D88100211F481E4B98471B4B1883184BA0
:1023B0001B8A98427FF667AF154B188263E764204B
:1023C000194FB84719481A4DA84707EE906AF8EE1A
:1023D000677A17EE900A174EB0476420B847164840
:1023E000A84707EE908AF8EE677A17EE900AB04792
:1023F0006420B8471148A84707EE904AF8EE677A7C
:1024000017EE900AB0476420B847BDE8F08100BFDE
:102410007804402029224000C0014020C003402011
:10242000D9134000EC024020010A40001C63400028
:10243000E12E40002125400030634000446340000D
:1024400058B908B50B4611461846054B9847002861
:1024500000DB08BD4FF0FF3008BD4FF0FF30704784
:10246000B9244000013802280BD808B50B461146A4
:102470001846054B9847002800DB08BD4FF0FF3099
:1024800008BD4FF0FF307047DD24400070B50646B0
:10249000064D2B6800219868054CA0472B68002149
:1024A0005868A047034B1E6070BD00BF2400402049
:1024B00001304000DC01402008B5064B1B6833B1F9
:1024C0000A46014692B21846034B984708BD0020C1
:1024D00008BD00BFDC014020510A400008B5064B92
:1024E0001B6833B10A46014692B21846034B98471F
:1024F00008BD002008BD00BFDC014020210A4000CB
:1025000010B5044C2046044B98472046034B98478F
:1025100010BD00BF38024020850F40008D244000D0
:1025200010B586B0054B984701AB0622044CA04776
:1025300001A90448044B984706B010BD1528400077
:10254000412E400060634000E12E400081F00041D8
:1025500002E000BF83F0004330B54FEA41044FEA88
:10256000430594EA050F08BF90EA020F1FBF54EA23
:10257000000C55EA020C7FEA645C7FEA655C00F0BF
:10258000E2804FEA5454D4EB5555B8BF6D420CDD90
:102590002C4480EA020281EA030382EA000083EA13
:1025A000010180EA020281EA0303362D88BF30BDB3
:1025B00011F0004F4FEA01314FF4801C4CEA113109
:1025C00002D0404261EB410113F0004F4FEA033368
:1025D0004CEA133302D0524263EB430394EA050FF3
:1025E00000F0A780A4F10104D5F1200E0DDB02FA62
:1025F0000EFC22FA05F2801841F1000103FA0EF2F6
:10260000801843FA05F359410EE0A5F120050EF1BB
:10261000200E012A03FA0EFC28BF4CF0020C43FAEC
:1026200005F3C01851EBE37101F0004507D54FF0F9
:10263000000EDCF1000C7EEB00006EEB0101B1F549
:10264000801F1BD3B1F5001F0CD349085FEA30008F
:102650004FEA3C0C04F101044FEA445212F5800F9A
:1026600080F09A80BCF1004F08BF5FEA500C50F137
:10267000000041EB045141EA050130BD5FEA4C0C1A
:10268000404141EB010111F4801FA4F10104E9D1A3
:1026900091F0000F04BF01460020B1FA81F308BF9A
:1026A0002033A3F10B03B3F120020CDA0C3208DD66
:1026B00002F1140CC2F10C0201FA0CF021FA02F141
:1026C0000CE002F11402D8BFC2F1200C01FA02F1B1
:1026D00020FA0CFCDCBF41EA0C019040E41AA2BFD6
:1026E00001EB0451294330BD6FEA04041F3C1CDA9E
:1026F0000C340EDC04F11404C4F1200220FA04F0BE
:1027000001FA02F340EA030021FA04F345EA030167
:1027100030BDC4F10C04C4F1200220FA02F001FA29
:1027200004F340EA0300294630BD21FA04F02946AB
:1027300030BD94F0000F83F4801306BF81F4801144
:102740000134013D4EE77FEA645C18BF7FEA655CB7
:1027500029D094EA050F08BF90EA020F05D054EA89
:10276000000C04BF1946104630BD91EA030F1EBF8E
:102770000021002030BD5FEA545C05D14000494192
:1027800028BF41F0004130BD14F580043CBF01F585
:10279000801130BD01F0004545F0FE4141F470016B
:1027A0004FF0000030BD7FEA645C1ABF1946104646
:1027B0007FEA655C1CBF0B46024650EA013406BF47
:1027C00052EA033591EA030F41F4002130BD00BF06
:1027D00090F0000F04BF0021704730B54FF48064C3
:1027E00004F132044FF000054FF0000150E700BF44
:1027F00090F0000F04BF0021704730B54FF48064A3
:1028000004F1320410F0004548BF40424FF000018F
:102810003EE700BF42004FEAE2014FEA31014FEAD2
:1028200002701FBF12F07F4393F07F4F81F0605121
:10283000704792F0000F14BF93F07F4F704730B590
:102840004FF4607401F0004521F0004120E700BF23
:1028500050EA010208BF704730B54FF000050AE0AA
:1028600050EA010208BF704730B511F0004502D5AB
:10287000404261EB41014FF4806404F132045FEAAD
:10288000915C3FF4DCAE4FF003025FEADC0C18BF52
:1028900003325FEADC0C18BF033202EBDC02C2F148
:1028A000200300FA03FC20FA02F001FA03FE40EADA
:1028B0000E0021FA02F11444C1E600BF70B54FF0DA
:1028C000FF0C4CF4E06C1CEA11541DBF1CEA1355BC
:1028D00094EA0C0F95EA0C0F00F0DEF82C4481EA24
:1028E000030621EA4C5123EA4C5350EA013518BF44
:1028F00052EA033541F4801143F4801338D0A0FB31
:1029000002CE4FF00005E1FB02E506F00042E0FBDD
:1029100003E54FF00006E1FB03569CF0000F18BFE3
:102920004EF0010EA4F1FF04B6F5007F64F540748B
:1029300004D25FEA4E0E6D4146EB060642EAC6211E
:1029400041EA55514FEAC52040EA5E504FEACE2E8B
:10295000B4F1FD0C88BFBCF5E06F1ED8BEF1004F8E
:1029600008BF5FEA500E50F1000041EB045170BD0A
:1029700006F0004646EA010140EA020081EA03014E
:10298000B4EB5C04C2BFD4EB0C0541EA045170BD4A
:1029900041F480114FF0000E013C00F3AB8014F1C4
:1029A000360FDEBF002001F0004170BDC4F100040D
:1029B000203C35DA0C341BDC04F11404C4F120058E
:1029C00000FA05F320FA04F001FA05F240EA0200E9
:1029D00001F0004221F0004110EBD37021FA04F61F
:1029E00042EB06015EEA430E08BF20EAD37070BDD9
:1029F000C4F10C04C4F1200500FA04F320FA05F038
:102A000001FA04F240EA020001F0004110EBD37039
:102A100041F100015EEA430E08BF20EAD37070BDA9
:102A2000C4F1200500FA05F24EEA020E20FA04F382
:102A300001FA05F243EA020321FA04F001F0004131
:102A400021FA04F220EA020000EBD3705EEA430EA2
:102A500008BF20EAD37070BD94F0000F0FD101F0D1
:102A60000046400041EB010111F4801F08BF013C0A
:102A7000F7D041EA060195F0000F18BF704703F048
:102A80000046520043EB030313F4801F08BF013DCF
:102A9000F7D043EA0603704794EA0C0F0CEA13558B
:102AA00018BF95EA0C0F0CD050EA410618BF52EA45
:102AB0004306D1D181EA030101F000414FF000004B
:102AC00070BD50EA410606BF1046194652EA430659
:102AD00019D094EA0C0F02D150EA013613D195EACD
:102AE0000C0F05D152EA03361CBF104619460AD115
:102AF00081EA030101F0004141F0FE4141F470011F
:102B00004FF0000070BD41F0FE4141F4780170BD0E
:102B100070B54FF0FF0C4CF4E06C1CEA11541DBF73
:102B20001CEA135594EA0C0F95EA0C0F00F0A7F875
:102B3000A4EB050481EA030E52EA03354FEA0131A2
:102B400000F088804FEA03334FF0805545EA1313B5
:102B500043EA12634FEA022245EA111545EA10657D
:102B60004FEA00260EF000419D4208BF964244F114
:102B7000FD0404F5407402D25B084FEA3202B61A33
:102B800065EB03055B084FEA32024FF480104FF407
:102B9000002CB6EB020E75EB030E22BFB61A75467B
:102BA00040EA0C005B084FEA3202B6EB020E75EB0E
:102BB000030E22BFB61A754640EA5C005B084FEA76
:102BC0003202B6EB020E75EB030E22BFB61A754643
:102BD00040EA9C005B084FEA3202B6EB020E75EB4E
:102BE000030E22BFB61A754640EADC0055EA060E0F
:102BF00018D04FEA051545EA16754FEA06164FEA52
:102C0000C30343EA52734FEAC2025FEA1C1CC0D1FD
:102C100011F4801F0BD141EA00014FF000004FF08A
:102C2000004CB6E711F4801F04BF01430020B4F14B
:102C3000FD0C88BFBCF5E06F3FF6AFAEB5EB030C03
:102C400004BFB6EB020C5FEA500C50F1000041EB00
:102C5000045170BD0EF0004E4EEA113114EB5C04CD
:102C6000C2BFD4EB0C0541EA045170BD41F48011A0
:102C70004FF0000E013C90E645EA060E8DE60CEAA8
:102C8000135594EA0C0F08BF95EA0C0F3FF43BAFC5
:102C900094EA0C0F0AD150EA01347FF434AF95EA7C
:102CA0000C0F7FF425AF104619462CE795EA0C0F60
:102CB00006D152EA03353FF4FDAE1046194622E72D
:102CC00050EA410618BF52EA43067FF4C5AE50EA07
:102CD00041047FF40DAF52EA43057FF4EBAE12E7F7
:102CE0004FF0FF3C06E000BF4FF0010C02E000BFD8
:102CF0004FF0010C4DF804CD4FEA410C7FEA6C5CBB
:102D00004FEA430C18BF7FEA6C5C1BD001B050EA5D
:102D1000410C0CBF52EA430C91EA030F02BF90EA48
:102D2000020F0020704710F1000F91EA030F58BF07
:102D3000994208BF90422CBFD8176FEAE37040F069
:102D4000010070474FEA410C7FEA6C5C02D150EA07
:102D5000013C07D14FEA430C7FEA6C5CD6D152EAC2
:102D6000033CD3D05DF8040B704700BF8446104687
:102D700062468C461946634600E000BF01B5FFF786
:102D8000B7FF002848BF10F1000F01BD4DF808ED56
:102D9000FFF7F4FF0CBF012000205DF808FB00BF27
:102DA0004DF808EDFFF7EAFF34BF012000205DF881
:102DB00008FB00BF4DF808EDFFF7E0FF94BF0120CE
:102DC00000205DF808FB00BF4DF808EDFFF7CEFFCF
:102DD00094BF012000205DF808FB00BF4DF808ED0E
:102DE000FFF7C4FF34BF012000205DF808FB00BFDF
:102DF0004FEA410212F5001215D211D56FF4787323
:102E0000B3EB625212D94FEAC12343F0004343EAC5
:102E1000505311F0004F23FA02F018BF40427047A0
:102E20004FF00000704750EA013005D111F000402A
:102E300008BF6FF0004070474FF00000704700BFC0
:102E4000F0B51C4685B000231546002206460F4605
:102E5000FFF7A6FF234618B12D2203F8012B013DF1
:102E6000002203920749019367220292009532469D
:102E70003B46086800F0B0FA002814BF2046002046
:102E800005B0F0BD2400402070B50D4E0D4CA41BC4
:102E9000A4100025A54209D10B4E0C4C03F034FBC5
:102EA000A41BA4100025A54205D170BD56F82530FD
:102EB00098470135EEE756F8253098470135F2E797
:102EC000146540001465400014654000186540001A
:102ED00002440346934200D1704703F8011BF9E70F
:102EE0000FB40A4B13B51C6824B1A36913B920466B
:102EF00000F02AFC05AB049AA1680193204601F07A
:102F0000E7F802B0BDE8104004B07047240040204C
:102F100038B5084B1C68054624B1A36913B920468F
:102F200000F012FCA26829462046BDE8384001F0B6
:102F30007BBB00BF2400402070B50E46054618B18B
:102F400083690BB900F000FCAB69AC6813B9284683
:102F500000F0FAFB234B9C4217D16C68A3891B0736
:102F60001DD52369DBB1013EA36816F8011F013BA3
:102F7000A360E9B9002B2EDA22460A21284600F088
:102F8000F5F8013011D00A2070BD174B9C4201D1D9
:102F9000AC68E3E7154B9C4208BFEC68DEE72146CE
:102FA000284600F035F90028DDD04FF0FF3070BD25
:102FB000002B04DAA269934206DB0A2904D02368B5
:102FC0005A1C22601970CFE72246284600F0CEF83E
:102FD0000130C9D1E9E723680A205A1C2260187021
:102FE00070BD00BF88634000A86340006863400074
:102FF000024B01461868FFF79FBF00BF2400402026
:1030000000294FF480630CBF0222002200F000B8B8
:103010002DE9F7431D46514B1E6804460F46904666
:1030200026B1B36913B9304600F08EFB4C4B9C427D
:1030300052D17468B8F1020F06D0B8F1010F00F256
:103040008980002DC0F286802146304600F012FBB8
:10305000616B41B104F14403994202D0304600F063
:1030600063FF002363630023A3616360A3891B06DE
:1030700003D52169304600F057FFA38923F44A6342
:1030800023F00303B8F1020FA3815DD001AB6A46C0
:103090002146304600F0E2FBA3891843A0812DBBF6
:1030A000009D284600F03EFC074600284ED1DDF882
:1030B0000090A9453CD14FF0FF30A38943F00203B3
:1030C000A3810023A36004F147032360236101234C
:1030D000636103B0BDE8F083224B9C4201D1B46828
:1030E000A8E7214B9C4208BFF468A3E7002FD8D083
:1030F000B36913B9304600F027FBB8F1010F08BFE0
:10310000A389276004BF43F00103A381A38927613A
:1031100013F0080065611BD013F0010018BF6D4269
:103120004FF000031DBFA360A5611846A560D0E75E
:10313000484600F0F7FB07460028BCD0A38943F0BF
:103140008003A3814D46D3E70020B6E7A946F5E703
:10315000A060BEE74FF0FF30BBE700BF2400402077
:1031600088634000A863400068634000F8B50E46DD
:103170001446054618B183690BB900F0E5FA214BF6
:103180009C422AD16C68A369A360A3891A072ED533
:10319000236963B323692068C01A6369F6B2984251
:1031A000374604DB2146284600F064FA28BBA368B2
:1031B000013BA36023685A1C22601E7063690130C2
:1031C000984204D0A389DB0719D50A2E17D12146CE
:1031D000284600F04FFA90B10FE00B4B9C4201D112
:1031E000AC68D0E7094B9C4208BFEC68CBE72146AE
:1031F000284600F00DF80028CCD04FF0FF373846B5
:10320000F8BD00BF88634000A863400068634000C9
:10321000324B70B51D6806460C4625B1AB6913B933
:10322000284600F091FA2E4B9C420FD16C68B4F9FD
:103230000C309AB215072CD4D00611D40922326072
:1032400043F04003A3814FF0FF3070BD254B9C42FB
:1032500001D1AC68EBE7244B9C4208BFEC68E6E781
:10326000510712D5616B41B104F14403994202D078
:10327000304600F059FE00236363A38923F0240342
:10328000A3810023636023692360A38943F00803BB
:10329000A38123694BB9A38903F42073B3F5007F9D
:1032A00003D02146304600F0FDFAA28912F0010356
:1032B0000CD00023A36063695B42A361236953B907
:1032C000B4F90C3013F08000BAD170BD920758BF2A
:1032D0006369A360F2E70020F7E700BF2400402005
:1032E00088634000A863400068634000F0B58BB07D
:1032F0000F4608A9109C049107A9039109A90291FE
:10330000611C0191022100919DF84460129D01F021
:10331000CBFA0146099842F20F73984204D138461D
:1033200001F00BFA0BB0F0BD0B783B7045B93CB91E
:103330007B1C11F8012F3AB9672E0BD1652614E0DA
:103340002E22BB1C7A70F4E7002CF5DD03F8012B6C
:10335000013CEEE7472E3CD019463025621A1A444C
:10336000002A33DC002CA8BF1B19411E0029B8BF5E
:10337000C0F101001A460991ACBF2B20099002F858
:10338000026BA8BF58700998BCBF2D245C706328DD
:1033900011460BDD642390FBF3F303F13001117050
:1033A0006FF0630101FB03030993511C099A0A237F
:1033B00092FBF3F303F1300008706FF0090000FB9B
:1033C000032330334B7000238B70ABE701F8015BB4
:1033D000C4E74526C9E700002DE9F04316468BB047
:1033E0001D4681460022002330462946DDF84880EC
:1033F000139C159FFFF7D4FC08B105F1004500228E
:10340000002330462946FFF7C1FC38B13023237032
:103410000023637020460BB0BDE8F0834EA3D3E9D0
:10342000002330462946FFF7C5FC68B19DF85030AF
:10343000019308F1FF330093029732462B46214651
:103440004846FFF753FFE5E7404600F043FD0246DC
:103450000B4630462946FFF7B7FC0028E6D100228C
:103460003F4B29463046FFF79BFC09A908AA07AB4A
:10347000049103920293CDF80480E8B103230093F2
:1034800032462B46484601F00FFA079A42F20F7374
:103490009A4213D023460178079EA8EB0302054603
:1034A00022440130A1B9B61A4FF0300EB0180028EE
:1034B00037DC79B107900DE00223E0E701462046B2
:1034C00001F03BF9A6E7013E03F8011B0796E2E78E
:1034D000002EF8DC0FB9297801B39C4202BF631CAF
:1034E000302121702E2119700799013300204FF0EF
:1034F000300E00290E4620DB00B10791013D15F882
:10350000011F09B1002A20DC47B118463025111AE5
:10351000194400291DDC002AA8BF9B1800221A703C
:1035200078E7002AC5DD03F801EB013A0121BDE788
:1035300003F801EB013A0120DBE7002A01F1010168
:10354000F6DC0028DAD00796D8E703F8011B013A29
:10355000D5E700F8015BDAE72D431CEBE2361A3FB2
:103560000000F03F8A892DE9F041054610070C461E
:103570005AD44B68002B05DC0B6C002B02DC0020BE
:10358000BDE8F081E66A002EF9D0002312F48052E3
:103590002F682B6033D0606DA3895A0705D5636807
:1035A000C01A636B0BB1236CC01A00230246E66A93
:1035B000216A2846B047431CA38906D129681D29E2
:1035C0004BD82B4ACA40D60747D500226260D9049F
:1035D0002269226004D5421C01D12B6803B96065C1
:1035E000616B2F600029CAD004F14403994202D0D4
:1035F000284600F099FC00206063BDE8F081216A54
:1036000001232846B047411CC6D12B68002BC3D0EC
:103610001D2B01D0162B01D12F60B0E7A38943F0F9
:103620004003A381BDE8F0810F69002FA7D0930765
:103630000E6808BF4B690F6018BF0023A6EB070890
:103640008B60B8F1000F9ADD43463A46216AA66ABC
:103650002846B047002807DCA38943F04003A38134
:103660004FF0FF30BDE8F0810744A8EB0008E8E721
:103670000100402038B50B6905460C46DBB118B196
:1036800083690BB900F060F80C4B9C4209D16C685F
:10369000B4F90C307BB121462846BDE83840FFF72D
:1036A00061BF074B9C4201D1AC68F1E7054B9C42DE
:1036B00008BFEC68ECE7002038BD00BF886340001D
:1036C000A863400068634000014900F0A9B800BF4A
:1036D00075364000002310B50446036043608360E4
:1036E00081814366C2810361436183611946082277
:1036F0005C30FFF7EDFB054B6362054BA362054BA6
:10370000E362054B2462236310BD00BFB546400051
:10371000D74640000F4740003347400070B54A1E6F
:10372000682555430E4605F1740100F04BFC044634
:1037300040B1002180E842000C30A06005F1680231
:10374000FFF7C6FB204670BD836910B5044633BB46
:103750008364C3640365124B124A1B6882629842F9
:1037600004BF0123836100F01FF86060204600F071
:103770001BF8A060204600F017F80022E06004214A
:103780006068FFF7A7FF01220921A068FFF7A2FFE9
:1037900002221221E068FFF79DFF0123A36110BD03
:1037A00064634000C9364000F8B51C4B1E68B3691D
:1037B000074613B93046FFF7C7FF4836B468736849
:1037C000013B03D5336833B13668F7E7B4F90C50E1
:1037D0006DB16834F4E704213846FFF79FFF30608D
:1037E0000028F1D10C233B6004462046F8BD4FF67B
:1037F000FF73E3810123A38165662560A560656091
:1038000025616561A5610822294604F15C00FFF786
:103810005FFB6563A563A564E564E6E76463400058
:103820002DE9F8438046894600F14804002614B982
:103830003046BDE8F883A5686768013F01D5246874
:10384000F5E7AB89012B07D9B5F90E30013303D069
:1038500029464046C84706436835EEE770B50E4630
:10386000B1F90E10002990B014461D4607DA002366
:103870002B60B3891A0610D44FF480630EE001AABE
:1038800001F0E4FD0028F2DB029A02F47042A2F596
:1038900000535A425A412A60EEE740230020236039
:1038A00010B070BD8B8973B59D0706460C4607D5D1
:1038B00004F14703236023610123636102B070BDFB
:1038C00001AB6A46FFF7CAFF00990546304600F093
:1038D00079FB48B9B4F90C309A05EFD423F003030F
:1038E00043F00203A381E3E70D4BB362A389206099
:1038F00043F08003A381009B6361019B20615BB166
:10390000B4F90E10304601F0B3FD28B1A38923F0BD
:10391000030343F00103A381A3891D43A581CDE7E0
:10392000C9364000024B0146186800F04BBB00BF8F
:103930002400402070B5456A04460E463DB910206B
:10394000FFF7F0FF6062456085600560C560656AED
:10395000EB6883B1636ADB6853F82600B8B90121CC
:1039600001FA06F56A1D9200204600F0CFFA60B118
:10397000466085600EE021220421204600F0C6FA50
:10398000636AE860DB68002BE4D1002070BD026848
:1039900043F8262000230361C36070BD70B5446AFC
:1039A00006460D463CB91020FFF7BCFF706244602C
:1039B00084600460C4603DB1736A6A68DB6853F870
:1039C0002210296043F8225070BD2DE9F0410D69A5
:1039D0001F4606460C4601F1140E0023DEF80000D7
:1039E00081B202FB01710F0C000C02FB007089B266
:1039F000013301EB00419D424FEA10474EF8041B92
:103A0000ECDCD7B1A3689D4212DB6168304601311E
:103A1000FFF790FF2269023204F10C018046920008
:103A20000C3001F09DFD21463046FFF7B7FF4446BC
:103A300004EB850301355F6125612046BDE8F08117
:103A4000020C12040346B2B90304102013F07F4F96
:103A500004BF1B02083013F0704F04BF1B01043079
:103A600013F0404F04BF9B000230002B06DB5B00CD
:103A700003D5013070470020E8E720207047036835
:103A800013F0070201460BD0DA0723D4980749BF89
:103A90005B089B0801200B605CBF0B600220704735
:103AA00098B2A8B91B0C102013F0FF0F04BF1B0A1B
:103AB00008301A0704BF1B0904309A0704BF9B088B
:103AC0000230DA0702D45B0806D001300B60704781
:103AD0001046E9E7002070472020704710B50C46DB
:103AE0000121FFF727FF01224461026110BD2DE98A
:103AF000F74F14460A6923699A42B8BF0B468946B4
:103B0000BCBFA1461C46D9F81070D4F810A0D9F853
:103B10000830D9F8041007EB0A069E42C8BF0131ED
:103B2000FFF708FF00F1140505EB86082B4600227D
:103B3000434516D304F1140209F1140102EB8A0380
:103B400001EB87070193019C944213460CD8002E89
:103B500003DD58F8043D002B54D0066103B0BDE8E6
:103B6000F08F43F8042BE3E7B3F800A00432BAF176
:103B7000000F20D0AE4689464FF0000C59F8044B98
:103B8000BEF800B0A3B20AFB03B34FEA144BDEF851
:103B9000004063444FEA144C0AFB0BC404EB13448B
:103BA0009BB243EA04434F454FEA144C4EF8043BA2
:103BB000E4D8CEF800C032F8029CB9F1000F1FD053
:103BC0002B68AE468C464FF0000ABCF80040BEF8A9
:103BD00002B009FB04B4A2449BB243EA0A434EF884
:103BE000043B5CF8043BBEF800401B0C09FB03439C
:103BF00003EB1A4367454FEA134AE6D8CEF8003084
:103C00000435A0E7013EA2E72DE9F843154612F07E
:103C1000030206460F4607D0013A214C002354F810
:103C20002220FFF7D2FE0746AD1035D0746A3CB9AA
:103C30001020FFF777FE7062446084600460C46007
:103C4000D6F82480D8F808404CB940F271213046AB
:103C5000FFF744FF0023C8F80800044603604FF054
:103C60000008EB070AD5394622463046FFF73FFFEA
:103C7000394681463046FFF791FE4F466D100BD016
:103C8000206838B9224621463046FFF730FF2060D1
:103C9000C0F800800446E4E73846BDE8F88300BF7A
:103CA000B86440002DE9F0470C464FEA621A2369D8
:103CB00049680AEB0309A3680746164609F101059E
:103CC000AB4231DB3846FFF735FE0022804600F17B
:103CD0001403114652452ADB20692AEAEA7A04F1E4
:103CE000140116F01F0203EB8A0301EB800E22D0B1
:103CF000C2F1200C00200E689640304343F8040BBC
:103D000051F8040B8E4520FA0CF0F4D8186008B175
:103D100009F10205013D3846C8F810502146FFF769
:103D20003DFE4046BDE8F08701315B00C8E743F83F
:103D300022100132CEE7043B51F8042B43F8042F44
:103D40008E45F9D8E6E703690A699B1A30B50CD1AC
:103D50009200143014318418114454F8045D51F861
:103D6000042D954203D005D30123184630BDA0424F
:103D7000F3D3FAE74FF0FF33F7E72DE9F0470D46AD
:103D80000746114628461446FFF7DDFF061E08D1F8
:103D900031463846FFF7CEFD012303614661BDE899
:103DA000F087A4BF23462C4638466168A6BF1D464F
:103DB00000260126FFF7BEFD2B69C660266905F1C6
:103DC000140904F1140202EB860709EB830800F1E1
:103DD00014054FF0000C52F804AB59F8044B1CFAD0
:103DE0008AF1A3B2C91A230CC3EB1A4303EB214394
:103DF00089B24FEA234CC84541EA0343964645F849
:103E0000043BE8D8BE4505D355F8043D8BB10661A7
:103E1000BDE8F0875EF8041B1CFA81F31A1402EB6C
:103E200011429BB243EA02434FEA224C45F8043B5D
:103E3000E8E7013EE8E72DE9F34101211C46904601
:103E4000089E099DFFF776FDC4F31302C4F30A54DC
:103E5000074634BB0192B8F1000F27D002A840F802
:103E6000088DFFF70CFE0099F0B1019AC0F1200314
:103E700002FA03F30B43C2407B610192019BBB61D9
:103E8000002B14BF022101213961C4B1A4F23344D3
:103E900004443460C0F135002860384602B0BDE803
:103EA000F08142F48012D5E77961E7E701A8FFF7D6
:103EB000E6FD019B7B61012139612030E5E707EBDD
:103EC0008103A0F2324030601869FFF7B9FDC0EB02
:103ED0004110E1E71728D0B5044605DC084B03EB99
:103EE000C004D4E90001D0BD0649074F00200026D8
:103EF00032463B46FEF7E2FC013CF9D1D0BD00BFA3
:103F0000F06340000000F03F0000244038B502FBA1
:103F100001F4214600F056F8054618B1224600216A
:103F2000FEF7D6FF284638BD38B50546002945D0EE
:103F300051F8043C0C1F002BB8BFE41801F01BFB28
:103F40001F4A1368104633B9636014602846BDE801
:103F5000384001F011BBA3420CD92168621893428A
:103F600004BF1A685B68636004BF52182260046073
:103F7000ECE713465A680AB1A242FAD919685818F0
:103F8000A0420BD120680144581882421960DDD14B
:103F9000106852685A6001441960D7E702D90C23AF
:103FA0002B60D3E7206821188A4204BF1168526849
:103FB000626004BF091821605C60C7E738BD00BFBC
:103FC000E001402070B5CD1C25F0030508350C2D0F
:103FD00038BF0C25002D064601DBA94203D90C236E
:103FE0003360002070BD01F0C6FA234A14682146F0
:103FF00091B9224C23681BB9304600F04BFB20607E
:104000002946304600F046FB431C26D10C23336082
:10401000304601F0B1FAE4E70B685B1B1AD40B2BB6
:104020000FD90B60CD50CC18304601F0A5FA04F141
:104030000B00231D20F00700C31A1BD05A42E25088
:1040400070BD8C420DBF63684B686360136018BF1E
:104050000C46E9E70C464968CAE7C41C24F003048F
:10406000A04205D0211A304600F014FB0130CDD01B
:104070002560D9E770BD00BFE0014020E401402089
:104080009368013B002B10B4936008DA9469A34253
:1040900002DBCBB20A2B02D110BCFFF767B8136862
:1040A000581C10601970C8B210BC7047F8B50646AD
:1040B0000F461446D518AC4201D1002007E03A461D
:1040C00014F8011B3046FFF7DBFF431CF3D1F8BDAA
:1040D0002DE9F04F9DB00C4617460393064618B1E4
:1040E00083690BB9FFF730FB7C4B9C4257D1746856
:1040F000A38918075DD52369002B5AD000230993A3
:1041000020238DF8293030238DF82A304FF0010B11
:10411000B846454615F8013B002B55D1B8EB070AC8
:104120000BD053463A4621463046FFF7BFFF0130D9
:1041300000F0C480099B5344099398F80030002B89
:1041400000F0BC8000234FF0FF32049307930592E8
:1041500006938DF853301A9305222978604801F0B0
:10416000AFF905F10108049B002831D1D90644BFFD
:1041700020228DF853201A0744BF2B228DF853209C
:104180002A782A2A2CD0079A00210A20A84601352D
:1041900098F80030303B092B6DD971B326E0514BB4
:1041A0009C4201D1B468A3E74F4B9C4208BFF4681E
:1041B0009EE721463046FFF72BF800289ED04FF0AF
:1041C000FF301DB0BDE8F08F252BA7D0A846A0E793
:1041D000434A801A0BFA00F0184304904546BBE7A7
:1041E000039A111D12680391002A01DB079204E073
:1041F000524243F002030792049398F800302E2BAA
:1042000010D198F801302A2B08F1010137D1039B16
:104210001A1D1B680392002BB8BF4FF0FF3308F143
:1042200002080593314D98F800100322284601F04A
:1042300047F940B14023401B03FA00F0049B0343BD
:10424000049308F1010898F8001029488DF8281007
:10425000062208F1010701F033F9002834D0254B7C
:1042600003BB039B073323F0070308330393099B26
:104270004B4409934CE700FB0232012186E70023FF
:10428000059318460A258846013198F80020303AEF
:10429000092A03D9002BC5D00590C3E705FB0020F0
:1042A0000123F0E703AB00932246134B04A93046E9
:1042B000AFF30080B0F1FF3F8146D8D1A3895B0600
:1042C0003FF57DAF09987CE703AB009322460A4B8C
:1042D00004A9304600F088F8ECE700BF886340008E
:1042E000C4644000A863400068634000CA644000A2
:1042F000CE64400000000000AD4040002DE9F047D2
:1043000091461F468A680B69DDF820809342B8BF4A
:104310001346C9F8003091F8432006460C4612B106
:104320000133C9F800302368990642BFD9F800303C
:104330000233C9F80030256815F0060507D104F1ED
:10434000190AE368D9F800209B1A9D4229DB94F8EA
:1043500043302268003318BF012392062ED404F1A3
:10436000430239463046C047013021D02368E56812
:10437000D9F8002003F00603042B08BFAD1AA36888
:1043800022690CBF25EAE57500259342C4BF9B1A3C
:10439000ED184FF000091A344D451BD10020BDE83F
:1043A000F0870123524639463046C047013003D1D9
:1043B0004FF0FF30BDE8F0870135C2E7E1185A1C25
:1043C000302081F84300224494F8451082F84310CD
:1043D0000233C4E70123224639463046C047013044
:1043E000E6D009F10109D7E72DE9F04317460A7E27
:1043F00085B06E2A984606460C460C9B01F1430E8A
:1044000000F0BC801AD8632A2ED00AD8002A00F007
:10441000C880582A00F08A8004F1420584F84220BE
:104420002AE0642A01D0692AF6D121681A6811F0BD
:10443000800F23D0111D1960136827E0732A00F044
:10444000B48008D86F2A2AD0702AE5D10A6842F0D1
:1044500020020A6003E0752A21D0782ADCD1782274
:1044600084F845206E4964E01A6801F14205111D87
:104470001960136884F842300123A3E011F0400F63
:1044800002F104011960D7D0B2F90030002B03DA31
:104490002D225B4284F8432062490A2217E02068FB
:1044A000196810F0800F03D0081D18600B6806E033
:1044B00010F0400F01F104001860F7D00B88594943
:1044C0006F2A14BF0A220822002084F8430065687E
:1044D000A560002DC0F29C80206820F004002060C0
:1044E000002B3FD1002D40F095807546082A0BD156
:1044F0002368DA0708D5236962689A42DEBF302351
:1045000005F8013C05F1FF35AEEB05032361CDF85D
:1045100000803B4603AA21463046FFF7EFFE0130FC
:1045200055D14FF0FF3005B0BDE8F08381F845204C
:104530003C492268186812F0800F00F104051D60E4
:1045400001D0036802E05506FBD50388D00744BFBD
:1045500042F0200222601BB9226822F02002226071
:104560001022B1E77546B3FBF2F002FB1033CB5CCF
:1045700005F8013D03460028F5D1B7E708681A6839
:10458000496910F0800F04D0101D1860136819607D
:1045900007E010F0400F02F1040018601368F6D035
:1045A0001980002323617546B1E71A68111D19604F
:1045B000156862680021284600F082FF08B1401BA0
:1045C000606063682361002384F843309FE72369B8
:1045D0002A4639463046C0470130A2D023689B079F
:1045E00007D5002504F11909E368039A9B1A9D4237
:1045F00005DBE068039B9842B8BF184693E70123A8
:104600004A4639463046C04701308AD00135EBE78B
:10461000002BA7D10B7884F8423004F1420565E7FE
:10462000E6644000D564400070B50D461446064669
:1046300018B183690BB9FFF787F8134B9C4212D16D
:104640007468A368013B002BA36016DAA269934249
:1046500002DBEBB20A2B10D1224629463046BDE8D8
:104660007040FEF783BD094B9C4201D1B468E8E776
:10467000074B9C4208BFF468E3E723685A1C22609A
:104680001D70E8B270BD00BF88634000A8634000A1
:104690006863400038B5064C002305460846236091
:1046A000FCF72CFD431C02D1236803B12B6038BDFD
:1046B000D804402010B50C46B1F90E1000F05EFF92
:1046C0000028ABBF636DA3891B1823F48053ACBFD4
:1046D0006365A38110BD2DE9F0411F468B89DB0581
:1046E00005460C46164605D502230022B1F90E10E8
:1046F00000F0CEFEA389B4F90E1023F48053A381F9
:1047000032463B462846BDE8F04100F01FB810B5E0
:104710000C46B1F90E1000F0BBFE431CA38915BF77
:10472000606523F4805343F48053A38118BFA381B1
:1047300010BDB1F90E1000F01BB8034611F8012BA3
:1047400003F8012B002AF9D17047000038B5074C57
:10475000054608461146002222601A46FDF782FEF1
:10476000431C02D1236803B12B6038BDD80440201C
:1047700038B5064C0023054608462360FCF7D0FCFC
:10478000431C02D1236803B12B6038BDD8044020FC
:104790002DE9F74F03690C699C42804600F3828043
:1047A000013C01F114074FEA840E00F1140657F89A
:1047B000245056F8240006EB0E03013507EB0E09D2
:1047C0000193B0FBF5F595B34FF0000A3846B446B7
:1047D000D34650F8042B93B205FB03A34FEA134AC8
:1047E0009BB2ABEB0303120CBCF800B005FB02A2BA
:1047F00013FA8BF34FEA124A1FFA82FBDCF800200F
:10480000CBEB124202EB23429BB243EA02438145C7
:104810004FEA224B4CF8043BDBD256F80E3033B94A
:10482000019B043B9E421A4630D3C8F810404046D4
:10483000FFF789FA002825DB013530464FF0000EDE
:1048400057F8042BD0F800C093B2AEEB0303120C60
:1048500013FA8CF3C2EB1C4202EB23429BB243EAF5
:104860000243B9454FEA224E40F8043BE8D256F8DD
:10487000242006EB84032AB9043B9E421A460BD33C
:10488000C8F81040284603B0BDE8F08F1268043B1A
:10489000002ACAD1013CC5E71268043B002AEFD1C7
:1048A000013CEAE70020EEE72DE9F04F466A95B0BB
:1048B0000446219DCDE902233EB91020FFF732F8CE
:1048C0006062466086600660C660636A196851B1BE
:1048D0005A684A60012393408B602046FFF75EF8D8
:1048E000636A00221A60039B002BBFBF01232B6069
:1048F000039B23F00043B2BF039300232B60DDF83A
:104900000C90A94B33EA09031BD1209A42F20F7392
:104910001360029B23B9C9F31300002800F08185BE
:10492000229B53B9A14B21E0A14B06930833229A55
:104930001360069815B0BDE8F08F9C4B06930333C7
:10494000F5E7DDE902670022002330463946FEF72D
:104950001DFA804660B1209A01231360229B002B30
:1049600000F05C85934B229A1360013B0693E0E7CD
:1049700012AB019313AB009332463B462046FFF740
:104980005AFAC9F30A558246002D7CD0C7F31303A7
:1049900043F07F51304641F44011A5F2FF35CDF888
:1049A00040800022844BFDF7D5FD79A3D3E9002395
:1049B000FDF784FF78A3D3E90023FDF7CDFD06467C
:1049C00028460F46FDF714FF75A3D3E90023FDF732
:1049D00075FF02460B4630463946FDF7BDFD0646DB
:1049E0000F46FEF705FA002283460023304639467B
:1049F000FEF7D6F958B15846FDF7FAFE02460B46C7
:104A000030463946FEF7C2F908B90BF1FF3BBBF15E
:104A1000160F57D8694901EBCB01DDE90223D1E933
:104A20000001FEF7DBF900284ED00BF1FF3B00231D
:104A30000D93129B5D1B6B1E079343BF0023C5F1B3
:104A4000010807934FF00008BBF1000F3EDB079B06
:104A5000CDF830B05B440793002308931E9B092BCD
:104A600000F2B080052BC4BF043B1E931E9BA3F134
:104A70000203CCBF00260126032B00F2AF80DFE843
:104A800003F083852D77139B129D1D4405F232435D
:104A9000202B11DD029A05F21240C3F1400322FAE5
:104AA00000F009FA03F31843FDF792FE0123A1F188
:104AB000F871013D109374E7C3F12000029B03FAE3
:104AC00000F0F1E70123B3E70D90B2E7CBF100036B
:104AD00008930023A8EB0B080C93BFE7012309936D
:104AE0001F9B002B7DDD04939946656A00226A6056
:104AF000042101F114029A4278D969682046FEF730
:104B000019FF636A28601B680693B9F10E0F00F263
:104B1000EE80002E00F0EB80DDE90223BBF1000FF8
:104B2000CDE90E2377DD254A0BF00F0302EBC3031B
:104B3000D3E900234FEA2B16F006CDE90A235AD514
:104B40001F4BDDE90E01D3E90823FDF7E1FFCDE9B5
:104B5000020106F00F060325194F002E4DD1DDE9A5
:104B60000A23DDE90201FDF7D3FFCDE902016CE084
:104B7000012309931F9B5B4403F1010904934B46F6
:104B8000012BB8BF0123B0E70023A8E70023F0E71B
:104B900061436F63A787D23FB3C8608B288AC63F43
:104BA000FB799F501344D33F0000F07F0065400025
:104BB000F7644000056540000000F83FF0634000E6
:104BC000C8634000012600231E9309964FF0FF336F
:104BD00004939946002212231F9286E7012309932A
:104BE000F4E70123049399461A46F5E76A6801320F
:104BF0006A6049007DE70225AEE7F10708D5DDE9E7
:104C00000A01D7E90023FDF759FECDE90A01013574
:104C100076100837A1E700F0A580CBF10006A34B82
:104C2000A34F06F00F0203EBC203D3E90023DDE933
:104C30000E01FDF743FECDE90201361100230225E6
:104C4000002E40F08480002B8FD10D9B002B00F0B4
:104C50008B80DDE90223CDE90A23DDE90A01002288
:104C6000944BFEF79DF800287ED0B9F1000F7BD061
:104C7000049B002B37DD00228F4BDDE90A01FDF795
:104C80001DFECDE90201049E0BF1FF3701352846D8
:104C9000FDF7AEFDDDE90223FDF710FE874B002294
:104CA000FDF75AFCCDE90A010B9BA3F150750B955A
:104CB000002E5CD10022824BDDE90201FDF74AFCA7
:104CC0000A9A2B46CDE90201FEF788F8002840F049
:104CD000F7820A9A05F10043DDE90201FEF760F868
:104CE000002840F0EB82DDE90E23CDE90223139B7F
:104CF000002BC0F25181BBF10E0F00F34D816B4BC5
:104D000003EBCB03D3E90023CDE904231F9B002B46
:104D100080F2DA80B9F1000F00F3D68040F0CD8246
:104D20000022674BDDE90401FDF7C8FDDDE9022340
:104D3000FEF74AF84E464F46002840F0A482069BF4
:104D4000069A5D1C312313700BF1010B9FE2F207F1
:104D500005D5D7E90023FDF7B1FD01350123761014
:104D600008376DE7022570E75F464E468FE7069AE3
:104D70004E4B32441192099A711E002A48D003EB1F
:104D8000C103D3E9002300204E49FDF7C1FEDDE950
:104D90000A23FDF7DFFBCDE90A01069DDDE90201EB
:104DA000FEF726F80646FDF723FD02460B46DDE931
:104DB0000201FDF7CFFB303605F8016BDDE90A2370
:104DC000CDE90201FDF7ECFF002865D1DDE9022302
:104DD00000203849FDF7BEFBDDE90A23FDF7E0FFBF
:104DE000002840F0B980119B9D423FF47CAF002227
:104DF000314BDDE90A01FDF761FD0022CDE90A0131
:104E00002D4BDDE90201FDF759FDCDE90201C5E7B2
:104E100003EBC101D1E90001DDE90A23FDF74EFDF5
:104E2000CDE90A01069DDDE90201FDF7E1FF064635
:104E3000FDF7DEFC303602460B46DDE90201FDF7E8
:104E400089FB05F8016B119BAB42CDE902014FF0E4
:104E5000000225D11B4BDDE90A01FDF77DFB02466F
:104E60000B46DDE90201FDF7B9FF002874D1DDE949
:104E70000A2300201349FDF76DFB02460B46DDE9CE
:104E80000201FDF78DFF00283FF42DAF15F8013C1E
:104E9000302B05F1FF3201D0BB464CE01546F5E75B
:104EA000054BFDF70BFDCDE90201BCE7F0634000C7
:104EB000C86340000000F03F0000244000001C4098
:104EC000000014400000E03FDDE90267069DDDE9D7
:104ED000042330463946FDF71BFEFDF789FF804667
:104EE000FDF786FCDDE90423FDF7E8FC02460B46EE
:104EF0003046394608F13006FDF72CFB05F8016B0A
:104F0000069EAE1BB14502460B4638D1FDF724FB89
:104F100006460F4602460B46DDE90401FDF740FF59
:104F2000C8B932463B46DDE90401FDF72FFF10B159
:104F300018F0010F0FD151462046FEF72FFD002338
:104F4000209A2B700BF101031360229B002B3FF47E
:104F5000F0AC1D60EDE45F4615F8012C392A05F12F
:104F6000FF3306D1069A9A4207D1302313700137D6
:104F700013461A7801321A708EE71D46ECE70022BC
:104F8000B44BFDF79BFC0022002306460F46FDF7BD
:104F9000FDFE00289BD0CEE7099A002A00F0298167
:104FA0001E9A012A00F30E81109A002A00F0068151
:104FB00003F23343089E4546079A01211A442046CE
:104FC00098440792FEF78AFD0746002D0BDD079BEC
:104FD000002B08DDAB42079AA8BF2B46A8EB0308BD
:104FE000ED1AD31A0793089BFBB1099B002B00F025
:104FF0000481002E11DD394632462046FEF704FEBC
:105000005246014607462046FEF771FD51460A907A
:105010002046FEF7C3FC0A9B9A46089B9A1B04D0C5
:1050200051462046FEF7F0FD824601212046FEF75C
:1050300055FD0C9B002B064640F3E1801A460146C5
:105040002046FEF7E1FD1E9B012B064640F3DA8069
:1050500000230893336906EB83031869FEF7F0FC1D
:10506000C0F12000079B184410F01F0000F0F080F2
:10507000C0F12003042B40F3E280079BC0F11C0029
:105080008044054403440793B8F1000F05DD514601
:1050900042462046FEF706FE8246079B002B05DDB2
:1050A00031461A462046FEF7FDFD06460D9B002BB5
:1050B00000F0D28031465046FEF745FE002880F2CF
:1050C000CB80002351460A222046FEF77EFC099B36
:1050D0000BF1FF3B8246002B00F0AA8100233946EA
:1050E0000A222046FEF771FC049B002B074603DCD6
:1050F0001E9B022B00F3B880002D05DD39462A46A1
:105100002046FEF7CFFD0746089B002B00F01081DC
:1051100079682046FEF70EFC3A6902320546920095
:1051200007F10C010C3000F01BFA01222946204641
:10513000FEF7B8FD029BDDF81880079703F0010326
:105140000746089331465046FFF722FB079905466C
:1051500000F130095046FEF7F6FD3A46029031461E
:105160002046FEF70AFEC3680246002B40F0E280AC
:10517000014609905046FEF7E6FD099A034611469E
:1051800020460993FEF70AFC099B002B40F0D480CF
:105190001E9A002A40F0D080089A002A40F0CC8065
:1051A000B9F1390F00F0E880029B002B01DD05F119
:1051B000310908F1010588F800906AE0129BC3F1FB
:1051C0003603F7E6089B09F1FF36B342BFBF089BE1
:1051D0000896F21A0C9BB7BF9B189E1B0C930026D7
:1051E000B9F1000FB9BFA8EB0905002345464B46AE
:1051F000E2E6089E099F4546E7E6089A10E71E9BEF
:10520000012B18DC029BB3B9039BC3F31303A3B9AF
:10521000039B23F000431B0D1B052BB1079B0133A0
:10522000079308F10108012308930C9B002B7FF4DE
:1052300011AF012016E70023F6E7029BF4E73FF4E5
:1052400023AF079A1C331A4498441D4413461AE7A7
:105250000346F6E700002440B9F1000F33DC1E9B43
:10526000022B30DDCDF81090049B63B93146052246
:105270002046FEF7AAFB014606465046FEF763FDB0
:1052800000283FF75CAD1F9B069D6FEA030B0023D0
:10529000079331462046FEF781FB002F3FF44BAECB
:1052A000079B2BB1BB4203D019462046FEF776FB85
:1052B00039462046FEF772FB3DE600263746E2E718
:1052C000BB4637463BE5099BCDF81090002B7FF499
:1052D00013AF069D31465046FFF75AFA00F13009E8
:1052E00005F8019B069B049AEB1A9A4200F383800F
:1052F000069B012AACBF9B180133984600230793F5
:10530000514601222046FEF7CDFC31468246FEF78B
:105310001AFD002835DC02D119F0010F31D14546C4
:1053200015F8013C302B05F1FF32B2D11546F7E7F5
:105330003846FFE6012322E7029A002A04DB29D13E
:105340001E9A3ABB089A2ABB002B7FF732AF514610
:1053500001222046FEF7A6FC31468246FEF7F3FC0A
:10536000002805DC7FF425AF19F0010F3FF421AFD1
:10537000B9F1390F7FF41BAF392388F8003008F1F9
:105380000108454615F8013C392B05F1FF323AD0AA
:1053900001333FE0002B08F1010505DDB9F1390FBC
:1053A000EAD009F1010906E7069B049A05F8019C79
:1053B000EB1A9342A846A3D0514600230A22204666
:1053C000FEF703FB079B0799BB4282464FF00003A1
:1053D0004FF00A02204604D1FEF7F7FA079007467D
:1053E000B0E6FEF7F2FA002307900A22394620467B
:1053F000FEF7EBFAF3E7514600230A222046FEF7B8
:10540000E4FA824666E7069B934205D1069A0BF1C1
:10541000010B312313703CE71546B3E7094BFFF747
:10542000A5BA229B002B7FF47FAA074BFFF79EBAF9
:10543000049B002B3FF74DAF1E9B022B7FF749AF1C
:1054400012E700BF04654000F764400038B5074C20
:1054500000230546084611462360FBF764FE431C03
:1054600002D1236803B12B6038BD00BFD8044020AF
:1054700038B5064C0023054608462360FBF758FE66
:10548000431C02D1236803B12B6038BDD8044020EF
:1054900038B5074C054608461146002222601A46D8
:1054A000FBF748FE431C02D1236803B12B6038BDD3
:1054B000D8044020000000000000000000000000B0
:1054C00001F0FF01102A2BDB10F0070F08D010F8B5
:1054D000013B013A8B422DD010F0070F42B3F6D1B9
:1054E000F0B441EA012141EA014122F007047FF0D2
:1054F00000070023F0E80256083C85EA010586EA29
:10550000010685FA47F5A3FA87F586FA47F6A5FA64
:1055100087F68EB9EED1F0BC01F0FF0102F0070270
:1055200032B110F8013B013A83EA010313B1F8D11B
:105530000020704701387047002D06BF35460338FC
:10554000073815F0010F07D1013015F4807F02BF35
:10555000013015F4C03F0130F0BC0138704700BF86
:1055600010B5431E0A44914200D110BD11F8014B01
:1055700003F8014FF7E770477047000038B5074C54
:10558000054608461146002222601A46FCF758FFDD
:10559000431C02D1236803B12B6038BDD8044020DE
:1055A0002E2E2F68616C2F7372632F68616C5F61A0
:1055B00064635F6173796E632E6300002E2E2F6823
:1055C000616C2F7372632F68616C5F696F2E63006B
:1055D0002E2E2F68616C2F7372632F68616C5F745D
:1055E000696D65722E6300002E2E2F68616C2F731B
:1055F00072632F68616C5F75736172745F61737938
:105600006E632E63000000002E2E2F68616C2F73D6
:1056100072632F68616C5F75736172745F73796E0A
:10562000632E63002E2E2F68616C2F7574696C7366
:105630002F7372632F7574696C735F6C6973742E4A
:10564000630000002E2E2F68616C2F7574696C73D7
:105650002F7372632F7574696C735F72696E676202
:1056600075666665722E6300000000008031842F2D
:1056700000000003FFFFFFFFFFFF0000000000002D
:1056800000000000000000000C010000000000000D
:105690000000000000000000000000000002000008
:1056A00000020000000200000002000000020000F2
:1056B00000020000000200000002000000020000E2
:1056C00000020000000200000002000001000000D3
:1056D0008031842F00000003FFFFFFFFFFFF000069
:1056E0000000000000000000000000000C010000AD
:1056F00000000000000000000000000000000000AA
:105700000002000000020000000200000002000091
:105710000002000000020000000200000002000081
:105720000002000000020000000200000002000071
:105730002E2E2F68706C2F616665632F68706C5F0A
:10574000616665632E6300002E2E2F68706C2F74C7
:10575000632F68706C5F74632E63000000000000AC
:1057600000080000510000000100000000080000D7
:10577000510000002E2E2F68706C2F756172742FEF
:1057800068706C5F756172742E6300000A202A2AAB
:105790002A2A2A2A2A2A2A2A2A2A2A2A414E414CF5
:1057A0004F472050494E20524541442054455354C0
:1057B0002A2A2A2A2A2A2A2A2A2A2A2A2A2A2A2A49
:1057C0002A2000000A2070696E20504433302028BF
:1057D000526129204144432056616C7565203D206B
:1057E0002564204144432056616C756520696E2014
:1057F000766F6C7461676520203D20000A20706917
:105800006E2050413231202844454C544120566F7F
:105810006E29204144432056616C7565203D20254A
:105820006420204144432056616C756520696E20D8
:10583000766F6C7461676520203D20000A207069D6
:105840006E2050423033202873696E5F67616D6D42
:10585000615F706B29204144432056616C7565205F
:105860003D202564204144432056616C75652069C4
:105870006E20766F6C7461676520203D200000000B
:105880000A2070696E2050423032202857696E64B9
:105890005F706B29204144432056616C7565203D43
:1058A000202564204144432056616C756520696E53
:1058B00020766F6C7461676520203D200000000039
:1058C0000A2070696E20504131382028636F735F61
:1058D00067616D6D615F706B294144432056616C57
:1058E0007565203D202564204144432056616C7538
:1058F0006520696E20766F6C7461676520203D209D
:10590000000000000A2070696E20504230302028CC
:1059100053636F73715F706B294144432056616C10
:105920007565203D202564204144432056616C75F7
:105930006520696E20766F6C7461676520203D205C
:10594000000000000A2070696E205042303120288B
:10595000636F73715F706B294144432056616C75AE
:1059600065203D202564204144432056616C7565C7
:1059700020696E20766F6C7461676520203D200081
:105980000A2070696E205043313520284829204173
:1059900044432056616C7565203D202564204144B8
:1059A000432056616C756520696E20766F6C74615A
:1059B000676520203D2000000A2070696E2050435A
:1059C00031322028425729204144432056616C75CA
:1059D00065203D202564204144432056616C756557
:1059E00020696E20766F6C7461676520203D200011
:1059F0000A2070696E2050433239202843542920F0
:105A00004144432056616C7565203D20256420414A
:105A100044432056616C756520696E20766F6C7406
:105A200061676520203D20000A2070696E20504388
:105A300033302028567429204144432056616C7528
:105A400065203D202564204144432056616C7565E6
:105A500020696E20766F6C7461676520203D2000A0
:105A60000A2070696E2050433331202854292020A9
:105A70004144432056616C7565203D2025642041DA
:105A800044432056616C756520696E20766F6C7496
:105A900061676520203D20000A202A2A2A2A2A2A16
:105AA0002A2A2A2A2A2A2A2A2A2A2A2A4469676981
:105AB00074616C20496E7075742050696E20546555
:105AC00073742A2A2A2A2A2A2A2A2A2A2A2A2A2AA3
:105AD0002A2A2A2A2A2A2A2A2A0000000A20506969
