:020000040040BA
:10000000E80A4020ED014000E9014000E90140001C
:10001000E9014000E9014000E90140000000000062
:10002000000000000000000000000000E9014000A6
:10003000E901400000000000E9014000E901400042
:10004000E9014000E9014000E9014000E901400008
:10005000E9014000E9014000E9014000E9014000F8
:10006000251B400000000000E9014000E9014000BC
:10007000E9014000E9014000E9014000E9014000D8
:10008000E9014000E9014000E9014000E9014000C8
:10009000E9014000E9014000E9014000711640001B
:1000A000E9014000E9014000E9014000E9014000A8
:1000B000E9014000E5124000E9014000E90140008B
:1000C000E9014000E9014000E9014000E901400088
:1000D000E9014000E9014000E9014000E901400078
:1000E000F9124000E9014000E9014000E901400047
:1000F000E9014000E9014000E9014000E901400058
:10010000E9014000E9014000E9014000E901400047
:10011000E9014000E901400000000000000000008B
:10012000E9014000E9014000E9014000E901400027
:10013000E9014000E9014000E9014000E901400017
:10014000E9014000E9014000E9014000E901400007
:10015000E9014000E9014000E9014000E9014000F7
:10016000E9014000E901400010B5054C237833B99E
:10017000044B13B10448AFF300800123237010BD7A
:100180008800402000000000608140000C4B43B11B
:100190000C480D4910B5AFF300800C48036823B933
:1001A00010BD0A48036833B97047094B002BF7D0DC
:1001B000BDE810401847064B002BF5D0184700BF8C
:1001C00000000000608140008C0040206081400001
:1001D0000000000008B5024B9847024B984708BD45
:1001E0007505400065264000FEE7000008B5104B8D
:1001F000104A9A4209D00E4B0E4A03E0116819606A
:10020000043304320C498B42F8D30C4B02E0002239
:100210001A6004330A4A9342F9D30A4A0A4B23F07C
:100220007F039360094B9847094B9847FEE700BF4F
:10023000000040206081400088004020880040206D
:10024000E804402000ED00E000004000E1484000EC
:100250001123400008B5084B9B6913F4000F03D12C
:100260004FF40002044B1A61044B984702460449BC
:100270000448054B984708BD00060E406D16400027
:1002800000C00040EC034020390B4000F0B585B0C1
:100290002E4BD3F8083113F4807F04D14FF48072D1
:1002A0002A4BC3F800212A4D2A4C002602962A4BDD
:1002B00001930723009306232A4628492046284F06
:1002C000B847102305F1080231462046254EB047B5
:1002D000102305F1180201212046B047102305F133
:1002E000280202212046B047102305F138020321DD
:1002F0002046B047102305F1480204212046B047AC
:10030000102305F1580205212046B047102305F1BE
:10031000680206212046B0470222134B1A6003F5FB
:1003200000734FF400521A604FF400421A604FF409
:1003300080521A604FF000521A604FF080421A60EB
:100340004FF000421A6005B0F0BD00BF00060E403D
:10035000A4004020C003402044024020004006404A
:100360001D084000C508400000100E402DE9F04176
:1003700084B0354B9B6913F0005F03D14FF00052FE
:10038000314B1A61314D324C00260296314B0193AC
:10039000072700970A2305F178022F492046DFF846
:1003A000C880C047102305F18402314620462B4EF9
:1003B000B047102305F1940201212046B0471023D5
:1003C00005F1A40202212046B047102305F1B40232
:1003D00005212046B047102305F1C40239462046C6
:1003E000B047102305F1D40208212046B04710235E
:1003F00005F1E4020A212046B0474FF08042184B35
:100400001A60A3F5C0634FF400121A60154A082160
:100410001160042111604FF4802119604FF4002114
:100420001960012111604FF480725A611A66C3F895
:100430009420196F11431967596F21F4807159671E
:100440005A6004B0BDE8F08100060E40A4004020D0
:10045000EC0240201803402000C00340C5084000C3
:1004600000140E4000100E401D0840000B4B1A6F88
:1004700022F400721A675A6F22F400725A674FF41E
:1004800000725A601A6F22F480621A675A6F22F45F
:1004900080625A674FF480625A607047000E0E40C7
:1004A000044B9B6913F0800F02D18022014B1A612B
:1004B000704700BF00060E4008B5064B9847064B34
:1004C0009847024605490648064B9847064B984709
:1004D00008BD00BFA10440001D1B400000080E40E5
:1004E000380240203D0F40006D044000044B9B69E2
:1004F00013F4807F03D14FF48072014B1A6170476F
:1005000000060E400A4B1A6F22F020021A675A6F3B
:1005100042F020025A6720225A601A6F22F010021D
:100520001A675A6F42F010025A6710225A607047D9
:10053000000E0E4010B582B0074B9847074B984706
:1005400000901023064A07490748084CA047084B6B
:10055000984702B010BD00BFED044000211B4000D1
:1005600098014020000A0E40E8014020AD0D4000F7
:1005700005054000F8B5844B9847844B9B6913F4FC
:10058000806F03D14FF48062804B1A617F4B9B696F
:1005900013F4805F03D14FF480527C4B1A617B4B84
:1005A0009B6913F4803F03D14FF48032774B1A617B
:1005B000764B9B6913F4003F03D14FF40032734B29
:1005C0001A61734A536843F400435360714B4FF40C
:1005D00000025A631A611A604FF080745C611C66F5
:1005E000C3F894401C604FF0806058611866C3F8EF
:1005F000940018604FF0805159611966C3F8941047
:1006000019604FF080425A611A66C3F894201A604C
:1006100003F5806301225A611A66C3F894201A60B8
:100620004FF0040EC3F834E0C3F810E0C3F800E064
:1006300010225A611A66C3F894201A6040255D6141
:100640001D66C3F894501D6080275F631F611F60A3
:100650004FF480761E631E611E6003F500734FF039
:10066000020CC3F814C0C3F860C0C3F894C0C3F848
:1006700000C0C3F814E0C3F860E0C3F890E0C3F82A
:1006800000E04FF0080EC3F834E0C3F810E0C3F800
:1006900000E05A631A611A604FF0200EC3F814E0AC
:1006A000C3F860E0C3F894E0C3F800E05D611D6644
:1006B000C3F894501D605F611F66C3F894701F609B
:1006C0005E611E66C3F894601E604FF400755D6144
:1006D0001D66C3F894501D604FF480655D611D6612
:1006E000C3F894501D604FF400655D611D66C3F84A
:1006F00094501D604FF480555D631D611D604FF483
:1007000000555D631D611D604FF480455D631D6193
:100710001D604FF400455D631D611D604FF4802531
:100720005D611D66C3F894501D604FF400255D6146
:100730001D66C3F894501D605C611C66C3F894404C
:100740001C6058611866C3F89400186059611966F6
:10075000C3F8941019604FF0005159611966C3F83D
:100760009410196003F500735A61C3F890205A661B
:100770001A60094B9847094B9847094B9847094B12
:100780009847094B9847F8BD1D14400000060E40DD
:1007900050180E40000E0E406D0340008D024000C8
:1007A00055024000B90440003505400008B5836992
:1007B00003B1984708BD08B5C36903B1984708BDA0
:1007C0002DE9F047054688469146036A5B5C876AD7
:1007D00003EB4303DE00BC1904F1040AD1B2504616
:1007E0000C4B984728460C4B9847012807D94FEAED
:1007F00019215046074B9847A38A0133A382A38A45
:100800000133A382BB5913B1414628469847BDE83E
:10081000F08700BF99104000CD1340002DE9F84F3C
:1008200016461C469DF828800B9D074689460028E1
:1008300018BF00290BD0131C18BF0123B8F1000FFB
:1008400017D0B3B10DB1012002E0002000E000207C
:10085000DFF868B03F225946DFF864A0D047601C3B
:10086000402259468045CCBF00200120D0470023BC
:1008700005E00020ECE7FF22F2540133DBB2A34293
:10088000F9D93E6287F8244087F82580BD62494641
:100890003846064B9847034628B9054ABA60054AC8
:1008A0003A60054A7A601846BDE8F88F0D1340009B
:1008B000C1074000AD074000B7074000F06F40009F
:1008C000B10F40002DE9F8430E461F4605469046FD
:1008D000002818BF002A02D0C3B9002000E0002081
:1008E000DFF8949066224946214CA04795F82400F1
:1008F00067224946B04234BF00200120A047296A40
:100900008B5DFF2B2BD10024234603E00120E7E77A
:100910000133DBB295F82420934205D8CA5CFF2A44
:10092000F6D00134E4B2F3E795F825309C4219D8AB
:10093000A86A04EB44034FEAC30948443A464146D7
:1009400004300C4B9847024678B92B6A9C55AB6A29
:1009500099440023A9F814301046BDE8F8836FF0DD
:100960000C02F9E76FF01B02F6E76FF00C02F3E7F9
:10097000B10F400011104000F06F4000F8B50D4677
:100980000B4F044683223946003018BF0120094E20
:10099000B04794F8240084223946A84234BF00208E
:1009A0000120B04729462046034B98470020F8BD58
:1009B000F06F4000B10F4000C113400010B5044675
:1009C000D6220549003018BF0120044B9847204625
:1009D000034B9847002010BDF06F4000B10F40005E
:1009E000D1134000EFF31083036072B6BFF35F8F43
:1009F0007047BFF35F8F036883F310887047000070
:100A000010B5044B1C68044B984701462046034B25
:100A1000984710BDA801402005144000171440005D
:100A200070B5164604460D46002818BF002914BFAD
:100A30000120002034220449044B984723683246A1
:100A400029462046984770BD0C704000B10F400009
:100A500070B5164604460D46002818BF002914BF7D
:100A6000012000203D220449044B98476368324628
:100A700029462046984770BD0C704000B10F4000D9
:100A8000F8B5076817B13C4600260BE00E4B9847B7
:100A9000F8BDA5682B449B1A01338D68AB4209D27F
:100AA0002646246834B163689342F2D8A5689B1A3D
:100AB0002B44F2E7BC4203D03046044B9847F8BDC4
:100AC000014B9847F8BD00BFCD0F4000F90F400023
:100AD000F8B54469066901360661037E13F0010F1B
:100AE00005D1037E13F0020F01D1054609E0037E14
:100AF00043F002030376F8BD6F69E3682046984728
:100B00003C469CB16368F31AA26893420ED305F188
:100B100014073846064B9847237C012BECD16660BE
:100B2000324621463846034B9847E5E7F8BD00BFFB
:100B300001104000810A400038B504460D460028E7
:100B400018BF002914BF012000203B220549064B95
:100B5000984729462046054B984700202061044BC2
:100B6000236038BD20704000B10F40008515400063
:100B7000D10A400010B5044653220949003018BF7D
:100B80000120084B98472046074B984720B920463C
:100B9000064B9847002010BD6FF0100010BD00BF3D
:100BA00020704000B10F400049164000411640003F
:100BB00070B582B004460D46002818BF002914BF46
:100BC000012000207A221D491D4B9847237E43F0C7
:100BD0000103237604F1140629463046194B984741
:100BE00088B923696B60226929463046164B9847BD
:100BF000237E03F0FE032376237E13F0020F0ED133
:100C0000002002B070BD237E03F0FE0323767F2216
:100C10000A4900200A4B98476FF01100F1E701A83C
:100C20000A4B9847237E03F0FD0323762046084BAA
:100C3000984701A8074B98470020E2E72070400042
:100C4000B10F4000B70F4000810A4000E5094000A5
:100C500055164000F309400008B500238362C369BC
:100C60001BB1A0F108021046984708BD08B5002343
:100C70008362436A1BB1A0F108021046984708BD81
:100C800038B50446A0F108052C30034B9847236A79
:100C90000BB12846984738BD9910400070B51546ED
:100CA00004460E46002818BF002902D0DAB90020F9
:100CB00000E0002040F23B120D490E4B9847B4F87B
:100CC0004420B4F84C309A420FD1A664A4F84C509A
:100CD0000023A4F844300123236304F10800064BE9
:100CE0009847284670BD0120E4E76FF01B0070BDF7
:100CF00038704000B10F4000D11A400010B50446D2
:100D0000838FB0F84420934209D0026C591C81872C
:100D1000D15C044B98472046034B984710BD034BCA
:100D2000984710BD111A4000D11A4000F51A400032
:100D30002DE9F04182B0174605468846002818BFC5
:100D4000002902D0A2B9002000E000204FF4AC72CC
:100D50001049114B984701A8104B98473435284645
:100D60000F4B9847064601A80E4B9847002407E012
:100D70000120EBE70134A4B2414428460A4B9847CE
:100D80002146A64201D9BC42F4D3204602B0BDE8B8
:100D9000F08100BF38704000B10F4000E50940000D
:100DA000D9104000F309400055104000F8B5154631
:100DB0001E4604460F46002818BF002908D0131C01
:100DC00018BF012316B10BB1012002E0002000E0A2
:100DD00000203A221049114B98473246294604F127
:100DE00034000F4B9847A0B9394604F108000D4B69
:100DF0009847034658B90C4A62600C4A22600C4A74
:100E0000A2600C4AE2600C4A22610C4A62611846F8
:100E1000F8BD6FF00C03FAE738704000B10F4000E6
:100E200011104000D9184000310D40009D0C4000C9
:100E3000FD0C4000810C4000590C40006D0C40003E
:100E400010B5044661220649003018BF0120054B49
:100E5000984704F10800044B9847002010BD00BFDC
:100E600038704000B10F4000B9194000F8B516467F
:100E700005460F46002818BF002902D00ABB0020F3
:100E800000E00020F1221049104B984705F10804BA
:100E900020460F4B98470028F8D00025795D204662
:100EA0000C4B984720460A4B98470028FAD001354A
:100EB000B542F3D32046084B98470028FAD028467D
:100EC000F8BD0120DEE700BF58704000B10F4000C0
:100ED000591A4000ED194000811A40002DE9F041F7
:100EE000174605468846002818BF002902D0D2B907
:100EF000002000E000204FF486720C490C4B98470C
:100F0000002605F1080420460A4B98470028F8D02F
:100F10002046094B984708F806000136BE42F0D338
:100F20003046BDE8F0810120E5E700BF5870400081
:100F3000B10F4000A91A4000351A400038B50446E8
:100F40000D46002818BF002914BF012000203422BC
:100F50000749084B9847294604F10800064B984773
:100F6000034618B9054A6260054A2260184638BD32
:100F700058704000B10F4000A1184000DD0E400045
:100F80006D0E400010B5044653220649003018BFCC
:100F90000120054B984704F10800044B98470020B6
:100FA00010BD00BF58704000B10F400085194000CF
:100FB00000B900BE704703681BB18B4203D01B68A9
:100FC000FAE70020704701207047000038B504465A
:100FD0000D46064B984780F0010039220449C0B203
:100FE000044B984723682B60256038BDB70F40003D
:100FF00074704000B10F400003680B6001607047DF
:1010000003681BB11A6802601846704700207047D9
:1010100070B5154604460E46002818BF002902D0B8
:101020007AB9002000E0002028220849084B9847A0
:101030006B1E1D4207D163600020A060E060266047
:1010400070BD0120F0E76FF00C0070BD947040009F
:10105000B10F400038B504460D46002818BF0029DE
:1010600014BF01200020402209490A4B9847E2683A
:10107000A3689A4209D0226861680B40D35C2B7048
:10108000A3680133A360002038BD6FF0090038BDAC
:1010900094704000B10F400038B50D46044651220F
:1010A0000B49003018BF01200A4B98472268E368BB
:1010B00061680B40D554E368A2689A1A61688A4255
:1010C00001D9591AA1600133E360002038BD00BF87
:1010D00094704000B10F400010B5044667220549E6
:1010E000003018BF0120044B9847E068A368C01A7D
:1010F00010BD00BF94704000B10F40000346064A87
:10110000126822B1044A106803441360704703490F
:10111000014A1160F6E700BFAC014020E80A402018
:101120004FF0FF3070474FF400534B600020704782
:1011300001207047002070474369074A934205D059
:1011400002F52032934203D1282070471D207047BA
:101150004FF0FF30704700BF00C00340064B98427D
:1011600003D0064B984203D07047054B1960F8E74F
:10117000034B5960F8E700BF00C003400040064041
:10118000B001402064231D4A03FB01235A684260DA
:101190009A688260DA68C2601A6902615A690265F7
:1011A0009A694265DA6902661A6AC0F894205A6A36
:1011B000C0F8A0209A6AC0F8D020DA6AC0F8D4201B
:1011C0001B6BC0F8D83000220B2A14D810B442662A
:1011D00001EB810303EB830313440C33074C04EB53
:1011E00083035B68C3660132D2B20B2AEFD90020B9
:1011F0005DF8044B70470020704700BFB870400096
:1012000030B583B005464269116BD36A0B40019338
:10121000019B13F0806F0ED1019B13F0007F0ED164
:10122000019BC3F30B030193019CB4FA84F4C4F152
:101230002004E4B21FE0036800219847ECE76B68E4
:10124000002128469847EBE7013CE4B26B695C66F5
:10125000AB686A69926E92B221462846984701238C
:10126000A340019C24EA03040194019CB4FA84F491
:10127000C4F12004E4B2002CE6D103B030BD00007C
:1012800008B5094B98420AD003F52033984208D09C
:10129000A72206490020064B9847002008BD0020E1
:1012A00008BD012008BD00BF00C0034080714000A0
:1012B000B10F400008B5094B98470023012B09D80E
:1012C000642202FB03F206498A5C904203D0013398
:1012D000DBB2F3E70023184608BD00BF81124000CF
:1012E000B870400008B5024B1868024B984708BD1B
:1012F000B00140200112400008B5024B5868024B73
:10130000984708BDB00140200112400070B50C465E
:1013100005464FF4A1722349003018BF0120224B2B
:1013200098472046214B984701462046204B984736
:10133000064608B1304670BD6C61294620461D4BFB
:10134000984728461C4B984700280DDB430900F0BE
:101350001F00012202FA00F02033184A42F823004D
:10136000BFF34F8FBFF36F8F2846134B984700286A
:1013700009DB430900F01F00012202FA00F060338C
:101380000E4A42F8230028460B4B98470028D1DB31
:10139000420900F01F00012303FA00F0074B43F855
:1013A0002200C7E780714000B10F4000B512400035
:1013B000851140005D1140003911400000E100E05E
:1013C0004269012303FA01F151617047022070471D
:1013D000436902221A607047436959664369986EEF
:1013E00080B2704743B2002B09DB5B0900F01F009D
:1013F000012202FA00F04033014A42F8230070470C
:1014000000E100E04FF4967303FB00F04FF47A73B1
:1014100003FB00F070470139FDD8704700B583B079
:1014200001A80E4B98470E4AD2F8883043F4700357
:10143000C2F88830BFF34F8FBFF36F8F01A8094BFD
:101440009847094A136823F4706343F4C063136038
:10145000064B984703B05DF804FB00BFE509400068
:1014600000ED00E0F3094000000C0E400D154000B7
:101470000E490A6A22F002020D4B13430B620B4B1A
:101480009B6E13F0010FFAD0084B196A094A0A4300
:101490001A62996A084A0A409A62084A9A62034B99
:1014A0009B6E13F0020FFAD0704700BF00060E408B
:1014B000013E370000003701FFFF00F8013F182010
:1014C000114A136B23F0700313630F4B9B6E13F0E1
:1014D000080FFAD00C4A136B23F4407343F4807363
:1014E0001363094B9B6E13F0080FFAD0064A136B77
:1014F00023F0030343F002031363034B9B6E13F0CB
:10150000080FFAD0704700BF00060E4008B5024B26
:101510009847024B984708BD71144000C114400021
:1015200000233BB10020704703EBC304A30008462F
:1015300018440CE010B403EBC3018A0005498A5833
:101540008242F1D00133DBB2002BF4D000205DF8F1
:10155000044B704700004020034B984200D0704776
:10156000024B1960FBE700BF00C00040B8014020FB
:1015700008B5C3681B6A13F0100F00D108BD0368DB
:101580009847FBE7F8B507460C460846274B9847AF
:1015900005468668FC60912225490120254B984725
:1015A00016F4004F01D046F4142666606B6963613F
:1015B000AB69A361EB682363EB69E36110236362AA
:1015C0002B69C4F8D830394620461B4B984795F90B
:1015D0000430002B0DDB5A0903F01F03012101FA2F
:1015E00003F32032154941F82230BFF34F8FBFF388
:1015F0006F8F95F90430002B09DB5A0903F01F03A4
:10160000012101FA03F360320C4941F8223095F9C7
:101610000430002B08DB590903F01F03012202FAF2
:1016200003F3064A42F821300020F8BD211540009E
:1016300098714000B10F40005915400000E100E0F2
:10164000C36805221A607047C368186AC0F3004077
:101650007047000008B5C068024B98470079024BFC
:10166000984708BD21154000E51340000020704751
:1016700008B5024B1868024B984708BDB8014020D6
:1016800071154000034B984200D07047024B19601F
:10169000FBE700BF000A0E40BC01402010B5044625
:1016A00040F21D221249003018BF0120114B98470B
:1016B000114B9C4213D003F500739C4211D003F5EB
:1016C00080539C420FD003F500739C420DD003F56C
:1016D00000739C4201D0FF2010BD042010BD0020EB
:1016E00010BD012010BD022010BD032010BD00BFA1
:1016F000C4714000B10F400000080E4010B5044610
:1017000040F2AA220F49003018BF01200E4B984723
:1017100020460E4B98470023012B09D803EB4301C9
:101720008A000B498A5C904209D00133DBB2F3E7AF
:101730004FF42D7203490020034B984700231846AD
:1017400010BD00BFC4714000B10F40009D164000A5
:10175000AC71400038B5044640F2C1220E49003059
:1017600018BF01200D4B984720460D4B98470D4B55
:10177000C4F8E430AC2323604FF4807323600A4A3A
:1017800043001D18A9000D461144496861602A44B0
:1017900093682362002038BDC4714000B10F40003F
:1017A000FD16400000524155AC71400010B5044692
:1017B00088221049003018BF01200F4B984720465F
:1017C0000E4B984704280CD8DFE800F003120507F9
:1017D0000900072010BD2C2010BD2D2010BD2E208B
:1017E00010BD9A2203490020034B9847FF2010BDEB
:1017F000082010BDC4714000B10F40009D1640008C
:1018000010B5044640F281222349003018BF012060
:10181000224B9847A3695A6912F0020F03D01A6944
:1018200012F0020F18D15A6912F4007F03D01A691E
:1018300012F4007F16D15A6912F0010F1FD01A69F5
:1018400012F0010F1BD05A6912F0E00F11D09A6903
:101850004FF480721A6010BD0222DA6023682046BD
:10186000984710BD4FF40072DA60A368204698478D
:1018700010BD62689969C9B22046904710BD5A6987
:1018800012F0E00F00D110BD4FF480721A60E368CF
:1018900020469847F7E700BFC4714000B10F4000F1
:1018A000F8B50C46094E0746AE223146003018BF47
:1018B0000120074DA847AF223146201C18BF012048
:1018C000A8473C602046034B9847F8BDC4714000D0
:1018D000B10F40005517400070B50C460646BD22BA
:1018E0002249003018BF0120214B98472046214B48
:1018F0009847054608B1284670BDB4613146204678
:101900001D4B984720461D4B984743B2002B0DDBDB
:101910005B0900F01F00012202FA00F02033184A90
:1019200042F82300BFF34F8FBFF36F8F2046134B56
:10193000984743B2002B09DB5B0900F01F0001222E
:1019400002FA00F060330E4A42F8230020460B4BA7
:10195000984743B2002BCEDB5B0900F01F00012249
:1019600002FA00F0064A42F82300C4E7C4714000BE
:10197000B10F40005517400085164000AD174000DC
:1019800000E100E070B50A4E0446F722314600300F
:1019900018BF0120074DA847246840F2E5223146D0
:1019A000201C18BF0120A8475023236070BD00BF32
:1019B000C4714000B10F400070B50A4E04464FF4A8
:1019C00080723146003018BF0120074DA847A46936
:1019D00040F2E5223146201C18BF0120A8475023C1
:1019E000236070BDC4714000B10F400038B50C4693
:1019F000054640F299120449003018BF0120034BFC
:101A000098472B68DC6138BDC4714000B10F4000BD
:101A100038B50C4605464FF4D1720449003018BF62
:101A20000120034B9847AB69DC6138BDC4714000AD
:101A3000B10F400010B5044640F2AB12044900302B
:101A400018BF0120034B984723689869C0B210BDA6
:101A5000C4714000B10F400010B504464FF4DA7273
:101A60000549003018BF0120044B98472368586986
:101A7000C0F3400010BD00BFC4714000B10F400072
:101A800010B5044640F2BD120549003018BF0120D0
:101A9000044B984723685869C0F3402010BD00BF2D
:101AA000C4714000B10F400010B5044640F2CF129F
:101AB0000549003018BF0120044B98472368586936
:101AC00000F0010010BD00BFC4714000B10F400024
:101AD00010B5044640F20A220449003018BF012024
:101AE000034B9847A36902229A6010BDC47140005D
:101AF000B10F400010B5044640F2132205490030F2
:101B000018BF0120044B9847A3694FF400729A60F4
:101B100010BD00BFC4714000B10F400000207047ED
:101B20000020704708B5024B1868024B984708BD63
:101B3000BC01402001184000F0B52DED028B83B0B0
:101B4000B048B14CA047B14F00213846B04EB04725
:101B500001900146AF48A047DDED017AF8EE677AC3
:101B6000DFEDAD8A87EEA87A17EE100AAB4DA847D5
:101B700001213846B04701900146A948A047DDED54
:101B8000017AF8EE677A87EEA87A17EE100AA8476E
:101B900002213846B04701900146A248A047DDED3A
:101BA000017AF8EE677A9FEDA08A87EE887A17EEC1
:101BB000100AA84705213846B047019001469B48C6
:101BC000A047DDED017AF8EE677A87EE887A17EEA6
:101BD000100AA84707213846B047019001469448AB
:101BE000A047DDED017AF8EE677A87EE887A17EE86
:101BF000100AA8470A213846B047019001468D488F
:101C0000A047DDED017AF8EE677A87EE887A17EE65
:101C1000100AA847884F00213846B0470190014676
:101C20008648A047DDED017AF8EE677A87EE887A7C
:101C300017EE100AA84702213846B0470190014626
:101C40007F48A047DDED017AF8EE677A87EE887A63
:101C500017EE100AA84703213846B0470190014605
:101C60007848A047DDED017AF8EE677A87EE887A4A
:101C700017EE100AA84704213846B04701900146E4
:101C80007148A047DDED017AF8EE677A87EE887A31
:101C900017EE100AA84705213846B04701900146C3
:101CA0006A48A047DDED017AF8EE677A87EEA87AF8
:101CB00017EE100AA84706213846B04701900146A2
:101CC0006348A047DDED017AF8EE677A87EEA87ADF
:101CD00017EE100AA8470A205E4B98475E48A047B7
:101CE0005E4BDB6B13F0010F00F076815C48A04780
:101CF0005C4B1B68002B00F073815B48424B98479C
:101D00005A4BDB6B13F0100F00F06E8158483E4BBE
:101D10009847584B1B68002B00F06A8156483A4B95
:101D200098474E4BDB6B13F0100F00F06581534862
:101D3000354B9847524BDB6B13F0806F00F060819E
:101D40005048314B98474E4BDB6B13F0807F00F0CF
:101D50005B814D482C4B98474C4BDB6B13F0807FDD
:101D600000F056814A48284B9847484BDB6B13F0EC
:101D7000806F00F051814748234B9847404BDB6B05
:101D800013F0805F00F04C8143481F4B98473C4B59
:101D9000DB6B13F4002F00F0478140481A4B984743
:101DA000374BDB6B13F4802F00F042813C48164B1D
:101DB0009847334BDB6B13F4006F00F03D813948DB
:101DC000114B98472E4BDB6B13F4806F00F038817A
:101DD00035480D4B98472A4BDB6B13F4007F00F01E
:101DE00033813248084B9847284BDB6B13F0805FF8
:101DF00000F02E812E48044B9847214BDB6B13F4E7
:101E0000807F57E0DC71400039494000EC024020FF
:101E1000D91340001472400000F69F44892B400003
:101E20004C7240008C72400000009B44D072400015
:101E30001073400054734000C0034020947340006E
:101E4000D073400008744000407440007874400033
:101E5000B074400069494000E874400000120E4030
:101E60002C754000780440207075400000160E402C
:101E7000B875400098044020FC754000447640004E
:101E800000140E408C764000D4764000000E0E40C8
:101E9000187740005C7740009C774000DC7740007A
:101EA00024784000647840009C784000E47840004A
:101EB0002C79400000F0D0807D487E4B98477E4BC7
:101EC000DB6B13F0804F00F0CB807C48794B984758
:101ED0007B4BDB6B13F0800F00F0C6807948754BAD
:101EE0009847774BDB6B13F0400F00F0C1807648CA
:101EF000704B9847724BDB6B13F0200F00F0BC80E7
:101F000072486C4B98476E4BDB6B13F0100F00F070
:101F1000B7806F48674B9847694BDB6B13F0080F2E
:101F200000F0B2806B48634B9847654BDB6B13F056
:101F3000040F00F0AD8068485E4B9847604BDB6B48
:101F400013F0020F00F0A88064485A4B9847644B86
:101F5000DB6B13F0400F00F0A3806248554B9847AD
:101F6000574BDB6B13F0005F40F09E805E48514B97
:101F700098475E484F4EB0475D48B047584C0427DD
:101F8000276332205B4DA84767635B48B04704F581
:101F900000744FF4804727633220A847676357488F
:101FA000B0474FF4005727633220A847676354486F
:101FB000B0474FF4805626633220A84766635148E5
:101FC000514B98474FF4004626633220A84766637A
:101FD00003B0BDEC028BF0BD4C48364B984787E60A
:101FE0004B48344B98478BE64A48324B984790E62B
:101FF0004948304B984794E648482E4B984799E615
:1020000047482C4B98479EE646482A4B9847A3E6FC
:102010004548284B9847A8E64448264B9847ADE6E4
:102020004348244B9847B2E64248224B9847B7E6CC
:102030004148204B9847BCE640481E4B9847C1E6B4
:102040003F481C4B9847C6E63E481A4B9847CBE69C
:102050003D48184B9847D0E63C48164B98472EE72A
:102060003B48144B984733E73A48124B984738E7B8
:102070003948104B98473DE738480E4B984742E7A0
:1020800037480C4B984747E736480A4B98474CE788
:102090003548084B984751E73448064B984756E770
:1020A0003348044B98475BE73248024B984760E758
:1020B0006C79400039494000000E0E40B479400070
:1020C00000140E40F47940003C7A40007C7A4000D5
:1020D000C07A40000C7B40005C7B4000AC7B400041
:1020E00000120E40E47B40004C7C4000747C4000B9
:1020F000B47C4000010A4000D47C4000F47C4000E5
:10210000107D4000287D4000494A40005075400045
:1021100094754000DC7540002076400068764000F1
:10212000B0764000F87640003C7740007C77400075
:10213000BC77400000784000447840008078400040
:10214000C0784000087940004C7940009079400008
:10215000D4794000187A40005C7A4000A07A4000B0
:10216000E87A4000347B4000847B4000C87B40001C
:10217000047C4000247C400038B50C4D28460C4CB3
:10218000A047681CA047002406E00848204402300D
:10219000074B98470134E4B22F2CF6D9054D284659
:1021A000034CA047681CA04738BD00BFA4044020D2
:1021B000712B4000E20440207047000010B5044637
:1021C0000846054B9847030E2370030C6370030AFF
:1021D000A370E07010BD00BFB921400010B51C4BCA
:1021E00098471C4B98471C4B98471C4B98471C4BD7
:1021F00098471C4B98471C4B98471C4B98471C4BC7
:1022000098471C4B98471C4B98471C4B98471C4BB6
:10221000FE221A7030225A70002421460BE0194A1F
:1022200002EB8402D05C164A0A44907001310133FB
:10223000032BF4DD01340B2C01DC0023F8E7104BF9
:102240002E2283F83E20EF2283F83F2010BD00BFEE
:10225000B92640007D274000052840006128400045
:10226000B12840000129400051294000DD294000EB
:10227000412A40007D2A4000CD2A4000F92A400032
:10228000A40440200804402038B50D4C002120460D
:102290000C4DA84701212046A84702212046A84707
:1022A00005212046A84707212046A84708212046A7
:1022B000A8470A212046A8472046034B984738BD27
:1022C000EC0240207D094000BD09400038B50D4CAE
:1022D000002120460C4DA84701212046A847022195
:1022E0002046A84703212046A84704212046A847A6
:1022F00005212046A84706212046A8472046034B33
:10230000984738BDC00340207D094000BD0940000A
:1023100008B5114B98471148114B9847114B9847F6
:10232000114B98471148124CA0471248A047124839
:10233000A047124B9847124A936B03F40003D9430A
:1023400001F40001116353630E4B98470E4B9847FD
:102350000E4B9847EFE700BFD5014000E801402051
:10236000410E400089224000CD224000407D4000C7
:10237000494A40005C7D4000847D4000391B40009C
:10238000000E0E40D5234000DD21400079214000A1
:102390000022014B1A707047C001402010B5084957
:1023A0000423CB60074B0B6100230B75064C0431F3
:1023B0002046064B98472046054B984710BD00BF66
:1023C000C001402091234000EC034020B10B4000AD
:1023D000750B40002DE9F041002304E00021684A1C
:1023E00022F8131001330B2BF8DD664B98470122BE
:1023F000654B1A700024654B1C60654B1C60654B77
:102400001C60A0462646604B1B78002B00F097808E
:1024100006216148614B98475B4B1883584B9B8A58
:10242000984201D9564B988204215B485B4B9847F0
:10243000554B1883524B9B88984201D9504B98803A
:1024400002215748554DA8474F4F38830121524824
:10245000A8474B4B1A883B8B9A4202D2484A1380BA
:10246000044605214E484D4DA847474F388301216A
:102470004948A847424BDA8A3B8B9A4202D2404AEB
:10248000D382064607214648444B98473E4B188363
:102490003B4B5B88984201D9394B58800A21404810
:1024A0003E4DA847384F388301213B48A847344B5D
:1024B0001A893B8B9A4202D2314A1381804603210A
:1024C0003548364B9847304B18832D4B5B899842E3
:1024D00001D92B4B588102212F48304B98472A4B6A
:1024E0001883274BB3F89E30984202D9244BA3F8A7
:1024F0009E0001212A48294B9847234B1883204BE3
:102500009B89984201D91E4B988105212248234B73
:1025100098471D4B18831A4BDB89984201D9184BF9
:10252000D88100211E481D4B9847174B1883144B28
:102530001B8A98427FF667AF114B188263E7B4F5A8
:10254000FA6F10D90122124B1A60B6F5FA6F0ED944
:1025500000220E4B1A60B8F5FA6F0CD800220D4B12
:102560001A60BDE8F0810022094B1A60EDE70122F4
:10257000064B1A60EFE70122064B1A60BDE8F081B6
:102580007C0440209D234000C0014020780440206E
:102590009404402098044020C0034020D9134000F8
:1025A000EC02402058B908B50B4611461846054BB9
:1025B0009847002800DB08BD4FF0FF3008BD4FF002
:1025C000FF3070471D264000013802280BD808B59F
:1025D0000B4611461846054B9847002800DB08BDFE
:1025E0004FF0FF3008BD4FF0FF30704741264000EC
:1025F00070B50646064D2B6800219868054CA0472B
:102600002B6800215868A047034B1E6070BD00BFB7
:1026100024004020594A4000DC01402008B5064B08
:102620001B6833B10A46014692B21846034B9847DD
:1026300008BD002008BD00BFDC014020510A400059
:1026400008B5064B1B6833B10A46014692B21846DC
:10265000034B984708BD002008BD00BFDC014020A7
:10266000210A400010B5044C2046044B98472046F0
:10267000034B984710BD00BF38024020850F400033
:10268000F125400007EE901A06EE103A07EE100A08
:1026900037EE677ADDED006A76EEC66A27EE267AB7
:1026A00006EE902A76EEE77AC7EE276A76EE267A6D
:1026B00017EE900A704700002DE9F0412DED028BD6
:1026C00082B0224B988AB0F5BE7F01D24FF4BE7023
:1026D0001F4BDC6B04F08004DD6B05F48075DE6B52
:1026E00006F40076DF6B07F480671A4B0093002333
:1026F000194A1A4907EE900AF8EE677A17EE900A1F
:10270000DFF87480C04707EE900A44B9BDB9CEB96E
:1027100017B99FED138A04E09FED128A01E09FED47
:10272000108A38EE278A18EE101A0F480F4B984778
:1027300018EE100A02B0BDEC028BBDE8F0819FEDEF
:102740000C8AEEE79FED0B8AEBE700BF7C0440208C
:1027500000140E4000007A4400F07F450000BE43A4
:102760000000000000803B4530044020BD214000B7
:1027700000007A440000FA448526400010B52DED93
:10278000028B82B0154B1B681BB39FED158A154B4E
:10279000D88AD62820D9144B00930023134A144911
:1027A00007EE900AF8EE677A17EE900A114CA047F0
:1027B000B8EEC88A07EE900A27EE888A18EE101A3B
:1027C0000D480E4B984718EE100A02B0BDEC028B74
:1027D00010BD9FED0B8ADAE7D720DCE778044020B4
:1027E000010000007C0440200000C84100803B45FF
:1027F000000057438526400034044020BD2140009E
:10280000FFFFFFFF10B582B00E4BD88940F20633B0
:10281000984214D90C4B009300230C4A0C4907EE44
:10282000900AF8EE677A17EE900A0A4CA047044621
:1028300001460948094B9847204602B010BD40F2B6
:102840000730E7E77C04402000008C4200F07F4521
:1028500000C041448526400024044020BD214000A2
:1028600010B582B00B4B98890B4B00930B4B0C4A65
:10287000002107EE900AF8EE677A17EE900A094CED
:10288000A047044601460848084B9847204602B036
:1028900010BD00BF7C04402000005C4200005CC210
:1028A00000F07F458526400020044020BD214000E7
:1028B00010B582B00B4B188A0B4B00930B4B0C4A94
:1028C000002107EE900AF8EE677A17EE900A094C9D
:1028D000A047044601460848084B9847204602B0E6
:1028E00010BD00BF7C04402000005C4200005CC2C0
:1028F00000F07F458526400028044020BD2140008F
:1029000010B582B00B4B58890B4B00930B4B0C4A04
:10291000002107EE900AF8EE677A17EE900A094C4C
:10292000A047044601460848084B9847204602B095
:1029300010BD00BF7C044020000061440000E6435D
:1029400000F07F45852640001C044020BD2140004A
:1029500010B52DED028B82B0164B1888B0F5BE7FF6
:1029600001D24FF4BE70144B1B68FBB99FED138A64
:10297000134B00930023134A134907EE900AF8EE15
:10298000677A17EE900A114CA047B8EEC88A07EE96
:10299000900A27EE888A18EE101A0D480D4B9847BA
:1029A00018EE100A02B0BDEC028B10BD9FED0A8A32
:1029B000DEE700BF7C04402094044020FFFFFFFFBF
:1029C0000000704100F07F450000BE4385264000B6
:1029D00008044020BD2140000100000008B52DED95
:1029E000028B104B1B8907EE903AF8EE677A9FED49
:1029F0000E7A87EE878A0D4B1B687BB9DFED0C7A68
:102A0000F8EEE77A28EE278A18EE101A09480A4BE2
:102A1000984718EE100ABDEC028B08BDDFED077A6F
:102A2000EEE700BF7C04402000F07F459804402082
:102A3000FFFFFFFF18044020BD21400001000000FF
:102A400008B52DED028B0A4BDB8808EE103AB8EE84
:102A5000488AF5EE007A28EE278A18EE101A054803
:102A6000054B984718EE100ABDEC028B08BD00BF5D
:102A70007C04402014044020BD21400010B582B0E9
:102A80000B4B98880B4B00930B4B0C4A002107EE25
:102A9000900AF8EE677A17EE900A094CA0470446B0
:102AA00001460848084B9847204602B010BD00BFB9
:102AB0007C0440200000A0400000A0C000F07F4542
:102AC0008526400010044020BD214000074BDB6BF1
:102AD00013F0400F04D10022054B83F824207047E7
:102AE0000122034B83F82420704700BF00140E40DE
:102AF000080440200000000010B582B0124B188876
:102B00000021124B00930B46114A07EE900AF8EE93
:102B1000677A17EE900A0F4CA0470F4B984708A30F
:102B2000D3E900230D4CA0470D4B98470D4B984718
:102B3000044601460C480D4B9847204602B010BD94
:102B4000399D52A246DF913F7C0440200000704135
:102B500000F07F4585264000CD4140007542400091
:102B6000B52B4000F94740000C044020BD21400037
:102B7000044B5B6913F0020FFAD00278014BDA6163
:102B8000704700BF000A0E4010B586B0054B98474D
:102B900001AB0622044CA04701A90448044B984706
:102BA00006B010BDCD41400099484000BC7D4000BA
:102BB0003949400030B5224A21F00043934287B0A2
:102BC0001BDD204A934205DD02460B4601F09EF9CB
:102BD00007B030BD02AA00F037F800F00303012B64
:102BE0001AD0022B0FD01BB30124DDE90423DDE949
:102BF0000201009400F0B8FFEAE70022002300F091
:102C000047FA07B030BDDDE90423DDE9020100F039
:102C10003FFA01F10041DBE7DDE904450093DDE91E
:102C2000020122462B4600F09FFF01F10041CFE751
:102C3000DDE90423DDE9020100F02AFAC8E700BF5C
:102C4000FB21E93FFFFFEF7F2DE9F04F9A4E21F086
:102C50000047B74291B040F38E809246974A974220
:102C60000C4626DC00298AA3D3E9002340F3B48173
:102C700001F04CF9924B9F4204460D4600F09080C3
:102C800085A3D3E9002301F041F902460B46CAE9C6
:102C900000232046294601F039F97FA3D3E9002318
:102CA00001F034F90125CAE90201284611B0BDE856
:102CB000F08F844A974240F39080834A974265DCC4
:102CC0003D15A5F21645A7EB055319461F460646C6
:102CD00001F06AFD01F068FA8046894602460B461B
:102CE00030463946CDE90A8901F010F90022774BC8
:102CF00001F0C0FA8946804601F056FD01F054FA11
:102D000002460B4606460F4640464946CDE90C674B
:102D100001F0FCF800226D4B01F0ACFA0022002318
:102D2000CDE90E0101F00EFD002800F073810023B3
:102D300030463946002201F005FD002814BF01236A
:102D40000223634A019202212A4600910AA85146B1
:102D500000F0C2FA002C054614DADAF80420DAF89A
:102D60000C3002F1004203F100434542CAF804204E
:102D7000CAF80C3006E0C2E9000100250024C2E9CF
:102D800002450025284611B0BDE8F08F02460B46EB
:102D900001F0BCF80025CAE90201CAE90001F1E727
:102DA0003FA3D3E9002301F0B1F83FA3D3E9002307
:102DB0000D46044601F0AAF802460B46CAE9002374
:102DC0002946204601F0A2F837A3D3E9002301F0F9
:102DD0009DF80125CAE90201D4E700F07BFF34A386
:102DE000D3E900238046894601F044FA0022394B9A
:102DF00001F08EF801F0D8FC054601F0D5F924A3C6
:102E0000D3E90023CDE9040101F034FA02460B4670
:102E10004046494601F07AF81FA3D3E900238046D3
:102E20008946DDE9040101F025FA1F2DCDE90201F3
:102E300054DC294B6A1E53F822309F424ED0024682
:102E40000B464046494601F061F802460B46CAE986
:102E5000002383460E465A4633464046494601F013
:102E600055F8DDE9022301F051F8002C02460B462B
:102E7000CAE9022386DA5B4606F1004601F1004109
:102E80008AE84800CAF80C10CAF808006D4279E7D1
:102E900000004054FB21F93F3163621A61B4D03D18
:102EA0000000601A61B4D03D7370032E8A19A33BF1
:102EB00083C8C96D305FE43FFB21E93F7BD9024005
:102EC000FB21F93FFB213941FFFFEF7F00007041FB
:102ED000407E40000000E03FC07D4000DDE902236D
:102EE0004046494601F012F83A15C1F30A53D31A85
:102EF000102B83460E460992CAE90001ABDD58A3A8
:102F0000D3E90023DDE9040101F0B4F906460F46D8
:102F100002460B464046494600F0F8FFCDE906015F
:102F200002460B464046494600F0F0FF32463B461B
:102F300000F0ECFF4CA3D3E9002306460F46DDE981
:102F4000040101F097F932463B4600F0DFFFDDE96E
:102F50000689CDE9020102460B464046494600F08B
:102F6000D5FF0B46C1F30A570E460999CF1B0246FF
:102F7000312F8346CAE900236CDD3DA3D3E900234A
:102F8000DDE9040101F076F906460F4602460B46DC
:102F900040464946CDE9068900F0B8FF02460B4697
:102FA00080468946DDE9060100F0B0FF32463B4627
:102FB00000F0ACFF30A3D3E9002306460F46DDE95D
:102FC000040101F057F932463B4600F09FFF0246EC
:102FD0000B46CDE9022334E700F09AFF2A4B9F42CB
:102FE00004460D4618D026A3D3E9002300F090FF35
:102FF00002460B46CAE900232946204600F086FF18
:103000001FA3D3E9002300F083FF4FF0FF35CAE987
:103010000201B7E6032394E611A3D3E9002300F0ED
:1030200077FF11A3D3E900230D46044600F070FF9B
:1030300002460B46CAE900232946204600F066FFF7
:1030400009A3D3E9002300F063FF4FF0FF35CAE97D
:10305000020197E6DDE90689FDE600BFAFF30080D7
:103060000000601A61B4D03D7370032E8A19A33B2F
:103070000000002E8A19A33BC14920259A837B3981
:103080003163621A61B4D03DFB21F93F00000000BA
:103090002DE9F04F21F00046B6F1795F85B00C467E
:1030A00092469B4605466BDA01F07EFB002800F055
:1030B000E8802A4623462846214601F0DBF874A31F
:1030C000D3E900238046894601F0D4F872A3D3E9FE
:1030D000002300F01DFF42464B4601F0CBF870A3E1
:1030E000D3E9002300F012FF42464B4601F0C2F83C
:1030F0006DA3D3E9002300F00BFF42464B4601F0DD
:10310000B9F86BA3D3E9002300F000FF42464B4619
:1031100001F0B0F868A3D3E9002300F0F9FE4246BD
:103120004B4601F0A7F8CDE900010022644B404670
:10313000494601F09FF8DDE9002306460F46404668
:10314000494601F097F85246804689465B46284634
:10315000214601F08FF802460B464046494600F0F2
:10316000D5FE02460B463046394600F0CFFE0246F9
:103170000B460020534900F0C9FE05B0BDE8F08FB2
:1031800002460B4601F076F841A3D3E900238046BE
:10319000894601F06FF840A3D3E9002300F0B8FEA0
:1031A00042464B4601F066F83DA3D3E9002300F008
:1031B000ADFE42464B4601F05DF83BA3D3E9002348
:1031C00000F0A6FE42464B4601F054F838A3D3E97E
:1031D000002300F09BFE42464B4601F04BF836A31D
:1031E000D3E9002300F094FE4B46424601F042F83A
:1031F000354B9E42CDE9000197DD344B9E424FF0A6
:10320000000238DCA6F5001300202E4916461F46A2
:1032100000F07CFECDE902010022294B40464946E0
:1032200001F028F832463B4600F070FEDDE900234D
:1032300006460F464046494601F01CF85246804675
:1032400089465B462846214601F014F802460B46A3
:103250004046494600F05AFE02460B463046394683
:1032600000F054FE02460B46DDE9020100F04EFE7E
:1032700005B0BDE8F08F164B164FCDE902230026AE
:10328000CAE71049002005B0BDE8F08FAFF3008019
:10329000D43888BEE9FAA8BDC4B1B4BD9EEE213EC3
:1032A000AD529C804F7E923E9015CB19A001FA3E04
:1032B0007751C1166CC1563F4C5555555555A53FD4
:1032C0000000E03F0000F03F3233D33F0000E93F11
:1032D0000000E73F0000D23F2DE9F04FADF5197D2A
:1032E0009C4CA29E9C4D54F8264005942646D41E24
:1032F00085FB0475E417C4EBA50424EAE4741D46B9
:103300000893631CA3EB8303013D02EBC303049307
:103310002B4609940295651BF418039006911AD464
:103320002C4401340DF1780800260027DDF88C923A
:1033300008E059F8250000F037FF0135A542E8E91B
:10334000020108D0002DF4DA013530463946A54295
:10335000E8E90201F6D1059B002B2EDB089B4FEA22
:10336000C309039BA9F10808984420AB9944059B25
:1033700070AA02EBC30B0DF5DC7A029B002BC0F2A6
:103380000F83039B4D46A3F108040026002775E92F
:103390000223F4E9020100F06DFF02460B463046BD
:1033A000394600F0B5FD444506460F46EFD1EAE93F
:1033B0000267DA4509F10809DFD10598089A0090FB
:1033C00000F18043013B9B000CAC191F234402F128
:1033D00000520B93039B013A21440A9103EBC20B69
:1033E000009A98A901EBC203002A53E92845134625
:1033F0002BDD01EBC308A8F1A8080DF12C090DF590
:10340000DC7A0022554B2046294600F033FF01F0BC
:10341000CBF900F0C9FE0022514B06460F4600F0E2
:1034200029FF02460B462046294600F06FFD01F0B9
:10343000BBF978E8022349F8040F3946304600F01A
:1034400067FDD04504460D46DBD1DDF810902046DF
:1034500029464A4600F0D0FC00224FF07F53044634
:103460000D4600F007FF00F03BFC00223D4B00F052
:1034700001FF02460B462046294600F047FD0D4657
:10348000044601F091F9804600F08EFE0B4602469C
:103490002946204600F03AFD4B46002B06460F46D3
:1034A00040F3F780009A0CA9013AC9F1180351F8CA
:1034B000225045FA03F101FA03F30CA8EB1A40F885
:1034C0002230C9F11705884443FA05F5002D63DD64
:1034D000009B002B08F1010840F381820C9C002C1A
:1034E00000F01883012000230CAAC4F1807442F874
:1034F0002340009A824219DD0CAA0CAC52F820102D
:103500006FF07F42511A44F820100099023399421B
:103510000CDD1046009A0CA901EB830301EB82013C
:103520001A68821A43F8042B8B42F9D1049B002BB2
:103530001ADD049B012B4FF0010440F05882009BE0
:103540005A1E0CAB0CA953F82230C3F3160341F8F2
:10355000223058E2887F4000ABAAAA2A0000703EC1
:103560000000704100002040022D15D132463B463C
:103570000020974900F0CAFC06460F46049A944979
:10358000002000F039FC02460B463046394600F078
:10359000BDFC022506460F46002200233046394670
:1035A00001F0D0F8002800F05282009A059B501ECE
:1035B00083420FDC02F18043013B0CAA0B9C02EB1F
:1035C0008303002253F80419A34242EA0102F9D10D
:1035D000002A6FD1059B0CAA013B52F82330002B27
:1035E00040F033820A9A012352F80419013300296A
:1035F000FAD0009AD31802F1010A9A4507933DDCEC
:10360000009B0899099A0B4407990AEB020899460E
:1036100020AB08F1804803EBC9098B18A39A08F185
:10362000FF3802EB880870AA02EBCA0AA39A02EBE1
:103630008303009358F8040F00F0B6FD029B002BA3
:10364000E9E802011DDB039B4D46A3F108040026B7
:10365000002775E90223F4E9020100F00BFE02469F
:103660000B463046394600F053FC5C4506460F4693
:10367000EFD1009B9845EAE80267DBD1079B0093F6
:10368000AEE6009B002600279845EAE80267D1D104
:10369000F4E706D1009B0CAA013B52F82350ED152C
:1036A00014E700224B4B01F06BF8002840F08281B8
:1036B000054671E70CA9029551F820300499CDF820
:1036C0001C8018390246009004916BB900F18043C8
:1036D000013B0CA800EB830353F80409013A1839A5
:1036E0000028F9D000920491049A3949002000F092
:1036F00083FB009B002B04460D46C0F20382DA00D8
:1037000070A901EB020B04920CAA02EB8306DFF80E
:10371000C8900BF1080704364FF0000856F8040D66
:1037200000F042FD22462B4600F0A4FD4B4667E91F
:10373000020142462046294600F09CFD0CAB9E4209
:1037400004460D46EAD10DF5907ACDF80CA0DDF8CF
:1037500014A04FF00009BAF1000FC0F23D81DFF86C
:103760007C805D4618A1D1E90001002600270024D5
:1037700003E04C4510DCF8E80201F5E8022300F014
:1037800079FD02460B463046394600F0C1FB013454
:10379000A24506460F46ECDA039B03EBC903ABF1E7
:1037A000080BC3E900676EAB5B4509F10109D2D193
:1037B000A29BDDF80CA0032B00F28B80DFE813F056
:1037C000D10090009000100000000040FB21F93F64
:1037D0000000F03F0000E03F0000703E507F4000DE
:1037E000009B002B40F3A481049B0AEB0308D8E95B
:1037F0000067D34658E9029A32463B46484651464E
:1038000000F086FB04460D4602460B4648465146EC
:1038100000F07CFB32463B4600F07AFBC8E9000131
:1038200068E90245C34526462F46E3D1009B012B9C
:10383000DA4640F37D81049B5B44D3E900679846F8
:1038400099460DF5947B59E90234324618462146D3
:103850003B46CDE9000100F05BFB04460D46024605
:103860000B46DDE9000100F051FB32463B4600F01B
:103870004FFBC9E9000169E90245CB4526462F46C1
:10388000E1D1002308F108081D464CAC1846294632
:1038900078E9022300F03CFB444503460D46F5D190
:1038A000029A002A00F02081DAF80440DAF80C20AD
:1038B000069FDAF80010DAF808003B6105F10045D0
:1038C00004F1004402F100427D617C60FA603960DD
:1038D000B860079B03F007000DF5197DBDE8F08F78
:1038E000049C00260834544433463046194674E993
:1038F000022300F00DFB544506460B46F5D1029A13
:1039000030461946002A00F0DA80069803F1004498
:10391000324644600660DAE9000100F0F7FA0B462F
:103920000099002902460EDD012410461946FAE9E5
:10393000022300F0EDFA0B4600990134A142024641
:10394000F3DA029909B103F100431946069B1046C8
:10395000C3E90201079B03F007000DF5197DBDE8DF
:10396000F08F049C00220834544413461046194634
:1039700074E9022300F0CCFAA24502460B46F5D1C9
:10398000029909B103F100431946069B1046C3E9A9
:103990000001079B03F007000DF5197DBDE8F08FCE
:1039A00000260027EAE90267DA4509F108097FF4F1
:1039B000E4AC02E5009B002B08F10108C8BF02251A
:1039C0003FF78CAD32463B460020634900F09EFA3B
:1039D000022506460F46DFE500260027DCE6049BAD
:1039E000002B26DD0024049B012B3FF4A8AD022B05
:1039F00009D1009B5A1E0CAB0CA953F82230C3F31B
:103A0000150341F82230022D7FF4C6AD32463B4605
:103A10000020514900F07AFA06460F46002C3FF488
:103A2000BBADABE500990133994278D1049B002BE3
:103A3000D9DC022D7FF4B0AD32463B46002046492A
:103A400000F064FA06460F46A6E50123D1E53946A3
:103A5000049F02957A423046CDF81C8000F0CCF9E4
:103A600000223E4B04460D4600F08AFE002862D03C
:103A700000223B4B2046294600F0FCFB00F094FE60
:103A8000064600F091FB0022344B00F0F3FB0246A7
:103A90000B462046294600F039FA00F085FE0099D1
:103AA0000B4601331A4600933B46183304930B46EA
:103AB0000CA941F82300134641F8236014E6069B45
:103AC0003246C3E900010B46DAE9000100F01EFAB4
:103AD0000B460099002902463FF726AF1946069B80
:103AE0001046C3E9020135E718462946DAE9002302
:103AF000DAE90245069FC7E90401C7E90023C7E9DF
:103B00000245E6E6A29B032B3FF6E3AEDFE803F0B7
:103B1000211C1C0E009B012B88DD0CAA012352F8EE
:103B2000044F002C3FF47EAF581CDDE40DF5907A75
:103B300000231D46B4E62946204600F035FE009AD3
:103B40000CA941F82200CFE5002633460DF5907A06
:103B5000D5E60022134613E70000F03F0000704155
:103B60000000703E000000002DE9F04F21F00046FB
:103B7000B6F1795F85B00C4690469946054604DA61
:103B800000F012FE002800F085802A4623462846D1
:103B9000214600F06FFB06460F4602460B462846BC
:103BA000214600F067FB3EA3D3E9002382468B4603
:103BB0003046394600F05EFB3BA3D3E9002300F01A
:103BC000A5F932463B4600F055FB39A3D3E9002363
:103BD00000F09EF932463B4600F04CFB36A3D3E999
:103BE000002300F093F932463B4600F043FB34A338
:103BF000D3E9002300F08CF90E9BCDE900019BB3C3
:103C00000022334B4046494600F034FBDDE90023F7
:103C1000CDE902015046594600F02CFB02460B4606
:103C2000DDE9020100F072F932463B4600F022FB6A
:103C300042464B4600F06AF923A3D3E90023064627
:103C40000F465046594600F015FB02460B463046DB
:103C5000394600F05DF902460B462846214600F041
:103C600055F905B0BDE8F08F02460B46304639469F
:103C700000F000FB14A3D3E9002300F047F95246FB
:103C80005B4600F0F7FA2A46234600F041F905B0FA
:103C9000BDE8F08F2846214605B0BDE8F08F00BF93
:103CA0007CD5CF5A3AD9E53DEB9C2B8AE6E55A3EC6
:103CB0007DFEB157E31DC73ED561C119A0012A3F62
:103CC000A6F810111111813F495555555555C53F5D
:103CD0000000E03F21F00041704700BF00000000FD
:103CE000C1F30A522DE9F843A2F2FF36132E0B4618
:103CF0000D460446884607461DDC002E40DB3C4A44
:103D000042FA06F901EA09020243864618D036A3B0
:103D1000D3E9002300F0FCF80022002300F03AFD74
:103D200020B1002D42DB28EA090500273C46294640
:103D30002046BDE8F883332E06DDB6F5806F2FD020
:103D400019462046BDE8F883A2F213424FF0FF392E
:103D500029FA02F910EA090FF2D023A3D3E90023CC
:103D600000F0D6F80022002300F014FD0028DDD07A
:103D7000002D21DB454627EA09073C462946D7E7BF
:103D800019A3D3E9002300F0C3F80022002300F0B8
:103D900001FD0028CAD0002D19DB00273D46C5E7EC
:103DA00002460B4600F0B4F80446CAE74FF480130D
:103DB00043FA06F6B044B6E7142E10D00123C6F13C
:103DC000340603FA06F6371928BF9844D2E725F0DF
:103DD0000042084B224318BF1D460027A6E705F105
:103DE0000108C7E7AFF300809C7500883CE4377E8C
:103DF000FFFF0F000000F0BFF8B5C1F30A560446FC
:103E00000D460B4617460EBB21F000430343864682
:103E100025D00022344B00F02DFA344A9742044654
:103E20000D460B462ADBC1F30A56363E3E4440F2AD
:103E3000FE72964228DC002E12DD23F0FF4323F4AD
:103E4000E00343EA065520462946F8BD40F2FF72DA
:103E50009642EBD102460B4600F05AF8F8BDF8BD89
:103E600016F1350F1DDA4CF250339F4222462B4695
:103E700025DC19A1D1E9000100F03CF816A3D3E933
:103E8000002300F0F7F9F8BD22462B4614A1D1E932
:103E9000000100F02FF812A3D3E9002300F0EAF9A3
:103EA000F8BD23F0FF4323F4E003363643EA06551A
:103EB0002046294600220E4B00F0DCF9F8BD08A18F
:103EC000D1E9000100F016F805A3D3E9002300F0C2
:103ED000D1F9F8BDAFF3008059F3F8C21F6EA50108
:103EE0009C7500883CE4377E00005043B03CFFFFE7
:103EF0000000903C03F0004321F0004242EA03013D
:103F0000704700BF81F0004102E000BF83F0004332
:103F100030B54FEA41044FEA430594EA050F08BF64
:103F200090EA020F1FBF54EA000C55EA020C7FEA28
:103F3000645C7FEA655C00F0E2804FEA5454D4EBA5
:103F40005555B8BF6D420CDD2C4480EA020281EA6F
:103F5000030382EA000083EA010180EA020281EAA7
:103F60000303362D88BF30BD11F0004F4FEA0131F9
:103F70004FF4801C4CEA113102D0404261EB410108
:103F800013F0004F4FEA03334CEA133302D052428E
:103F900063EB430394EA050F00F0A780A4F101044A
:103FA000D5F1200E0DDB02FA0EFC22FA05F2801884
:103FB00041F1000103FA0EF2801843FA05F359416A
:103FC0000EE0A5F120050EF1200E012A03FA0EFCE9
:103FD00028BF4CF0020C43FA05F3C01851EBE37113
:103FE00001F0004507D54FF0000EDCF1000C7EEB30
:103FF00000006EEB0101B1F5801F1BD3B1F5001F6E
:104000000CD349085FEA30004FEA3C0C04F101048C
:104010004FEA445212F5800F80F09A80BCF1004FB5
:1040200008BF5FEA500C50F1000041EB045141EA37
:10403000050130BD5FEA4C0C404141EB010111F438
:10404000801FA4F10104E9D191F0000F04BF0146E3
:104050000020B1FA81F308BF2033A3F10B03B3F1C1
:1040600020020CDA0C3208DD02F1140CC2F10C0251
:1040700001FA0CF021FA02F10CE002F11402D8BFAF
:10408000C2F1200C01FA02F120FA0CFCDCBF41EA7B
:104090000C019040E41AA2BF01EB0451294330BD4A
:1040A0006FEA04041F3C1CDA0C340EDC04F1140427
:1040B000C4F1200220FA04F001FA02F340EA0300FE
:1040C00021FA04F345EA030130BDC4F10C04C4F144
:1040D000200220FA02F001FA04F340EA0300294624
:1040E00030BD21FA04F0294630BD94F0000F83F46E
:1040F000801306BF81F480110134013D4EE77FEA51
:10410000645C18BF7FEA655C29D094EA050F08BF9C
:1041100090EA020F05D054EA000C04BF194610467D
:1041200030BD91EA030F1EBF0021002030BD5FEAC1
:10413000545C05D14000494128BF41F0004130BDE9
:1041400014F580043CBF01F5801130BD01F000453D
:1041500045F0FE4141F470014FF0000030BD7FEAB0
:10416000645C1ABF194610467FEA655C1CBF0B46AB
:10417000024650EA013406BF52EA033591EA030FC2
:1041800041F4002130BD00BF90F0000F04BF0021BA
:10419000704730B54FF4806404F132044FF00005ED
:1041A0004FF0000150E700BF90F0000F04BF002166
:1041B000704730B54FF4806404F1320410F00045CC
:1041C00048BF40424FF000013EE700BF42004FEAC7
:1041D000E2014FEA31014FEA02701FBF12F07F4344
:1041E00093F07F4F81F06051704792F0000F14BF41
:1041F00093F07F4F704730B54FF4607401F0004585
:1042000021F0004120E700BF50EA010208BF7047DB
:1042100030B54FF000050AE050EA010208BF7047D0
:1042200030B511F0004502D5404261EB41014FF439
:10423000806404F132045FEA915C3FF4DCAE4FF03D
:1042400003025FEADC0C18BF03325FEADC0C18BF24
:10425000033202EBDC02C2F1200300FA03FC20FA75
:1042600002F001FA03FE40EA0E0021FA02F11444C2
:10427000C1E600BF70B54FF0FF0C4CF4E06C1CEAD7
:1042800011541DBF1CEA135594EA0C0F95EA0C0F4C
:1042900000F0DEF82C4481EA030621EA4C5123EABF
:1042A0004C5350EA013518BF52EA033541F48011EE
:1042B00043F4801338D0A0FB02CE4FF00005E1FBA1
:1042C00002E506F00042E0FB03E54FF00006E1FBEB
:1042D00003569CF0000F18BF4EF0010EA4F1FF042E
:1042E000B6F5007F64F5407404D25FEA4E0E6D416E
:1042F00046EB060642EAC62141EA55514FEAC5207F
:1043000040EA5E504FEACE2EB4F1FD0C88BFBCF5FA
:10431000E06F1ED8BEF1004F08BF5FEA500E50F1AB
:10432000000041EB045170BD06F0004646EA010171
:1043300040EA020081EA0301B4EB5C04C2BFD4EBA3
:104340000C0541EA045170BD41F480114FF0000E9C
:10435000013C00F3AB8014F1360FDEBF002001F00A
:10436000004170BDC4F10004203C35DA0C341BDC84
:1043700004F11404C4F1200500FA05F320FA04F056
:1043800001FA05F240EA020001F0004221F000418A
:1043900010EBD37021FA04F642EB06015EEA430EFD
:1043A00008BF20EAD37070BDC4F10C04C4F120052D
:1043B00000FA04F320FA05F001FA04F240EA0200E0
:1043C00001F0004110EBD37041F100015EEA430EB1
:1043D00008BF20EAD37070BDC4F1200500FA05F2D1
:1043E0004EEA020E20FA04F301FA05F243EA020350
:1043F00021FA04F001F0004121FA04F220EA02005F
:1044000000EBD3705EEA430E08BF20EAD37070BDA4
:1044100094F0000F0FD101F00046400041EB010184
:1044200011F4801F08BF013CF7D041EA060195F066
:10443000000F18BF704703F00046520043EB030320
:1044400013F4801F08BF013DF7D043EA060370470D
:1044500094EA0C0F0CEA135518BF95EA0C0F0CD018
:1044600050EA410618BF52EA4306D1D181EA03015E
:1044700001F000414FF0000070BD50EA410606BF58
:104480001046194652EA430619D094EA0C0F02D19D
:1044900050EA013613D195EA0C0F05D152EA0336E2
:1044A0001CBF104619460AD181EA030101F0004100
:1044B00041F0FE4141F470014FF0000070BD41F049
:1044C000FE4141F4780170BD70B54FF0FF0C4CF423
:1044D000E06C1CEA11541DBF1CEA135594EA0C0F42
:1044E00095EA0C0F00F0A7F8A4EB050481EA030E8F
:1044F00052EA03354FEA013100F088804FEA033376
:104500004FF0805545EA131343EA12634FEA022243
:1045100045EA111545EA10654FEA00260EF0004104
:104520009D4208BF964244F1FD0404F5407402D256
:104530005B084FEA3202B61A65EB03055B084FEAE7
:1045400032024FF480104FF4002CB6EB020E75EBE4
:10455000030E22BFB61A754640EA0C005B084FEA0C
:104560003202B6EB020E75EB030E22BFB61A754689
:1045700040EA5C005B084FEA3202B6EB020E75EBD4
:10458000030E22BFB61A754640EA9C005B084FEA4C
:104590003202B6EB020E75EB030E22BFB61A754659
:1045A00040EADC0055EA060E18D04FEA051545EA48
:1045B00016754FEA06164FEAC30343EA52734FEAF1
:1045C000C2025FEA1C1CC0D111F4801F0BD141EA6A
:1045D00000014FF000004FF0004CB6E711F4801FCF
:1045E00004BF01430020B4F1FD0C88BFBCF5E06FAF
:1045F0003FF6AFAEB5EB030C04BFB6EB020C5FEABF
:10460000500C50F1000041EB045170BD0EF0004E13
:104610004EEA113114EB5C04C2BFD4EB0C0541EA45
:10462000045170BD41F480114FF0000E013C90E642
:1046300045EA060E8DE60CEA135594EA0C0F08BF06
:1046400095EA0C0F3FF43BAF94EA0C0F0AD150EA05
:1046500001347FF434AF95EA0C0F7FF425AF104698
:1046600019462CE795EA0C0F06D152EA03353FF4C0
:10467000FDAE1046194622E750EA410618BF52EA3D
:1046800043067FF4C5AE50EA41047FF40DAF52EA11
:1046900043057FF4EBAE12E74FF0FF3C06E000BFAE
:1046A0004FF0010C02E000BF4FF0010C4DF804CDBB
:1046B0004FEA410C7FEA6C5C4FEA430C18BF7FEA7B
:1046C0006C5C1BD001B050EA410C0CBF52EA430CA9
:1046D00091EA030F02BF90EA020F0020704710F129
:1046E000000F91EA030F58BF994208BF90422CBFB8
:1046F000D8176FEAE37040F0010070474FEA410CB1
:104700007FEA6C5C02D150EA013C07D14FEA430CCE
:104710007FEA6C5CD6D152EA033CD3D05DF8040B3F
:10472000704700BF8446104662468C461946634671
:1047300000E000BF01B5FFF7B7FF002848BF10F148
:10474000000F01BD4DF808EDFFF7F4FF0CBF01208D
:1047500000205DF808FB00BF4DF808EDFFF7EAFF09
:1047600034BF012000205DF808FB00BF4DF808EDC4
:10477000FFF7E0FF94BF012000205DF808FB00BFB9
:104780004DF808EDFFF7CEFF94BF012000205DF843
:1047900008FB00BF4DF808EDFFF7C4FF34BF012050
:1047A00000205DF808FB00BF4FEA410212F500123D
:1047B00015D211D56FF47873B3EB625212D94FEA68
:1047C000C12343F0004343EA505311F0004F23FA52
:1047D00002F018BF404270474FF00000704750EAA7
:1047E000013005D111F0004008BF6FF00040704764
:1047F0004FF00000704700BF4FEA4102B2F1E043C2
:1048000024BFB3F5001CDCF1FE5C0DD901F0004CB7
:104810004FEAC0024CEA5070B2F1004F40EB830007
:1048200008BF20F00100704711F0804F21D113F133
:104830003872BCBF01F00040704741F480114FEA6C
:104840005252C2F11802C2F1200C10FA0CF320FAF5
:1048500002F018BF40F001004FEAC1234FEAD32312
:1048600003FA0CFC40EA0C0023FA02F34FEA43037C
:10487000CCE77FEA625307D150EA01331EBF4FF005
:10488000FE4040F44000704701F0004040F0FE4020
:1048900040F40000704700BFF0B51C4685B000230F
:1048A0001546002206460F46FFF756FF234618B16D
:1048B0002D2203F8012B013D0022039207490193A9
:1048C00067220292009532463B46086800F0B0FA33
:1048D000002814BF2046002005B0F0BD2400402071
:1048E00070B50D4E0D4CA41BA4100025A54209D196
:1048F0000B4E0C4C03F024FCA41BA4100025A54275
:1049000005D170BD56F8253098470135EEE756F8C9
:10491000253098470135F2E74C8140004C8140003A
:104920004C8140005081400002440346934200D134
:10493000704703F8011BF9E70FB40A4B13B51C6865
:1049400024B1A36913B9204600F02AFC05AB049AF0
:10495000A1680193204601F0E7F802B0BDE81040DD
:1049600004B070472400402038B5084B1C68054649
:1049700024B1A36913B9204600F012FCA2682946AD
:104980002046BDE8384001F07BBB00BF240040203A
:1049900070B50E46054618B183690BB900F000FCEE
:1049A000AB69AC6813B9284600F0FAFB234B9C4274
:1049B00017D16C68A3891B071DD52369DBB1013EA4
:1049C000A36816F8011F013BA360E9B9002B2EDA9A
:1049D00022460A21284600F0F5F8013011D00A20BD
:1049E00070BD174B9C4201D1AC68E3E7154B9C426C
:1049F00008BFEC68DEE72146284600F035F90028BC
:104A0000DDD04FF0FF3070BD002B04DAA269934275
:104A100006DB0A2904D023685A1C22601970CFE7EC
:104A20002246284600F0CEF80130C9D1E9E72368D4
:104A30000A205A1C2260187070BD00BFBC7F400065
:104A4000DC7F40009C7F4000024B01461868FFF766
:104A50009FBF00BF2400402000294FF480630CBF9B
:104A60000222002200F000B82DE9F7431D46514B09
:104A70001E6804460F46904626B1B36913B9304606
:104A800000F08EFB4C4B9C4252D17468B8F1020F7F
:104A900006D0B8F1010F00F28980002DC0F28680A7
:104AA0002146304600F012FB616B41B104F1440332
:104AB000994202D0304600F063FF00236363002375
:104AC000A3616360A3891B0603D52169304600F00A
:104AD00057FFA38923F44A6323F00303B8F1020FBD
:104AE000A3815DD001AB6A462146304600F0E2FB6F
:104AF000A3891843A0812DBB009D284600F03EFCF1
:104B0000074600284ED1DDF80090A9453CD14FF072
:104B1000FF30A38943F00203A3810023A36004F1C3
:104B20004703236023610123636103B0BDE8F08381
:104B3000224B9C4201D1B468A8E7214B9C4208BF9C
:104B4000F468A3E7002FD8D0B36913B9304600F05A
:104B500027FBB8F1010F08BFA389276004BF43F00A
:104B60000103A381A389276113F0080065611BD0AD
:104B700013F0010018BF6D424FF000031DBFA3608A
:104B8000A5611846A560D0E7484600F0F7FB074648
:104B90000028BCD0A38943F08003A3814D46D3E70E
:104BA0000020B6E7A946F5E7A060BEE74FF0FF306A
:104BB000BBE700BF24004020BC7F4000DC7F4000FA
:104BC0009C7F4000F8B50E461446054618B183692F
:104BD0000BB900F0E5FA214B9C422AD16C68A3691D
:104BE000A360A3891A072ED5236963B323692068BC
:104BF000C01A6369F6B29842374604DB214628465C
:104C000000F064FA28BBA368013BA36023685A1C28
:104C100022601E7063690130984204D0A389DB07CB
:104C200019D50A2E17D12146284600F04FFA90B127
:104C30000FE00B4B9C4201D1AC68D0E7094B9C4282
:104C400008BFEC68CBE72146284600F00DF80028A5
:104C5000CCD04FF0FF373846F8BD00BFBC7F4000D6
:104C6000DC7F40009C7F4000324B70B51D680646DB
:104C70000C4625B1AB6913B9284600F091FA2E4BCA
:104C80009C420FD16C68B4F90C309AB215072CD441
:104C9000D00611D40922326043F04003A3814FF0C3
:104CA000FF3070BD254B9C4201D1AC68EBE7244B33
:104CB0009C4208BFEC68E6E7510712D5616B41B131
:104CC00004F14403994202D0304600F059FE00231B
:104CD0006363A38923F02403A38100236360236912
:104CE0002360A38943F00803A38123694BB9A389F7
:104CF00003F42073B3F5007F03D02146304600F063
:104D0000FDFAA28912F001030CD00023A3606369AD
:104D10005B42A361236953B9B4F90C3013F08000EE
:104D2000BAD170BD920758BF6369A360F2E7002053
:104D3000F7E700BF24004020BC7F4000DC7F40003C
:104D40009C7F4000F0B58BB00F4608A9109C0491E1
:104D500007A9039109A90291611C01910221009107
:104D60009DF84460129D01F0CBFA0146099842F289
:104D70000F73984204D1384601F00BFA0BB0F0BD26
:104D80000B783B7045B93CB97B1C11F8012F3AB93F
:104D9000672E0BD1652614E02E22BB1C7A70F4E737
:104DA000002CF5DD03F8012B013CEEE7472E3CD04B
:104DB00019463025621A1A44002A33DC002CA8BF99
:104DC0001B19411E0029B8BFC0F101001A46099104
:104DD000ACBF2B20099002F8026BA8BF587009984D
:104DE000BCBF2D245C70632811460BDD642390FB4F
:104DF000F3F303F1300111706FF0630101FB030362
:104E00000993511C099A0A2392FBF3F303F1300032
:104E100008706FF0090000FB032330334B70002350
:104E20008B70ABE701F8015BC4E74526C9E70000DA
:104E30002DE9F04316468BB01D4681460022002323
:104E400030462946DDF84880139C159FFFF784FC07
:104E500008B105F100450022002330462946FFF73E
:104E600071FC38B1302323700023637020460BB0EF
:104E7000BDE8F0834EA3D3E9002330462946FFF76F
:104E800075FC68B19DF85030019308F1FF33009331
:104E9000029732462B4621464846FFF753FFE5E787
:104EA000404600F043FD02460B4630462946FFF7D8
:104EB00067FC0028E6D100223F4B29463046FFF729
:104EC0004BFC09A908AA07AB049103920293CDF801
:104ED0000480E8B10323009332462B46484601F094
:104EE0000FFA079A42F20F739A4213D023460178C1
:104EF000079EA8EB0302054622440130A1B9B61A69
:104F00004FF0300EB018002837DC79B107900DE073
:104F10000223E0E70146204601F03BF9A6E7013E07
:104F200003F8011B0796E2E7002EF8DC0FB9297899
:104F300001B39C4202BF631C302121702E211970E5
:104F40000799013300204FF0300E00290E4620DB78
:104F500000B10791013D15F8011F09B1002A20DCBD
:104F600047B118463025111A194400291DDC002AC2
:104F7000A8BF9B1800221A7078E7002AC5DD03F845
:104F800001EB013A0121BDE703F801EB013A0120F1
:104F9000DBE7002A01F10101F6DC0028DAD00796F0
:104FA000D8E703F8011B013AD5E700F8015BDAE71F
:104FB0002D431CEBE2361A3F0000F03F8A892DE9B1
:104FC000F041054610070C465AD44B68002B05DC0F
:104FD0000B6C002B02DC0020BDE8F081E66A002E9D
:104FE000F9D0002312F480522F682B6033D0606D0B
:104FF000A3895A0705D56368C01A636B0BB1236C8C
:10500000C01A00230246E66A216A2846B047431CBC
:10501000A38906D129681D294BD82B4ACA40D60737
:1050200047D500226260D9042269226004D5421C5F
:1050300001D12B6803B96065616B2F600029CAD06C
:1050400004F14403994202D0284600F099FC002064
:105050006063BDE8F081216A01232846B047411C06
:10506000C6D12B68002BC3D01D2B01D0162B01D12C
:105070002F60B0E7A38943F04003A381BDE8F0812E
:105080000F69002FA7D093070E6808BF4B690F6008
:1050900018BF0023A6EB07088B60B8F1000F9ADD5C
:1050A00043463A46216AA66A2846B047002807DCEC
:1050B000A38943F04003A3814FF0FF30BDE8F081A6
:1050C0000744A8EB0008E8E70100402038B50B6969
:1050D00005460C46DBB118B183690BB900F060F8E6
:1050E0000C4B9C4209D16C68B4F90C307BB1214661
:1050F0002846BDE83840FFF761BF074B9C4201D10D
:10510000AC68F1E7054B9C4208BFEC68ECE7002077
:1051100038BD00BFBC7F4000DC7F40009C7F40006A
:10512000014900F0A9B800BFCD504000002310B5E0
:10513000044603604360836081814366C2810361EA
:1051400043618361194608225C30FFF7EDFB054B94
:105150006362054BA362054BE362054B2462236344
:1051600010BD00BF0D6140002F614000676140002D
:105170008B61400070B54A1E682555430E4605F107
:10518000740100F04BFC044640B1002180E842006D
:105190000C30A06005F16802FFF7C6FB204670BD29
:1051A000836910B5044633BB8364C3640365124B43
:1051B000124A1B688262984204BF0123836100F097
:1051C0001FF86060204600F01BF8A060204600F049
:1051D00017F80022E06004216068FFF7A7FF0122B2
:1051E0000921A068FFF7A2FF02221221E068FFF761
:1051F0009DFF0123A36110BD987F40002151400015
:10520000F8B51C4B1E68B369074613B93046FFF763
:10521000C7FF4836B4687368013B03D5336833B1C0
:105220003668F7E7B4F90C506DB16834F4E704213F
:105230003846FFF79FFF30600028F1D10C233B6018
:1052400004462046F8BD4FF6FF73E3810123A38196
:1052500065662560A560656025616561A5610822B8
:10526000294604F15C00FFF75FFB6563A563A56455
:10527000E564E6E7987F40002DE9F84380468946DB
:1052800000F14804002614B93046BDE8F883A5684B
:105290006768013F01D52468F5E7AB89012B07D981
:1052A000B5F90E30013303D029464046C8470643BE
:1052B0006835EEE770B50E46B1F90E10002990B0D2
:1052C00014461D4607DA00232B60B3891A0610D452
:1052D0004FF480630EE001AA01F0E4FD0028F2DB48
:1052E000029A02F47042A2F500535A425A412A60CF
:1052F000EEE740230020236010B070BD8B8973B5AA
:105300009D0706460C4607D504F147032360236139
:105310000123636102B070BD01AB6A46FFF7CAFFAB
:1053200000990546304600F079FB48B9B4F90C30D5
:105330009A05EFD423F0030343F00203A381E3E7CC
:105340000D4BB362A389206043F08003A381009BCF
:105350006361019B20615BB1B4F90E10304601F02E
:10536000B3FD28B1A38923F0030343F00103A38114
:10537000A3891D43A581CDE721514000024B014681
:10538000186800F04BBB00BF2400402070B5456A90
:1053900004460E463DB91020FFF7F0FF60624560FD
:1053A00085600560C560656AEB6883B1636ADB6828
:1053B00053F82600B8B9012101FA06F56A1D9200DA
:1053C000204600F0CFFA60B1466085600EE02122F1
:1053D0000421204600F0C6FA636AE860DB68002B0F
:1053E000E4D1002070BD026843F826200023036149
:1053F000C36070BD70B5446A06460D463CB91020C6
:10540000FFF7BCFF7062446084600460C4603DB11B
:10541000736A6A68DB6853F82210296043F82250E7
:1054200070BD2DE9F0410D691F4606460C4601F19D
:10543000140E0023DEF8000081B202FB01710F0C94
:10544000000C02FB007089B2013301EB00419D4268
:105450004FEA10474EF8041BECDCD7B1A3689D421D
:1054600012DB616830460131FFF790FF226902329A
:1054700004F10C01804692000C3001F099FD2146A8
:105480003046FFF7B7FF444604EB850301355F6103
:1054900025612046BDE8F081020C12040346B2B932
:1054A0000304102013F07F4F04BF1B02083013F0D9
:1054B000704F04BF1B01043013F0404F04BF9B002A
:1054C0000230002B06DB5B0003D501307047002063
:1054D000E8E720207047036813F0070201460BD06D
:1054E000DA0723D4980749BF5B089B0801200B60AB
:1054F0005CBF0B600220704798B2A8B91B0C10204B
:1055000013F0FF0F04BF1B0A08301A0704BF1B0962
:1055100004309A0704BF9B080230DA0702D45B0804
:1055200006D001300B6070471046E9E70020704755
:105530002020704710B50C460121FFF727FF0122FC
:105540004461026110BD2DE9F74F14460A692369D1
:105550009A42B8BF0B468946BCBFA1461C46D9F843
:105560001070D4F810A0D9F80830D9F8041007EB5F
:105570000A069E42C8BF0131FFF708FF00F114057B
:1055800005EB86082B460022434516D304F114028E
:1055900009F1140102EB8A0301EB87070193019CD7
:1055A000944213460CD8002E03DD58F8043D002B1E
:1055B00054D0066103B0BDE8F08F43F8042BE3E755
:1055C000B3F800A00432BAF1000F20D0AE468946ED
:1055D0004FF0000C59F8044BBEF800B0A3B20AFB20
:1055E00003B34FEA144BDEF8004063444FEA144C17
:1055F0000AFB0BC404EB13449BB243EA04434F453C
:105600004FEA144C4EF8043BE4D8CEF800C032F810
:10561000029CB9F1000F1FD02B68AE468C464FF0AC
:10562000000ABCF80040BEF802B009FB04B4A24472
:105630009BB243EA0A434EF8043B5CF8043BBEF8D5
:1056400000401B0C09FB034303EB1A4367454FEA79
:10565000134AE6D8CEF800300435A0E7013EA2E7B1
:105660002DE9F843154612F0030206460F4607D00F
:10567000013A214C002354F82220FFF7D2FE0746BE
:10568000AD1035D0746A3CB91020FFF777FE706218
:10569000446084600460C460D6F82480D8F8084070
:1056A0004CB940F271213046FFF744FF0023C8F89F
:1056B0000800044603604FF00008EB070AD539469E
:1056C00022463046FFF73FFF394681463046FFF716
:1056D00091FE4F466D100BD0206838B92246214606
:1056E0003046FFF730FF2060C0F800800446E4E752
:1056F0003846BDE8F88300BFF08040002DE9F04750
:105700000C464FEA621A236949680AEB0309A36849
:105710000746164609F10105AB4231DB3846FFF773
:1057200035FE0022804600F11403114652452ADB63
:1057300020692AEAEA7A04F1140116F01F0203EB49
:105740008A0301EB800E22D0C2F1200C00200E68EB
:105750009640304343F8040B51F8040B8E4520FA71
:105760000CF0F4D8186008B109F10205013D384683
:10577000C8F810502146FFF73DFE4046BDE8F087CF
:1057800001315B00C8E743F822100132CEE7043B49
:1057900051F8042B43F8042F8E45F9D8E6E7036946
:1057A0000A699B1A30B50CD1920014301431841858
:1057B000114454F8045D51F8042D954203D005D3EB
:1057C0000123184630BDA042F3D3FAE74FF0FF3370
:1057D000F7E72DE9F0470D460746114628461446DF
:1057E000FFF7DDFF061E08D131463846FFF7CEFD34
:1057F000012303614661BDE8F087A4BF23462C4620
:1058000038466168A6BF1D4600260126FFF7BEFD8B
:105810002B69C660266905F1140904F1140202EB34
:10582000860709EB830800F114054FF0000C52F8CD
:1058300004AB59F8044B1CFA8AF1A3B2C91A230C21
:10584000C3EB1A4303EB214389B24FEA234CC8450B
:1058500041EA0343964645F8043BE8D8BE4505D3E4
:1058600055F8043D8BB10661BDE8F0875EF8041B76
:105870001CFA81F31A1402EB11429BB243EA024371
:105880004FEA224C45F8043BE8E7013EE8E72DE902
:10589000F34101211C469046089E099DFFF776FDC5
:1058A000C4F31302C4F30A54074634BB0192B8F19F
:1058B000000F27D002A840F8088DFFF70CFE0099D2
:1058C000F0B1019AC0F1200302FA03F30B43C24086
:1058D0007B610192019BBB61002B14BF022101215E
:1058E0003961C4B1A4F2334404443460C0F13500DA
:1058F0002860384602B0BDE8F08142F48012D5E756
:105900007961E7E701A8FFF7E6FD019B7B610121D3
:1059100039612030E5E707EB8103A0F232403060C7
:105920001869FFF7B9FDC0EB4110E1E71728D0B5C2
:10593000044605DC084B03EBC004D4E90001D0BDEC
:105940000649074F0020002632463B46FEF792FCF0
:10595000013CF9D1D0BD00BF288040000000F03FDD
:105960000000244038B502FB01F4214600F056F84F
:10597000054618B122460021FEF7D6FF284638BD5D
:1059800038B50546002945D051F8043C0C1F002BC2
:10599000B8BFE41801F017FB1F4A1368104633B96B
:1059A000636014602846BDE8384001F00DBBA34297
:1059B0000CD921686218934204BF1A685B6863605F
:1059C00004BF521822600460ECE713465A680AB11B
:1059D000A242FAD919685818A0420BD12068014494
:1059E000581882421960DDD1106852685A6001442B
:1059F0001960D7E702D90C232B60D3E72068211860
:105A00008A4204BF11685268626004BF09182160AD
:105A10005C60C7E738BD00BFE001402070B5CD1C19
:105A200025F0030508350C2D38BF0C25002D064642
:105A300001DBA94203D90C233360002070BD01F0C3
:105A4000C2FA234A1468214691B9224C23681BB933
:105A5000304600F04BFB20602946304600F046FB04
:105A6000431C26D10C233360304601F0ADFAE4E745
:105A70000B685B1B1AD40B2B0FD90B60CD50CC18C5
:105A8000304601F0A1FA04F10B00231D20F00700BD
:105A9000C31A1BD05A42E25070BD8C420DBF6368DE
:105AA0004B686360136018BF0C46E9E70C46496811
:105AB000CAE7C41C24F00304A04205D0211A3046D2
:105AC00000F014FB0130CDD02560D9E770BD00BFD8
:105AD000E0014020E40140209368013B002B10B41A
