:020000040040BA
:10000000100C4020192740001527400015274000FC
:10001000152740001527400015274000000000006C
:100020000000000000000000000000001527400054
:10003000152740000000000015274000152740004C
:1000400015274000152740001527400015274000C0
:1000500015274000152740001527400015274000B0
:10006000AD49400000000000DD3F40001527400082
:10007000D13F4000152740001527400015274000BC
:100080001527400015274000152740001527400080
:10009000152740001527400015274000E544400083
:1000A0001527400015274000F9444000152740005F
:1000B000152740001D3C4000152740001527400033
:1000C0001527400015274000152740001527400040
:1000D0001527400015274000152740001527400030
:1000E000313C4000152740001527400015274000EF
:1000F0001527400015274000152740001527400010
:1001000015274000152740001527400015274000FF
:1001100015274000152740000000000000000000E7
:1001200015274000152740001527400015274000DF
:1001300015274000152740001527400015274000CF
:1001400015274000152740001527400015274000BF
:1001500015274000152740001527400015274000AF
:10016000152740001527400010B5054C237833B9FA
:10017000044B13B10448AFF300800123237010BD7A
:10018000AC0040200000000010B240000C4B43B116
:100190000C480D4910B5AFF300800C48036823B933
:1001A00010BD0A48036833B97047094B002BF7D0DC
:1001B000BDE810401847064B002BF5D0184700BF8C
:1001C0000000000010B24000B000402010B240001B
:1001D0000000000008B5024B9847024B984708BD45
:1001E0004D2B40004956400007EE100A00290BDB5A
:1001F0000023F7EE007A02E067EE877A01338B4244
:10020000FADB17EE900A704749420023F7EE007AB6
:1002100002E0C7EE877A01338B42FADBF1E7000098
:100220002DE9F0478246062946D8DFE811F007009D
:100230004F00D8011702B502F502340304219C4F88
:10024000B8479C4EB0479C4D7BA3D3E90023A847F9
:100250008046894603215046B847B04778A3D3E982
:100260000023A847954C02460B4640464946A04706
:100270008046894602215046B847B04772A3D3E969
:100280000023A84702460B4640464946A047804601
:1002900089465046B0476EA3D3E90023A8470246DB
:1002A0000B4640464946A0476BA3D3E90023A0472D
:1002B000834B9847834B98618348844B9847814C84
:1002C000A069834B9847A069BDE8F087DFED817A8C
:1002D00007EE100AB4EEE77AF1EE10FA6AD9DFED14
:1002E0007D7A07EE100AB4EEE77AF1EE10FA07DD38
:1002F000DFED797AB4EEE77AF1EE10FA40F2F080B1
:10030000DFED757A07EE10AAB4EEE77AF1EE10FA97
:1003100007DDDFED727AB4EEE77AF1EE10FA40F223
:100320001E81DFED6E7A07EE10AAB4EEE77AF1EEE9
:1003300010FAC1DD042150465D4FB8475D4EB0470D
:100340005D4D47A3D3E90023A84780468946032192
:100350005046B847B04744A3D3E90023A847574CB9
:1003600002460B4640464946A04780468946022140
:100370005046B847B0473EA3D3E90023A8470246FA
:100380000B4640464946A047804689465046B047FE
:1003900039A3D3E90023A84702460B464046494605
:1003A000A04737A3D3E90023A047454B9847454BC7
:1003B000986181E704213E4FB8473E4EB0473E4D1D
:1003C00031A3D3E90023A84780468946032150463C
:1003D000B847B0472EA3D3E90023A847374C0246BD
:1003E0000B4640464946A047804689460221504672
:1003F000B847B04728A3D3E90023A84702460B46D5
:1004000040464946A047804689465046B04724A307
:10041000D3E90023A84702460B4640464946A04779
:1004200021A3D3E90023A047254B9847254B98618A
:1004300042E700BFAFF3008014AFC1491B0C553D2C
:100440003E1FF5782A0AD63D60AB166E7F82C93E04
:1004500099F5622827DA953F643BDF4F8D97F03F8F
:10046000001BB66916C66C3D5B7F40957FCB3EBED8
:1004700046BF2AD50D2D053FC3F011312592B0BFDF
:100480006666666666C65240CFC275F0B1FD543DE1
:1004900036FF59AE8B75D43DBB87BE9A873CC73EAD
:1004A00084D89942E735963F448B6CE7FBA9ED3F32
:1004B000E9014000F56D40009D6E4000396B400041
:1004C00021744000A4024020609B4000C9564000B7
:1004D000A156400000007A440000FA4400803B45E9
:1004E0000421A74FB847A74EB047A74D7CA3D3E937
:1004F0000023A8478046894603215046B847B047A5
:1005000079A3D3E90023A847A04C02460B464046F6
:100510004946A0478046894602215046B847B04721
:1005200073A3D3E90023A84702460B464046494639
:10053000A047804689465046B0476FA3D3E90023C1
:10054000A84702460B4640464946A0476CA3D3E95C
:100550000023A0478E4B98478E4B9861ACE6042150
:100560005046874FB847874EB047874D66A3D3E9BB
:100570000023A8478046894603215046B847B04724
:1005800063A3D3E90023A847804C02460B464046AC
:100590004946A0478046894602215046B847B047A1
:1005A0005DA3D3E90023A84702460B4640464946CF
:1005B000A047804689465046B04759A3D3E9002357
:1005C000A84702460B4640464946A04756A3D3E9F2
:1005D0000023A0476E4B98476E4B98616CE6042150
:1005E000674FB847674EB047674D51A3D3E9002323
:1005F000A8478046894603215046B847B0474EA3D6
:10060000D3E90023A847614C02460B4640464946C1
:10061000A0478046894602215046B847B04748A3C4
:10062000D3E90023A84702460B4640464946A04767
:10063000804689465046B04743A3D3E90023A847E4
:1006400002460B4640464946A04741A3D3E9002352
:10065000A0474F4B98474F4B98612DE60421484FD8
:10066000B847484EB047484D3BA3D3E90023A847BD
:100670008046894603215046B847B04738A3D3E99E
:100680000023A847414C02460B4640464946A04736
:100690008046894602215046B847B04732A3D3E985
:1006A0000023A84702460B4640464946A0478046DD
:1006B00089465046B0472EA3D3E90023A8470246F7
:1006C0000B4640464946A0472BA3D3E90023A04749
:1006D0002F4B98472F4B9861EEE500BFAFF300809A
:1006E00056F39D5FA399593DEA4725906D90F5BD5E
:1006F0002D677F38F941CE3EB24B546F0D6C953F5C
:10070000B6F3FDD478E9F23F11267787EC9E653D7C
:10071000A0F7B73494912ABEF96273FEBB78EE3E1F
:10072000BA313D618907643FCDCCCCCCCC4C29405B
:100730001875C248A60EED3C40D848B98106763DF2
:10074000E757E969DD518E3E548B8862F206783FA7
:10075000CE88D2DEE00BE33F6961BCB4026FF03CAF
:10076000928F7751C2B3793D45D33AAA5101943E55
:10077000FF3F4E98309A753FB2D47ABFD18E6B3F0F
:10078000E9014000F56D40009D6E4000396B40006E
:1007900021744000A40240200421834FB847834DB8
:1007A000A847834C62A3D3E90023A047804689462B
:1007B00003215046B847A8475FA3D3E90023A047C9
:1007C0007C4E02460B4640464946B0478046894625
:1007D00002215046B847A84759A3D3E90023A047B0
:1007E00002460B4640464946B04780468946504639
:1007F000A84755A3D3E90023A04702460B4640462D
:100800004946B04752A3D3E900236B4CA0476B4B3A
:1008100098476B4B98614FE50421634FB847634E8F
:10082000B047634D4CA3D3E90023A84780468946CF
:1008300003215046B847B04749A3D3E90023A8474E
:100840005C4C02460B4640464946A04780468946D6
:1008500002215046B847B04743A3D3E90023A84735
:1008600002460B4640464946A047804689465046C8
:10087000B0473FA3D3E90023A84702460B464046B2
:100880004946A0473CA3D3E90023A0474B4B9847D8
:100890004B4B986110E5DFED4B7A07EE100AB4EE92
:1008A000E77AF1EE10FA01DD17EE90AA0421504626
:1008B0003D4FB8473D4EB0473D4D31A3D3E90023EE
:1008C000A8478046894603215046B847B0472EA323
:1008D000D3E90023A847374C02460B464046494619
:1008E000A0478046894602215046B847B04728A312
:1008F000D3E90023A84702460B4640464946A04795
:10090000804689465046B04723A3D3E90023A84731
:1009100002460B4640464946A04721A3D3E900239F
:10092000A047264B9847264B9861C5E4AFF300805B
:10093000F35B70C24080F13C50C39A675842643DFB
:1009400086F28E67A12A903EAF97A608707A773F0D
:1009500007CE1951DA1BCC3FE6A6E9FE1678303DEA
:10096000B3590A44D346C7BDA4CC6BC44A07C63E9C
:1009700084640113B875973FA69BC420B0720140F0
:1009800097BFE7688518863D96AB22DE3965183E2D
:100990008EDA7181D3D4053F80289831056B6C3F86
:1009A000F853E3A59BC40840E9014000F56D400001
:1009B0009D6E4000396B4000356B40002174400053
:1009C000A40240200000C8442DE9F04782460629D1
:1009D00046D8DFE811F007004F00E3010402990256
:1009E000D80217030421A04FB847A04EB047A04D2E
:1009F0007FA3D3E90023A8478046894603215046B8
:100A0000B847B0477CA3D3E90023A847994C0246D6
:100A10000B4640464946A04780468946022150463B
:100A2000B847B04776A3D3E90023A84702460B4650
:100A300040464946A047804689465046B04772A383
:100A4000D3E90023A84702460B4640464946A04743
:100A50006FA3D3E90023A047874B9847874B586182
:100A60008748884B9847854C6069874B98476069F1
:100A7000BDE8F08707EE900AF5EEC07AF1EE10FAC5
:100A800008DBDFED827A07EE100AB4EEE77AF1EECA
:100A900010FA6BD4DFED7D7A07EE10AAB4EEE77A98
:100AA000F1EE10FA07DBDFED7A7AB4EEE77AF1EED9
:100AB00010FA00F1F380DFED767A07EE10AAB4EEBB
:100AC000E77AF1EE10FA07DBDFED727AB4EEE77A3F
:100AD000F1EE10FA00F12281DFED6E7A07EE10AA36
:100AE000B4EEE77AF1EE10FABADB042150465E4F1D
:100AF000B8475E4DA8475E4C47A3D3E90023A04703
:100B00008046894603215046B847A84744A3D3E905
:100B10000023A047574E02460B4640464946B04781
:100B20008046894602215046B847A8473EA3D3E9EC
:100B30000023A04702460B4640464946B047804640
:100B400089465046A8473AA3D3E90023A047024666
:100B50000B4640464946B04737A3D3E900234E4CE5
:100B6000A047454B9847454B586179E704213E4FD4
:100B7000B8473E4EB0473E4D31A3D3E90023A847C6
:100B80008046894603215046B847B0472EA3D3E993
:100B90000023A847374C02460B4640464946A0472B
:100BA0008046894602215046B847B04728A3D3E97A
:100BB0000023A84702460B4640464946A0478046C8
:100BC00089465046B04724A3D3E90023A8470246EC
:100BD0000B4640464946A04721A3D3E90023A0473E
:100BE000254B9847254B58613AE700BFAFF300808B
:100BF00039949631F56FF43CF7D967DBBA1D773D30
:100C0000A1923591B2F18B3E1243BCBF8B08503F8D
:100C10007C2C7DE882FAA63F363E86DF9B83F3BCC0
:100C2000805AA475DA86E23D0FAA468B89CFA1BE11
:100C30009DF4BEF1B567663F295C8FC2F528F83F89
:100C400063A082C358A9F93CAB088669480B60BD14
:100C5000FF79B94FD7218A3E817C09151C5E503F30
:100C6000E88711C2A38DA33FE9014000F56D400064
:100C70009D6E4000396B400021744000A40240206A
:100C80006C9B4000C9564000A156400000007A44C9
:100C90000000FA4400803B45356B4000042150467B
:100CA000934FB847934EB047934D6DA3D3E90023BC
:100CB000A8478046894603215046B847B0476AA3F3
:100CC000D3E90023A8478D4C02460B4640464946CF
:100CD000A0478046894602215046B847B04764A3E2
:100CE000D3E90023A84702460B4640464946A047A1
:100CF000804689465046B0475FA3D3E90023A84702
:100D000002460B4640464946A0475DA3D3E900236F
:100D1000A0477B4B98477B4B5861A1E60421504686
:100D2000734FB847734EB047734D57A3D3E90023B1
:100D3000A8478046894603215046B847B04754A388
:100D4000D3E90023A8476D4C02460B46404649466E
:100D5000A0478046894602215046B847B0474EA377
:100D6000D3E90023A84702460B4640464946A04720
:100D7000804689465046B04749A3D3E90023A84797
:100D800002460B4640464946A04747A3D3E9002305
:100D9000A0475B4B98475B4B586161E60221544B7F
:100DA0009847544DA847544C41A3D3E90023A0478A
:100DB00006460F465046A8473FA3D3E90023A04765
:100DC0004E4C02460B4630463946A0473CA3D3E979
:100DD0000023A0474A4B98474A4B586140E60421FC
:100DE000434FB847434EB047434D37A3D3E90023A1
:100DF000A8478046894603215046B847B04734A3E8
:100E0000D3E90023A8473D4C02460B4640464946DD
:100E1000A0478046894602215046B847B0472EA3D6
:100E2000D3E90023A84702460B4640464946A0475F
:100E3000804689465046B04729A3D3E90023A847F6
:100E400002460B4640464946A04727A3D3E9002364
:100E5000A0472B4B98472B4B586101E6AFF300801E
:100E600060BBA9932A7C023D45FB5D785BFDB4BD68
:100E7000D9A4BE4F4508903E12842BA0504F4F3F3F
:100E80003E963E74417DAB3FB9DF4BD0990C083D97
:100E9000C53F4B5EE671CDBD4290297E18D1993E8B
:100EA000DF5ADC35D71F473F2B1895D40968CA3F56
:100EB000C317C75D32A7583EA0AE4912DFE4423FD8
:100EC000EDF5EE8FF7AA753F277BE3B7B857B03C37
:100ED00088226A0C75FE1D3DC5546F2D6BE6583E89
:100EE0008C22B59ABF53423FAB668CC5257D303FFF
:100EF000E9014000F56D40009D6E4000396B4000F7
:100F000021744000A402402004217D4FB8477D4E4B
:100F1000B0477D4D5CA3D3E90023A84780468946AE
:100F200003215046B847B04759A3D3E90023A84747
:100F3000764C02460B4640464946A04780468946C5
:100F400002215046B847B04753A3D3E90023A8472E
:100F500002460B4640464946A047804689465046D1
:100F6000B0474FA3D3E90023A84702460B464046AB
:100F70004946A0474CA3D3E90023A047644B9847B8
:100F8000644B58616CE504215D4FB8475D4EB04736
:100F90005D4D47A3D3E90023A84780468946032136
:100FA0005046B847B04744A3D3E90023A847574C5D
:100FB00002460B4640464946A047804689460221E4
:100FC0005046B847B0473EA3D3E90023A84702469E
:100FD0000B4640464946A047804689465046B047A2
:100FE00039A3D3E90023A84702460B4640464946A9
:100FF000A04737A3D3E90023A047454B9847454B6B
:1010000058612DE504213E4FB8473E4EB0473E4D56
:1010100031A3D3E90023A8478046894603215046DF
:10102000B847B0472EA3D3E90023A847374C024660
:101030000B4640464946A047804689460221504615
:10104000B847B04728A3D3E90023A84702460B4678
:1010500040464946A047804689465046B04724A3AB
:10106000D3E90023A84702460B4640464946A0471D
:1010700021A3D3E90023A047254B9847254B58616E
:10108000EEE400BFAFF300800F9D0B7AEC52893C79
:101090000075DA02CF573E3D279BA90AB1E55A3EBB
:1010A000E1F6BAFBD291423FA7AE7C96E7C17D3F05
:1010B0004A54C0673611D83C7D0A904AACB95B3DB2
:1010C00068C4FEF48137793E1A170E846401533FD9
:1010D0003813D38558FD713F19657E89BD1DFBBC52
:1010E000937C2E9640B99CBD15D2B4A004F1B23EBB
:1010F000BCF0DEAC1CB54D3FC80C54C6BFCF983F0A
:10110000E9014000F56D40009D6E4000396B4000E4
:1011100021744000A402402010B506EE900A1D4C38
:10112000D4ED127A1C4B93ED007A67EE877A94ED3A
:10113000137A1A4B93ED006A27EE067A27EE267A89
:1011400077EE877A94ED157A154B93ED006A27EECA
:10115000067A66EE876A77EEA67A94ED167A114BD8
:10116000D3ED006A27EE267A77EE877A94ED0E7A31
:101170000D4BD3ED006A27EE267A77EE877AC4ED21
:101180000B7A0A480A4B9847E06A0A4B9847E06A8C
:1011900010BD00BFA40240202C024020400340208C
:1011A00044034020FC034020F8034020809B400083
:1011B000C9564000A156400010B5084CD4ED0B7A3A
:1011C000B6EE007A67EE877AC4ED0C7A0448054BD8
:1011D0009847206B044B9847206B10BDA402402019
:1011E000AC9B4000C9564000A156400010B5084CC9
:1011F000D4ED067A94ED0B7A67EE877AC4ED097A1E
:101200000448054B9847606A044B9847606A10BDD4
:10121000A4024020D49B4000C9564000A156400083
:1012200010B5084CD4ED057A94ED0C7A67EE877A08
:10123000C4ED0A7A0448054B9847A06A044B9847C6
:10124000A06A10BDA4024020F09B4000C956400097
:10125000A156400010B50F4CD4ED067AD4ED0B6AC0
:1012600027EEA66AB7EE007A37EE667AC6EE076A10
:1012700077EEA67A084B93ED117A77EE877AC4ED74
:10128000077A0648064B9847E069064B9847E0699D
:1012900010BD00BFA402402098034020109C4000D5
:1012A000C9564000A15640002DE9F84F2DED028BA4
:1012B000554B1B6C062B5ED0534D95ED098AD5ED31
:1012C000137A68EE277ADFED518A87EEA87A504CC0
:1012D00078EE077A17EE900AA04782468B46286878
:1012E000A047804689466869A0474A4D44A3D3E990
:1012F0000023A847484B984702460B4640464946BC
:10130000A847464E02460B4650465946B0478046CF
:101310008946434DD5ED127A424B93ED007A67EE44
:10132000877A28EE278A404BD3ED007A67EEA87AB9
:1013300088EE277A17EE100AA04702460B46404671
:101340004946B04706460F46A86BA04702460B46E3
:1013500030463946354CA047354B9847686035488C
:10136000354B98476868354B98472D4B5868BDEC0E
:10137000028BBDE8F88F244D95ED098A244C18EEB8
:10138000100AA04782468B462868A04780468946B7
:101390006869A0471F4D1AA3D3E90023A8471E4B35
:1013A000984702460B4640464946A8471B4E024610
:1013B0000B4650465946B04780468946184DD5EDF4
:1013C000127A184B93ED007A67EE877A28EE278A17
:1013D000F6EE007A68EE277A17EE900AA0470246EA
:1013E0000B4640464946B047114B98476860114844
:1013F000114B98476868114B9847B6E7AFF30080E8
:10140000399D52A246DF913F980340200000C84218
:10141000F56D40009D6E400051574000396B400013
:10142000A40240202C024020FC034020356B4000E9
:1014300021744000249C4000C9564000A156400041
:1014400038B5154CD4ED0F7AB7EE007A87EE276ADF
:10145000D4ED017AD4ED046A67EEA67AC7EE276A66
:1014600076EE667A17EE900A0C4B984708A3D3E9FC
:1014700000230B4DA8470B4B984760630A480B4B62
:101480009847606B0A4B9847606B38BDAFF300809C
:10149000EB51B81EA5DFAA40A4024020F56D400024
:1014A0009D6E400021744000409C4000C9564000A1
:1014B000A1564000000000002DE9704F82B02A4C78
:1014C00094ED077AD4ED087A284D77EE677A17EE17
:1014D000900AA84782468B462068A84780468946DE
:1014E0006069A847224E1EA3D3E90023B047214BD1
:1014F000984702460B4640464946B047CDE90001B1
:1015000094ED0F7AD4ED0E7A77EE677A17EE900AA3
:10151000A8478046894602460B46DDE90001B047F0
:1015200002460B4650465946134CA04742464B468E
:10153000124CA047124B98470446A847114B9847B6
:101540000F2800DD00241048104B98472046104B10
:101550009847104BDC60204602B0BDE8708F00BF9A
:10156000399D52A246DF913F98034020F56D40001F
:101570009D6E400051574000356B4000F1704000B7
:1015800021744000C1744000509C4000C956400086
:10159000A1564000A40240202DE9F8432DED028B16
:1015A000294D2A4E2868B047804689466869B04769
:1015B000274C23A3D3E90023A047264B9847024694
:1015C0000B4640464946A04780468946224CE06883
:1015D000B04702460B4640464946204EB047204B96
:1015E000984708EE100A1F481F4FB84718EE100A18
:1015F0001E4EB04795ED087A1D4BD3ED007AF8EEFC
:10160000677A67EE887A77EE677AC4ED107A1948C0
:10161000B847206CB047B5EE408AF1EE10FA08D119
:101620000022134B1A600C4B186CBDEC028BBDE80A
:10163000F8830F4A136801331360F4E7AFF30080B7
:10164000399D52A246DF913F98034020F56D40003E
:101650009D6E400051574000A4024020396B40006D
:1016600021744000609C4000C9564000A1564000D3
:10167000C8004020749C400010B50A4CD4ED107A8C
:1016800094ED037AD4ED046A27EE267A77EEC77AD2
:10169000C4ED0F7A0448054B9847E06B044B98471C
:1016A000E06B10BDA40240208C9C4000C956400055
:1016B000A156400010B5124C94ED056A94ED0C7AD9
:1016C000F7EE007A77EEC77A66EE276A26EE077A9B
:1016D00036EE877AD4ED036A94ED105AC6EE055AB9
:1016E00066EEA56A77EEA67AC7EE276AC4ED046AAD
:1016F0000448054B98472069044B9847206910BD62
:10170000A40240209C9C4000C9564000A1564000C5
:101710002DE9F04F2DED068B85B0934B93ED109A8C
:10172000DFED927AB4EEE79AF1EE10FA02D50022DC
:101730008F4B9A608C4E96ED07AA8E4C1AEE100ACB
:10174000A047804689468A4F97ED018A18EE100A15
:10175000A047894D7CA3D3E90023A847DFF858A20E
:10176000D04702460B4640464946A847DFF84CB2F0
:10177000D84709EE900AF868A047CDE90001D7EDF7
:1017800000AA1AEE900AA047804689467869A047C9
:101790006DA3D3E90023A847D04702460B46CDE905
:1017A000022340464946A84780468946D7ED068A27
:1017B00078EECA7A17EE900AA04702460B464046DA
:1017C0004946A8478046894619EE100AA047DFF827
:1017D000F0A102460B4640464946D04702460B461A
:1017E000DDE90001DFF8DC81C0478046894696EDDF
:1017F00004AA1AEE100AA04702460B464046494684
:10180000A847D84709EE100AD7ED027A96ED0D7A6F
:1018100067EE877A28EE278A6AEE087A17EE900A32
:10182000A0474BA3D3E90023D047D8470AEE100ABC
:10183000F1EE4A7A17EE907A6AEEA87A17EE900ADD
:10184000A04702460B46DDE90201A84780468946CB
:101850007068A04702460B4640464946D047D847E5
:1018600008EE900A39EE898A38EE4A8A38EE888A7C
:1018700086ED028A3068A04704460D463F4B9847E4
:101880003F4B984734A3D3E900233E4EB047D0B135
:1018900018EE100A374B984780468946364E30A3DB
:1018A000D3E9002320462946B04702460B4620468E
:1018B0002946B04702460B4640464946324CA047AF
:1018C000D847294B9860284BD3ED027AF5EEC07AC1
:1018D000F1EE10FA31D4244B93ED027ADFED2B7A3E
:1018E000B4EEE77AF1EE10FA01DDC3ED027A284892
:1018F000284CA0472848A04719EE900A274DA84732
:101900002748A04719EE100AA8472648A04738469E
:10191000A8472548A04718EE900AA8472348A047A3
:10192000114CA068A847A1682148224B9847A0689D
:1019300005B0BDEC068BBDE8F08FF1EE677AC3ED24
:10194000027AC8E7AFF30080399D52A246DF913F8B
:101950003333333333534D40CDCCCCCCCCCC494056
:101960003FABCC94D6DF323FA40240200000C843F6
:1019700098034020F56D40009D6E4000C17440000A
:10198000D16D4000A9734000396B40000000B443A2
:10199000A49C4000C9564000C09C4000A156400095
:1019A000C89C4000D09C4000D89C4000E09C400077
:1019B00048034020692540005157400021744000F1
:1019C000F1704000356B40002DE9704F2DED048B18
:1019D0004D4B93ED0F9ADFED4D7AB4EEE79AF1EEB1
:1019E00010FA02D500224A4B9A60474D494EE869E9
:1019F000B04780468946464C6068B047464E40A393
:101A0000D3E90023B04782468B46444B98470246B1
:101A10000B4640464946B047414B984709EE900A6D
:101A2000D4ED048AD5ED047A68EEA78A94ED028A93
:101A300095ED0D7A28EE078A27EE888AF1EE487A2E
:101A400017EE908A236C062B48D0314B986C314BA3
:101A5000984704460D4650465946324B9847024631
:101A60000B46204629462C4CA0472D4B984709EEA3
:101A7000100A79EEA87A77EEC87A79EE277A224EA4
:101A8000C6ED007A2848294CA0472948A04719EEFE
:101A9000900A284DA8472848A04718EE900AA84762
:101AA0002648A0474046A8472548A04719EE100AF7
:101AB000A8472448A0473068A847D6ED007AF5EE3D
:101AC000C07AF1EE10FA13D40F4C21681E481F4B58
:101AD00098472068BDEC048BBDE8708FDFED1C7A61
:101AE000B4EEE79AF1EE10FAAFDD1A4AA264ACE761
:101AF000F1EE677AC6ED007AE6E700BFAFF300804B
:101B0000399D52A246DF913FA40240200000C84305
:101B100098034020F56D40009D6E4000E557400061
:101B200021744000515740003C9D4000C956400080
:101B3000C09C4000A1564000C89C4000D09C400082
:101B4000D89C4000589D40004C034020692540002F
:101B50000000F0430000A0C070B51F481F4CA04714
:101B60001F48A0471F4E30681F4DA8471F48A04779
:101B70007068A8471E48A047B068A8471D48A047FE
:101B8000F068A8471C48A0473069A8471B48A047F1
:101B90007069A8471A48A047B069A8471948A047E4
:101BA000F069A8471848A047706AA8471748A04797
:101BB000B06AA8471648A047F06AA8471548A0474A
:101BC000706BA8471448A047F06CA8471348A0477B
:101BD000306BA84770BD00BFB49D4000C95640009F
:101BE000E49D400098034020A1564000F49D400031
:101BF000049E4000149E4000209E40002C9E400009
:101C0000409E40004C9E4000549E4000709E40000C
:101C1000889E4000A09E4000B49E4000C49E4000AC
:101C20002DE9F84F964B93F83E2093F83F302E2A3B
:101C300008BFEF2B29D19348934B9847904B002234
:101C400083F83E2083F83F20904B9847904B98476D
:101C5000904B9847904B9847904B9847904B98479C
:101C6000904B9847904B9847904B9847904B1864EF
:101C7000082829D8DFE810F00D00DC009101BD0133
:101C8000E901150242026D0271028A487E4B9847B3
:101C9000B6E0894A894B1A60894A8A4B1A608A4A97
:101CA0008A4B1A608A4A8B4B1A604FF06D528A4BEE
:101CB0001A608A4A7E4B5A62894B1B68002B40F09F
:101CC000A2808848704B9847874B9847784C94ED92
:101CD0000B7AF2EE0E6A37EE667A844D85ED127A53
:101CE00094ED0D7ADFED827A37EE677A85ED157A1D
:101CF000D4ED0A7A77EEE67AC5ED137AD4F84CB0D3
:101D0000C5F850B0D4ED017AF1EE677AC4ED017AEE
:101D1000784EA069B047DFF850A253A3D3E900235F
:101D2000D047754FB847A0612068B04750A3D3E9AA
:101D30000023D047B847206094ED047ADFED6F7A36
:101D400067EEC77AC4ED047A94ED037ADFED6C7A1E
:101D500067EEC77AC4ED037AB0478046894660696A
:101D6000B04745A3D3E90023D047664B98470246C6
:101D70000B4640464946D0470022634BD047804639
:101D80008946606AB04702460B4640464946DFF83E
:101D9000DC81C047804689465846B04702460B461C
:101DA00040464946594EB047B847A865E3692362A3
:101DB0000023A3634FF08143E363554B9847554B92
:101DC0009847554B9847216C286C544B9847216C89
:101DD000286C534B9847286C524B9847524B984766
:101DE000524B9847524B9847524B9847524B984703
:101DF000524B9847524B9847524B9847524B9847F3
:101E00000020BDE8F88F514B984707EE900AF5EE99
:101E1000407AF1EE10FA7FF454AF254B93F8583026
:101E2000002B3FF44EAF224B494ADA65DA6148E7AE
:101E3000484A224B1A60484A224B1A60474A234BB1
:101E40001A60474A234B1A604FF06D52224B1A60BA
:101E5000224A174B5A62224B1B68002B40F08880A5
:101E60004048094B98472FE73333333333534D40C2
:101E7000271763601DC7D13F399D52A246DF913FAE
:101E800050034020DC9E4000C9564000A925400078
:101E9000E1254000512640000D544000E922400059
:101EA0008922400049234000ED2440006124400085
:101EB00098034020F09E40005F739F34440340200D
:101EC000D59328B540034020F180B2BCFC034020EC
:101ED00006BC4CBA2C024020F803402000006244AB
:101EE00094034020049F4000591B4000A40240205E
:101EF00000803B44F56D40002174400000007042BA
:101F000000206A425157400000005940396B4000A0
:101F1000A9124000B9144000991540002102400068
:101F2000C909400019114000B9114000ED114000ED
:101F30002112400055124000B516400079164000AD
:101F400041144000C91940001117400069234000A6
:101F500000004844FE2C9C34030424B5D4D4B2BC05
:101F600096AF4BBA209F40009D6E4000F17040003C
:101F70007C4B984707EE900AF5EE407AF1EE10FAA6
:101F80007FF46EAF784B93F85830002B3FF468AF76
:101F9000754B764ADA65DA6162E7754A754B1A6005
:101FA000754A764B1A60764A764B1A60764A774BBA
:101FB0001A60774A774B1A60774A6B4B5A62774BB5
:101FC0001B681BB97648774B98477DE6654B984769
:101FD00007EE900AF5EE407AF1EE10FAF2D1624B7C
:101FE00093F85830002BEDD05F4B6F4ADA65DA6119
:101FF000E8E76E4A5F4B1A606D4A604B1A606D4AA3
:10200000604B1A606C4A614B1A60614A614B1A60FE
:102010006A4A554B5A62614B1B681BB96848614B51
:10202000984751E64F4B984707EE900AF5EE407AF5
:10203000F1EE10FAF2D14C4B93F85830002BEDD062
:10204000494B594ADA65DA61E8E75E4A494B1A605A
:102050005D4A4A4B1A605D4A4A4B1A605C4A4B4BD8
:102060001A604B4A4B4B1A605A4A3F4B5A624B4BD1
:102070001B681BB958484B4B984725E6394B984786
:1020800007EE900AF5EE407AF1EE10FAF2D1364BF7
:1020900093F85830002BEDD0334B434ADA65DA61C0
:1020A000E8E74E4A334B1A604D4A344B1A604D4AAA
:1020B000344B1A604C4A354B1A604FF06D52354B19
:1020C0001A604A4A284B5A62344B1B681BB948486D
:1020D000344B9847F8E5234B984707EE900AF5EE06
:1020E000407AF1EE10FAF2D11F4B93F85830002BE2
:1020F000EDD01D4B1D4ADA65DA61E8E73D4A1D4B1C
:102100001A603D4A1D4B1A603C4A204B1A6000235E
:102110001C4A13601F4A1360344A134B5A621F4B08
:102120001B681BB936481F4B9847CDE50D4B9847A8
:1021300007EE900AF5EE407AF1EE10FAF2D10A4B72
:1021400093F85830002BEDD0074B2E4ADA65DA6150
:10215000E8E72D48134B9847B6E52C48114B9847B4
:10216000B2E500BF692340009803402000004844C6
:102170008F284E33440340205F7009B44003402051
:10218000F88898BCFC0340201F2DCEBA2C024020BA
:1021900000947F3BF80340200080D4449403402007
:1021A0003C9F4000C95640000000C844EEE99E3301
:1021B000F38653B46AA4A5BC842E61BA0020DF4420
:1021C0005C9F40002AD07433B00F21B43737A6BCCF
:1021D00016A584BA0060D644789F40006507123483
:1021E000AA7898B4D68BA1BC2FDC39BA00805444AD
:1021F000949F4000017818346686A0B4FFB346BAB5
:10220000A89F40000000C843BC9F4000D09F4000F2
:1022100038B50C4C032120460B4DA847042120461D
:10222000A84705212046A84707212046A84709219D
:102230002046A84708212046A8472046034B984738
:1022400038BD00BFD4044020D52F400015304000D9
:1022500038B50A4C01212046094DA84703212046E4
:10226000A84704212046A84705212046A847072162
:102270002046A8472046034B984738BDC405402058
:10228000D52F400015304000114B1B88B3F58E7FD1
:1022900001D840F21D13A3F21D139BB207EE903A32
:1022A000F8EE677ADFED0B6A87EEA67A0A4B1B68B9
:1022B0005BB9DFED0A7AF8EEE77A67EE277A084B2A
:1022C000C3ED047A17EE900A7047DFED067AF2E765
:1022D000600240200000FA4490034020FFFFFFFF0F
:1022E0009803402001000000114B5B88B3F58E7FFE
:1022F00001D840F21D13A3F21D139BB207EE903AD2
:10230000F8EE677ADFED0B6A87EEA67A0A4B1B6858
:102310005BB9DFED0A7AF8EEE77A67EE277A084BC9
:10232000C3ED037A17EE900A7047DFED067AF2E705
:102330006002402000007A4428024020FFFFFFFF97
:102340009803402001000000054B98880022054BAF
:102350009A6107EE900AF8EE677A17EE900A7047D6
:1023600060024020980340202DE9F041394BDB6B9F
:1023700013F0200F54D14FF0050C374BDB6B13F4E7
:10238000800F50D14FF00A08334BDB6B13F4001F62
:102390004CD14FF0140E2F4BDB6B13F0400F48D194
:1023A00028272D4BDB6B13F4801F44D15026294B7B
:1023B000DB6B13F0800F40D1A025284BDB6B002B8B
:1023C0003DDB4FF4A074244BDB6B13F4002F38D1AA
:1023D0004FF42071214BDB6B13F0804F33D14FF45E
:1023E000A0621C4BDB6B13F4006F2ED14FF4206303
:1023F0001948C06B10F0200F29D00020C444E644D7
:1024000077443E4435442C4421440A441344184440
:1024100007EE900AF8EEE77A17EE900ABDE8F08131
:102420004FF0000CA9E74FF00008ADE74FF0000EA9
:10243000B1E70027B5E70026B9E70025BDE700248E
:10244000C1E70021C6E70022CBE70023D0E74FF425
:10245000A050D3E700140E4000120E40000E0E40B4
:102460001F4BDB6B13F4803F34D01E4BDB6B13F040
:10247000005F31D01B4BDB6B13F4004F01D1032005
:102480007047184BDB6B002B01DB02207047164BAB
:10249000DB6B13F0006F01D108207047114BDB6B31
:1024A00013F4802F01D1042070470F4BDB6B13F026
:1024B000805F01D1052070470A4BDB6B13F4806FFE
:1024C00001D107207047064BDB6B13F0020F05D0DC
:1024D0000120704701207047002070470620704798
:1024E00000120E4000140E40000E0E40064BD3EDBD
:1024F000037AB5EE007A67EE877A044BC3ED0C7A67
:1025000017EE900A704700BFF80140209803402062
:1025100038B5114B9847FE2801D0002038BD0F4B2D
:1025200098470F4CFE2323700B4B98476070002494
:1025300006E0094B98470A4B234498700134E4B2F3
:102540002F2CF6D9044DA847054C84F83E00A84727
:1025500084F83F00E1E700BF6956400001574000A2
:10256000500340207047704710B504460846054B9D
:102570009847030E2370030C6370030AA370E07086
:1025800010BD00BF6525400008B5027843781B04E4
:1025900043EA0263827843EA0223C0781843014B7E
:1025A000984708BD6725400010B4002421460BE081
:1025B000094A0A449078094A02EB8402D054013156
:1025C0000133032BF4DD01340B2C01DC0023F8E78D
:1025D0005DF8044B704700BF500340207402402058
:1025E00038B5002408E0A50015482844154B984745
:1025F000154B2B44186001340B2CF4DD124A116882
:10260000124B59609168D964D16819631169596195
:10261000516959639169D962D1691960116A9962E6
:10262000D26A9A60064A92F8242083F8582022B988
:10263000054B9A6A054BDA6138BDDA6DDA6138BD4F
:102640007402402089254000F80140209803402072
:1026500070B51E481E4CA0471E48A0471E4E30684D
:102660001E4DA8471E48A0477068A8471D48A047B0
:102670003069A8471C48A047306AA8471B48A047B4
:10268000F069A8471A48A047B06AA8471948A04768
:10269000F068A8471848A047F06AA8471748A0471D
:1026A000B068A8471648A047B069A8471548A04792
:1026B0007069A847144B93F858301BB91348044B62
:1026C000984770BD1248A04770BD00BFE89F40000A
:1026D000C956400010A04000F8014020A15640001B
:1026E0001CA040002CA0400040A0400054A040008E
:1026F00064A0400078A0400090A040009CA0400052
:10270000A8A04000C0A0400098034020E8A04000DE
:10271000D4A04000FEE7000008B5104B104A9A42D2
:1027200009D00E4B0E4A03E01168196004330432DD
:102730000C498B42F8D30C4B02E000221A600433A0
:102740000A4A9342F9D30A4A0A4B23F07F03936063
:10275000094B9847094B9847FEE700BF000040200F
:1027600010B24000AC004020AC00402010064020D9
:1027700000ED00E00000400011754000594B4000A2
:1027800008B5084B9B6913F4000F03D14FF4000206
:10279000044B1A61044B9847024604490448054B10
:1027A000984708BD00060E40E144400000C00040CC
:1027B000F00540207134400008B5084B9B6913F0C8
:1027C000806F03D14FF08062044B1A61044B98472D
:1027D000024604490448054B984708BD00060E40D0
:1027E000E144400000000140900540207134400069
:1027F000F0B585B0244BD3F8083113F4807F04D1B1
:102800004FF48072204BC3F80021204D204C002350
:102810000293204B01930527009707232A461E4960
:1028200020461E4EB047102305F108020121204624
:102830001B4EB047102305F1180203212046B04774
:10284000102305F1280204212046B047102305F18A
:10285000380239462046B047102305F148020721C7
:102860002046B0470F4B4FF400521A604FF480528D
:102870001A604FF000521A604FF080421A604FF019
:1028800080621A6005B0F0BD00060E40CC0040200A
:10289000C40540205C04402000400640752E4000E6
:1028A0001D2F400000120E4070B584B0294B9B696B
:1028B00013F0005F03D14FF00052264B1A61264DF2
:1028C000264C00230293264B0193062300930923F1
:1028D00005F1580223492046234EB047102305F145
:1028E000640203212046214EB047102305F17402F3
:1028F00004212046B047102305F18402052120461B
:10290000B047102305F1940207212046B047102359
:1029100005F1A40208212046B047102305F1B402B6
:1029200009212046B047124B20221A6010221A605B
:102930000422A3F5C0631A60A3F500734FF480224C
:102940001A604FF400221A604FF480121A6004B02B
:1029500070BD00BF00060E40CC004020D4044020D3
:102960000005402000C00340752E40001D2F400090
:1029700000160E40044B4FF400625A61C3F89020D9
:102980005A661A60704700BF00120E40034B0222C5
:102990005A61C3F890205A661A607047000E0E40C4
:1029A000114B1A6F42F480121A675A6F22F4801288
:1029B0005A674FF480125A601A6F42F400121A6775
:1029C0005A6F22F400125A674FF400125A601A6FBD
:1029D00042F480021A675A6F22F480025A674FF459
:1029E00080025A60704700BF00140E40044B9B6980
:1029F00013F4001F03D14FF40012014B1A6170470A
:102A000000060E4010B5084B9847084B9847084CF5
:102A100001462046074B984707492046074B9847F1
:102A2000074B984710BD00BFED2940007D43400093
:102A3000AC0540204132400000800040613240003F
:102A4000A12940000B4B1A6F22F400721A675A6FCB
:102A500022F400725A674FF400725A601A6F22F41F
:102A600080621A675A6F22F480625A674FF480625C
:102A70005A607047000E0E40044B9B6913F0800FA4
:102A800002D18022014B1A61704700BF00060E4040
:102A900008B5064B9847064B984702460549064835
:102AA000064B9847064B984708BD00BF792A40005F
:102AB000A549400000080E405004402075384000F1
:102AC000452A4000044B9B6913F4807F03D14FF4E7
:102AD0008072014B1A61704700060E400A4B1A6F54
:102AE00022F020021A675A6F42F020025A67202211
:102AF0005A601A6F22F010021A675A6F42F01002E1
:102B00005A6710225A607047000E0E4010B582B00E
:102B1000074B9847074B984700901023064A0749F0
:102B20000748084CA047084B984702B010BD00BFAB
:102B3000C52A4000A949400090014020000A0E40EB
:102B400000044020E5364000DD2A40002DE9F8432E
:102B50009E4B98479E4B9B6913F4806F03D14FF4B3
:102B600080629B4B1A619A4B9B6913F4805F03D17F
:102B70004FF48052964B1A61954B9B6913F4803F3A
:102B800003D14FF48032924B1A61924A536843F456
:102B900000435360904B01225A611A66C3F8942097
:102BA0001A604FF40008C3F83480C3F81080C3F8EB
:102BB00000804FF080625A611A66C3F894201A6050
:102BC0004FF000625A611A66C3F890201A604FF005
:102BD000805EC3F814E0C3F860E0C3F894E0C3F883
:102BE00000E04FF000515961C3F890105966196028
:102BF0004FF080425A611A66C3F894201A604FF071
:102C000000425A611A66C3F894201A6003F5806383
:102C100002275F611F66C3F894701F6004265E611F
:102C20001E66C3F894601E6020255D611D66C3F8B2
:102C300094501D604FF0800CC3F834C0C3F810C02E
:102C4000C3F800C04FF480705863186118604FF4E7
:102C5000804058611866C3F8940018604FF48034BF
:102C60005C611C66C3F894401C604FF400205861FE
:102C70001866C3F8940018604FF48019C3F81490D4
:102C8000C3F86090C3F89490C3F800904FF4001913
:102C9000C3F81490C3F86090C3F89490C3F8009000
:102CA0004FF48009C3F81490C3F86090C3F894906F
:102CB000C3F80090C3F81480C3F86080C3F8948010
:102CC000C3F800804FF08078C3F81480C3F86080A8
:102CD000C3F89480C3F800804FF00078C3F81480E4
:102CE000C3F86080C3F89480C3F80080C3F814E090
:102CF000C3F860E0C3F894E0C3F800E05A631A61D7
:102D00001A6003F500735F611F66C3F894701F605B
:102D10005E611E66C3F894601E605D611D66C3F847
:102D200094501D6040255D611D66C3F894501D6080
:102D3000C3F814C0C3F860C0C3F894C0C3F800C09F
:102D40004FF480655D611D66C3F894501D604FF4BB
:102D500000655D611D66C3F894501D604FF4004529
:102D60005D611D66C3F894501D605C611C66C3F80C
:102D700094401C604FF480245C611C66C3F8904052
:102D80001C6058611866C3F8940018605961196690
:102D9000C3F8941019605A611A66C3F894201A6037
:102DA0000E4B98470E4B98470E4B98470E4B984743
:102DB0000E4B98470E4B98470E4B98470E4B984733
:102DC0000E4B98470E4B9847BDE8F883613D400095
:102DD00000060E4050180E40000E0E40A92840007C
:102DE000F1274000752940008D294000052A400048
:102DF00081274000B9274000912A40000D2B400058
:102E0000DD30400008B5836903B1984708BD08B5B7
:102E1000C36903B1984708BD2DE9F04705468846C8
:102E20009146036A5B5C876A03EB4303DE00BC19CF
:102E300004F1040AD1B250460C4B984728460C4B7B
:102E40009847012807D94FEA19215046074B984760
:102E5000A38A0133A382A38A0133A382BB5913B18E
:102E6000414628469847BDE8F08700BFD139400069
:102E7000053D40002DE9F84F16461C469DF8288078
:102E80000B9D07468946002818BF00290BD0131C4C
:102E900018BF0123B8F1000F17D0B3B10DB1012055
:102EA00002E0002000E00020DFF868B03F22594631
:102EB000DFF864A0D047601C402259468045CCBF53
:102EC00000200120D047002305E00020ECE7FF228E
:102ED000F2540133DBB2A342F9D93E6287F82440B1
:102EE00087F82580BD6249463846064B9847034619
:102EF00028B9054ABA60054A3A60054A7A60184618
:102F0000BDE8F88F453C4000192E4000052E4000DA
:102F10000F2E40000CA14000E93840002DE9F84395
:102F20000E461F4605469046002818BF002A02D0CC
:102F3000C3B9002000E00020DFF8949066224946E3
:102F4000214CA04795F8240067224946B04234BF7F
:102F500000200120A047296A8B5DFF2B2BD1002484
:102F6000234603E00120E7E70133DBB295F8242094
:102F7000934205D8CA5CFF2AF6D00134E4B2F3E7E5
:102F800095F825309C4219D8A86A04EB44034FEA0F
:102F9000C30948443A46414604300C4B9847024620
:102FA00078B92B6A9C55AB6A99440023A9F8143070
:102FB0001046BDE8F8836FF00C02F9E76FF01B02D2
:102FC000F6E76FF00C02F3E7E938400049394000BA
:102FD0000CA14000F8B50D460B4F0446832239463C
:102FE000003018BF0120094EB04794F82400842215
:102FF0003946A84234BF00200120B0472946204668
:10300000034B98470020F8BD0CA14000E938400070
:10301000F93C400010B50446D6220549003018BFDF
:103020000120044B98472046034B9847002010BDD1
:103030000CA14000E9384000093D4000EFF3108347
:10304000036072B6BFF35F8F7047BFF35F8F036893
:1030500083F310887047000010B5044B1C68044BC4
:10306000984701462046034B984710BDA0014020D9
:103070003D3D4000593D400010B5044B1C68044BD9
:10308000984701462046034B984710BDA0014020B9
:10309000473D4000593D400038B50225002407E077
:1030A0000D4A52F83330B3B1984738BD013AD5B222
:1030B000AC4210D82B195B10DAB2012A0BD8134698
:1030C000054901EBC20149688142E9D08142EDD254
:1030D0000132D4B2ECE738BDA401402008B500238A
:1030E0000AE0084A02EBC3014FF0FF3048600021BC
:1030F00042F8331001339BB2012BF2D90248034B43
:10310000984708BDA401402099304000E93F4000A5
:10311000F0B583B005460023012B0ED818462E4A81
:1031200002EBC3025268AA4202D00133DBB2F3E7DA
:10313000294B43F83010012700E0002759B1002F38
:103140003DD10026012E13D8234B53F8363043B11E
:103150000136F6B2F6E7002F38D028461F4B9847C5
:1031600032E01D4B43F8361003EBC6035D600127C8
:10317000002301E00133DBB2012B98BF012E1ED8E2
:10318000B646154A02EBC601486802EBC302526814
:103190009042EFD2B2F1FF3FECD00F4C04EBC302F0
:1031A00092E803008DE8030004EBC60494E80300F2
:1031B00082E803009DE8030084E80300DAE747B1F2
:1031C00001212846054B984703B0F0BD6FF00C0075
:1031D000FAE76FF00C00F7E7A4014020114040002F
:1031E00070B5164604460D46002818BF002914BFC6
:1031F0000120002034220449044B984723683246BA
:1032000029462046984770BD28A14000E938400073
:1032100070B5164604460D46002818BF002914BF95
:10322000012000203D220449044B98476368324640
:1032300029462046984770BD28A14000E938400043
:1032400038B50D46044639220349003018BF012025
:10325000024B9847256038BD3CA14000E93840004A
:1032600038B504460D46002818BF002914BF0120B8
:103270000020402209490A4B9847204640F8045F45
:103280002946084B9847002807DB4FF40043A382E8
:10329000054B2361054BE360002038BD3CA1400095
:1032A000E93840006D4140007D334000413340002B
:1032B00010B5044657220549003018BF0120044BC1
:1032C0009847201D034B984710BD00BF3CA140000C
:1032D000E93840001542400010B504465D2205491A
:1032E000003018BF0120044B9847201D034B98471E
:1032F00010BD00BF3CA14000E938400049424000F9
:1033000030B585B005460C46002818BF002914BF0B
:1033100001200020B3220749074B984723680193F7
:1033200063680293A368039301A9281D034B984780
:1033300005B030BD3CA14000E93840007D4240006E
:1033400070B584B00E4615460446A32208490030E5
:1033500018BF0120074B984700230293019603955D
:1033600001A9A4F10C00044B984704B070BD00BF44
:103370003CA14000E93840000133400070B584B002
:103380000E461546044687220849003018BF012022
:10339000074B9847029600230193039501A9A4F1D6
:1033A0000C00044B984704B070BD00BF3CA1400026
:1033B000E938400001334000F8B5076817B13C46D2
:1033C00000260BE00E4B9847F8BDA5682B449B1ACE
:1033D00001338D68AB4209D22646246834B1636854
:1033E0009342F2D8A5689B1A2B44F2E7BC4203D063
:1033F0003046044B9847F8BD014B9847F8BD00BFD5
:103400000539400031394000F8B544690669013694
:103410000661037E13F0010F05D1037E13F0020F46
:1034200001D1054609E0037E43F002030376F8BDAF
:103430006F69E368204698473C469CB16368F31A7D
:10344000A26893420ED305F114073846064B9847FD
:10345000237C012BECD16660324621463846034B73
:103460009847E5E7F8BD00BF39394000B93340005F
:1034700038B504460D46002818BF002914BF0120A6
:1034800000203B220549064B984729462046054B1C
:10349000984700202061044B236038BD58A14000AC
:1034A000E9384000F94340000934400010B50446B3
:1034B00053220949003018BF0120084B9847204685
:1034C000074B984720B92046064B9847002010BD6F
:1034D0006FF0100010BD00BF58A14000E938400057
:1034E000BD444000B544400070B582B004460D466E
:1034F000002818BF002914BF012000207A221D498E
:103500001D4B9847237E43F00103237604F11406F4
:1035100029463046194B984788B923696B60226960
:1035200029463046164B9847237E03F0FE03237648
:10353000237E13F0020F0ED1002002B070BD237E57
:1035400003F0FE0323767F220A4900200A4B9847A6
:103550006FF01100F1E701A80A4B9847237E03F0B2
:10356000FD0323762046084B984701A8074B984750
:103570000020E2E758A14000E9384000EF38400061
:10358000B93340003D304000C94440004B3040005A
:1035900008B500238362C3691BB1A0F1080210467D
:1035A000984708BD08B500238362436A1BB1A0F1A8
:1035B00008021046984708BD38B50446A0F1080532
:1035C0002C30034B9847236A0BB12846984738BDE7
:1035D000D139400070B5154604460E46002818BF84
:1035E000002902D0DAB9002000E0002040F23B12AE
:1035F0000D490E4B9847B4F84420B4F84C309A4229
:103600000FD1A664A4F84C500023A4F84430012341
:10361000236304F10800064B9847284670BD01203B
:10362000E4E76FF01B0070BD70A14000E938400076
:103630005949400010B50446838FB0F844209342A6
:1036400009D0026C591C8187D15C044B98472046F5
:10365000034B984710BD034B984710BD9948400055
:10366000594940007D4940002DE9F04182B017469C
:1036700005468846002818BF002902D0A2B90020BC
:1036800000E000204FF4AC721049114B984701A89C
:10369000104B9847343528460F4B9847064601A8EB
:1036A0000E4B9847002407E00120EBE70134A4B259
:1036B000414428460A4B98472146A64201D9BC42BC
:1036C000F4D3204602B0BDE8F08100BF70A14000F5
:1036D000E93840003D304000113A40004B30400096
:1036E0008D394000F8B515461E4604460F460028A1
:1036F00018BF002908D0131C18BF012316B10BB145
:10370000012002E0002000E000203A221049114B85
:1037100098473246294604F134000F4B9847A0B928
:10372000394604F108000D4B9847034658B90C4A36
:1037300062600C4A22600C4AA2600C4AE2600C4AA9
:1037400022610C4A62611846F8BD6FF00C03FAE77B
:1037500070A14000E938400049394000614740000D
:1037600069364000D535400035364000B935400057
:1037700091354000A535400010B504466122064948
:10378000003018BF0120054B984704F10800044B96
:103790009847002010BD00BF70A14000E9384000EC
:1037A00041484000F8B5164605460F46002818BFA8
:1037B000002902D00ABB002000E00020F1221049BD
:1037C000104B984705F1080420460F4B98470028F6
:1037D000F8D00025795D20460C4B984720460A4BCF
:1037E00098470028FAD00135B542F3D32046084B5C
:1037F00098470028FAD02846F8BD0120DEE700BF30
:1038000090A14000E9384000E14840007548400080
:10381000094940002DE9F041174605468846002831
:1038200018BF002902D0D2B9002000E000204FF4D8
:1038300086720C490C4B9847002605F10804204677
:103840000A4B98470028F8D02046094B984708F8BB
:1038500006000136BE42F0D33046BDE8F0810120BB
:10386000E5E700BF90A14000E93840003149400041
:10387000BD48400038B504460D46002818BF002951
:1038800014BF0120002034220749084B98472946DD
:1038900004F10800064B9847034618B9054A6260D0
:1038A000054A2260184638BD90A14000E938400022
:1038B0002947400015384000A537400010B50446A0
:1038C00053220649003018BF0120054B984704F1E8
:1038D0000800044B9847002010BD00BF90A1400095
:1038E000E93840000D48400000B900BE7047036849
:1038F0001BB18B4203D01B68FAE700207047012000
:103900007047000038B504460D46064B984780F0D6
:10391000010039220449C0B2044B984723682B6048
:10392000256038BDEF384000ACA14000E9384000C8
:1039300003680B600160704703681BB11A6802607E
:10394000184670470020704770B5154604460E466D
:10395000002818BF002902D07AB9002000E000201A
:1039600028220849084B98476B1E1D4207D1636007
:103970000020A060E060266070BD0120F0E76FF0DD
:103980000C0070BDCCA14000E938400038B50446B9
:103990000D46002818BF002914BF01200020402236
:1039A00009490A4B9847E268A3689A4209D02268FD
:1039B00061680B40D35C2B70A3680133A3600020C7
:1039C00038BD6FF0090038BDCCA14000E938400097
:1039D00038B50D46044651220B49003018BF01206E
:1039E0000A4B98472268E36861680B40D554E36846
:1039F000A2689A1A61688A4201D9591AA1600133F2
:103A0000E360002038BD00BFCCA14000E938400091
:103A100010B5044667220549003018BF0120044B49
:103A20009847E068A368C01A10BD00BFCCA1400051
:103A3000E93840000346064A126822B1044A106879
:103A40000344136070470349014A1160F6E700BF61
:103A5000B4014020100C40204FF0FF3070474FF46D
:103A600000534B60002070470120704700207047D2
:103A70004369074A934205D002F52032934203D1AD
:103A8000282070471D2070474FF0FF30704700BF5F
:103A900000C00340064B984203D0064B984203D027
:103AA0007047054B1960F8E7034B5960F8E700BF12
:103AB00000C0034000400640B801402064231D4A76
:103AC00003FB01235A6842609A688260DA68C26028
:103AD0001A6902615A6902659A694265DA69026681
:103AE0001A6AC0F894205A6AC0F8A0209A6AC0F8EE
:103AF000D020DA6AC0F8D4201B6BC0F8D83000227E
:103B00000B2A14D810B4426601EB810303EB830344
:103B100013440C33074C04EB83035B68C366013228
:103B2000D2B20B2AEFD900205DF8044B7047002079
:103B3000704700BFF0A1400030B583B00546426930
:103B4000116BD36A0B400193019B13F0806F0ED170
:103B5000019B13F0007F0ED1019BC3F30B03019374
:103B6000019CB4FA84F4C4F12004E4B21FE00368B9
:103B700000219847ECE76B68002128469847EBE75F
:103B8000013CE4B26B695C66AB686A69926E92B2A2
:103B90002146284698470123A340019C24EA0304B8
:103BA0000194019CB4FA84F4C4F12004E4B2002C22
:103BB000E6D103B030BD000008B5094B98420AD0E9
:103BC00003F52033984208D0A72206490020064B6F
:103BD0009847002008BD002008BD012008BD00BF97
:103BE00000C00340B8A24000E938400008B5094BC6
:103BF00098470023012B09D8642202FB03F20649EF
:103C00008A5C904203D00133DBB2F3E7002318460D
:103C100008BD00BFB93B4000F0A1400008B5024B11
:103C20001868024B984708BDB8014020393B400056
:103C300008B5024B5868024B984708BDB8014020B0
:103C4000393B400070B50C4605464FF4A17223493C
:103C5000003018BF0120224B98472046214B98473F
:103C600001462046204B9847064608B1304670BDB5
:103C70006C61294620461D4B984728461C4B9847A7
:103C800000280DDB430900F01F00012202FA00F0BA
:103C90002033184A42F82300BFF34F8FBFF36F8FD2
:103CA0002846134B9847002809DB430900F01F0002
:103CB000012202FA00F060330E4A42F8230028463F
:103CC0000B4B98470028D1DB420900F01F0001236D
:103CD00003FA00F0074B43F82200C7E7B8A2400000
:103CE000E9384000ED3B4000BD3A4000953A4000C5
:103CF000713A400000E100E04269012303FA01F15A
:103D00005161704702207047436902221A60704770
:103D1000436959664369986E80B2704743B2002B7D
:103D200009DB5B0900F01F00012202FA00F04033BA
:103D3000014A42F82300704700E100E04FF4967317
:103D400003FB00F070474FF4967303FB00F04FF451
:103D50007A7303FB00F070470139FDD8704700000B
:103D600000B583B001A80E4B98470E4AD2F88830B0
:103D700043F47003C2F88830BFF34F8FBFF36F8FE7
:103D800001A8094B9847094A136823F4706343F468
:103D9000C0631360064B984703B05DF804FB00BF97
:103DA0003D30400000ED00E04B304000000C0E4084
:103DB0003141400030B400258D4210D20122002351
:103DC0001F2B0AD850F82540224202D1520001335D
:103DD000F6E703EB451030BC70470135ECE74FF0D8
:103DE000FF30F8E710B586B00023019302930393E8
:103DF00004930593214B1868F8222149003018BF1D
:103E00000120204B9847204BDA6C9B6C13400193A8
:103E10001E49CA6C896C0A400392134325E0174B74
:103E20001B6820469847631104F01F04012202FA20
:103E300004F406AA02EB830353F8142C22EA0402CA
:103E400043F8142C052101A8114B98470446B4F1FE
:103E5000FF3FE4D10C4AD16C936C0B4001930B49AA
:103E6000C86C8A6C0240039213432BB1052101A850
:103E7000074B98470446EAE706B010BDC001402052
:103E800010A34000E9384000000E0E4000120E4022
:103E9000B53D400010B50446D2220549003018BF98
:103EA0000120044B984704482044C0F3472010BD2C
:103EB00010A34000E938400000F2F1BF10B50446FD
:103EC000E0220D49003018BF01200C4B98472046D6
:103ED0000B4B98470023012B0BD8C3EBC3018A007F
:103EE00008498A5C904202D00133DBB2F3E758B252
:103EF00010BD4FF0FF3010BD10A34000E938400066
:103F0000953E4000D0A2400038B5044640F2591218
:103F10002949003018BF0120284B98472046284BDC
:103F20009847002843DB274DC200111A8B002B4411
:103F30009968C4F8B010D968C4F8C0101969C4F8F9
:103F4000C4109B69C4F8D030101A83002B445B69FD
:103F5000C4F8D43020461C4B9847284490F9383098
:103F6000002B0CDB5A0903F01F0001218140203295
:103F7000164840F82210BFF34F8FBFF36F8F002B0E
:103F800008DB5A0903F01F000121814060320F480D
:103F900040F82210002B0DDB590903F01F0301220A
:103FA00002FA03F3094A42F82130002038BD6FF0CD
:103FB000100038BD002038BD10A34000E938400093
:103FC000BD3E4000D0A24000953E400000E100E030
:103FD00008B5014B984708BDE53D400008B5014BC9
:103FE000984708BDE53D400038B505460448054CF6
:103FF000A0470548A047054B1D60002038BD00BF05
:10400000000E0E40093F400000120E40C00140204B
:104010002DE9F04104460F46DFF850804FF4D3728B
:1040200041469F288CBF002001200E4EB047E5B2CC
:10403000C32241469F2D8CBF00200120B0476D094F
:10404000094B03EB452504F01F0437B9012303FA9C
:1040500004F46C640020BDE8F081012303FA04F449
:104060002C64F7E7E9384000000E0E4010A3400032
:1040700012490A6A22F00202114B13430B620F4BE2
:104080009B6E13F0010FFAD00C4B196A0D4A0A43CC
:104090001A62996A0C4A0A409A620C4A9A62074B61
:1040A0009B6E13F0020FFAD04FF47102034BDA61EA
:1040B000024B9B6E13F0400FFAD0704700060E4083
:1040C000013E370000003701FFFF00F8013F1820D4
:1040D000164A136B43F400531363144B9B6E13F097
:1040E000080FFAD0114A136B23F0700313630F4BC0
:1040F0009B6E13F0080FFAD00C4A136B23F4407335
:1041000043F480731363094B9B6E13F0080FFAD0CE
:10411000064A136B23F0030343F002031363034BBC
:104120009B6E13F0080FFAD0704700BF00060E40D8
:1041300008B5024B9847024B984708BD71404000B4
:10414000D140400001230360002070470223036038
:1041500000207047044B0344C3F30743052B01D0F1
:1041600000207047012070470080FFBF70B50646F1
:104170000C460846204B984700233BB300254FF4DC
:104180009A721E49002E18BF002C14BF0120002077
:104190001B4B984755B3236913F4803F29D18023E3
:1041A000236034606A68174B13402360AB68164A7B
:1041B0001A40164B13436360EB6823632B8AF3802A
:1041C000EB6803F0F0033371002070BD03EB830153
:1041D0008A000F498A5C904202D00133DBB2CCE7FF
:1041E00003EB8305AB000D461D44C8E76FF00C00E0
:1041F00070BD6FF0100070BD5541400040A34000FD
:10420000E93840007CFFFFFE6FFFF1FF10000E0059
:104210002CA3400010B5044668B103684BB10120DF
:104220004FF4B9720549064B98472068054B9847EB
:1042300010BD0020F4E70020F2E700BF40A34000DB
:10424000E93840004541400010B5044668B10368B4
:104250004BB101204FF4C0720549064B98472068C6
:10426000054B984710BD0020F4E70020F2E700BF9F
:1042700040A34000E93840004D4140002DE9F041A5
:1042800086B007460D4604680B6801934B6802939D
:1042900000230393049303798DF81430261C18BF70
:1042A000012640F23122334900280CBF002006F0DD
:1042B0000100314B9847236913F4803F22D16FF0FE
:1042C000130053E0002335E0507841EA0021023228
:1042D000019201330393E160D4F8108040F222226E
:1042E00024493046244B984718F0080F38D06FF017
:1042F0001200002836DB0398AB68984202D3049A78
:1043000093422FD9236913F0010FDBD0A3689BB22E
:10431000029A5AB1511C029113709DF81420012A7F
:1043200004D90A46013102911B0A1370049B013320
:1043300004930123002BCFD1039B049A9A42CBD341
:10434000F988226912F0020FC6D0019A002AC0D063
:10435000511C019111789DF814000128B4D8B8E7D8
:104360000020C6E7236913F4007FFBD006B0BDE848
:10437000F08100BF40A34000E938400000207047B2
:104380000023012B15D810B403EBC3018A000A499E
:104390008A58824207D00133DBB2012BF4D90020C6
:1043A0005DF8044B704703EBC304A30008461844B0
:1043B000F6E70020704700BF00004020064B9842FF
:1043C00003D0064B984203D07047054B1960F8E7BD
:1043D000034B5960F8E700BF00C0004000000140F7
:1043E000C401402008B5C3681B6A13F0100F00D148
:1043F00008BD03689847FBE7F8B507460C46084632
:10440000274B984705468668FC609622254901207F
:10441000254B984716F4004F01D046F414266660E9
:104420006B696361AB69A361EB682363EB69E3616B
:10443000102363622B69C4F8D830394620461B4BE1
:10444000984795F90430002B0DDB5A0903F01F0340
:10445000012101FA03F32032154941F82230BFF35C
:104460004F8FBFF36F8F95F90430002B09DB5A098A
:1044700003F01F03012101FA03F360320C4941F8F4
:10448000223095F90430002B08DB590903F01F0393
:10449000012202FA03F3064A42F821300020F8BD57
:1044A0008143400058A34000E9384000BD4340002C
:1044B00000E100E0C36805221A607047C368186A0B
:1044C000C0F300407047000008B5C068024B984731
:1044D0000079024B984708BD814340001D3D4000D4
:1044E0000020704708B5024B1868024B984708BD7A
:1044F000C4014020E543400008B5024B5868024B18
:10450000984708BDC4014020E5434000034B984252
:1045100000D07047024B1960FBE700BF000A0E4055
:10452000CC01402010B5044640F21E221249003052
:1045300018BF0120114B9847114B9C4213D003F533
:1045400000739C4211D003F580539C420FD003F5B9
:1045500000739C420DD003F500739C4201D0FF20F4
:1045600010BD042010BD002010BD012010BD022090
:1045700010BD032010BD00BF84A34000E9384000F7
:1045800000080E4010B5044640F2AA220F49003040
:1045900018BF01200E4B984720460E4B984700232A
:1045A000012B09D803EB43018A000B498A5C904236
:1045B00009D00133DBB2F3E74FF42D720349002039
:1045C000034B98470023184610BD00BF84A340004A
:1045D000E9384000254540006CA3400038B504464A
:1045E00040F2C1220E49003018BF01200D4B984700
:1045F00020460D4B98470D4BC4F8E430AC232360A4
:104600004FF4807323600A4A43001D18A9000D4629
:104610001144496861602A4493682362002038BDD0
:1046200084A34000E93840008545400000524155D0
:104630006CA3400010B5044689221049003018BF11
:1046400001200F4B984720460E4B984704280CD862
:10465000DFE800F0031205070900072010BD2C2039
:1046600010BD2D2010BD2E2010BD9B22034900201F
:10467000034B9847FF2010BD082010BD84A34000C5
:10468000E93840002545400010B5044640F282223A
:104690002349003018BF0120224B9847A3695A696B
:1046A00012F0020F03D01A6912F0020F18D15A69E2
:1046B00012F4007F03D01A6912F4007F16D15A69F0
:1046C00012F0010F1FD01A6912F0010F1BD05A69A6
:1046D00012F0E00F11D09A694FF480721A6010BD89
:1046E0000222DA6023682046984710BD4FF400721A
:1046F000DA60A3682046984710BD62689969C9B21C
:104700002046904710BD5A6912F0E00F00D110BD4D
:104710004FF480721A60E36820469847F7E700BFBD
:1047200084A34000E9384000F8B50C46094E07461E
:10473000AF223146003018BF0120074DA847B022F4
:104740003146201C18BF0120A8473C602046034B7F
:104750009847F8BD84A34000E9384000DD4540009B
:1047600070B50C460646BE222249003018BF012013
:10477000214B98472046214B9847054608B12846CB
:1047800070BDB461314620461D4B984720461D4BF5
:10479000984743B2002B0DDB5B0900F01F0001229C
:1047A00002FA00F02033184A42F82300BFF34F8F7B
:1047B000BFF36F8F2046134B984743B2002B09DBA2
:1047C0005B0900F01F00012202FA00F060330E4A7C
:1047D00042F8230020460B4B984743B2002BCEDB18
:1047E0005B0900F01F00012202FA00F0064A42F8BD
:1047F0002300C4E784A34000E9384000DD454000C1
:104800000D4540003546400000E100E070B50A4E1D
:104810000446F8223146003018BF0120074DA84752
:10482000246840F2E5223146201C18BF0120A84729
:104830005023236070BD00BF84A34000E9384000CE
:1048400070B50A4E044640F201123146003018BFDE
:104850000120074DA847A46940F2E5223146201CFB
:1048600018BF0120A8475023236070BD84A34000D7
:10487000E938400038B50C4605464FF4CD7204497E
:10488000003018BF0120034B98472B68DC6138BD0E
:1048900084A34000E938400038B50C46054640F294
:1048A000A3120449003018BF0120034B9847AB699D
:1048B000DC6138BD84A34000E938400010B50446EF
:1048C0004FF4D6720449003018BF0120034B9847BB
:1048D00023689869C0B210BD84A34000E938400045
:1048E00010B5044640F2B5120549003018BF01204A
:1048F000044B984723685869C0F3400010BD00BFBF
:1049000084A34000E938400010B504464FF4DF723C
:104910000549003018BF0120044B984723685869A7
:10492000C0F3402010BD00BF84A34000E938400020
:1049300010B504464FF4E8720549003018BF012055
:10494000044B98472368586900F0010010BD00BF70
:1049500084A34000E938400010B5044640F20B2221
:104960000449003018BF0120034B9847A369022275
:104970009A6010BD84A34000E938400010B5044699
:104980004FF405720549003018BF0120044B9847C9
:10499000A3694FF400729A6010BD00BF84A3400069
:1049A000E9384000002070470020704708B5034BED
:1049B0009847034B1868034B984708BD11254000E2
:1049C000CC0140208946400008B5124B984707EEBD
:1049D000900AF5EE407AF1EE10FA09D00E4BC3EDD5
:1049E000177A01220D4B1A600D480E4B984708BDEF
:1049F0000D4B9847022806DB042802DCDFED0B7A1A
:104A0000ECE7062802D0DFED0A7AE7E7DFED097A66
:104A1000E4E700BF6923400098034020940340204E
:104A20009CA34000C9564000612440000000C844D7
:104A3000000048440000C84308B50022024BDA6574
:104A40000248034B984708BD98034020BCA3400090
:104A5000C9564000074B1B6913F0020FFAD0054BF3
:104A6000D860044B1B6913F0010FFAD0014B9B680F
:104A7000704700BF0080004038B50D46034CA0478A
:104A80002846A0472846A04738BD00BF554A4000E9
:104A90002DE9F041044608B10C34E4B20B4D284630
:104AA0000B4B98470B4E802737636420DFF830802C
:104AB000C0472146AA20084B98476420C047776327
:104AC0002846064B9847BDE8F08100BFAC05402062
:104AD000B132400000120E40794A4000D932400005
:104AE000593040002DE9F04180460B4C20460B4BDD
:104AF00098470B4D4FF480762E636420094FB847DA
:104B00004146AA20084B98476420B8476E63204668
:104B1000064B9847BDE8F081AC054020B13240001B
:104B200000120E4059304000794A4000D93240000E
:104B300008B502490120024B984708BDC949400009
:104B40001131400008B502494B20024B984708BD7F
:104B5000394A40001131400000B583B0234B9847DB
:104B6000234B98472348244B9847244B9847244B82
:104B70009847244B9847244B98472448244CA047F7
:104B80002448A047244B98470022244BDA65002292
:104B9000234B1A604FF47A70224B9847224B984768
:104BA0002820204B9847124B9847204B9847204A83
:104BB000936B03F40003D94301F4000111635363C1
:104BC0001C4CD4ED027AFCEEE77ACDED017A9DF82B
:104BD0000400194B9847D4ED007AFCEEE77ACDED4E
:104BE000017A9DF80400154B9847D7E7D50140009E
:104BF0000157400000044020793740001122400056
:104C000051224000314B4000454B4000DCA34000A6
:104C1000C956400008A44000414C40009803402081
:104C20009403402079304000E9564000211C4000A8
:104C3000000E0E40A4024020914A4000E54A400088
:104C40002DE9F0412DED028B82B00120AD4DA8473A
:104C5000AD48AE4CA047DFF8388303214046AC4F47
:104C6000B84701900146AB48A047DDED017AF8EE68
:104C7000677A9FEDA98A87EE887A17EE100AA74E09
:104C8000B0470120A84704214046B847019001469B
:104C9000A348A047DDED017AF8EE677A87EE887ABF
:104CA00017EE100AB0470120A84705214046B84733
:104CB000019001469B48A047DDED017AF8EE677A46
:104CC0009FED998A87EE887A17EE100AB047012087
:104CD000A84707214046B847019001469348A0479E
:104CE000DDED017AF8EE677A87EE887A17EE100A22
:104CF000B0470120A84709214046B8470190014626
:104D00008B48A047DDED017AF8EE677A87EE887A66
:104D100017EE100AB0470120A847DFF87882032178
:104D20004046B847019001468248A047DDED017A30
:104D3000F8EE677A87EE887A17EE100AB0470120FE
:104D4000A84704214046B847019001467A48A04749
:104D5000DDED017AF8EE677A87EE887A17EE100AB1
:104D6000B0470120A84705214046B84701900146B9
:104D70007248A047DDED017AF8EE677A87EE887A0F
:104D800017EE100AB0470120A84707214046B84750
:104D9000019001466A48A047DDED017AF8EE677A96
:104DA00087EE887A17EE100AB0470120A8470A203C
:104DB000644B98476448A047644BDB6B13F0020FC9
:104DC00000F0BB816248A0470120A8475F4BDB6B26
:104DD00013F0200F00F0B8815E484C4B984701203B
:104DE000484B98475C4BDB6B002BC0F2B4815B48AF
:104DF000464B98470120434B9847574BDB6B13F4C6
:104E0000802F00F0AF815648404B984701203D4B22
:104E10009847544BDB6B13F0006F00F0AA815248A7
:104E20003A4B98470120374B98474B4BDB6B13F4B9
:104E3000006F00F0A5814D48344B98470120314B5D
:104E40009847454BDB6B13F4806F00F0A081484816
:104E50002E4B984701202B4B98473F4BDB6B13F4AD
:104E6000004F00F09B814348284B98470120254B79
:104E70009847394BDB6B13F0005F00F096813E489A
:104E8000224B984701201F4B9847304BDB6B13F4A4
:104E9000803F00F0918139481C4B98470120194B05
:104EA0009847304BDB6B13F0805F00F08C81344807
:104EB000164B98470120134B98472A4BDB6B13F096
:104EC000804F00F087812F48104B984701200D4BF1
:104ED00098471E4BDB6B13F4002F00F082812A48A9
:104EE0000A4B98470120074B98471E4BDB6B002B62
:104EF000C0F2C4812548054B98470120014B9847D3
:104F00004AE000BF7930400038A440006975400095
:104F1000113D400070A44000171D9B4425574000E0
:104F2000ACA44000ECA4400000009B4428A5400035
:104F300064A54000A0A54000DCA5400018A64000E4
:104F400054A640009975400094A6400000120E40FF
:104F5000D8A6400010A7400000140E4070A74000E3
:104F600090A74000000E0E40D0A7400010A84000BF
:104F700050A840008CA84000C4A84000FCA84000F5
:104F800034A940006CA94000ACA940000CAA400024
:104F9000D4044020C4054020954BDB6B13F0800FF8
:104FA00000F073819348944B98470120934B9847A6
:104FB000934BDB6B13F4801F00F06E8191488E4B96
:104FC000984701208D4B9847894BDB6B13F0400FBE
:104FD00000F069818C48884B98470120874B98479F
:104FE000874BDB6B13F4001F00F064818748824B12
:104FF00098470120814B9847814BDB6B13F4800F5E
:1050000000F05F8182487C4B984701207B4B98479A
:10501000774BDB6B13F0200F00F05A817D48764B05
:1050200098470120754B98477B4BDB6B13F0806FE3
:1050300000F055817948704B984701206F4B984795
:105040006B4BDB6B13F4002F00F0508174486A4BFC
:1050500098470120694B98476F4BDB6B13F0005F5B
:1050600000F04B816F48644B98470120634B984791
:105070005F4BDB6B13F0020F00F046816A485E4B1A
:10508000984701205D4B98475D4BDB6B13F4000F95
:1050900000F041816548584B98470120574B98478D
:1050A000534BDB6B13F0040F00F03C816048524B14
:1050B00098470120514B9847514BDB6B13F0007F11
:1050C00000F037815B484C4B984701204B4B984789
:1050D0004B4BDB6B13F0805F00F032815648464B40
:1050E00098470120454B9847414BDB6B13F4803FB9
:1050F00000F02D815148404B984701203F4B984785
:10510000454BDB6B13F0020F00F028814C483A4B03
:1051100098470120394B98473F4BDB6B13F0010F49
:1051200040F023814748344B98470120334B984740
:1051300002B0BDEC028BBDE8F08143482E4B98478E
:1051400001202E4B984741E640482B4B98470120C1
:105150002A4B984746E63E48274B98470120274B65
:1051600098474AE63B48244B98470120234B9847F1
:105170004FE63948204B98470120204B984754E68A
:1051800036481D4B984701201C4B984759E6344838
:10519000194B98470120194B98475EE63148164B4A
:1051A00098470120154B984763E62F48124B9847C4
:1051B0000120124B984768E62C480F4B9847012076
:1051C0000E4B98476DE62A480B4B984701200B4B36
:1051D000984772E62748084B98470120074B9847A5
:1051E00077E62548044B98470120044B98477CE616
:1051F00000140E4028AA4000697540007930400034
:1052000000120E4064AA4000A0AA4000DCAA4000A0
:1052100018AB400054AB4000000E0E4090AB400075
:10522000E0AB400020AC400058AC400098AC4000DF
:10523000E4AC40001CAD400058AD40009CAD4000C7
:10524000D8AD400040AE4000F4A6400030A740007A
:1052500050A74000B0A74000F0A7400030A8400091
:1052600070A84000A8A84000E0A8400018A940008D
:1052700050A940008CA94000CCA940003E483F4BBB
:10528000984701203E4B984786E63E483B4B98475F
:1052900001203B4B98478BE63B48384B9847012011
:1052A000374B984790E63948344B98470120344BA8
:1052B000984795E63648314B98470120304B984740
:1052C0009AE634482D4B984701202D4B98479FE68E
:1052D00031482A4B98470120294B9847A4E62F488C
:1052E000264B98470120264B9847A9E62C48234B8C
:1052F00098470120224B9847AEE62A481F4B984713
:1053000001201F4B9847B3E627481C4B98470120C4
:105310001B4B9847B8E62548184B98470120184B77
:105320009847BDE62248154B98470120144B9847F3
:10533000C2E62048114B98470120114B9847C7E619
:105340001D480E4B984701200D4B9847CCE61B4853
:105350000A4B984701200A4B9847D1E61848074B5B
:1053600098470120064B9847D6E61648034B9847C6
:105370000120034B9847DBE6ECA94000697540002B
:105380007930400048AA400084AA4000C0AA4000EA
:10539000FCAA400038AB400074AB4000B8AB400002
:1053A000FCAB400038AC400074AC4000BCAC4000EA
:1053B00000AD40003CAD40007CAD4000BCAD4000C5
:1053C000FCAD400020AE40000022014B1A70704737
:1053D000D001402010B508490423CB60074B0B6176
:1053E00000230B75064C04312046064B9847204697
:1053F000054B984710BD00BFD0014020C953400065
:10540000F0054020E9344000AD344000F8B50023F9
:1054100004E00021534A22F8131001330A2BF8DD6F
:10542000514B98470122514B1A700024504B1C607D
:10543000504B1C60504B1C6025464C4B1B78002B7E
:105440007AD009214D484E4FB847484E308301214C
:105450004C48B847434B5A88338B9A4202D2414A50
:105460005380044607214548454FB8473F4E308397
:1054700001214448B8473B4B1A88338B9A4202D2E9
:10548000384A1380054605213C483D4FB847374E02
:10549000308301213B48B847324B9A88338B9A427C
:1054A00001D2304A938004213448354B98472F4B22
:1054B00018832C4B9B89984201D92A4B9881032150
:1054C0002E482F4B9847294B1883264B5B899842CF
:1054D00001D9244B588103212A48294B9847234B53
:1054E0001883204BDB88984201D91E4BD8800421B9
:1054F0002448234B98471D4B18831A4B1B8A98420C
:1055000001D9184B188205211E481D4B9847174B8F
:105510001883144B5B8A984201D9124B5882072199
:105520001848174B9847114B18830E4B1B8998420C
:1055300083D90C4B188180E7B4F5FA6F09D90022A2
:105540000D4B1A60B5F5FA6F07D80022094B1A60A7
:10555000F8BD0122084B1A60F4E70122054B1A60DE
:10556000F8BD00BF60024020D5534000D00140206C
:105570005C0240209003402028024020D4044020B8
:10558000113D4000C405402058B908B50B461146EE
:105590001846054B9847002800DB08BD4FF0FF3048
:1055A00008BD4FF0FF307047015640000138022817
:1055B0000BD808B50B4611461846054B98470028EE
:1055C00000DB08BD4FF0FF3008BD4FF0FF307047E3
:1055D0002556400070B50646064D2B680021986898
:1055E000054CA0472B6800215868A047034B1E605C
:1055F00070BD00BF48004020C1754000EC01402054
:1056000008B5064B1B6833B10A46014692B21846EC
:10561000034B984708BD002008BD00BFEC014020A7
:105620001132400008B5064B1B6833B10A460146EB
:1056300092B21846034B984708BD002008BD00BF32
:10564000EC014020E131400010B5044C2046044BF1
:1056500098472046034B984710BD00BF5004402098
:10566000BD384000D5554000044B5B6913F0010F75
:10567000FAD0024B9869C0B2704700BF000A0E40D2
:1056800007E0064B5B6913F0020FFAD00130034BC1
:10569000DA610278002AF4D1704700BF00080E409A
:1056A00010B586B0054B984701AB0622044CA047C5
:1056B00001A8044B984706B010BD00BFF56D40002F
:1056C000C97440008156400008B501460348044BA8
:1056D00098476420034B9847002008BD68AE4000FF
:1056E00069754000793040000122034B9A604FF405
:1056F0008072024B1A607047000A0E4000E100E021
:105700000122064BDA604FF48072054BC3F880200B
:10571000BFF34F8FBFF36F8F704700BF000A0E407B
:1057200000E100E010B586B0054B984701AB0622BA
:10573000044CA04701A90448044B984706B010BD8B
:10574000F56D4000C974400068AE400069754000C6
:1057500030B5224A21F00043934287B01BDD204A36
:10576000934205DD02460B4601F0E4F907B030BD77
:1057700002AA00F07DF800F00303012B1AD0022BDF
:105780000FD01BB30124DDE90423DDE902010094FD
:1057900000F0FEFFEAE70022002300F08DFA07B0D8
:1057A00030BDDDE90423DDE9020100F085FA01F1F5
:1057B0000041DBE7DDE904450093DDE90201224613
:1057C0002B4600F0E5FF01F10041CFE7DDE90423BE
:1057D000DDE9020100F070FAC8E700BFFB21E93FF4
:1057E000FFFFEF7F30B51F4A21F00043934287B09F
:1057F0001BDD1D4A934205DD02460B4601F09AF976
:1058000007B030BD02AA00F033F800F00300012811
:10581000DDE904231AD002280FD0E0B1DDE902014E
:1058200000F04AFA01F10041EAE700230093002268
:10583000002300F0ADFF07B030BD0124DDE9020117
:10584000009400F0A5FF01F10041D9E7DDE9020174
:1058500000F032FAD4E70124DDE90201009400F0FF
:1058600097FFCDE7FB21E93FFFFFEF7F000000003E
:105870002DE9F04F9A4E21F00047B74291B040F326
:105880008E809246974A97420C4626DC00298AA3CE
:10589000D3E9002340F3B48101F04CF9924B9F42CD
:1058A00004460D4600F0908085A3D3E9002301F063
:1058B00041F902460B46CAE900232046294601F079
:1058C00039F97FA3D3E9002301F034F90125CAE9AE
:1058D0000201284611B0BDE8F08F844A974240F398
:1058E0009080834A974265DC3D15A5F21645A7EBEB
:1058F000055319461F46064601F06AFD01F068FA95
:105900008046894602460B4630463946CDE90A892B
:1059100001F010F90022774B01F0C0FA8946804669
:1059200001F056FD01F054FA02460B4606460F46BA
:1059300040464946CDE90C6701F0FCF800226D4B6A
:1059400001F0ACFA00220023CDE90E0101F00EFDBA
:10595000002800F07381002330463946002201F010
:1059600005FD002814BF01230223634A019202218E
:105970002A4600910AA8514600F0C2FA002C0546BA
:1059800014DADAF80420DAF80C3002F1004203F1FC
:1059900000434542CAF80420CAF80C3006E0C2E9C8
:1059A000000100250024C2E902450025284611B067
:1059B000BDE8F08F02460B4601F0BCF80025CAE9AD
:1059C0000201CAE90001F1E73FA3D3E9002301F096
:1059D000B1F83FA3D3E900230D46044601F0AAF82D
:1059E00002460B46CAE900232946204601F0A2F8E8
:1059F00037A3D3E9002301F09DF80125CAE902018C
:105A0000D4E700F07BFF34A3D3E900238046894626
:105A100001F044FA0022394B01F08EF801F0D8FC75
:105A2000054601F0D5F924A3D3E90023CDE904010B
:105A300001F034FA02460B464046494601F07AF836
:105A40001FA3D3E9002380468946DDE9040101F064
:105A500025FA1F2DCDE9020154DC294B6A1E53F8AB
:105A600022309F424ED002460B464046494601F046
:105A700061F802460B46CAE9002383460E465A46A1
:105A800033464046494601F055F8DDE9022301F06E
:105A900051F8002C02460B46CAE9022386DA5B461F
:105AA00006F1004601F100418AE84800CAF80C10EE
:105AB000CAF808006D4279E700004054FB21F93F25
:105AC0003163621A61B4D03D0000601A61B4D03D08
:105AD0007370032E8A19A33B83C8C96D305FE43FFE
