:020000040040BA
:10000000B00B4020DD254000D9254000D925400017
:10001000D9254000D9254000D92540000000000026
:10002000000000000000000000000000D925400092
:10003000D925400000000000D9254000D925400006
:10004000D9254000D9254000D9254000D9254000B8
:10005000D9254000D9254000D9254000D9254000A8
:10006000A548400000000000D53E4000D9254000D2
:10007000D9254000D9254000D9254000D925400088
:10008000C93E4000D9254000D9254000D92540006F
:10009000D9254000D9254000D9254000DD43400046
:1000A000D9254000D9254000F1434000D925400022
:1000B000D9254000153B4000D9254000D9254000F6
:1000C000D9254000D9254000D9254000D925400038
:1000D000D9254000D9254000D9254000D925400028
:1000E000293B4000D9254000D9254000D9254000B2
:1000F000D9254000D9254000D9254000D925400008
:10010000D9254000D9254000D9254000D9254000F7
:10011000D9254000D9254000000000000000000063
:10012000D9254000D9254000D9254000D9254000D7
:10013000D9254000D9254000D9254000D9254000C7
:10014000D9254000D9254000D9254000D9254000B7
:10015000D9254000D9254000D9254000D9254000A7
:10016000D9254000D925400010B5054C237833B976
:10017000044B13B10448AFF300800123237010BD7A
:10018000AC0040200000000018B240000C4B43B10E
:100190000C480D4910B5AFF300800C48036823B933
:1001A00010BD0A48036833B97047094B002BF7D0DC
:1001B000BDE810401847064B002BF5D0184700BF8C
:1001C0000000000018B24000B000402018B240000B
:1001D0000000000008B5024B9847024B984708BD45
:1001E000F12940003955400007EE100A00290BDBC9
:1001F0000023F7EE007A02E067EE877A01338B4244
:10020000FADB17EE900A704749420023F7EE007AB6
:1002100002E0C7EE877A01338B42FADBF1E7000098
:100220002DE9F0478246062946D8DFE811F007009D
:100230004F00D8011702B502F502340304219C4F88
:10024000B8479C4EB0479C4D7BA3D3E90023A847F9
:100250008046894603215046B847B04778A3D3E982
:100260000023A847954C02460B4640464946A04706
:100270008046894602215046B847B04772A3D3E969
:100280000023A84702460B4640464946A047804601
:1002900089465046B0476EA3D3E90023A8470246DB
:1002A0000B4640464946A0476BA3D3E90023A0472D
:1002B000834B9847834B98618348844B9847814C84
:1002C000A069834B9847A069BDE8F087DFED817A8C
:1002D00007EE100AB4EEE77AF1EE10FA6AD9DFED14
:1002E0007D7A07EE100AB4EEE77AF1EE10FA07DD38
:1002F000DFED797AB4EEE77AF1EE10FA40F2F080B1
:10030000DFED757A07EE10AAB4EEE77AF1EE10FA97
:1003100007DDDFED727AB4EEE77AF1EE10FA40F223
:100320001E81DFED6E7A07EE10AAB4EEE77AF1EEE9
:1003300010FAC1DD042150465D4FB8475D4EB0470D
:100340005D4D47A3D3E90023A84780468946032192
:100350005046B847B04744A3D3E90023A847574CB9
:1003600002460B4640464946A04780468946022140
:100370005046B847B0473EA3D3E90023A8470246FA
:100380000B4640464946A047804689465046B047FE
:1003900039A3D3E90023A84702460B464046494605
:1003A000A04737A3D3E90023A047454B9847454BC7
:1003B000986181E704213E4FB8473E4EB0473E4D1D
:1003C00031A3D3E90023A84780468946032150463C
:1003D000B847B0472EA3D3E90023A847374C0246BD
:1003E0000B4640464946A047804689460221504672
:1003F000B847B04728A3D3E90023A84702460B46D5
:1004000040464946A047804689465046B04724A307
:10041000D3E90023A84702460B4640464946A04779
:1004200021A3D3E90023A047254B9847254B98618A
:1004300042E700BFAFF3008014AFC1491B0C553D2C
:100440003E1FF5782A0AD63D60AB166E7F82C93E04
:1004500099F5622827DA953F643BDF4F8D97F03F8F
:10046000001BB66916C66C3D5B7F40957FCB3EBED8
:1004700046BF2AD50D2D053FC3F011312592B0BFDF
:100480006666666666C65240CFC275F0B1FD543DE1
:1004900036FF59AE8B75D43DBB87BE9A873CC73EAD
:1004A00084D89942E735963F448B6CE7FBA9ED3F32
:1004B000E9014000E56C40008D6D4000296A400074
:1004C000117340007C024020509A4000B955400012
:1004D0009155400000007A440000FA4400803B45FA
:1004E0000421A74FB847A74EB047A74D7CA3D3E937
:1004F0000023A8478046894603215046B847B047A5
:1005000079A3D3E90023A847A04C02460B464046F6
:100510004946A0478046894602215046B847B04721
:1005200073A3D3E90023A84702460B464046494639
:10053000A047804689465046B0476FA3D3E90023C1
:10054000A84702460B4640464946A0476CA3D3E95C
:100550000023A0478E4B98478E4B9861ACE6042150
:100560005046874FB847874EB047874D66A3D3E9BB
:100570000023A8478046894603215046B847B04724
:1005800063A3D3E90023A847804C02460B464046AC
:100590004946A0478046894602215046B847B047A1
:1005A0005DA3D3E90023A84702460B4640464946CF
:1005B000A047804689465046B04759A3D3E9002357
:1005C000A84702460B4640464946A04756A3D3E9F2
:1005D0000023A0476E4B98476E4B98616CE6042150
:1005E000674FB847674EB047674D51A3D3E9002323
:1005F000A8478046894603215046B847B0474EA3D6
:10060000D3E90023A847614C02460B4640464946C1
:10061000A0478046894602215046B847B04748A3C4
:10062000D3E90023A84702460B4640464946A04767
:10063000804689465046B04743A3D3E90023A847E4
:1006400002460B4640464946A04741A3D3E9002352
:10065000A0474F4B98474F4B98612DE60421484FD8
:10066000B847484EB047484D3BA3D3E90023A847BD
:100670008046894603215046B847B04738A3D3E99E
:100680000023A847414C02460B4640464946A04736
:100690008046894602215046B847B04732A3D3E985
:1006A0000023A84702460B4640464946A0478046DD
:1006B00089465046B0472EA3D3E90023A8470246F7
:1006C0000B4640464946A0472BA3D3E90023A04749
:1006D0002F4B98472F4B9861EEE500BFAFF300809A
:1006E00056F39D5FA399593DEA4725906D90F5BD5E
:1006F0002D677F38F941CE3EB24B546F0D6C953F5C
:10070000B6F3FDD478E9F23F11267787EC9E653D7C
:10071000A0F7B73494912ABEF96273FEBB78EE3E1F
:10072000BA313D618907643FCDCCCCCCCC4C29405B
:100730001875C248A60EED3C40D848B98106763DF2
:10074000E757E969DD518E3E548B8862F206783FA7
:10075000CE88D2DEE00BE33F6961BCB4026FF03CAF
:10076000928F7751C2B3793D45D33AAA5101943E55
:10077000FF3F4E98309A753FB2D47ABFD18E6B3F0F
:10078000E9014000E56C40008D6D4000296A4000A1
:10079000117340007C0240200421834FB847834DF1
:1007A000A847834C62A3D3E90023A047804689462B
:1007B00003215046B847A8475FA3D3E90023A047C9
:1007C0007C4E02460B4640464946B0478046894625
:1007D00002215046B847A84759A3D3E90023A047B0
:1007E00002460B4640464946B04780468946504639
:1007F000A84755A3D3E90023A04702460B4640462D
:100800004946B04752A3D3E900236B4CA0476B4B3A
:1008100098476B4B98614FE50421634FB847634E8F
:10082000B047634D4CA3D3E90023A84780468946CF
:1008300003215046B847B04749A3D3E90023A8474E
:100840005C4C02460B4640464946A04780468946D6
:1008500002215046B847B04743A3D3E90023A84735
:1008600002460B4640464946A047804689465046C8
:10087000B0473FA3D3E90023A84702460B464046B2
:100880004946A0473CA3D3E90023A0474B4B9847D8
:100890004B4B986110E5DFED4B7A07EE100AB4EE92
:1008A000E77AF1EE10FA01DD17EE90AA0421504626
:1008B0003D4FB8473D4EB0473D4D31A3D3E90023EE
:1008C000A8478046894603215046B847B0472EA323
:1008D000D3E90023A847374C02460B464046494619
:1008E000A0478046894602215046B847B04728A312
:1008F000D3E90023A84702460B4640464946A04795
:10090000804689465046B04723A3D3E90023A84731
:1009100002460B4640464946A04721A3D3E900239F
:10092000A047264B9847264B9861C5E4AFF300805B
:10093000F35B70C24080F13C50C39A675842643DFB
:1009400086F28E67A12A903EAF97A608707A773F0D
:1009500007CE1951DA1BCC3FE6A6E9FE1678303DEA
:10096000B3590A44D346C7BDA4CC6BC44A07C63E9C
:1009700084640113B875973FA69BC420B0720140F0
:1009800097BFE7688518863D96AB22DE3965183E2D
:100990008EDA7181D3D4053F80289831056B6C3F86
:1009A000F853E3A59BC40840E9014000E56C400012
:1009B0008D6D4000296A4000256A40001173400097
:1009C0007C0240200000C8442DE9F04782460629F9
:1009D00046D8DFE811F007004F00E3010402990256
:1009E000D80217030421A04FB847A04EB047A04D2E
:1009F0007FA3D3E90023A8478046894603215046B8
:100A0000B847B0477CA3D3E90023A847994C0246D6
:100A10000B4640464946A04780468946022150463B
:100A2000B847B04776A3D3E90023A84702460B4650
:100A300040464946A047804689465046B04772A383
:100A4000D3E90023A84702460B4640464946A04743
:100A50006FA3D3E90023A047874B9847874B586182
:100A60008748884B9847854C6069874B98476069F1
:100A7000BDE8F08707EE900AF5EEC07AF1EE10FAC5
:100A800008DBDFED827A07EE100AB4EEE77AF1EECA
:100A900010FA6BD4DFED7D7A07EE10AAB4EEE77A98
:100AA000F1EE10FA07DBDFED7A7AB4EEE77AF1EED9
:100AB00010FA00F1F380DFED767A07EE10AAB4EEBB
:100AC000E77AF1EE10FA07DBDFED727AB4EEE77A3F
:100AD000F1EE10FA00F12281DFED6E7A07EE10AA36
:100AE000B4EEE77AF1EE10FABADB042150465E4F1D
:100AF000B8475E4DA8475E4C47A3D3E90023A04703
:100B00008046894603215046B847A84744A3D3E905
:100B10000023A047574E02460B4640464946B04781
:100B20008046894602215046B847A8473EA3D3E9EC
:100B30000023A04702460B4640464946B047804640
:100B400089465046A8473AA3D3E90023A047024666
:100B50000B4640464946B04737A3D3E900234E4CE5
:100B6000A047454B9847454B586179E704213E4FD4
:100B7000B8473E4EB0473E4D31A3D3E90023A847C6
:100B80008046894603215046B847B0472EA3D3E993
:100B90000023A847374C02460B4640464946A0472B
:100BA0008046894602215046B847B04728A3D3E97A
:100BB0000023A84702460B4640464946A0478046C8
:100BC00089465046B04724A3D3E90023A8470246EC
:100BD0000B4640464946A04721A3D3E90023A0473E
:100BE000254B9847254B58613AE700BFAFF300808B
:100BF00039949631F56FF43CF7D967DBBA1D773D30
:100C0000A1923591B2F18B3E1243BCBF8B08503F8D
:100C10007C2C7DE882FAA63F363E86DF9B83F3BCC0
:100C2000805AA475DA86E23D0FAA468B89CFA1BE11
:100C30009DF4BEF1B567663F295C8FC2F528F83F89
:100C400063A082C358A9F93CAB088669480B60BD14
:100C5000FF79B94FD7218A3E817C09151C5E503F30
:100C6000E88711C2A38DA33FE9014000E56C400075
:100C70008D6D4000296A4000117340007C024020C5
:100C80005C9A4000B95540009155400000007A44FC
:100C90000000FA4400803B45256A4000042150468C
:100CA000934FB847934EB047934D6DA3D3E90023BC
:100CB000A8478046894603215046B847B0476AA3F3
:100CC000D3E90023A8478D4C02460B4640464946CF
:100CD000A0478046894602215046B847B04764A3E2
:100CE000D3E90023A84702460B4640464946A047A1
:100CF000804689465046B0475FA3D3E90023A84702
:100D000002460B4640464946A0475DA3D3E900236F
:100D1000A0477B4B98477B4B5861A1E60421504686
:100D2000734FB847734EB047734D57A3D3E90023B1
:100D3000A8478046894603215046B847B04754A388
:100D4000D3E90023A8476D4C02460B46404649466E
:100D5000A0478046894602215046B847B0474EA377
:100D6000D3E90023A84702460B4640464946A04720
:100D7000804689465046B04749A3D3E90023A84797
:100D800002460B4640464946A04747A3D3E9002305
:100D9000A0475B4B98475B4B586161E60221544B7F
:100DA0009847544DA847544C41A3D3E90023A0478A
:100DB00006460F465046A8473FA3D3E90023A04765
:100DC0004E4C02460B4630463946A0473CA3D3E979
:100DD0000023A0474A4B98474A4B586140E60421FC
:100DE000434FB847434EB047434D37A3D3E90023A1
:100DF000A8478046894603215046B847B04734A3E8
:100E0000D3E90023A8473D4C02460B4640464946DD
:100E1000A0478046894602215046B847B0472EA3D6
:100E2000D3E90023A84702460B4640464946A0475F
:100E3000804689465046B04729A3D3E90023A847F6
:100E400002460B4640464946A04727A3D3E9002364
:100E5000A0472B4B98472B4B586101E6AFF300801E
:100E600060BBA9932A7C023D45FB5D785BFDB4BD68
:100E7000D9A4BE4F4508903E12842BA0504F4F3F3F
:100E80003E963E74417DAB3FB9DF4BD0990C083D97
:100E9000C53F4B5EE671CDBD4290297E18D1993E8B
:100EA000DF5ADC35D71F473F2B1895D40968CA3F56
:100EB000C317C75D32A7583EA0AE4912DFE4423FD8
:100EC000EDF5EE8FF7AA753F277BE3B7B857B03C37
:100ED00088226A0C75FE1D3DC5546F2D6BE6583E89
:100EE0008C22B59ABF53423FAB668CC5257D303FFF
:100EF000E9014000E56C40008D6D4000296A40002A
:100F0000117340007C02402004217D4FB8477D4E84
:100F1000B0477D4D5CA3D3E90023A84780468946AE
:100F200003215046B847B04759A3D3E90023A84747
:100F3000764C02460B4640464946A04780468946C5
:100F400002215046B847B04753A3D3E90023A8472E
:100F500002460B4640464946A047804689465046D1
:100F6000B0474FA3D3E90023A84702460B464046AB
:100F70004946A0474CA3D3E90023A047644B9847B8
:100F8000644B58616CE504215D4FB8475D4EB04736
:100F90005D4D47A3D3E90023A84780468946032136
:100FA0005046B847B04744A3D3E90023A847574C5D
:100FB00002460B4640464946A047804689460221E4
:100FC0005046B847B0473EA3D3E90023A84702469E
:100FD0000B4640464946A047804689465046B047A2
:100FE00039A3D3E90023A84702460B4640464946A9
:100FF000A04737A3D3E90023A047454B9847454B6B
:1010000058612DE504213E4FB8473E4EB0473E4D56
:1010100031A3D3E90023A8478046894603215046DF
:10102000B847B0472EA3D3E90023A847374C024660
:101030000B4640464946A047804689460221504615
:10104000B847B04728A3D3E90023A84702460B4678
:1010500040464946A047804689465046B04724A3AB
:10106000D3E90023A84702460B4640464946A0471D
:1010700021A3D3E90023A047254B9847254B58616E
:10108000EEE400BFAFF300800F9D0B7AEC52893C79
:101090000075DA02CF573E3D279BA90AB1E55A3EBB
:1010A000E1F6BAFBD291423FA7AE7C96E7C17D3F05
:1010B0004A54C0673611D83C7D0A904AACB95B3DB2
:1010C00068C4FEF48137793E1A170E846401533FD9
:1010D0003813D38558FD713F19657E89BD1DFBBC52
:1010E000937C2E9640B99CBD15D2B4A004F1B23EBB
:1010F000BCF0DEAC1CB54D3FC80C54C6BFCF983F0A
:10110000E9014000E56C40008D6D4000296A400017
:10111000117340007C02402010B506EE900A1D4C71
:10112000D4ED127A1C4B93ED007A67EE877A94ED3A
:10113000137A1A4B93ED006A27EE067A27EE267A89
:1011400077EE877A94ED157A154B93ED006A27EECA
:10115000067A66EE876A77EEA67A94ED167A114BD8
:10116000D3ED006A27EE267A77EE877A94ED0E7A31
:101170000D4BD3ED006A27EE267A77EE877AC4ED21
:101180000B7A0A480A4B9847E06A0A4B9847E06A8C
:1011900010BD00BF7C024020080240201803402000
:1011A0001C034020CC034020C8034020709A40001C
:1011B000B95540009155400010B5084CD4ED0B7A5C
:1011C000B6EE007A67EE877AC4ED0C7A0448054BD8
:1011D0009847206B044B9847206B10BD7C02402041
:1011E0009C9A4000B95540009155400010B5084CFC
:1011F000D4ED067A94ED0B7A67EE877AC4ED097A1E
:101200000448054B9847606A044B9847606A10BDD4
:101210007C024020C49A4000B955400091554000DE
:1012200010B5084CD4ED057A94ED0C7A67EE877A08
:10123000C4ED0A7A0448054B9847A06A044B9847C6
:10124000A06A10BD7C024020E09A4000B9554000E1
:101250009155400010B50F4CD4ED067AD4ED0B6AD1
:1012600027EEA66AB7EE007A37EE667AC6EE076A10
:1012700077EEA67A084B93ED117A77EE877AC4ED74
:10128000077A0648064B9847E069064B9847E0699D
:1012900010BD00BF7C02402068034020009B40003E
:1012A000B9554000915540002DE9F84F2DED028BC6
:1012B000554B1B6C062B5ED0534D95ED098AD5ED31
:1012C000137A68EE277ADFED518A87EEA87A504CC0
:1012D00078EE077A17EE900AA04782468B46286878
:1012E000A047804689466869A0474A4D44A3D3E990
:1012F0000023A847484B984702460B4640464946BC
:10130000A847464E02460B4650465946B0478046CF
:101310008946434DD5ED127A424B93ED007A67EE44
:10132000877A28EE278A404BD3ED007A67EEA87AB9
:1013300088EE277A17EE100AA04702460B46404671
:101340004946B04706460F46A86BA04702460B46E3
:1013500030463946354CA047354B9847686035488C
:10136000354B98476868354B98472D4B5868BDEC0E
:10137000028BBDE8F88F244D95ED098A244C18EEB8
:10138000100AA04782468B462868A04780468946B7
:101390006869A0471F4D1AA3D3E90023A8471E4B35
:1013A000984702460B4640464946A8471B4E024610
:1013B0000B4650465946B04780468946184DD5EDF4
:1013C000127A184B93ED007A67EE877A28EE278A17
:1013D000F6EE007A68EE277A17EE900AA0470246EA
:1013E0000B4640464946B047114B98476860114844
:1013F000114B98476868114B9847B6E7AFF30080E8
:10140000399D52A246DF913F680340200000C84248
:10141000E56C40008D6D400041564000296A400057
:101420007C02402008024020CC034020256A400076
:1014300011734000149B4000B95540009155400085
:1014400038B5154CD4ED0F7AB7EE007A87EE276ADF
:10145000D4ED017AD4ED046A67EEA67AC7EE276A66
:1014600076EE667A17EE900A0C4B984708A3D3E9FC
:1014700000230B4DA8470B4B984760630A480B4B62
:101480009847606B0A4B9847606B38BDAFF300809C
:10149000EB51B81EA5DFAA407C024020E56C40005D
:1014A0008D6D400011734000309B4000B9554000E5
:1014B00091554000000000002DE9704F82B02A4C89
:1014C00094ED077AD4ED087A284D77EE677A17EE17
:1014D000900AA84782468B462068A84780468946DE
:1014E0006069A847224E1EA3D3E90023B047214BD1
:1014F000984702460B4640464946B047CDE90001B1
:1015000094ED0F7AD4ED0E7A77EE677A17EE900AA3
:10151000A8478046894602460B46DDE90001B047F0
:1015200002460B4650465946134CA04742464B468E
:10153000124CA047124B98470446A847114B9847B6
:101540000F2800DD00241048104B98472046104B10
:101550009847104BDC60204602B0BDE8708F00BF9A
:10156000399D52A246DF913F68034020E56C400060
:101570008D6D400041564000256A4000E16F4000FB
:1015800011734000B1734000409B4000B9554000CA
:10159000915540007C0240202DE9F8432DED028B4F
:1015A000294D2A4E2868B047804689466869B04769
:1015B000274C23A3D3E90023A047264B9847024694
:1015C0000B4640464946A04780468946224CE06883
:1015D000B04702460B4640464946204EB047204B96
:1015E000984708EE100A1F481F4FB84718EE100A18
:1015F0001E4EB04795ED087A1D4BD3ED007AF8EEFC
:10160000677A67EE887A77EE677AC4ED107A1948C0
:10161000B847206CB047B5EE408AF1EE10FA08D119
:101620000022134B1A600C4B186CBDEC028BBDE80A
:10163000F8830F4A136801331360F4E7AFF30080B7
:10164000399D52A246DF913F68034020E56C40007F
:101650008D6D4000415640007C024020296A4000C8
:1016600011734000509B4000B95540009155400017
:10167000C8004020649B400010B50A4CD4ED107A9D
:1016800094ED037AD4ED046A27EE267A77EEC77AD2
:10169000C4ED0F7A0448054B9847E06B044B98471C
:1016A000E06B10BD7C0240207C9B4000B95540009F
:1016B0009155400010B5124C94ED056A94ED0C7AEA
:1016C000F7EE007A77EEC77A66EE276A26EE077A9B
:1016D00036EE877AD4ED036A94ED105AC6EE055AB9
:1016E00066EEA56A77EEA67AC7EE276AC4ED046AAD
:1016F0000448054B98472069044B9847206910BD62
:101700007C0240208C9B4000B95540009155400020
:101710002DE9F04F2DED068B85B0934B93ED109A8C
:10172000DFED927AB4EEE79AF1EE10FA02D50022DC
:101730008F4B9A608C4E96ED07AA8E4C1AEE100ACB
:10174000A047804689468A4F97ED018A18EE100A15
:10175000A047894D7CA3D3E90023A847DFF858A20E
:10176000D04702460B4640464946A847DFF84CB2F0
:10177000D84709EE900AF868A047CDE90001D7EDF7
:1017800000AA1AEE900AA047804689467869A047C9
:101790006DA3D3E90023A847D04702460B46CDE905
:1017A000022340464946A84780468946D7ED068A27
:1017B00078EECA7A17EE900AA04702460B464046DA
:1017C0004946A8478046894619EE100AA047DFF827
:1017D000F0A102460B4640464946D04702460B461A
:1017E000DDE90001DFF8DC81C0478046894696EDDF
:1017F00004AA1AEE100AA04702460B464046494684
:10180000A847D84709EE100AD7ED027A96ED0D7A6F
:1018100067EE877A28EE278A6AEE087A17EE900A32
:10182000A0474BA3D3E90023D047D8470AEE100ABC
:10183000F1EE4A7A17EE907A6AEEA87A17EE900ADD
:10184000A04702460B46DDE90201A84780468946CB
:101850007068A04702460B4640464946D047D847E5
:1018600008EE900A39EE898A38EE4A8A38EE888A7C
:1018700086ED028A3068A04704460D463F4B9847E4
:101880003F4B984734A3D3E900233E4EB047D0B135
:1018900018EE100A374B984780468946364E30A3DB
:1018A000D3E9002320462946B04702460B4620468E
:1018B0002946B04702460B4640464946324CA047AF
:1018C000D847294B9860284BD3ED027AF5EEC07AC1
:1018D000F1EE10FA31D4244B93ED027ADFED2B7A3E
:1018E000B4EEE77AF1EE10FA01DDC3ED027A284892
:1018F000284CA0472848A04719EE900A274DA84732
:101900002748A04719EE100AA8472648A04738469E
:10191000A8472548A04718EE900AA8472348A047A3
:10192000114CA068A847A1682148224B9847A0689D
:1019300005B0BDEC068BBDE8F08FF1EE677AC3ED24
:10194000027AC8E7AFF30080399D52A246DF913F8B
:101950003333333333534D40CDCCCCCCCCCC494056
:101960003FABCC94D6DF323F7C0240200000C8431E
:1019700068034020E56C40008D6D4000B17340006D
:10198000C16C400099724000296A40000000B443D5
:10199000949B4000B9554000B09B400091554000D9
:1019A000B89B4000C09B4000C89B4000D09B4000BB
:1019B000200340202D244000415640001173400078
:1019C000E16F4000256A40002DE9704F2DED048B3A
:1019D0004D4B93ED0F9ADFED4D7AB4EEE79AF1EEB1
:1019E00010FA02D500224A4B9A60474D494EE869E9
:1019F000B04780468946464C6068B047464E40A393
:101A0000D3E90023B04782468B46444B98470246B1
:101A10000B4640464946B047414B984709EE900A6D
:101A2000D4ED048AD5ED047A68EEA78A94ED028A93
:101A300095ED0D7A28EE078A27EE888AF1EE487A2E
:101A400017EE908A236C062B48D0314B986C314BA3
:101A5000984704460D4650465946324B9847024631
:101A60000B46204629462C4CA0472D4B984709EEA3
:101A7000100A79EEA87A77EEC87A79EE277A224EA4
:101A8000C6ED007A2848294CA0472948A04719EEFE
:101A9000900A284DA8472848A04718EE900AA84762
:101AA0002648A0474046A8472548A04719EE100AF7
:101AB000A8472448A0473068A847D6ED007AF5EE3D
:101AC000C07AF1EE10FA13D40F4C21681E481F4B58
:101AD00098472068BDEC048BBDE8708FDFED1C7A61
:101AE000B4EEE79AF1EE10FAAFDD1A4AA264ACE761
:101AF000F1EE677AC6ED007AE6E700BFAFF300804B
:101B0000399D52A246DF913F7C0240200000C8432D
:101B100068034020E56C40008D6D4000D5564000C4
:101B200011734000415640002C9C4000B9554000C4
:101B3000B09B400091554000B89B4000C09B4000C6
:101B4000C89B4000489C4000240340202D244000B6
:101B50000000F0430000A0C070B51F481F4CA04714
:101B60001F48A0471F4E30681F4DA8471F48A04779
:101B70007068A8471E48A047B068A8471D48A047FE
:101B8000F068A8471C48A0473069A8471B48A047F1
:101B90007069A8471A48A047B069A8471948A047E4
:101BA000F069A8471848A047706AA8471748A04797
:101BB000B06AA8471648A047F06AA8471548A0474A
:101BC000706BA8471448A047F06CA8471348A0477B
:101BD000306BA84770BD00BFA49C4000B9554000C1
:101BE000D49C40006803402091554000E49C400094
:101BF000F49C4000049D4000109D40001C9D40004E
:101C0000309D40003C9D4000449D4000609D400050
:101C1000789D4000909D4000A49D4000B49D4000F0
:101C20002DE9F84F924B93F83E2093F83F302E2A3F
:101C300008BFEF2B2BD18F488F4B98478C4B00223E
:101C400083F83E2083F83F208C4B98478C4B984775
:101C50008C4B98478C4B98478C4B98478C4B9847AC
:101C60008C4B98478C4B98478C4B98478C4B98479C
:101C70008C4B1864082824D8DFE810F00D00C00051
:101C8000D7007A019001A601BD01D201D601864894
:101C9000794B9847AFE0854A854B1A60854A864B59
:101CA0001A60864A864B1A60864A874B1A604FF044
:101CB0006D52864B1A60864A7A4B5A6285486E4B43
:101CC0009847784C94ED0B7AF2EE0E6A37EE667A0E
:101CD000814D85ED127A94ED0D7ADFED807A37EE45
:101CE000677A85ED157AD4ED0A7A77EEE67AC5ED56
:101CF000137AD4F84CB0C5F850B0D4ED017AF1EEB7
:101D0000677AC4ED017A764EA069B047DFF858A231
:101D100051A3D3E90023D047724FB847A061206890
:101D2000B0474FA3D3E90023D047B847206094EDD4
:101D3000047ADFED6D7A67EEC77AC4ED047A94ED2C
:101D4000037ADFED6A7A67EEC77AC4ED037AB047AB
:101D5000804689466069B04743A3D3E90023D04752
:101D6000634B984702460B4640464946D0470022FF
:101D7000604BD04780468946606AB04702460B46B2
:101D800040464946DFF8E481C047804689465846C8
:101D9000B04702460B4640464946574EB047B84703
:101DA000A865E36923620023A3634FF08143E363E3
:101DB000524B9847524B9847524B9847216C286C8E
:101DC000514B9847216C286C504B9847286C504BCE
:101DD0009847504B9847504B9847504B9847504B1B
:101DE0009847504B9847504B9847504B9847504B0B
:101DF0009847504B98470020BDE8F88F4E4A2C4B2F
:101E00001A604E4A2C4B1A604D4A2D4B1A604D4AAF
:101E10002D4B1A604FF06D522C4B1A602C4A214BFF
:101E20005A624948144B98474BE7484A204B1A607E
:101E3000474A214B1A60474A214B1A60464A224BB7
:101E40001A60464A214B1A60454A164B5A62454869
:101E5000094B984735E700BF3333333333534D4095
:101E6000271763601DC7D13F399D52A246DF913FBE
:101E700028034020CC9D4000B95540006D2440000F
:101E8000A524400015254000595340005D21400025
:101E90001D2140009D214000B1234000591B4000FE
:101EA000E521400068034020E09D40005F739F34BF
:101EB0001C034020D59328B518034020F180B2BC04
:101EC000CC03402006BC4CBA08024020C803402086
:101ED00000006244F49D40007C02402000803B44AE
:101EE000E56C4000117340000000704200206A421F
:101EF0004156400000005940296A4000A9124000A4
:101F0000B91440009915400021024000C909400061
:101F100019114000B9114000ED114000211240009C
:101F200055124000B516400079164000411440009B
:101F3000C919400011174000FE2C9C34030424B53D
:101F4000D4D4B2BC96AF4BBA109E40008F284E330B
:101F50005F7009B4F88898BC1F2DCEBA00947F3BFF
:101F60000080D4442C9E40008D6D4000E16F400005
:101F70002F4A304B1A60304A304B1A60304A314B8E
:101F80001A60314A314B1A60314A324B1A60324A78
:101F9000324B5A623248334B984792E6324A254BCD
:101FA0001A60324A254B1A60314A264B1A60314A70
:101FB000264B1A60264A274B1A602F4A274B5A6233
:101FC0002E48284B98477CE62D4A1A4B1A602D4A1A
:101FD0001A4B1A602C4A1B4B1A602C4A1B4B1A6076
:101FE0004FF06D521B4B1A60294A1C4B5A6229480C
:101FF0001C4B984765E6284A0E4B1A60274A0F4B40
:102000001A60274A114B1A6000230E4A1360114AC6
:1020100013601F4A114B5A622248124B984750E6F0
:102020002148104B98474CE620480E4B984748E60D
:10203000EEE99E331C034020F38653B4180340207E
:102040006AA4A5BCCC034020842E61BA08024020BB
:1020500000947F3BC80340200020DF4468034020F9
:102060004C9E4000B95540002AD07433B00F21B4C3
:102070003737A6BC16A584BA0060D644689E4000D7
:1020800065071234AA7898B4D68BA1BC2FDC39BA74
:1020900000805444849E4000017818346686A0B4C1
:1020A000FFB346BA989E4000AC9E4000C09E4000E0
:1020B00038B50A4C03212046094DA8470421204683
:1020C000A84705212046A84707212046A8470921FF
:1020D0002046A8472046034B984738BD8C04402033
:1020E000CD2E40000D2F400038B5094C032120466D
:1020F000084DA84704212046A84705212046A847A7
:1021000007212046A8472046034B984738BD00BF0B
:1021100064054020CD2E40000D2F40000C4B1B8845
:10212000B3F58E7F10D9A3F21D139BB207EE903A40
:10213000F8EE677ADFED076A87EEA67A064B83ED45
:10214000047A17EE100A704740F21D13EBE700BF48
:10215000380240200000FA44680340200C4B5B88A2
:10216000B3F58E7F10D9A3F21D139BB207EE903A00
:10217000F8EE677ADFED076A87EEA67A064B83ED05
:10218000037A17EE100A704740F21D13EBE700BF09
:102190003802402000007A44680340200C4B9B88A2
:1021A00007EE103AB8EE477A0A4BDB6B13F0080FD4
:1021B0000BD1DFED097AF8EEE77A0022074B9A613E
:1021C00067EE277A17EE900A7047DFED057AF2E79F
:1021D0003802402000100E40FFFFFFFF6803402040
:1021E000010000001F4BDB6B13F4803F34D01E4B0B
:1021F000DB6B13F0005F31D01B4BDB6B13F4004F34
:1022000001D103207047184BDB6B002B01DB022050
:102210007047164BDB6B13F0006F01D1082070473D
:10222000114BDB6B13F4802F01D1042070470F4B4F
:10223000DB6B13F0805F01D1052070470A4BDB6B2D
:1022400013F4806F01D107207047064BDB6B13F04E
:10225000020F05D001207047012070470020704711
:102260000620704700120E4000140E40000E0E4073
:102270002DE9F041464BDB6B13F0200F5DD14FF0A1
:10228000050C444BDB6B13F4800F59D14FF00A0857
:10229000404BDB6B13F4001F55D14FF0140E3C4B39
:1022A000DB6B13F0400F51D128273A4BDB6B13F453
:1022B000801F4DD15026364BDB6B13F0800F49D178
:1022C000A025354BDB6B002B46DB4FF4A074314B64
:1022D000DB6B13F4002F41D14FF420702E4BDB6BDE
:1022E00013F0804F3CD14FF4A061294BDB6B13F40A
:1022F000006F37D14FF42062264BDB6B13F0200FB9
:1023000032D14FF4A053C444E64477443E443544AC
:102310002C44204401440A44134407EE903AF8EE5A
:10232000E77AF5EE407AF1EE10FA1FD01B4BC3EDC1
:10233000177A17EE900ABDE8F0814FF0000CA0E785
:102340004FF00008A4E74FF0000EA8E70027ACE725
:102350000026B0E70025B4E70024B8E70020BDE779
:102360000021C2E70022C7E70023CCE70C4B9847C7
:10237000022806DB042802DCDFED0A7AD6E706280D
:1023800002D0DFED097AD1E7DFED087ACEE700BFB2
:1023900000140E4000120E40000E0E406803402054
:1023A000E52140000000C844000048440000C84344
:1023B000064BD3ED037AB5EE007A67EE877A044BCD
:1023C000C3ED0C7A17EE900A704700BFD801402089
:1023D0006803402038B5114B9847FE2801D00020F3
:1023E00038BD0F4B98470F4CFE2323700B4B98477B
:1023F0006070002406E0094B98470A4B234498700C
:102400000134E4B22F2CF6D9044DA847054C84F8CA
:102410003E00A84784F83F00E1E700BF595540005F
:10242000F1554000280340207047704710B504461E
:102430000846054B9847030E2370030C6370030A8C
:10244000A370E07010BD00BF2924400008B50278D9
:1024500043781B0443EA0263827843EA0223C0788C
:102460001843014B984708BD2B24400010B40024AA
:1024700021460BE0094A0A449078094A02EB84029B
:10248000D05401310133032BF4DD01340B2C01DC7A
:102490000023F8E75DF8044B704700BF2803402095
:1024A0004C02402038B5002408E0A5001548284417
:1024B000154B9847154B2B44186001340B2CF4DD59
:1024C000124A1168124B59609168D964D168196336
:1024D00011695961516959639169D962D16919606A
:1024E000116A9962D26A9A60064A92F8242083F8A7
:1024F000582022B9054B9A6A054BDA6138BDDA6D6E
:10250000DA6138BD4C0240204D244000D801402003
:102510006803402070B51E481E4CA0471E48A047C7
:102520001E4E30681E4DA8471E48A0477068A84739
:102530001D48A0473069A8471C48A047306AA847F3
:102540001B48A047F069A8471A48A047B06AA847A7
:102550001948A047F068A8471848A047F06AA8475C
:102560001748A047B068A8471648A047B069A847D1
:102570001548A0477069A847144B93F858301BB909
:102580001348044B984770BD1248A04770BD00BF68
:10259000D89E4000B9554000009F4000D80140201F
:1025A000915540000C9F40001C9F4000309F400010
:1025B000449F4000549F4000689F4000809F40001F
:1025C0008C9F4000989F4000B09F400068034020CF
:1025D000D89F4000C49F4000FEE7000008B5104BA4
:1025E000104A9A4209D00E4B0E4A03E01168196056
:1025F000043304320C498B42F8D30C4B02E0002226
:102600001A6004330A4A9342F9D30A4A0A4B23F068
:102610007F039360094B9847094B9847FEE700BF3B
:102620000000402018B24000AC004020AC00402028
:10263000B005402000ED00E00000400001744000C3
:10264000FD49400008B5084B9B6913F4000F03D106
:102650004FF40002044B1A61044B984702460449A8
:102660000448054B984708BD00060E40D94340007A
:1026700000C00040900540206933400008B5084B79
:102680009B6913F0806F03D14FF08062044B1A6195
:10269000044B9847024604490448054B984708BD37
:1026A00000060E40D94340000000014030054020A4
:1026B00069334000F0B585B0204BD3F8083113F4EE
:1026C000807F04D14FF480721C4BC3F800211C4D55
:1026D0001C4C002302931C4B0193042700970723F3
:1026E0002A461A4920461A4EB047102305F108021F
:1026F00003212046174EB047102305F11802394632
:102700002046B047102305F1280205212046B04796
:10271000102305F1380207212046B0470E4B4FF435
:1027200080521A604FF000521A604FF080421A60D7
:102730004FF080621A6005B0F0BD00BF00060E4089
:10274000CC004020640540202C044020004006407E
:102750006D2D4000152E400000120E40F0B585B0E2
:10276000244B9B6913F0005F03D14FF00052214BC3
:102770001A61214D214C00230293214B019305271F
:102780000097092305F148021E4920461E4EB04716
:10279000102305F15402032120461C4EB04710239C
:1027A00005F1640204212046B047102305F17402AC
:1027B00039462046B047102305F184020721204600
:1027C000B047102305F1940209212046B047104B71
:1027D00020221A6010221A600422A3F5C0631A6036
:1027E000A3F500734FF480221A604FF480121A6030
:1027F00005B0F0BD00060E40CC0040208C04402007
:10280000B804402000C003406D2D4000152E40004C
:1028100000160E40044B4FF080725A61C3F89020AE
:102820005A661A60704700BF00140E40044B4FF008
:1028300080725A61C3F890205A661A60704700BFD0
:10284000000E0E40114B1A6F42F480121A675A6F35
:1028500022F480125A674FF480125A601A6F42F4C1
:1028600000121A675A6F22F400125A674FF40012CE
:102870005A601A6F42F480021A675A6F22F480027B
:102880005A674FF480025A60704700BF00140E4030
:10289000044B9B6913F4001F03D14FF40012014B4A
:1028A0001A61704700060E4010B5084B9847084B58
:1028B0009847084C01462046074B98470749204651
:1028C000074B9847074B984710BD00BF9128400021
:1028D000754240004C0540203931400000800040E6
:1028E00059314000452840000B4B1A6F22F400720A
:1028F0001A675A6F22F400725A674FF400725A60D6
:102900001A6F22F480621A675A6F22F480625A6743
:102910004FF480625A607047000E0E40044B9B6972
:1029200013F0800F02D18022014B1A61704700BF63
:1029300000060E4008B5064B9847064B98470246DE
:1029400005490648064B9847064B984708BD00BF07
:102950001D2940009D48400000080E4020044020F2
:102960006D374000E9284000044B9B6913F4807FD9
:1029700003D14FF48072014B1A61704700060E407C
:102980000A4B1A6F22F020021A675A6F42F0200297
:102990005A6720225A601A6F22F010021A675A6F83
:1029A00042F010025A6710225A607047000E0E4023
:1029B00010B582B0074B9847074B984700901023FB
:1029C000064A07490748084CA047084B984702B0F9
:1029D00010BD00BF69294000A1484000700140209F
:1029E000000A0E40D0034020DD3540008129400020
:1029F0002DE9F843B34B9847B34B9B6913F4806FB1
:102A000003D14FF48062B04B1A61AF4B9B6913F452
:102A1000006F03D14FF40062AB4B1A61AA4B9B6964
:102A200013F4805F03D14FF48052A74B1A61A64B79
:102A30009B6913F4803F03D14FF48032A24B1A619B
:102A4000A24A536843F400435360A14B01225A61E8
:102A50001A66C3F894201A60022159611966C3F8F6
:102A6000941019604FF400225A611A66C3F894203A
:102A70001A604FF40008C3F83480C3F81080C3F81C
:102A800000804FF0806058611866C3F894001860A9
:102A90004FF0006EC3F814E0C3F860E0C3F890E0B4
:102AA000C3F800E04FF080575F611F66C3F8947071
:102AB0001F604FF0804058611866C3F8940018609A
:102AC0004FF0004058611866C3F89400186003F591
:102AD000007308245C611C66C3F894401C6003F515
:102AE000007359611966C3F89410196004265E6179
:102AF0001E66C3F894601E6020255D611D66C3F8E4
:102B000094501D604FF0800CC3F834C0C3F810C05F
:102B1000C3F800C04FF480745C631C611C604FF408
:102B200000545C611C66C3F894401C604FF4804400
:102B30005C611C66C3F894401C604FF480345C6197
:102B40001C66C3F894401C605A611A66C3F894204E
:102B50001A604FF48019C3F81490C3F86090C3F85A
:102B60009490C3F800904FF40019C3F81490C3F880
:102B70006090C3F89490C3F800904FF48009C3F8B4
:102B80001490C3F86090C3F89490C3F80090C3F811
:102B90001480C3F86080C3F89480C3F800804FF0BD
:102BA0008078C3F81480C3F86080C3F89480C3F8B9
:102BB00000804FF00078C3F81480C3F86080C3F839
:102BC0009480C3F80080C3F814E0C3F860E0C3F851
:102BD00094E0C3F800E05F611F66C3F894701F6063
:102BE00058631861186003F5007359611966C3F8DA
:102BF000941019605E611E66C3F894601E605D618A
:102C00001D66C3F894501D60402159611966C3F8D0
:102C100094101960C3F814C0C3F860C0C3F894C01E
:102C2000C3F800C04FF4806159611966C3F894106D
:102C300019604FF4006159611966C3F89410196066
:102C40004FF4004159611966C3F8941019605C6132
:102C50001C66C3F894401C604FF40031596119663A
:102C6000C3F8941019604FF4802159611966C3F8B4
:102C7000901019605A611A66C3F894201A604FF0D8
:102C800000525A611A66C3F894201A605861186697
:102C9000C3F8940018600F4B98470F4B98470F4BA1
:102CA00098470F4B98470F4B98470F4B98470F4B40
:102CB00098470F4B98470F4B98470F4B9847BDE8E5
:102CC000F88300BF593C400000060E4050180E40EB
:102CD000000E0E405D274000B5264000152840003C
:102CE0002D284000A9284000452640007D264000B0
:102CF00035294000B1294000D52F400008B583692F
:102D000003B1984708BD08B5C36903B1984708BD2A
:102D10002DE9F047054688469146036A5B5C876A61
:102D200003EB4303DE00BC1904F1040AD1B25046A0
:102D30000C4B984728460C4B9847012807D94FEA77
:102D400019215046074B9847A38A0133A382A38ACF
:102D50000133A382BB5913B1414628469847BDE8C9
:102D6000F08700BFC9384000FD3B40002DE9F84F17
:102D700016461C469DF828800B9D0746894600286C
:102D800018BF00290BD0131C18BF0123B8F1000F86
:102D900017D0B3B10DB1012002E0002000E0002007
:102DA000DFF868B03F225946DFF864A0D047601CC6
:102DB000402259468045CCBF00200120D047002347
:102DC00005E00020ECE7FF22F2540133DBB2A3421E
:102DD000F9D93E6287F8244087F82580BD624946CC
:102DE0003846064B9847034628B9054ABA60054A53
:102DF0003A60054A7A601846BDE8F88F3D3B4000CE
:102E0000112D4000FD2C4000072D4000FC9F40008C
:102E1000E13740002DE9F8430E461F46054690462F
:102E2000002818BF002A02D0C3B9002000E000200B
:102E3000DFF8949066224946214CA04795F824007B
:102E400067224946B04234BF00200120A047296ACA
:102E50008B5DFF2B2BD10024234603E00120E7E705
:102E60000133DBB295F82420934205D8CA5CFF2ACF
:102E7000F6D00134E4B2F3E795F825309C4219D836
:102E8000A86A04EB44034FEAC30948443A46414662
:102E900004300C4B9847024678B92B6A9C55AB6AB4
:102EA00099440023A9F814301046BDE8F8836FF068
:102EB0000C02F9E76FF01B02F6E76FF00C02F3E784
:102EC000E137400041384000FC9F4000F8B50D4616
:102ED0000B4F044683223946003018BF0120094EAB
:102EE000B04794F8240084223946A84234BF002019
:102EF0000120B04729462046034B98470020F8BDE3
:102F0000FC9F4000E1374000F13B400010B5044613
:102F1000D6220549003018BF0120044B98472046AF
:102F2000034B9847002010BDFC9F4000E137400054
:102F3000013C4000EFF31083036072B6BFF35F8F74
:102F40007047BFF35F8F036883F3108870470000FA
:102F500010B5044B1C68044B984701462046034BB0
:102F6000984710BD80014020353C4000513C400056
:102F700010B5044B1C68044B984701462046034B90
:102F8000984710BD800140203F3C4000513C40002C
:102F900038B50225002407E00D4A52F83330B3B1AA
:102FA000984738BD013AD5B2AC4210D82B195B1006
:102FB000DAB2012A0BD81346054901EBC201496870
:102FC0008142E9D08142EDD20132D4B2ECE738BD82
:102FD0008401402008B500230AE0084A02EBC3013F
:102FE0004FF0FF304860002142F8331001339BB2AC
:102FF000012BF2D90248034B984708BD84014020B9
:10300000912F4000E13E4000F0B583B0054600231B
:10301000012B0ED818462E4A02EBC3025268AA4270
:1030200002D00133DBB2F3E7294B43F8301001271C
:1030300000E0002759B1002F3DD10026012E13D802
:10304000234B53F8363043B10136F6B2F6E7002F82
:1030500038D028461F4B984732E01D4B43F83610B6
:1030600003EBC6035D600127002301E00133DBB2FF
:10307000012B98BF012E1ED8B646154A02EBC60199
:10308000486802EBC30252689042EFD2B2F1FF3FB0
:10309000ECD00F4C04EBC30292E803008DE8030070
:1030A00004EBC60494E8030082E803009DE80300F3
:1030B00084E80300DAE747B101212846054B984729
:1030C00003B0F0BD6FF00C00FAE76FF00C00F7E70B
:1030D00084014020093F400070B5164604460D4665
:1030E000002818BF002914BF012000203422044901
:1030F000044B98472368324629462046984770BDBE
:1031000018A04000E137400070B5164604460D4651
:10311000002818BF002914BF012000203D220449C7
:10312000044B98476368324629462046984770BD4D
:1031300018A04000E137400038B50D46044639225A
:103140000349003018BF0120024B9847256038BD65
:103150002CA04000E137400038B504460D46002859
:1031600018BF002914BF01200020402209490A4B42
:103170009847204640F8045F2946084B98470028A6
:1031800007DB4FF40043A382054B2361054BE3604B
:10319000002038BD2CA04000E137400065404000D1
:1031A000753240003932400010B5044657220549B7
:1031B000003018BF0120044B9847201D034B98474F
:1031C00010BD00BF2CA04000E13740000D41400081
:1031D00010B504465D220549003018BF0120044B9C
:1031E0009847201D034B984710BD00BF2CA04000FE
:1031F000E13740004141400030B585B005460C46FE
:10320000002818BF002914BF01200020B32207495D
:10321000074B98472368019363680293A36803935D
:1032200001A9281D034B984705B030BD2CA04000D4
:10323000E13740007541400070B584B00E46154638
:103240000446A3220849003018BF0120074B9847C5
:10325000002302930196039501A9A4F10C00044BED
:10326000984704B070BD00BF2CA04000E13740007B
:10327000F931400070B584B00E46154604468722E9
:103280000849003018BF0120074B984702960023D9
:103290000193039501A9A4F10C00044B984704B0D5
:1032A00070BD00BF2CA04000E1374000F931400064
:1032B000F8B5076817B13C4600260BE00E4B98475F
:1032C000F8BDA5682B449B1A01338D68AB4209D227
:1032D0002646246834B163689342F2D8A5689B1AE5
:1032E0002B44F2E7BC4203D03046044B9847F8BD6C
:1032F000014B9847F8BD00BFFD374000293840001A
:10330000F8B54469066901360661037E13F0010FC2
:1033100005D1037E13F0020F01D1054609E0037EBB
:1033200043F002030376F8BD6F69E36820469847CF
:103330003C469CB16368F31AA26893420ED305F130
:1033400014073846064B9847237C012BECD1666066
:10335000324621463846034B9847E5E7F8BD00BFA3
:1033600031384000B132400038B504460D460028DF
:1033700018BF002914BF012000203B220549064B3D
:10338000984729462046054B984700202061044B6A
:10339000236038BD48A04000E1374000F1424000C2
:1033A0000133400010B5044653220949003018BFCC
:1033B0000120084B98472046074B984720B92046E4
:1033C000064B9847002010BD6FF0100010BD00BFE5
:1033D00048A04000E1374000B5434000AD43400005
:1033E00070B582B004460D46002818BF002914BFEE
:1033F000012000207A221D491D4B9847237E43F06F
:103400000103237604F1140629463046194B9847E8
:1034100088B923696B60226929463046164B984764
:10342000237E03F0FE032376237E13F0020F0ED1DA
:10343000002002B070BD237E03F0FE0323767F22BE
:103440000A4900200A4B98476FF01100F1E701A8E4
:103450000A4B9847237E03F0FD0323762046084B52
:10346000984701A8074B98470020E2E748A0400092
:10347000E1374000E7374000B1324000352F4000CF
:10348000C1434000432F400008B500238362C36955
:103490001BB1A0F108021046984708BD08B50023EB
:1034A0008362436A1BB1A0F108021046984708BD29
:1034B00038B50446A0F108052C30034B9847236A21
:1034C0000BB12846984738BDC938400070B515463D
:1034D00004460E46002818BF002902D0DAB90020A1
:1034E00000E0002040F23B120D490E4B9847B4F823
:1034F0004420B4F84C309A420FD1A664A4F84C5042
:103500000023A4F844300123236304F10800064B90
:103510009847284670BD0120E4E76FF01B0070BD9E
:1035200060A04000E13740005148400010B504461B
:10353000838FB0F84420934209D0026C591C8187D4
:10354000D15C044B98472046034B984710BD034B72
:10355000984710BD914740005148400075484000D1
:103560002DE9F04182B0174605468846002818BF6D
:10357000002902D0A2B9002000E000204FF4AC7274
:103580001049114B984701A8104B984734352846ED
:103590000F4B9847064601A80E4B9847002407E0BA
:1035A0000120EBE70134A4B2414428460A4B984776
:1035B0002146A64201D9BC42F4D3204602B0BDE860
:1035C000F08100BF60A04000E1374000352F40008F
:1035D00009394000432F400085384000F8B51546B2
:1035E0001E4604460F46002818BF002908D0131CA9
:1035F00018BF012316B10BB1012002E0002000E04A
:1036000000203A221049114B98473246294604F1CE
:1036100034000F4B9847A0B9394604F108000D4B10
:103620009847034658B90C4A62600C4A22600C4A1B
:10363000A2600C4AE2600C4A22610C4A62611846A0
:10364000F8BD6FF00C03FAE760A04000E1374000DE
:10365000413840005946400061354000CD344000BB
:103660002D354000B1344000893440009D34400085
:1036700010B5044661220649003018BF0120054BF1
:10368000984704F10800044B9847002010BD00BF84
:1036900060A04000E137400039474000F8B51646C9
:1036A00005460F46002818BF002902D00ABB00209B
:1036B00000E00020F1221049104B984705F1080462
:1036C00020460F4B98470028F8D00025795D20460A
:1036D0000C4B984720460A4B98470028FAD00135F2
:1036E000B542F3D32046084B98470028FAD0284625
:1036F000F8BD0120DEE700BF80A04000E1374000B8
:10370000D94740006D474000014840002DE9F04195
:10371000174605468846002818BF002902D0D2B9AE
:10372000002000E000204FF486720C490C4B9847B3
:10373000002605F1080420460A4B98470028F8D0D7
:103740002046094B984708F806000136BE42F0D3E0
:103750003046BDE8F0810120E5E700BF80A04000D1
:10376000E137400029484000B547400038B50446DD
:103770000D46002818BF002914BF01200020342264
:103780000749084B9847294604F10800064B98471B
:10379000034618B9054A6260054A2260184638BDDA
:1037A00080A04000E1374000214640000D37400036
:1037B0009D36400010B5044653220649003018BF1C
:1037C0000120054B984704F10800044B984700205E
:1037D00010BD00BF80A04000E13740000547400019
:1037E00000B900BE704703681BB18B4203D01B6851
:1037F000FAE70020704701207047000038B5044602
:103800000D46064B984780F0010039220449C0B2AA
:10381000044B984723682B60256038BDE73740008C
:103820009CA04000E137400003680B6001607047D6
:1038300003681BB11A680260184670470020704781
:1038400070B5154604460E46002818BF002902D060
:103850007AB9002000E0002028220849084B984748
:103860006B1E1D4207D163600020A060E0602660EF
:1038700070BD0120F0E76FF00C0070BDBCA04000EF
:10388000E137400038B504460D46002818BF00292E
:1038900014BF01200020402209490A4B9847E268E2
:1038A000A3689A4209D0226861680B40D35C2B70F0
:1038B000A3680133A360002038BD6FF0090038BD54
:1038C000BCA04000E137400038B50D460446512207
:1038D0000B49003018BF01200A4B98472268E36863
:1038E00061680B40D554E368A2689A1A61688A42FD
:1038F00001D9591AA1600133E360002038BD00BF2F
:10390000BCA04000E137400010B5044667220549DD
:10391000003018BF0120044B9847E068A368C01A24
:1039200010BD00BFBCA04000E13740000346064A7E
:10393000126822B1044A10680344136070470349B7
:10394000014A1160F6E700BF94014020B00B40200F
:103950004FF0FF3070474FF400534B60002070472A
:1039600001207047002070474369074A934205D001
:1039700002F52032934203D1282070471D20704762
:103980004FF0FF30704700BF00C00340064B984225
:1039900003D0064B984203D07047054B1960F8E7F7
:1039A000034B5960F8E700BF00C0034000400640E9
:1039B0009801402064231D4A03FB01235A6842609A
:1039C0009A688260DA68C2601A6902615A6902659F
:1039D0009A694265DA6902661A6AC0F894205A6ADE
:1039E000C0F8A0209A6AC0F8D020DA6AC0F8D420C3
:1039F0001B6BC0F8D83000220B2A14D810B44266D2
:103A000001EB810303EB830313440C33074C04EBFA
:103A100083035B68C3660132D2B20B2AEFD9002060
:103A20005DF8044B70470020704700BFE0A04000E5
:103A300030B583B005464269116BD36A0B400193E0
:103A4000019B13F0806F0ED1019B13F0007F0ED10C
:103A5000019BC3F30B030193019CB4FA84F4C4F1FA
:103A60002004E4B21FE0036800219847ECE76B688C
:103A7000002128469847EBE7013CE4B26B695C669D
:103A8000AB686A69926E92B2214628469847012334
:103A9000A340019C24EA03040194019CB4FA84F439
:103AA000C4F12004E4B2002CE6D103B030BD000024
:103AB00008B5094B98420AD003F52033984208D044
:103AC000A72206490020064B9847002008BD002089
:103AD00008BD012008BD00BF00C00340A8A14000F0
:103AE000E137400008B5094B98470023012B09D85E
:103AF000642202FB03F206498A5C904203D0013340
:103B0000DBB2F3E70023184608BD00BFB13A40001E
:103B1000E0A0400008B5024B1868024B984708BD6A
:103B200098014020313A400008B5024B5868024BDA
:103B3000984708BD98014020313A400070B50C46C6
:103B400005464FF4A1722349003018BF0120224BD3
:103B500098472046214B984701462046204B9847DE
:103B6000064608B1304670BD6C61294620461D4BA3
:103B7000984728461C4B984700280DDB430900F066
:103B80001F00012202FA00F02033184A42F82300F5
:103B9000BFF34F8FBFF36F8F2846134B9847002812
:103BA00009DB430900F01F00012202FA00F0603334
:103BB0000E4A42F8230028460B4B98470028D1DBD9
:103BC000420900F01F00012303FA00F0074B43F8FD
:103BD0002200C7E7A8A14000E1374000E53A4000D5
:103BE000B53940008D3940006939400000E100E0FE
:103BF0004269012303FA01F15161704702207047C5
:103C0000436902221A607047436959664369986E96
:103C100080B2704743B2002B09DB5B0900F01F0044
:103C2000012202FA00F04033014A42F823007047B3
:103C300000E100E04FF4967303FB00F070474FF48F
:103C4000967303FB00F04FF47A7303FB00F07047A8
:103C50000139FDD87047000000B583B001A80E4BB4
:103C600098470E4AD2F8883043F47003C2F888307F
:103C7000BFF34F8FBFF36F8F01A8094B9847094AD5
:103C8000136823F4706343F4C0631360064B9847D2
:103C900003B05DF804FB00BF352F400000ED00E0ED
:103CA000432F4000000C0E402940400030B4002556
:103CB0008D4210D2012200231F2B0AD850F8254034
:103CC000224202D152000133F6E703EB451030BC2B
:103CD00070470135ECE74FF0FF30F8E710B586B0DC
:103CE000002301930293039304930593214B1868D7
:103CF000F8222149003018BF0120204B9847204B63
:103D0000DA6C9B6C134001931E49CA6C896C0A40A3
:103D10000492134325E0174B1B6820469847631114
:103D200004F01F04012202FA04F406AA02EB830342
:103D300053F8142C22EA040243F8142C052101A89C
:103D4000114B98470446B4F1FF3FE4D10C4AD16CC3
:103D5000936C0B4001930B49C86C8A6C024004922F
:103D600013432BB1052101A8074B98470446EAE706
:103D700006B010BDA001402000A24000E137400085
:103D8000000E0E4000140E40AD3C400010B504463D
:103D9000D2220549003018BF0120044B984704483F
:103DA0002044C0F3472010BD00A24000E13740008E
:103DB00000F2F1BF10B50446E0220D49003018BFF3
:103DC00001200C4B984720460B4B98470023012BB2
:103DD0000BD8C3EBC3018A0008498A5C904202D029
:103DE0000133DBB2F3E758B210BD4FF0FF3010BD26
:103DF00000A24000E13740008D3D4000C0A14000DE
:103E000038B5044640F259122949003018BF012044
:103E1000284B98472046284B9847002843DB274DDE
:103E2000C200111A8B002B449968C4F8B010D968ED
:103E3000C4F8C0101969C4F8C4109B69C4F8D03024
:103E4000101A83002B445B69C4F8D43020461C4B05
:103E50009847284490F93830002B0CDB5A0903F0BE
:103E60001F00012181402032164840F82210BFF384
:103E70004F8FBFF36F8F002B08DB5A0903F01F0031
:103E80000121814060320F4840F82210002B0DDBE9
:103E9000590903F01F03012202FA03F3094A42F809
:103EA0002130002038BD6FF0100038BD002038BD33
:103EB00000A24000E1374000B53D4000C0A14000F5
:103EC0008D3D400000E100E008B5014B984708BD7A
:103ED000DD3C400008B5014B984708BDDD3C400083
:103EE00038B505460448054CA0470548A047054B92
:103EF0001D60002038BD00BF000E0E40013E400096
:103F000000140E40A00140202DE9F04104460F4668
:103F1000DFF850804FF4D37241469F288CBF0020B9
:103F200001200E4EB047E5B2C32241469F2D8CBF03
:103F300000200120B0476D09094B03EB452504F033
:103F40001F0437B9012303FA04F46C640020BDE8B0
:103F5000F081012303FA04F42C64F7E7E137400011
:103F6000000E0E4000A2400012490A6A22F002022E
:103F7000114B13430B620F4B9B6E13F0010FFAD0E2
:103F80000C4B196A0D4A0A431A62996A0C4A0A4094
:103F90009A620C4A9A62074B9B6E13F0020FFAD09A
:103FA0004FF47102034BDA61024B9B6E13F0400F2A
:103FB000FAD0704700060E40013E3700000037017E
:103FC000FFFF00F8013F1820164A136B43F400531B
:103FD0001363144B9B6E13F0080FFAD0114A136B46
:103FE00023F0700313630F4B9B6E13F0080FFAD08E
:103FF0000C4A136B23F4407343F480731363094B2F
:104000009B6E13F0080FFAD0064A136B23F00303DC
:1040100043F002031363034B9B6E13F0080FFAD0B7
:10402000704700BF00060E4008B5024B9847024B90
:10403000984708BD693F4000C93F40000123036025
:10404000002070470223036000207047044B0344A4
:10405000C3F30743052B01D00020704701207047B0
:104060000080FFBF70B506460C460846204B9847B7
:1040700000233BB300254FF49A721E49002E18BF4F
:10408000002C14BF012000201B4B984755B3236917
:1040900013F4803F29D18023236034606A68174B72
:1040A00013402360AB68164A1A40164B13436360F3
:1040B000EB6823632B8AF380EB6803F0F003337122
:1040C000002070BD03EB83018A000F498A5C904297
:1040D00002D00133DBB2CCE703EB8305AB000D4626
:1040E0001D44C8E76FF00C0070BD6FF0100070BD8C
:1040F0004D40400030A24000E13740007CFFFFFE11
:104100006FFFF1FF10000E001CA2400010B5044626
:1041100068B103684BB101204FF4B9720549064BF1
:1041200098472068054B984710BD0020F4E7002011
:10413000F2E700BF30A24000E13740003D404000C0
:1041400010B5044668B103684BB101204FF4C0724A
:104150000549064B98472068054B984710BD00203D
:10416000F4E70020F2E700BF30A24000E137400052
:10417000454040002DE9F04186B007460D460468F1
:104180000B6801934B680293002303930493037914
:104190008DF81430261C18BF012640F23122334915
:1041A00000280CBF002006F00100314B984723691E
:1041B00013F4803F22D16FF0130053E0002335E069
:1041C000507841EA00210232019201330393E16009
:1041D000D4F8108040F2222224493046244B9847DC
:1041E00018F0080F38D06FF01200002836DB039863
:1041F000AB68984202D3049A93422FD9236913F0F3
:10420000010FDBD0A3689BB2029A5AB1511C0291F4
:1042100013709DF81420012A04D90A460131029135
:104220001B0A1370049B013304930123002BCFD18D
:10423000039B049A9A42CBD3F988226912F0020FA9
:10424000C6D0019A002AC0D0511C019111789DF866
:1042500014000128B4D8B8E70020C6E7236913F496
:10426000007FFBD006B0BDE8F08100BF30A2400067
:10427000E1374000002070470023012B15D810B40F
:1042800003EBC3018A000A498A58824207D00133EE
:10429000DBB2012BF4D900205DF8044B704703EB2F
:1042A000C304A30008461844F6E70020704700BF87
:1042B00000004020064B984203D0064B984203D0A2
:1042C0007047054B1960F8E7034B5960F8E700BFEA
:1042D00000C0004000000140A401402008B5C368B0
:1042E0001B6A13F0100F00D108BD03689847FBE765
:1042F000F8B507460C460846274B9847054686689A
:10430000FC60962225490120254B984716F4004F62
:1043100001D046F4142666606B696361AB69A361E2
:10432000EB682363EB69E361102363622B69C4F8D4
:10433000D830394620461B4B984795F90430002B5E
:104340000DDB5A0903F01F03012101FA03F32032A8
:10435000154941F82230BFF34F8FBFF36F8F95F9A6
:104360000430002B09DB5A0903F01F03012101FA75
:1043700003F360320C4941F8223095F90430002BE8
:1043800008DB590903F01F03012202FA03F3064A6E
:1043900042F821300020F8BD7942400048A2400098
:1043A000E1374000B542400000E100E0C36805226B
:1043B0001A607047C368186AC0F300407047000075
:1043C00008B5C068024B98470079024B984708BD72
:1043D00079424000153C40000020704708B5024B70
:1043E0001868024B984708BDA4014020DD424000F8
:1043F00008B5024B5868024B984708BDA4014020FD
:10440000DD424000034B984200D07047024B1960D8
:10441000FBE700BF000A0E40AC01402010B5044687
:1044200040F21E221249003018BF0120114B98475C
:10443000114B9C4213D003F500739C4211D003F53D
:1044400080539C420FD003F500739C420DD003F5BE
:1044500000739C4201D0FF2010BD042010BD00203D
:1044600010BD012010BD022010BD032010BD00BFF3
:1044700074A24000E137400000080E4010B5044629
:1044800040F2AA220F49003018BF01200E4B984776
:1044900020460E4B98470023012B09D803EB43011C
:1044A0008A000B498A5C904209D00133DBB2F3E702
:1044B0004FF42D7203490020034B98470023184600
:1044C00010BD00BF74A24000E13740001D44400011
:1044D0005CA2400038B5044640F2C1220E490030CB
:1044E00018BF01200D4B984720460D4B98470D4BA8
:1044F000C4F8E430AC2323604FF4807323600A4A8D
:1045000043001D18A9000D461144496861602A4402
:1045100093682362002038BD74A24000E137400058
:104520007D444000005241555CA2400010B5044655
:1045300089221049003018BF01200F4B98472046B0
:104540000E4B984704280CD8DFE800F0031205074B
:104550000900072010BD2C2010BD2D2010BD2E20DD
:1045600010BD9B2203490020034B9847FF2010BD3C
:10457000082010BD74A24000E13740001D444000F7
:1045800010B5044640F282222349003018BF0120B2
:10459000224B9847A3695A6912F0020F03D01A6997
:1045A00012F0020F18D15A6912F4007F03D01A6971
:1045B00012F4007F16D15A6912F0010F1FD01A6948
:1045C00012F0010F1BD05A6912F0E00F11D09A6956
:1045D0004FF480721A6010BD0222DA602368204610
:1045E000984710BD4FF40072DA60A36820469847E0
:1045F00010BD62689969C9B22046904710BD5A69DA
:1046000012F0E00F00D110BD4FF480721A60E36821
:1046100020469847F7E700BF74A24000E13740000A
:10462000F8B50C46094E0746AF223146003018BF98
:104630000120074DA847B0223146201C18BF012099
:10464000A8473C602046034B9847F8BD74A2400041
:10465000E1374000D544400070B50C460646BE2206
:104660002249003018BF0120214B98472046214B9A
:104670009847054608B1284670BDB46131462046CA
:104680001D4B984720461D4B984743B2002B0DDB2E
:104690005B0900F01F00012202FA00F02033184AE3
:1046A00042F82300BFF34F8FBFF36F8F2046134BA9
:1046B000984743B2002B09DB5B0900F01F00012281
:1046C00002FA00F060330E4A42F8230020460B4BFA
:1046D000984743B2002BCEDB5B0900F01F0001229C
:1046E00002FA00F0064A42F82300C4E774A2400030
:1046F000E1374000D5444000054440002D454000CE
:1047000000E100E070B50A4E0446F8223146003060
:1047100018BF0120074DA847246840F2E522314622
:10472000201C18BF0120A8475023236070BD00BF84
:1047300074A24000E137400070B50A4E044640F2D2
:1047400001123146003018BF0120074DA847A46967
:1047500040F2E5223146201C18BF0120A847502313
:10476000236070BD74A24000E137400038B50C46AC
:1047700005464FF4CD720449003018BF0120034BA9
:1047800098472B68DC6138BD74A24000E1374000D7
:1047900038B50C46054640F2A3120449003018BF54
:1047A0000120034B9847AB69DC6138BD74A240001F
:1047B000E137400010B504464FF4D672044900308A
:1047C00018BF0120034B984723689869C0B210BDF9
:1047D00074A24000E137400010B5044640F2B51223
:1047E0000549003018BF0120044B984723685869D9
:1047F000C0F3400010BD00BF74A24000E13740008C
:1048000010B504464FF4DF720549003018BF01208F
:10481000044B984723685869C0F3402010BD00BF7F
:1048200074A24000E137400010B504464FF4E8722E
:104830000549003018BF0120044B98472368586988
:1048400000F0010010BD00BF74A24000E13740003D
:1048500010B5044640F20B220449003018BF012075
:10486000034B9847A36902229A6010BD74A24000CE
:10487000E137400010B504464FF405720549003099
:1048800018BF0120044B9847A3694FF400729A6047
:1048900010BD00BF74A24000E13740000020704707
:1048A0000020704708B5034B9847034B1868034B2B
:1048B000984708BDD5234000AC0140208145400009
:1048C00008B5044B9847044BD8650448044B9847F7
:1048D00008BD00BF71224000680340208CA2400048
:1048E000B955400008B50022024BDA650248034B77
:1048F000984708BD68034020ACA24000B95540006D
:10490000074B1B6913F0020FFAD0054BD860044B1C
:104910001B6913F0010FFAD0014B9B68704700BF71
:104920000080004038B50D46034CA0472846A047FC
:104930002846A04738BD00BF014940002DE9F0419D
:1049400080460B4C20460B4B98470B4D80262E6320
:1049500064200A4FB8474146AA20094B9847642073
:10496000B8476E632046074B9847BDE8F08100BF0B
:104970004C054020A931400000120E40512F40004C
:1049800025494000D13140002DE9F04180460B4CD3
:1049900020460B4B98470B4D4FF480762E636420D6
:1049A000094FB8474146AA20084B98476420B847AA
:1049B0006E632046064B9847BDE8F0814C054020C9
:1049C000A931400000120E40512F400025494000FF
:1049D000D131400008B502491820024B984708BD64
:1049E000C14840000930400008B502497820024B18
:1049F000984708BDE54840000930400000B583B045
:104A0000204B9847204B98472048214B9847214BF3
:104A10009847214B9847214B9847214B984721486D
:104A2000214CA0472148A047214B98474FF47A706A
:104A3000204B9847204B984728201E4B9847124BF5
:104A400098471E4B98471E4A936B03F40003D943C3
:104A500001F40001116353631A4CD4ED027AFCEEA9
:104A6000E77ACDED017A9DF80400174B9847D4ED15
:104A7000007AFCEEE77ACDED017A9DF80400134B45
:104A80009847D7E7D5014000F1554000D0034020BA
:104A900071364000B1204000E9204000D549400077
:104AA000E9494000CCA24000B9554000F8A24000BE
:104AB000D14A4000712F4000D9554000211C4000D0
:104AC000000E0E407C0240203D49400089494000D4
:104AD0002DE9F0412DED028B82B00120AD4DA847AC
:104AE000AD48AE4CA047DFF83C8303214046AC4FB5
:104AF000B84701900146AB48A047DDED017AF8EEDA
:104B0000677A9FEDA98A87EE887A17EE100AA74E7A
:104B1000B0470120A84704214046B847019001460C
:104B2000A348A047DDED017AF8EE677A87EE887A30
:104B300017EE100AB0470120A84705214046B847A4
:104B4000019001469B48A047DDED017AF8EE677AB7
:104B50009FED998A87EE887A17EE100AB0470120F8
:104B6000A84707214046B847019001469348A0470F
:104B7000DDED017AF8EE677A87EE887A17EE100A93
:104B8000B0470120A84709214046B8470190014697
:104B90008B48A047DDED017AF8EE677A87EE887AD8
:104BA00017EE100AB0470120A847DFF87C820321E6
:104BB0004046B847019001468248A047DDED017AA2
:104BC000F8EE677A87EE887A17EE100AB047012070
:104BD000A84704214046B847019001467A48A047BB
:104BE000DDED017AF8EE677A87EE887A17EE100A23
:104BF000B0470120A84705214046B847019001462B
:104C00007248A047DDED017AF8EE677A87EE887A80
:104C100017EE100AB0470120A84707214046B847C1
:104C2000019001466A48A047DDED017AF8EE677A07
:104C300087EE887A17EE100AB0470120A8470A20AD
:104C4000644B98476448A047644BDB6B13F0006FDC
:104C500000F0EC816248A0470120A8475F4BDB6B66
:104C600013F4005F00F0E9815E484C4B9847012047
:104C7000484B98475C4BDB6B13F4002F00F0E4814A
:104C80005A48464B98470120424B9847584BDB6B9C
:104C900013F0080F00F0DF815648404B9847012081
:104CA0003C4B98474D4BDB6B13F0020F00F0DA8161
:104CB00051483A4B98470120364B9847474BDB6B9E
:104CC00013F0200F00F0D5814C48344B9847012059
:104CD000304B98474A4BDB6B002BC0F2D1814948DF
:104CE0002E4B984701202B4B9847454BDB6B13F419
:104CF000802F00F0CC814448284B98470120254B59
:104D00009847394BDB6B13F0006F00F00B823F4884
:104D1000224B984701201F4B9847394BDB6B13F40C
:104D2000006F00F006823A481C4B98470120194B4F
:104D30009847334BDB6B13F4806F00F001823548EA
:104D4000164B98470120134B98472D4BDB6B13F400
:104D5000004F00F0FC813048104B984701200D4B6C
:104D60009847274BDB6B13F0005F00F0F7812B486F
:104D70000A4B98470120074B9847184BDB6B13F4FD
:104D8000803F00F0F2812648044B98470120014BF8
:104D900098474BE0712F400028A340005974400011
:104DA000093C400060A34000171D9B44155640007D
:104DB0009CA34000DCA3400000009B4418A44000DA
:104DC00054A4400090A44000CCA4400008A540009A
:104DD00044A540008974400084A5400000120E40A4
:104DE000C8A5400010A64000000E0E4058A6400086
:104DF00000100E40A0A64000E8A6400020A74000FA
:104E000000140E4080A74000A0A74000E0A740008B
:104E100020A8400060A840009CA84000D4A8400002
:104E20000CA940008C044020640540209B4BDB6BA8
:104E300013F0805F00F0A08199489A4B98470120B9
:104E4000994B9847954BDB6B13F0804F00F09B819B
:104E50009648944B98470120934B9847944BDB6BB3
:104E600013F4002F00F0968192488E4B9847012052
:104E70008D4B9847894BDB6B002BC0F292818E489B
:104E8000884B98470120884B98478C4BDB6B13F07D
:104E9000800F00F08D818A48824B98470120824B19
:104EA0009847834BDB6B13F4801F00F088818548A3
:104EB0007C4B984701207C4B9847804BDB6B13F071
:104EC000400F00F083818048764B98470120764B55
:104ED0009847774BDB6B13F4001F00F07E817B4813
:104EE000704B98470120704B9847714BDB6B13F464
:104EF000800F00F0798176486A4B984701206A4B11
:104F000098476E4BDB6B13F0200F00F074817148F3
:104F1000644B98470120644B9847604BDB6B13F060
:104F2000806F00F06F816C485E4B984701205E4BAC
:104F30009847624BDB6B13F4002F00F06A816748DF
:104F4000584B98470120584B98475C4BDB6B13F448
:104F5000003F00F065816248524B98470120524B58
:104F60009847564BDB6B13F0020F00F060815D48F1
:104F70004C4B984701204C4B98474D4BDB6B13F43F
:104F8000000F00F05B815848464B98470120464B84
:104F900098474A4BDB6B13F0040F00F056815348DF
:104FA000404B98470120404B9847414BDB6B13F037
:104FB000007F00F051814E483A4B984701203A4B10
:104FC00098473B4BDB6B13F0805F00F04C81494806
:104FD000344B98470120344B9847384BDB6B13F424
:104FE000803F00F0478144482E4B984701202E4BCC
:104FF00098472A4BDB6B13F0020F00F042813F48C9
:10500000284B98470120284B9847244BDB6B13F023
:10501000010F40F03D813A48224B98470120224B36
:10502000984702B0BDEC028BBDE8F08135481D4BBE
:10503000984701201C4B984710E63348194B984776
:105040000120194B984715E63048164B9847012028
:10505000154B98471AE62E48124B98470120124BE1
:1050600098471FE62B480F4B984701200E4B984757
:1050700024E629480B4B984701200B4B984729E61B
:105080002648084B98470120074B98472DE62448AF
:10509000044B98470120044B984732E6000E0E401F
:1050A00044A9400059744000712F40007CA9400081
:1050B00000120E40BCA940001CAA400000140E4083
:1050C00038AA400074AA4000B0AA4000ECAA4000F0
:1050D00028AB400064AB4000A0AB4000F0AB400008
:1050E00030AC400068AC4000A8AC4000F4AC4000DC
:1050F0002CAD400068AD4000ACAD4000E8AD4000D4
:1051000048AE4000ECA5400034A640007CA640001C
:10511000C4A6400004A7400040A7400060A740008C
:10512000C0A740005E485F4B984701205E4B984700
:10513000F3E55E485B4B984701205B4B9847F8E5E9
:105140005B48584B98470120574B9847FDE5594815
:10515000544B98470120544B984702E65648514B10
:1051600098470120504B984707E654484D4B9847C5
:1051700001204D4B984759E651484A4B984701202A
:10518000494B98475EE64F48464B98470120464BAF
:10519000984763E64C48434B98470120424B984759
:1051A00068E64A483F4B984701203F4B98476CE6DA
:1051B00047483C4B984701203B4B984771E6454890
:1051C000384B98470120384B984776E64248354B94
:1051D00098470120344B98477BE64048314B98472D
:1051E0000120314B984780E63D482E4B98470120DF
:1051F0002D4B984785E63B482A4B984701202A4B80
:1052000098478AE63848274B98470120264B98470D
:105210008FE63648234B98470120234B984794E666
:105220003348204B984701201F4B984799E6314857
:105230001C4B984701201C4B98479EE62E48194B63
:1052400098470120184B9847A3E62C48154B9847E0
:105250000120154B9847A8E62948124B9847012092
:10526000114B9847ADE627480E4B984701200E4B4F
:105270009847B2E624480B4B984701200A4B9847C1
:10528000B7E62248074B98470120074B9847BCE6F2
:105290001F48044B98470120034B9847C1E600BFC5
:1052A00000A8400059744000712F400040A8400001
:1052B00080A84000B8A84000F0A8400028A94000FD
:1052C00060A940009CA94000DCA94000FCA9400066
:1052D00058AA400094AA4000D0AA40000CAB40005D
:1052E00048AB400084AB4000C8AB40000CAC400071
:1052F00048AC400084AC4000CCAC400010AD400055
:105300004CAD40008CAD4000CCAD400008AE40003C
:1053100028AE40000022014B1A707047B0014020B7
:1053200010B508490423CB60074B0B6100230B75B4
:10533000064C04312046064B98472046054B9847BB
:1053400010BD00BFB0014020155340009005402023
:10535000E1334000A533400008B5002304E00021FC
:105360003F4A22F8131001330A2BF8DD3D4B9847D2
:1053700001223D4B1A7009E007213C483C4B9847FD
:10538000394B1883364B1B89984264D8364B1B78AF
:10539000002B63D009213748354B9847324B18838F
:1053A0002F4B5B88984201D92D4B588007213148FB
:1053B0002F4B98472C4B1883294B1B88984201D9B7
:1053C000274B188005212B48294B9847264B1883DB
:1053D000234B9B88984201D9214B98800421254872
:1053E000234B9847204B18831D4B9B89984201D92A
:1053F0001B4B988103211F481D4B98471A4B18835C
:10540000174B5B89984201D9154B588103211748E6
:10541000174B9847144B1883114BDB88984201D9DE
:105420000F4BD88004211148114B98470E4B18831D
:105430000B4B1B8A984201D9094B188205210B4856
:105440000B4B9847084B1883054B5B8A984293D9BE
:10545000034B588290E7024B188197E708BD00BFC5
:105460003802402021534000B00140206405402014
:10547000093C40008C04402058B908B50B46114641
:105480001846054B9847002800DB08BD4FF0FF3059
:1054900008BD4FF0FF307047F1544000013802283A
:1054A0000BD808B50B4611461846054B98470028FF
:1054B00000DB08BD4FF0FF3008BD4FF0FF307047F4
:1054C0001555400070B50646064D2B6800219868BA
:1054D000054CA0472B6800215868A047034B1E606D
:1054E00070BD00BF48004020B1744000CC01402096
:1054F00008B5064B1B6833B10A46014692B21846FE
:10550000034B984708BD002008BD00BFCC014020D8
:105510000931400008B5064B1B6833B10A46014605
:1055200092B21846034B984708BD002008BD00BF43
:10553000CC014020D930400010B5044C2046044B2B
:1055400098472046034B984710BD00BF20044020D9
:10555000B5374000C5544000044B5B6913F0010FA0
:10556000FAD0024B9869C0B2704700BF000A0E40E3
:1055700007E0064B5B6913F0020FFAD00130034BD2
:10558000DA610278002AF4D1704700BF00080E40AB
:1055900010B586B0054B984701AB0622044CA047D6
:1055A00001A8044B984706B010BD00BFE56C400051
:1055B000B97340007155400008B501460348044BDB
:1055C00098476420034B9847002008BD70AE400008
:1055D00059744000712F40000122034B9A604FF430
:1055E0008072024B1A607047000A0E4000E100E032
:1055F0000122064BDA604FF48072054BC3F880201D
:10560000BFF34F8FBFF36F8F704700BF000A0E408C
:1056100000E100E010B586B0054B984701AB0622CB
:10562000044CA04701A90448044B984706B010BD9C
:10563000E56C4000B973400070AE40005974400002
:1056400030B5224A21F00043934287B01BDD204A47
:10565000934205DD02460B4601F0E4F907B030BD88
:1056600002AA00F07DF800F00303012B1AD0022BF0
:105670000FD01BB30124DDE90423DDE9020100940E
:1056800000F0FEFFEAE70022002300F08DFA07B0E9
:1056900030BDDDE90423DDE9020100F085FA01F106
:1056A0000041DBE7DDE904450093DDE90201224624
:1056B0002B4600F0E5FF01F10041CFE7DDE90423CF
:1056C000DDE9020100F070FAC8E700BFFB21E93F05
:1056D000FFFFEF7F30B51F4A21F00043934287B0B0
:1056E0001BDD1D4A934205DD02460B4601F09AF987
:1056F00007B030BD02AA00F033F800F00300012823
:10570000DDE904231AD002280FD0E0B1DDE902015F
:1057100000F04AFA01F10041EAE700230093002279
:10572000002300F0ADFF07B030BD0124DDE9020128
:10573000009400F0A5FF01F10041D9E7DDE9020185
:1057400000F032FAD4E70124DDE90201009400F010
:1057500097FFCDE7FB21E93FFFFFEF7F000000004F
:105760002DE9F04F9A4E21F00047B74291B040F337
:105770008E809246974A97420C4626DC00298AA3DF
:10578000D3E9002340F3B48101F04CF9924B9F42DE
:1057900004460D4600F0908085A3D3E9002301F074
:1057A00041F902460B46CAE900232046294601F08A
:1057B00039F97FA3D3E9002301F034F90125CAE9BF
:1057C0000201284611B0BDE8F08F844A974240F3A9
:1057D0009080834A974265DC3D15A5F21645A7EBFC
:1057E000055319461F46064601F06AFD01F068FAA6
:1057F0008046894602460B4630463946CDE90A893D
:1058000001F010F90022774B01F0C0FA894680467A
:1058100001F056FD01F054FA02460B4606460F46CB
:1058200040464946CDE90C6701F0FCF800226D4B7B
:1058300001F0ACFA00220023CDE90E0101F00EFDCB
:10584000002800F07381002330463946002201F021
:1058500005FD002814BF01230223634A019202219F
:105860002A4600910AA8514600F0C2FA002C0546CB
:1058700014DADAF80420DAF80C3002F1004203F10D
:1058800000434542CAF80420CAF80C3006E0C2E9D9
:10589000000100250024C2E902450025284611B078
:1058A000BDE8F08F02460B4601F0BCF80025CAE9BE
:1058B0000201CAE90001F1E73FA3D3E9002301F0A7
:1058C000B1F83FA3D3E900230D46044601F0AAF83E
:1058D00002460B46CAE900232946204601F0A2F8F9
:1058E00037A3D3E9002301F09DF80125CAE902019D
:1058F000D4E700F07BFF34A3D3E900238046894638
:1059000001F044FA0022394B01F08EF801F0D8FC86
:10591000054601F0D5F924A3D3E90023CDE904011C
:1059200001F034FA02460B464046494601F07AF847
:105930001FA3D3E9002380468946DDE9040101F075
:1059400025FA1F2DCDE9020154DC294B6A1E53F8BC
:1059500022309F424ED002460B464046494601F057
:1059600061F802460B46CAE9002383460E465A46B2
:1059700033464046494601F055F8DDE9022301F07F
:1059800051F8002C02460B46CAE9022386DA5B4630
:1059900006F1004601F100418AE84800CAF80C10FF
:1059A000CAF808006D4279E700004054FB21F93F36
:1059B0003163621A61B4D03D0000601A61B4D03D19
:1059C0007370032E8A19A33B83C8C96D305FE43F0F
:1059D000FB21E93F7BD90240FB21F93FFB21394103
:1059E000FFFFEF7F00007041F4AE40000000E03F99
:1059F00074AE4000DDE902234046494601F012F84A
:105A00003A15C1F30A53D31A102B83460E46099256
:105A1000CAE90001ABDD58A3D3E90023DDE90401A5
:105A200001F0B4F906460F4602460B464046494689
:105A300000F0F8FFCDE9060102460B464046494614
:105A400000F0F0FF32463B4600F0ECFF4CA3D3E9F8
:105A5000002306460F46DDE9040101F097F93246BE
:105A60003B4600F0DFFFDDE90689CDE90201024691
:105A70000B464046494600F0D5FF0B46C1F30A5796
:105A80000E460999CF1B0246312F8346CAE90023EF
:105A90006CDD3DA3D3E90023DDE9040101F076F9D3
:105AA00006460F4602460B4640464946CDE9068962
:105AB00000F0B8FF02460B4680468946DDE9060144
:105AC00000F0B0FF32463B4600F0ACFF30A3D3E914
:105AD000002306460F46DDE9040101F057F932467E
