:020000040040BA
:10000000F00B40203D04400039044000390440001A
:100010003904400039044000390440000000000069
:100020000000000000000000000000003904400053
:100030003904400000000000390440003904400049
:1000400039044000390440003904400039044000BC
:1000500039044000390440003904400039044000AC
:10006000A125400000000000FD1B400039044000B5
:10007000F11B4000390440003904400039044000BD
:10008000390440003904400039044000390440007C
:10009000390440003904400039044000D9204000B0
:1000A0003904400039044000ED204000390440008C
:1000B000390440005D184000390440003904400014
:1000C000390440003904400039044000390440003C
:1000D000390440003904400039044000390440002C
:1000E00071184000390440003904400039044000D0
:1000F000390440003904400039044000390440000C
:1001000039044000390440003904400039044000FB
:1001100039044000390440000000000000000000E5
:1001200039044000390440003904400039044000DB
:1001300039044000390440003904400039044000CB
:1001400039044000390440003904400039044000BB
:1001500039044000390440003904400039044000AB
:10016000390440003904400010B5054C237833B9F8
:10017000044B13B10448AFF300800123237010BD7A
:10018000AC00402000000000286F40000C4B43B141
:100190000C480D4910B5AFF300800C48036823B933
:1001A00010BD0A48036833B97047094B002BF7D0DC
:1001B000BDE810401847064B002BF5D0184700BF8C
:1001C00000000000286F4000B0004020286F400071
:1001D0000000000008B5024B9847024B984708BD45
:1001E00071084000CD2F400038B50C4C032120464B
:1001F0000B4DA84704212046A84705212046A847C3
:1002000007212046A84709212046A8470821204663
:10021000A8472046034B984738BD00BFB404402090
:10022000F90C4000390D400038B50A4C0121204638
:10023000094DA84703212046A84704212046A84786
:1002400005212046A84707212046A8472046034B02
:10025000984738BDA4054020F90C4000390D4000F6
:100260002DE9F041394BDB6B13F0200F54D14FF0E7
:10027000050C374BDB6B13F4800F50D14FF00A089D
:10028000334BDB6B13F4001F4CD14FF0140E2F4B8C
:10029000DB6B13F0400F48D128272D4BDB6B13F499
:1002A000801F44D15026294BDB6B13F0800F40D1C7
:1002B000A025284BDB6B002B3DDB4FF4A074244BB7
:1002C000DB6B13F4002F38D14FF42071214BDB6B23
:1002D00013F0804F33D14FF4A0621C4BDB6B13F44F
:1002E000006F2ED14FF420631948C06B10F0200F1F
:1002F00029D00020C444E64477443E4435442C448D
:1003000021440A441344184407EE900AF8EEE77AB1
:1003100017EE900ABDE8F0814FF0000CA9E74FF00E
:100320000008ADE74FF0000EB1E70027B5E7002663
:10033000B9E70025BDE70024C1E70021C6E7002298
:10034000CBE70023D0E74FF4A050D3E700140E40D2
:1003500000120E40000E0E401F4BDB6B13F4803F6B
:1003600034D01E4BDB6B13F0005F31D01B4BDB6BCB
:1003700013F4004F01D103207047184BDB6B002BA7
:1003800001DB02207047164BDB6B13F0006F01D1CD
:1003900008207047114BDB6B13F4802F01D1042030
:1003A00070470F4BDB6B13F0805F01D10520704766
:1003B0000A4BDB6B13F4806F01D107207047064BAB
:1003C000DB6B13F0020F05D001207047012070474E
:1003D000002070470620704700120E4000140E40A7
:1003E000000E0E4038B5114B9847FE2801D0002072
:1003F00038BD0F4B98470F4CFE2323700B4B98478B
:100400006070002406E0094B98470A4B234498701B
:100410000134E4B22F2CF6D9044DA847054C84F8DA
:100420003E00A84784F83F00E1E700BFED2F400001
:100430002530400030034020FEE7000008B5104B97
:10044000104A9A4209D00E4B0E4A03E01168196017
:10045000043304320C498B42F8D30C4B02E00022E7
:100460001A6004330A4A9342F9D30A4A0A4B23F02A
:100470007F039360094B9847094B9847FEE700BFFD
:1004800000004020286F4000AC004020AC0040201D
:10049000F005402000ED00E000004000B1394000D0
:1004A000F926400008B5084B9B6913F4000F03D1EF
:1004B0004FF40002044B1A61044B9847024604496A
:1004C0000448054B984708BD00060E40D520400063
:1004D00000C00040D00540209511400008B5084BF1
:1004E0009B6913F0806F03D14FF08062044B1A6157
:1004F000044B9847024604490448054B984708BDF9
:1005000000060E40D520400000000140700540204C
:1005100095114000F0B585B0244BD3F8083113F4A1
:10052000807F04D14FF48072204BC3F80021204D0E
:10053000204C00230293204B0193052700970723AB
:100540002A461E4920461E4EB047102305F10802D8
:10055000012120461B4EB047102305F1180203214C
:100560002046B047102305F1280204212046B04759
:10057000102305F1380239462046B047102305F113
:10058000480207212046B0470F4B4FF400521A6033
:100590004FF480521A604FF000521A604FF08042C0
:1005A0001A604FF080621A6005B0F0BD00060E4080
:1005B000C8004020A40540203C04402000400640E4
:1005C000990B4000410C400000120E4070B584B001
:1005D000294B9B6913F0005F03D14FF00052264B6B
:1005E0001A61264D264C00230293264B01930623C5
:1005F0000093092305F1580223492046234EB047B2
:10060000102305F1640203212046214EB047102338
:1006100005F1740204212046B047102305F184023D
:1006200005212046B047102305F1940207212046FA
:10063000B047102305F1A40208212046B04710233B
:1006400005F1B40209212046B047124B20221A605E
:1006500010221A600422A3F5C0631A60A3F5007388
:100660004FF480221A604FF400221A604FF4801277
:100670001A6004B070BD00BF00060E40C8004020E4
:10068000B4044020E004402000C00340990B400027
:10069000410C400000160E40044B4FF400625A61BA
:1006A000C3F890205A661A60704700BF00120E40CF
:1006B000034B02225A61C3F890205A661A607047B1
:1006C000000E0E40114B1A6F42F480121A675A6FD7
:1006D00022F480125A674FF480125A601A6F42F463
:1006E00000121A675A6F22F400125A674FF4001270
:1006F0005A601A6F42F480021A675A6F22F480021D
:100700005A674FF480025A60704700BF00140E40D1
:10071000044B9B6913F4001F03D14FF40012014BEB
:100720001A61704700060E4010B5084B9847084BF9
:100730009847084C01462046074B984707492046F2
:10074000074B9847074B984710BD00BF1107400063
:100750009D1F40008C054020650F40000080004038
:10076000850F4000C50640000B4B1A6F22F4007243
:100770001A675A6F22F400725A674FF400725A6077
:100780001A6F22F480621A675A6F22F480625A67E5
:100790004FF480625A607047000E0E40044B9B6914
:1007A00013F0800F02D18022014B1A61704700BF05
:1007B00000060E4008B5064B9847064B9847024680
:1007C00005490648064B9847064B984708BD00BFA9
:1007D0009D0740009925400000080E40300440204D
:1007E000B514400069074000044B9B6913F4807FF7
:1007F00003D14FF48072014B1A61704700060E401E
:100800000A4B1A6F22F020021A675A6F42F0200238
:100810005A6720225A601A6F22F010021A675A6F24
:1008200042F010025A6710225A607047000E0E40C4
:1008300010B582B0074B9847074B9847009010239C
:10084000064A07490748084CA047084B984702B09A
:1008500010BD00BFE90740009D2540008C014020ED
:10086000000A0E40E003402025134000010840002C
:100870002DE9F8439E4B98479E4B9B6913F4806F7C
:1008800003D14FF480629B4B1A619A4B9B6913F41E
:10089000805F03D14FF48052964B1A61954B9B6950
:1008A00013F4803F03D14FF48032924B1A61924A85
:1008B000536843F400435360904B01225A611A6617
:1008C000C3F894201A604FF40008C3F83480C3F8CA
:1008D0001080C3F800804FF080625A611A66C3F836
:1008E00094201A604FF000625A611A66C3F8902093
:1008F0001A604FF0805EC3F814E0C3F860E0C3F8FC
:1009000094E0C3F800E04FF000515961C3F8901033
:10091000596619604FF080425A611A66C3F89420F4
:100920001A604FF000425A611A66C3F894201A60A8
:1009300003F5806302275F611F66C3F894701F6030
:1009400004265E611E66C3F894601E6020255D610A
:100950001D66C3F894501D604FF0800CC3F834C07E
:10096000C3F810C0C3F800C04FF48070586318611A
:1009700018604FF4804058611866C3F894001860FE
:100980004FF480345C611C66C3F894401C604FF4E3
:10099000002058611866C3F8940018604FF480195D
:1009A000C3F81490C3F86090C3F89490C3F8009013
:1009B0004FF40019C3F81490C3F86090C3F89490F2
:1009C000C3F800904FF48009C3F81490C3F8609006
:1009D000C3F89490C3F80090C3F81480C3F8608003
:1009E000C3F89480C3F800804FF08078C3F8148077
:1009F000C3F86080C3F89480C3F800804FF000789B
:100A0000C3F81480C3F86080C3F89480C3F80080F2
:100A1000C3F814E0C3F860E0C3F894E0C3F800E062
:100A20005A631A611A6003F500735F611F66C3F8A9
:100A300094701F605E611E66C3F894601E605D6105
:100A40001D66C3F894501D6040255D611D66C3F8A6
:100A500094501D60C3F814C0C3F860C0C3F894C0BC
:100A6000C3F800C04FF480655D611D66C3F8945003
:100A70001D604FF400655D611D66C3F894501D60F4
:100A80004FF400455D611D66C3F894501D605C61C4
:100A90001C66C3F894401C604FF480245C611C66A3
:100AA000C3F890401C6058611866C3F89400186041
:100AB00059611966C3F8941019605A611A66C3F82F
:100AC00094201A600E4B98470E4B98470E4B984750
:100AD0000E4B98470E4B98470E4B98470E4B984736
:100AE0000E4B98470E4B98470E4B9847BDE8F8833E
:100AF0008119400000060E4050180E40000E0E40B6
:100B0000CD0540001505400099064000B1064000A3
:100B100029074000A5044000DD044000B50740005F
:100B200031084000010E400008B5836903B19847C1
:100B300008BD08B5C36903B1984708BD2DE9F04762
:100B4000054688469146036A5B5C876A03EB43036C
:100B5000DE00BC1904F1040AD1B250460C4B984790
:100B600028460C4B9847012807D94FEA19215046CF
:100B7000074B9847A38A0133A382A38A0133A38238
:100B8000BB5913B1414628469847BDE8F08700BFDE
:100B900011164000451940002DE9F84F16461C4635
:100BA0009DF828800B9D07468946002818BF00291C
:100BB0000BD0131C18BF0123B8F1000F17D0B3B12D
:100BC0000DB1012002E0002000E00020DFF868B055
:100BD0003F225946DFF864A0D047601C40225946A6
:100BE0008045CCBF00200120D047002305E0002035
:100BF000ECE7FF22F2540133DBB2A342F9D93E62A3
:100C000087F8244087F82580BD6249463846064B60
:100C10009847034628B9054ABA60054A3A60054A2A
:100C20007A601846BDE8F88F851840003D0B4000FB
:100C3000290B4000330B40000060400029154000A4
:100C40002DE9F8430E461F4605469046002818BF7A
:100C5000002A02D0C3B9002000E00020DFF8949001
:100C600066224946214CA04795F824006722494650
:100C7000B04234BF00200120A047296A8B5DFF2BC2
:100C80002BD10024234603E00120E7E70133DBB248
:100C900095F82420934205D8CA5CFF2AF6D0013487
:100CA000E4B2F3E795F825309C4219D8A86A04EB22
:100CB00044034FEAC30948443A46414604300C4BCA
:100CC0009847024678B92B6A9C55AB6A9944002331
:100CD000A9F814301046BDE8F8836FF00C02F9E76C
:100CE0006FF01B02F6E76FF00C02F3E729154000E6
:100CF0008915400000604000F8B50D460B4F0446D2
:100D000083223946003018BF0120094EB04794F8BD
:100D1000240084223946A84234BF00200120B04775
:100D200029462046034B98470020F8BD006040004C
:100D3000291540003919400010B50446D62205494E
:100D4000003018BF0120044B98472046034B9847BA
:100D5000002010BD006040002915400049194000E6
:100D6000EFF31083036072B6BFF35F8F7047BFF37A
:100D70005F8F036883F310887047000010B5044B41
:100D80001C68044B984701462046034B984710BD0A
:100D90009C0140205D1940007919400010B5044BBA
:100DA0001C68044B984701462046034B984710BDEA
:100DB0009C014020671940007919400038B5022590
:100DC000002407E00D4A52F83330B3B1984738BDDC
:100DD000013AD5B2AC4210D82B195B10DAB2012A15
:100DE0000BD81346054901EBC20149688142E9D09D
:100DF0008142EDD20132D4B2ECE738BDA0014020EF
:100E000008B500230AE0084A02EBC3014FF0FF30A7
:100E10004860002142F8331001339BB2012BF2D914
:100E20000248034B984708BDA0014020BD0D40007B
:100E3000091C4000F0B583B005460023012B0ED8F5
:100E400018462E4A02EBC3025268AA4202D001336E
:100E5000DBB2F3E7294B43F83010012700E000270D
:100E600059B1002F3DD10026012E13D8234B53F842
:100E7000363043B10136F6B2F6E7002F38D02846B7
:100E80001F4B984732E01D4B43F8361003EBC60367
:100E90005D600127002301E00133DBB2012B98BF25
:100EA000012E1ED8B646154A02EBC601486802EB71
:100EB000C30252689042EFD2B2F1FF3FECD00F4C28
:100EC00004EBC30292E803008DE8030004EBC604C0
:100ED00094E8030082E803009DE8030084E803002F
:100EE000DAE747B101212846054B984703B0F0BD2A
:100EF0006FF00C00FAE76FF00C00F7E7A00140205C
:100F0000311C400070B5164604460D46002818BF37
:100F1000002914BF0120002034220449044B9847C3
:100F20002368324629462046984770BD1C60400021
:100F30002915400070B5164604460D46002818BF16
:100F4000002914BF012000203D220449044B98478A
:100F50006368324629462046984770BD1C604000B1
:100F60002915400038B50D460446392203490030A2
:100F700018BF0120024B9847256038BD3060400003
:100F80002915400038B504460D46002818BF002931
:100F900014BF01200020402209490A4B98472046EF
:100FA00040F8045F2946084B9847002807DB4FF4B8
:100FB0000043A382054B2361054BE360002038BD4D
:100FC00030604000291540008D1D4000A1104000F8
:100FD0006510400010B5044657220549003018BF7F
:100FE0000120044B9847201D034B984710BD00BFBC
:100FF0003060400029154000351E400010B5044601
:101000005D220549003018BF0120044B9847201D80
:10101000034B984710BD00BF3060400029154000C9
:10102000691E400030B585B005460C46002818BF43
:10103000002914BF01200020B3220749074B98471D
:101040002368019363680293A368039301A9281D91
:10105000034B984705B030BD306040002915400073
:101060009D1E400070B584B00E4615460446A3226E
:101070000849003018BF0120074B9847002302930E
:101080000196039501A9A4F10C00044B984704B004
:1010900070BD00BF306040002915400025104000A1
:1010A00070B584B00E4615460446872208490030C4
:1010B00018BF0120074B9847029600230193039520
:1010C00001A9A4F10C00044B984704B070BD00BF07
:1010D000306040002915400025104000F8B5076831
:1010E00017B13C4600260BE00E4B9847F8BDA568AB
:1010F0002B449B1A01338D68AB4209D226462468E3
:1011000034B163689342F2D8A5689B1A2B44F2E786
:10111000BC4203D03046044B9847F8BD014B98477A
:10112000F8BD00BF4515400071154000F8B5446991
:10113000066901360661037E13F0010F05D1037EB7
:1011400013F0020F01D1054609E0037E43F00203CC
:101150000376F8BD6F69E368204698473C469CB12A
:101160006368F31AA26893420ED305F11407384658
:10117000064B9847237C012BECD166603246214612
:101180003846034B9847E5E7F8BD00BF79154000A6
:10119000DD10400038B504460D46002818BF002970
:1011A00014BF012000203B220549064B98472946E1
:1011B0002046054B984700202061044B236038BD32
:1011C0004C60400029154000192040002D114000BE
:1011D00008B500238362C3691BB1A0F10802104661
:1011E000984708BD08B500238362436A1BB1A0F18C
:1011F00008021046984708BD38B50446A0F1080516
:101200002C30034B9847236A0BB12846984738BDCA
:101210001116400070B5154604460E46002818BF4A
:10122000002902D0DAB9002000E0002040F23B1291
:101230000D490E4B9847B4F84420B4F84C309A420C
:101240000FD1A664A4F84C500023A4F84430012325
:10125000236304F10800064B9847284670BD01201F
:10126000E4E76FF01B0070BD64604000291540008A
:101270004D25400010B50446838FB0F844209342BA
:1012800009D0026C591C8187D15C044B98472046D9
:10129000034B984710BD034B984710BD8D24400069
:1012A0004D254000712540002DE9F04182B01746E0
:1012B00005468846002818BF002902D0A2B90020A0
:1012C00000E000204FF4AC721049114B984701A880
:1012D000104B9847343528460F4B9847064601A8CF
:1012E0000E4B9847002407E00120EBE70134A4B23D
:1012F000414428460A4B98472146A64201D9BC42A0
:10130000F4D3204602B0BDE8F08100BF6460400025
:1013100029154000610D4000511640006F0D40003E
:10132000CD154000F8B515461E4604460F46002868
:1013300018BF002908D0131C18BF012316B10BB128
:10134000012002E0002000E000203A221049114B69
:1013500098473246294604F134000F4B9847A0B90C
:10136000394604F108000D4B9847034658B90C4A1A
:1013700062600C4A22600C4AA2600C4AE2600C4A8D
:1013800022610C4A62611846F8BD6FF00C03FAE75F
:101390006460400029154000891540005523400035
:1013A000A91240001512400075124000F9114000CA
:1013B000D1114000E511400010B5044661220649F4
:1013C000003018BF0120054B984704F10800044B7A
:1013D0009847002010BD00BF646040002915400000
:1013E00035244000F8B5164605460F46002818BFBC
:1013F000002902D00ABB002000E00020F1221049A1
:10140000104B984705F1080420460F4B98470028D9
:10141000F8D00025795D20460C4B984720460A4BB2
:1014200098470028FAD00135B542F3D32046084B3F
:1014300098470028FAD02846F8BD0120DEE700BF13
:101440008460400029154000D524400069244000F4
:10145000FD2440002DE9F041174605468846002846
:1014600018BF002902D0D2B9002000E000204FF4BC
:1014700086720C490C4B9847002605F1080420465B
:101480000A4B98470028F8D02046094B984708F89F
:1014900006000136BE42F0D33046BDE8F08101209F
:1014A000E5E700BF84604000291540002525400085
:1014B000B124400038B504460D46002818BF002965
:1014C00014BF0120002034220749084B98472946C1
:1014D00004F10800064B9847034618B9054A6260B4
:1014E000054A2260184638BD846040002915400036
:1014F0001D23400055144000E513400010B504467C
:1015000053220649003018BF0120054B984704F1CB
:101510000800044B9847002010BD00BF84604000C5
:10152000291540000124400000B900BE704703683F
:101530001BB18B4203D01B68FAE7002070470120E3
:101540007047000038B504460D46064B984780F0BA
:10155000010039220449C0B2044B984723682B602C
:10156000256038BD2F154000A060400029154000BF
:1015700003680B600160704703681BB11A68026062
:10158000184670470020704770B5154604460E4651
:10159000002818BF002902D07AB9002000E00020FE
:1015A00028220849084B98476B1E1D4207D16360EB
:1015B0000020A060E060266070BD0120F0E76FF0C1
:1015C0000C0070BDC06040002915400038B50446CD
:1015D0000D46002818BF002914BF0120002040221A
:1015E00009490A4B9847E268A3689A4209D02268E1
:1015F00061680B40D35C2B70A3680133A3600020AB
:1016000038BD6FF0090038BDC060400029154000AA
:1016100038B50D46044651220B49003018BF012051
:101620000A4B98472268E36861680B40D554E36829
:10163000A2689A1A61688A4201D9591AA1600133D5
:10164000E360002038BD00BFC060400029154000A5
:1016500010B5044667220549003018BF0120044B2D
:101660009847E068A368C01A10BD00BFC060400082
:10167000291540000346064A126822B1044A106840
:101680000344136070470349014A1160F6E700BF45
:10169000B0014020F00B40204FF0FF3070474FF476
:1016A00000534B60002070470120704700207047B6
:1016B0004369074A934205D002F52032934203D191
:1016C000282070471D2070474FF0FF30704700BF43
:1016D00000C00340064B984203D0064B984203D00B
:1016E0007047054B1960F8E7034B5960F8E700BFF6
:1016F00000C0034000400640B401402064231D4A5E
:1017000003FB01235A6842609A688260DA68C2600B
:101710001A6902615A6902659A694265DA69026664
:101720001A6AC0F894205A6AC0F8A0209A6AC0F8D1
:10173000D020DA6AC0F8D4201B6BC0F8D830002261
:101740000B2A14D810B4426601EB810303EB830328
:1017500013440C33074C04EB83035B68C36601320C
:10176000D2B20B2AEFD900205DF8044B704700205D
:10177000704700BFE460400030B583B00546426961
:10178000116BD36A0B400193019B13F0806F0ED154
:10179000019B13F0007F0ED1019BC3F30B03019358
:1017A000019CB4FA84F4C4F12004E4B21FE003689D
:1017B00000219847ECE76B68002128469847EBE743
:1017C000013CE4B26B695C66AB686A69926E92B286
:1017D0002146284698470123A340019C24EA03049C
:1017E0000194019CB4FA84F4C4F12004E4B2002C06
:1017F000E6D103B030BD000008B5094B98420AD0CD
:1018000003F52033984208D0A72206490020064B52
:101810009847002008BD002008BD012008BD00BF7A
:1018200000C00340AC6140002915400008B5094BD9
:1018300098470023012B09D8642202FB03F20649D2
:101840008A5C904203D00133DBB2F3E700231846F1
:1018500008BD00BFF9174000E460400008B5024B26
:101860001868024B984708BDB40140207917400022
:1018700008B5024B5868024B984708BDB401402098
:101880007917400070B50C4605464FF4A172234904
:10189000003018BF0120224B98472046214B984723
:1018A00001462046204B9847064608B1304670BD99
:1018B0006C61294620461D4B984728461C4B98478B
:1018C00000280DDB430900F01F00012202FA00F09E
:1018D0002033184A42F82300BFF34F8FBFF36F8FB6
:1018E0002846134B9847002809DB430900F01F00E6
:1018F000012202FA00F060330E4A42F82300284623
:101900000B4B98470028D1DB420900F01F00012350
:1019100003FA00F0074B43F82200C7E7AC61400030
:10192000291540002D184000FD164000D516400036
:10193000B116400000E100E04269012303FA01F121
:101940005161704702207047436902221A60704754
:10195000436959664369986E80B270474FF4967335
:1019600003FB00F070474FF4967303FB00F04FF455
:101970007A7303FB00F070470139FDD8704700000F
:1019800000B583B001A80E4B98470E4AD2F88830B4
:1019900043F47003C2F88830BFF34F8FBFF36F8FEB
:1019A00001A8094B9847094A136823F4706343F46C
:1019B000C0631360064B984703B05DF804FB00BF9B
:1019C000610D400000ED00E06F0D4000000C0E4086
:1019D000511D400030B400258D4210D20122002359
:1019E0001F2B0AD850F82540224202D15200013361
:1019F000F6E703EB451030BC70470135ECE74FF0DC
:101A0000FF30F8E710B586B00023019302930393EB
:101A100004930593214B1868F8222149003018BF20
:101A20000120204B9847204BDA6C9B6C13400193AC
:101A30001E49CA6C896C0A400392134325E0174B78
:101A40001B6820469847631104F01F04012202FA24
:101A500004F406AA02EB830353F8142C22EA0402CE
:101A600043F8142C052101A8114B98470446B4F102
:101A7000FF3FE4D10C4AD16C936C0B4001930B49AE
:101A8000C86C8A6C0240039213432BB1052101A854
:101A9000074B98470446EAE706B010BDBC0140205A
:101AA0000462400029154000000E0E4000120E4056
:101AB000D519400010B50446D2220549003018BFA0
:101AC0000120044B984704482044C0F3472010BD30
:101AD000046240002915400000F2F1BF10B5044631
:101AE000E0220D49003018BF01200C4B98472046DA
:101AF0000B4B98470023012B0BD8C3EBC3018A0083
:101B000008498A5C904202D00133DBB2F3E758B255
:101B100010BD4FF0FF3010BD046240002915400099
:101B2000B51A4000C461400038B5044640F259126D
:101B30002949003018BF0120284B98472046284BE0
:101B40009847002843DB274DC200111A8B002B4415
:101B50009968C4F8B010D968C4F8C0101969C4F8FD
:101B6000C4109B69C4F8D030101A83002B445B6901
:101B7000C4F8D43020461C4B9847284490F938309C
:101B8000002B0CDB5A0903F01F0001218140203299
:101B9000164840F82210BFF34F8FBFF36F8F002B12
:101BA00008DB5A0903F01F000121814060320F4811
:101BB00040F82210002B0DDB590903F01F0301220E
:101BC00002FA03F3094A42F82130002038BD6FF0D1
:101BD000100038BD002038BD0462400029154000C7
:101BE000DD1A4000C4614000B51A400000E100E089
:101BF00008B5014B984708BD051A400008B5014BD0
:101C0000984708BD051A400038B505460448054CFC
:101C1000A0470548A047054B1D60002038BD00BF08
:101C2000000E0E40291B400000120E40BC01402057
:101C30002DE9F04104460F46DFF850804FF4D3728F
:101C400041469F288CBF002001200E4EB047E5B2D0
:101C5000C32241469F2D8CBF00200120B0476D0953
:101C6000094B03EB452504F01F0437B9012303FAA0
:101C700004F46C640020BDE8F081012303FA04F44D
:101C80002C64F7E729154000000E0E400462400066
:101C900012490A6A22F00202114B13430B620F4BE6
:101CA0009B6E13F0010FFAD00C4B196A0D4A0A43D0
:101CB0001A62996A0C4A0A409A620C4A9A62074B65
:101CC0009B6E13F0020FFAD04FF47102034BDA61EE
:101CD000024B9B6E13F0400FFAD0704700060E4087
:101CE000013E370000003701FFFF00F8013F1820D8
:101CF000164A136B43F400531363144B9B6E13F09B
:101D0000080FFAD0114A136B23F0700313630F4BC3
:101D10009B6E13F0080FFAD00C4A136B23F4407338
:101D200043F480731363094B9B6E13F0080FFAD0D2
:101D3000064A136B23F0030343F002031363034BC0
:101D40009B6E13F0080FFAD0704700BF00060E40DC
:101D500008B5024B9847024B984708BD911C4000BC
:101D6000F11C400001230360002070470223036040
:101D700000207047044B0344C3F30743052B01D0F5
:101D800000207047012070470080FFBF70B50646F5
:101D90000C460846204B984700233BB300254FF4E0
:101DA0009A721E49002E18BF002C14BF012000207B
:101DB0001B4B984755B3236913F4803F29D18023E7
:101DC000236034606A68174B13402360AB68164A7F
:101DD0001A40164B13436360EB6823632B8AF3802E
:101DE000EB6803F0F0033371002070BD03EB830157
:101DF0008A000F498A5C904202D00133DBB2CCE703
:101E000003EB8305AB000D461D44C8E76FF00C00E3
:101E100070BD6FF0100070BD751D40003462400051
:101E2000291540007CFFFFFE6FFFF1FF10000E0040
:101E30002062400010B5044668B103684BB1012030
:101E40004FF4B9720549064B98472068054B9847EF
:101E500010BD0020F4E70020F2E700BF346240002C
:101E600029154000651D400010B5044668B103689F
:101E70004BB101204FF4C0720549064B98472068CA
:101E8000054B984710BD0020F4E70020F2E700BFA3
:101E900034624000291540006D1D40002DE9F041DD
:101EA00086B007460D4604680B6801934B680293A1
:101EB00000230393049303798DF81430261C18BF74
:101EC000012640F23122334900280CBF002006F0E1
:101ED0000100314B9847236913F4803F22D16FF002
:101EE000130053E0002335E0507841EA002102322C
:101EF000019201330393E160D4F8108040F2222272
:101F000024493046244B984718F0080F38D06FF01A
:101F10001200002836DB0398AB68984202D3049A7B
:101F200093422FD9236913F0010FDBD0A3689BB232
:101F3000029A5AB1511C029113709DF81420012A83
:101F400004D90A46013102911B0A1370049B013324
:101F500004930123002BCFD1039B049A9A42CBD345
:101F6000F988226912F0020FC6D0019A002AC0D067
:101F7000511C019111789DF814000128B4D8B8E7DC
:101F80000020C6E7236913F4007FFBD006B0BDE84C
:101F9000F08100BF346240002915400000207047E6
:101FA0000023012B15D810B403EBC3018A000A49A2
:101FB0008A58824207D00133DBB2012BF4D90020CA
:101FC0005DF8044B704703EBC304A30008461844B4
:101FD000F6E70020704700BF00004020064B984203
:101FE00003D0064B984203D07047054B1960F8E7C1
:101FF000034B5960F8E700BF00C0004000000140FB
:10200000C001402008B5C3681B6A13F0100F00D14F
:1020100008BD03689847FBE7F8B507460C46084635
:10202000274B984705468668FC6096222549012083
:10203000254B984716F4004F01D046F414266660ED
:102040006B696361AB69A361EB682363EB69E3616F
:10205000102363622B69C4F8D830394620461B4BE5
:10206000984795F90430002B0DDB5A0903F01F0344
:10207000012101FA03F32032154941F82230BFF360
:102080004F8FBFF36F8F95F90430002B09DB5A098E
:1020900003F01F03012101FA03F360320C4941F8F8
:1020A000223095F90430002B08DB590903F01F0397
:1020B000012202FA03F3064A42F821300020F8BD5B
:1020C000A11F40004C62400029154000DD1F400068
:1020D00000E100E00020704708B5024B1868024B91
:1020E000984708BDC00140200520400008B5024BBC
:1020F0005868024B984708BDC001402005204000A9
:10210000034B984200D07047024B1960FBE700BFB9
:10211000000A0E40C801402010B5044640F21E22BD
:102120001249003018BF0120114B9847114B9C42B7
:1021300013D003F500739C4211D003F580539C42E9
:102140000FD003F500739C420DD003F500739C4241
:1021500001D0FF2010BD042010BD002010BD0120C3
:1021600010BD022010BD032010BD00BF78624000EA
:102170002915400000080E4010B5044640F2AA227E
:102180000F49003018BF01200E4B984720460E4BD8
:1021900098470023012B09D803EB43018A000B4920
:1021A0008A5C904209D00133DBB2F3E74FF42D7221
:1021B00003490020034B98470023184610BD00BF79
:1021C00078624000291540001921400060624000FB
:1021D00038B5044640F2C1220E49003018BF012034
:1021E0000D4B984720460D4B98470D4BC4F8E430F3
:1021F000AC2323604FF4807323600A4A43001D1808
:10220000A9000D461144496861602A44936823621D
:10221000002038BD78624000291540007921400037
:10222000005241556062400010B5044689221049B1
:10223000003018BF01200F4B984720460E4B98479F
:1022400004280CD8DFE800F0031205070900072076
:1022500010BD2C2010BD2D2010BD2E2010BD9B22A6
:1022600003490020034B9847FF2010BD082010BDF4
:1022700078624000291540001921400010B504463D
:1022800040F282222349003018BF0120224B984798
:10229000A3695A6912F0020F03D01A6912F0020FF3
:1022A00018D15A6912F4007F03D01A6912F4007F22
:1022B00016D15A6912F0010F1FD01A6912F0010FDE
:1022C0001BD05A6912F0E00F11D09A694FF4807256
:1022D0001A6010BD0222DA6023682046984710BDBC
:1022E0004FF40072DA60A3682046984710BD626818
:1022F0009969C9B22046904710BD5A6912F0E00FA3
:1023000000D110BD4FF480721A60E36820469847F0
:10231000F7E700BF7862400029154000F8B50C4689
:10232000094E0746AF223146003018BF0120074D45
:10233000A847B0223146201C18BF0120A8473C60A6
:102340002046034B9847F8BD7862400029154000AD
:10235000D121400070B50C460646BE22224900300D
:1023600018BF0120214B98472046214B984705462E
:1023700008B1284670BDB461314620461D4B9847D0
:1023800020461D4B984743B2002B0DDB5B0900F044
:102390001F00012202FA00F02033184A42F82300FD
:1023A000BFF34F8FBFF36F8F2046134B984743B255
:1023B000002B09DB5B0900F01F00012202FA00F08C
:1023C00060330E4A42F8230020460B4B984743B235
:1023D000002BCEDB5B0900F01F00012202FA00F0A7
:1023E000064A42F82300C4E77862400029154000FD
:1023F000D1214000012140002922400000E100E0FD
:1024000070B50A4E0446F8223146003018BF01204C
:10241000074DA847246840F2E5223146201C18BF2A
:102420000120A8475023236070BD00BF78624000A0
:102430002915400070B50A4E044640F2011231469B
:10244000003018BF0120074DA847A46940F2E522DB
:102450003146201C18BF0120A8475023236070BDBF
:10246000786240002915400038B50C4605464FF407
:10247000CD720449003018BF0120034B98472B68E8
:10248000DC6138BD786240002915400038B50C4643
:10249000054640F2A3120449003018BF0120034B47
:1024A0009847AB69DC6138BD78624000291540006F
:1024B00010B504464FF4D6720449003018BF01200D
:1024C000034B984723689869C0B210BD78624000FA
:1024D0002915400010B5044640F2B51205490030F8
:1024E00018BF0120044B984723685869C0F3400087
:1024F00010BD00BF786240002915400010B50446A9
:102500004FF4DF720549003018BF0120044B984793
:1025100023685869C0F3402010BD00BF78624000B6
:102520002915400010B504464FF4E8720549003003
:1025300018BF0120044B98472368586900F0010038
:1025400010BD00BF786240002915400010B5044658
:1025500040F20B220449003018BF0120034B98477A
:10256000A36902229A6010BD7862400029154000DC
:1025700010B504464FF405720549003018BF01201C
:10258000044B9847A3694FF400729A6010BD00BFD6
:1025900078624000291540000020704700207047F5
:1025A00008B5034B9847034B1868034B984708BD81
:1025B000E5034000C80140207D22400008B5124BD1
:1025C000984707EE900AF5EE407AF1EE10FA09D03E
:1025D0000E4BC3ED177A01220D4B1A600D480E4BBE
:1025E000984708BD0D4B9847022806DB042802DCFB
:1025F000DFED0B7AECE7062802D0DFED0A7AE7E799
:10260000DFED097AE4E700BF610240007803402073
:1026100074034020906240000530400059034000A0
:102620000000C844000048440000C84308B5002228
:10263000024BDA650248034B984708BD78034020F7
:10264000B062400005304000074B1B6913F0020FD9
:10265000FAD0054BD860044B1B6913F0010FFAD078
:10266000014B9B68704700BF0080004038B50D46A5
:10267000034CA0472846A0472846A04738BD00BFC6
:10268000492640002DE9F04180460B4C20460B4B7B
:1026900098470B4D80262E6364200A4FB847414669
:1026A000AA20094B98476420B8476E632046074B21
:1026B0009847BDE8F08100BF8C054020D50F400051
:1026C00000120E407D0D40006D264000FD0F4000C1
:1026D00008B502490120024B984708BDBD254000BE
:1026E000350E400008B502494B20024B984708BD03
:1026F0002D264000350E400008B5124B9847124B6E
:1027000098471248124B9847124B9847124B9847DC
:10271000124B9847124B98471248134CA047134846
:10272000A047134B98470022124BDA650022124B48
:102730001A604FF47A70114B98470020104B98475D
:10274000FBE700BFD501400025304000E0034020FA
:10275000B9134000E901400029024000D1264000A1
:10276000E5264000D062400005304000FC62400099
:102770008527400078034020740340209D0D4000D1
:10278000852640002DE9F0412DED028B82B001201D
:10279000AD4DA847AD48AE4CA047DFF838830321C4
:1027A0004046AC4FB84701900146AB48A047DDED2D
:1027B000017AF8EE677A9FEDA98A87EE887A17EE9C
:1027C000100AA74EB0470120A84704214046B84749
:1027D00001900146A348A047DDED017AF8EE677A43
:1027E00087EE887A17EE100AB0470120A847052126
:1027F0004046B847019001469B48A047DDED017A6D
:10280000F8EE677A9FED998A87EE887A17EE100ABC
:10281000B0470120A84707214046B847019001462C
:102820009348A047DDED017AF8EE677A87EE887A63
:1028300017EE100AB0470120A84709214046B847C3
:10284000019001468B48A047DDED017AF8EE677AEA
:1028500087EE887A17EE100AB0470120A847DFF804
:10286000788203214046B847019001468248A0473C
:10287000DDED017AF8EE677A87EE887A17EE100AB6
:10288000B0470120A84704214046B84701900146BF
:102890007A48A047DDED017AF8EE677A87EE887A0C
:1028A00017EE100AB0470120A84705214046B84757
:1028B000019001467248A047DDED017AF8EE677A93
:1028C00087EE887A17EE100AB0470120A847072143
:1028D0004046B847019001466A48A047DDED017ABD
:1028E000F8EE677A87EE887A17EE100AB047012073
:1028F000A8470A20644B98476448A047644BDB6BA9
:1029000013F0020F00F0BB816248A0470120A847E6
:102910005F4BDB6B13F0200F00F0B8815E484C4B2F
:1029200098470120484B98475C4BDB6B002BC0F26B
:10293000B4815B48464B98470120434B9847574B1F
:10294000DB6B13F4802F00F0AF815648404B984763
:1029500001203D4B9847544BDB6B13F0006F00F0A8
:10296000AA8152483A4B98470120374B98474B4B26
:10297000DB6B13F4006F00F0A5814D48344B984792
:102980000120314B9847454BDB6B13F4806F00F00F
:10299000A08148482E4B984701202B4B98473F4B2E
:1029A000DB6B13F4004F00F09B814348284B9847A2
:1029B0000120254B9847394BDB6B13F0005F00F08B
:1029C00096813E48224B984701201F4B9847304B39
:1029D000DB6B13F4803F00F0918139481C4B984722
:1029E0000120194B9847304BDB6B13F0805F00F0F0
:1029F0008C813448164B98470120134B98472A4B3B
:102A0000DB6B13F0804F00F087812F48104B984705
:102A100001200D4B98471E4BDB6B13F4002F00F089
:102A200082812A480A4B98470120074B98471E4B42
:102A3000DB6B002BC0F2C4812548054B9847012071
:102A4000014B98474AE000BF9D0D40002C634000B9
:102A5000093A40005119400064634000171D9B442F
:102A600049304000A0634000E063400000009B4408
:102A70001C6440005864400094644000D0644000EE
:102A80000C65400048654000393A400088654000C8
:102A900000120E40CC6540000466400000140E4059
:102AA0006466400084664000000E0E40C46640002C
:102AB000046740004467400080674000B8674000FA
:102AC000F06740002868400060684000A06840004F
:102AD00000694000B4044020A4054020954BDB6B06
:102AE00013F0800F00F073819348944B98470120B6
:102AF000934B9847934BDB6B13F4801F00F06E8170
:102B000091488E4B984701208D4B9847894BDB6B42
:102B100013F0400F00F069818C48884B98470120E2
:102B2000874B9847874BDB6B13F4001F00F06481E1
:102B30008748824B98470120814B9847814BDB6B3C
:102B400013F4800F00F05F8182487C4B984701208E
:102B50007B4B9847774BDB6B13F0200F00F05A81CB
:102B60007D48764B98470120754B98477B4BDB6B34
:102B700013F0806F00F055817948704B9847012021
:102B80006F4B98476B4BDB6B13F4002F00F05081B9
:102B900074486A4B98470120694B98476F4BDB6B31
:102BA00013F0005F00F04B816F48644B98470120A1
:102BB000634B98475F4BDB6B13F0020F00F04681CD
:102BC0006A485E4B984701205D4B98475D4BDB6B35
:102BD00013F4000F00F041816548584B98470120DD
:102BE000574B9847534BDB6B13F0040F00F03C81BD
:102BF0006048524B98470120514B9847514BDB6B33
:102C000013F0007F00F037815B484C4B9847012060
:102C10004B4B98474B4BDB6B13F0805F00F03281DE
:102C20005648464B98470120454B9847414BDB6B34
:102C300013F4803F00F02D815148404B984701200C
:102C40003F4B9847454BDB6B13F0020F00F0288198
:102C50004C483A4B98470120394B98473F4BDB6B28
:102C600013F0010F40F023814748344B984701206F
:102C7000334B984702B0BDEC028BBDE8F08143486E
:102C80002E4B984701202E4B984741E640482B4B4E
:102C9000984701202A4B984746E63E48274B9847DD
:102CA0000120274B98474AE63B48244B9847012090
:102CB000234B98474FE63948204B98470120204B3B
:102CC000984754E636481D4B984701201C4B9847BF
:102CD00059E63448194B98470120194B98475EE64E
:102CE0003148164B98470120154B984763E62F480B
:102CF000124B98470120124B984768E62C480F4B1F
:102D0000984701200E4B98476DE62A480B4B984791
:102D100001200B4B984772E62748084B9847012043
:102D2000074B984777E62548044B98470120044B0A
:102D300098477CE600140E401C694000093A4000A8
:102D40009D0D400000120E405869400094694000FB
:102D5000D06940000C6A4000486A4000000E0E40F6
:102D6000846A4000D46A4000146B40004C6B400001
:102D70008C6B4000D86B4000106C40004C6C4000E5
:102D8000906C4000CC6C4000346D4000E865400021
:102D90002466400044664000A4664000E4664000AB
:102DA00024674000646740009C674000D46740008F
:102DB0000C6840004468400080684000C0684000E3
:102DC0003E483F4B984701203E4B984786E63E4899
:102DD0003B4B984701203B4B98478BE63B48384B91
:102DE00098470120374B984790E63948344B98472D
:102DF0000120344B984795E63648314B98470120DF
:102E0000304B98479AE634482D4B984701202D4B7C
:102E100098479FE631482A4B98470120294B98470D
:102E2000A4E62F48264B98470120264B9847A9E651
:102E30002C48234B98470120224B9847AEE62A485E
:102E40001F4B984701201F4B9847B3E627481C4B60
:102E5000984701201B4B9847B8E62548184B9847E0
:102E60000120184B9847BDE62248154B9847012092
:102E7000144B9847C2E62048114B98470120114B4C
:102E80009847C7E61D480E4B984701200D4B9847C1
:102E9000CCE61B480A4B984701200A4B9847D1E6DD
:102EA0001848074B98470120064B9847D6E6164826
:102EB000034B98470120034B9847DBE6E06840004E
:102EC000093A40009D0D40003C694000786940008F
:102ED000B4694000F06940002C6A4000686A400014
:102EE000AC6A4000F06A40002C6B4000686B400008
:102EF000B06B4000F46B4000306C4000706C4000E0
:102F0000B06C4000F06C4000146D400058B908B53A
:102F10000B4611461846054B9847002800DB08BDB4
:102F20004FF0FF3008BD4FF0FF307047852F400055
:102F3000013802280BD808B50B4611461846054B38
:102F40009847002800DB08BD4FF0FF3008BD4FF068
:102F5000FF307047A92F400070B50646064D2B681C
:102F600000219868054CA0472B6800215868A047AD
:102F7000034B1E6070BD00BF48004020613A400016
:102F8000CC01402008B5064B1B6833B10A46014608
:102F900092B21846034B984708BD002008BD00BFF9
:102FA000CC014020350F400008B5064B1B6833B1FB
:102FB0000A46014692B21846034B984708BD0020C6
:102FC00008BD00BFCC014020050F400010B5044CE7
:102FD0002046044B98472046034B984710BD00BF3E
:102FE00030044020FD144000592F4000044B5B6921
:102FF00013F0010FFAD0024B9869C0B2704700BFBE
:10300000000A0E4008B501460348044B9847642067
:10301000034B9847002008BD5C6D4000093A400012
:103020009D0D40000122064BDA604FF48072054B83
:10303000C3F88020BFF34F8FBFF36F8F704700BF7F
:10304000000A0E4000E100E010B586B0054B98473D
:1030500001AB0622044CA04701A90448044B984741
:1030600006B010BD3D334000693940005C6D400042
:10307000093A400081F0004102E000BF83F00043C4
:1030800030B54FEA41044FEA430594EA050F08BF03
:1030900090EA020F1FBF54EA000C55EA020C7FEAC7
:1030A000645C7FEA655C00F0E2804FEA5454D4EB44
:1030B0005555B8BF6D420CDD2C4480EA020281EA0E
:1030C000030382EA000083EA010180EA020281EA46
:1030D0000303362D88BF30BD11F0004F4FEA013198
:1030E0004FF4801C4CEA113102D0404261EB4101A7
:1030F00013F0004F4FEA03334CEA133302D052422D
:1031000063EB430394EA050F00F0A780A4F10104E8
:10311000D5F1200E0DDB02FA0EFC22FA05F2801822
:1031200041F1000103FA0EF2801843FA05F3594108
:103130000EE0A5F120050EF1200E012A03FA0EFC87
:1031400028BF4CF0020C43FA05F3C01851EBE371B1
:1031500001F0004507D54FF0000EDCF1000C7EEBCE
:1031600000006EEB0101B1F5801F1BD3B1F5001F0C
:103170000CD349085FEA30004FEA3C0C04F101042B
:103180004FEA445212F5800F80F09A80BCF1004F54
:1031900008BF5FEA500C50F1000041EB045141EAD6
:1031A000050130BD5FEA4C0C404141EB010111F4D7
:1031B000801FA4F10104E9D191F0000F04BF014682
:1031C0000020B1FA81F308BF2033A3F10B03B3F160
:1031D00020020CDA0C3208DD02F1140CC2F10C02F0
:1031E00001FA0CF021FA02F10CE002F11402D8BF4E
:1031F000C2F1200C01FA02F120FA0CFCDCBF41EA1A
:103200000C019040E41AA2BF01EB0451294330BDE8
:103210006FEA04041F3C1CDA0C340EDC04F11404C5
:10322000C4F1200220FA04F001FA02F340EA03009C
:1032300021FA04F345EA030130BDC4F10C04C4F1E2
:10324000200220FA02F001FA04F340EA03002946C2
:1032500030BD21FA04F0294630BD94F0000F83F40C
:10326000801306BF81F480110134013D4EE77FEAEF
:10327000645C18BF7FEA655C29D094EA050F08BF3B
:1032800090EA020F05D054EA000C04BF194610461C
:1032900030BD91EA030F1EBF0021002030BD5FEA60
:1032A000545C05D14000494128BF41F0004130BD88
:1032B00014F580043CBF01F5801130BD01F00045DC
:1032C00045F0FE4141F470014FF0000030BD7FEA4F
:1032D000645C1ABF194610467FEA655C1CBF0B464A
:1032E000024650EA013406BF52EA033591EA030F61
:1032F00041F4002130BD00BF90F0000F04BF002159
:10330000704730B54FF4806404F132044FF000058B
:103310004FF0000150E700BF90F0000F04BF002104
:10332000704730B54FF4806404F1320410F000456A
:1033300048BF40424FF000013EE700BF42004FEA65
:10334000E2014FEA31014FEA02701FBF12F07F43E2
:1033500093F07F4F81F06051704792F0000F14BFDF
:1033600093F07F4F704730B54FF4607401F0004523
:1033700021F0004120E700BF50EA010208BF70477A
:1033800030B54FF000050AE050EA010208BF70476F
:1033900030B511F0004502D5404261EB41014FF4D8
:1033A000806404F132045FEA915C3FF4DCAE4FF0DC
:1033B00003025FEADC0C18BF03325FEADC0C18BFC3
:1033C000033202EBDC02C2F1200300FA03FC20FA14
:1033D00002F001FA03FE40EA0E0021FA02F1144461
:1033E000C1E600BF70B54FF0FF0C4CF4E06C1CEA76
:1033F00011541DBF1CEA135594EA0C0F95EA0C0FEB
:1034000000F0DEF82C4481EA030621EA4C5123EA5D
:103410004C5350EA013518BF52EA033541F480118C
:1034200043F4801338D0A0FB02CE4FF00005E1FB3F
:1034300002E506F00042E0FB03E54FF00006E1FB89
:1034400003569CF0000F18BF4EF0010EA4F1FF04CC
:10345000B6F5007F64F5407404D25FEA4E0E6D410C
:1034600046EB060642EAC62141EA55514FEAC5201D
:1034700040EA5E504FEACE2EB4F1FD0C88BFBCF599
:10348000E06F1ED8BEF1004F08BF5FEA500E50F14A
:10349000000041EB045170BD06F0004646EA010110
:1034A00040EA020081EA0301B4EB5C04C2BFD4EB42
:1034B0000C0541EA045170BD41F480114FF0000E3B
:1034C000013C00F3AB8014F1360FDEBF002001F0A9
:1034D000004170BDC4F10004203C35DA0C341BDC23
:1034E00004F11404C4F1200500FA05F320FA04F0F5
:1034F00001FA05F240EA020001F0004221F0004129
:1035000010EBD37021FA04F642EB06015EEA430E9B
:1035100008BF20EAD37070BDC4F10C04C4F12005CB
:1035200000FA04F320FA05F001FA04F240EA02007E
:1035300001F0004110EBD37041F100015EEA430E4F
:1035400008BF20EAD37070BDC4F1200500FA05F26F
:103550004EEA020E20FA04F301FA05F243EA0203EE
:1035600021FA04F001F0004121FA04F220EA0200FD
:1035700000EBD3705EEA430E08BF20EAD37070BD43
:1035800094F0000F0FD101F00046400041EB010123
:1035900011F4801F08BF013CF7D041EA060195F005
:1035A000000F18BF704703F00046520043EB0303BF
:1035B00013F4801F08BF013DF7D043EA06037047AC
:1035C00094EA0C0F0CEA135518BF95EA0C0F0CD0B7
:1035D00050EA410618BF52EA4306D1D181EA0301FD
:1035E00001F000414FF0000070BD50EA410606BFF7
:1035F0001046194652EA430619D094EA0C0F02D13C
:1036000050EA013613D195EA0C0F05D152EA033680
:103610001CBF104619460AD181EA030101F000419E
:1036200041F0FE4141F470014FF0000070BD41F0E7
:10363000FE4141F4780170BD70B54FF0FF0C4CF4C1
:10364000E06C1CEA11541DBF1CEA135594EA0C0FE0
:1036500095EA0C0F00F0A7F8A4EB050481EA030E2D
:1036600052EA03354FEA013100F088804FEA033314
:103670004FF0805545EA131343EA12634FEA0222E2
:1036800045EA111545EA10654FEA00260EF00041A3
:103690009D4208BF964244F1FD0404F5407402D2F5
:1036A0005B084FEA3202B61A65EB03055B084FEA86
:1036B00032024FF480104FF4002CB6EB020E75EB83
:1036C000030E22BFB61A754640EA0C005B084FEAAB
:1036D0003202B6EB020E75EB030E22BFB61A754628
:1036E00040EA5C005B084FEA3202B6EB020E75EB73
:1036F000030E22BFB61A754640EA9C005B084FEAEB
:103700003202B6EB020E75EB030E22BFB61A7546F7
:1037100040EADC0055EA060E18D04FEA051545EAE6
:1037200016754FEA06164FEAC30343EA52734FEA8F
:10373000C2025FEA1C1CC0D111F4801F0BD141EA08
:1037400000014FF000004FF0004CB6E711F4801F6D
:1037500004BF01430020B4F1FD0C88BFBCF5E06F4D
:103760003FF6AFAEB5EB030C04BFB6EB020C5FEA5D
:10377000500C50F1000041EB045170BD0EF0004EB2
:103780004EEA113114EB5C04C2BFD4EB0C0541EAE4
:10379000045170BD41F480114FF0000E013C90E6E1
:1037A00045EA060E8DE60CEA135594EA0C0F08BFA5
:1037B00095EA0C0F3FF43BAF94EA0C0F0AD150EAA4
:1037C00001347FF434AF95EA0C0F7FF425AF104637
:1037D00019462CE795EA0C0F06D152EA03353FF45F
:1037E000FDAE1046194622E750EA410618BF52EADC
:1037F00043067FF4C5AE50EA41047FF40DAF52EAB0
:1038000043057FF4EBAE12E74FF0FF3C06E000BF4C
:103810004FF0010C02E000BF4FF0010C4DF804CD59
:103820004FEA410C7FEA6C5C4FEA430C18BF7FEA19
:103830006C5C1BD001B050EA410C0CBF52EA430C47
:1038400091EA030F02BF90EA020F0020704710F1C7
:10385000000F91EA030F58BF994208BF90422CBF56
:10386000D8176FEAE37040F0010070474FEA410C4F
:103870007FEA6C5C02D150EA013C07D14FEA430C6D
:103880007FEA6C5CD6D152EA033CD3D05DF8040BDE
:10389000704700BF8446104662468C461946634610
:1038A00000E000BF01B5FFF7B7FF002848BF10F1E7
:1038B000000F01BD4DF808EDFFF7F4FF0CBF01202C
:1038C00000205DF808FB00BF4DF808EDFFF7EAFFA8
:1038D00034BF012000205DF808FB00BF4DF808ED63
:1038E000FFF7E0FF94BF012000205DF808FB00BF58
:1038F0004DF808EDFFF7CEFF94BF012000205DF8E2
:1039000008FB00BF4DF808EDFFF7C4FF34BF0120EE
:1039100000205DF808FB00BF4FEA410212F50012DB
:1039200015D211D56FF47873B3EB625212D94FEA06
:10393000C12343F0004343EA505311F0004F23FAF0
:1039400002F018BF404270474FF00000704750EA45
:10395000013005D111F0004008BF6FF00040704702
:103960004FF00000704700BFF0B51C4685B0002343
:103970001546002206460F46FFF7A6FF234618B15C
:103980002D2203F8012B013D0022039207490193E8
:1039900067220292009532463B46086800F04CFAD6
:1039A000002814BF2046002005B0F0BD480040208C
:1039B00070B50D4E0D4CA41BA4100025A54209D1D5
:1039C0000B4E0C4C03F0A0FAA41BA4100025A5423A
:1039D00005D170BD56F8253098470135EEE756F809
:1039E000253098470135F2E7146F4000146F40000E
:1039F000146F4000186F400002440346934200D108
:103A0000704703F8011BF9E70FB40A4B13B51C68A4
:103A100024B1A36913B9204600F0C6FB05AB049A94
:103A2000A1680193204601F083F802B0BDE8104080
:103A300004B070474800402038B5084B1C68054664
:103A400024B1A36913B9204600F0AEFBA268294651
:103A50002046BDE8384001F017BB00BF48004020B9
:103A600000294FF480630CBF0222002200F000B84E
:103A70002DE9F7431D46514B1E6804460F469046FC
:103A800026B1B36913B9304600F08EFB4C4B9C4213
:103A900052D17468B8F1020F06D0B8F1010F00F2EC
:103AA0008980002DC0F286802146304600F012FB4E
:103AB000616B41B104F14403994202D0304600F0F9
:103AC00063FF002363630023A3616360A3891B0674
:103AD00003D52169304600F057FFA38923F44A63D8
:103AE00023F00303B8F1020FA3815DD001AB6A4656
:103AF0002146304600F0E2FBA3891843A0812DBB8C
:103B0000009D284600F03EFC074600284ED1DDF817
:103B10000090A9453CD14FF0FF30A38943F0020348
:103B2000A3810023A36004F14703236023610123E1
:103B3000636103B0BDE8F083224B9C4201D1B468BD
:103B4000A8E7214B9C4208BFF468A3E7002FD8D018
:103B5000B36913B9304600F027FBB8F1010F08BF75
:103B6000A389276004BF43F00103A381A3892761D0
:103B700013F0080065611BD013F0010018BF6D42FF
:103B80004FF000031DBFA360A5611846A560D0E7F4
:103B9000484600F0F7FB07460028BCD0A38943F055
:103BA0008003A3814D46D3E70020B6E7A946F5E799
:103BB000A060BEE74FF0FF30BBE700BF48004020E9
:103BC000846D4000A46D4000646D4000F8B50E4661
:103BD0001446054618B183690BB900F0E5FA214B8C
:103BE0009C422AD16C68A369A360A3891A072ED5C9
:103BF000236963B323692068C01A6369F6B29842E7
:103C0000374604DB2146284600F064FA28BBA36847
:103C1000013BA36023685A1C22601E706369013057
:103C2000984204D0A389DB0719D50A2E17D1214663
:103C3000284600F04FFA90B10FE00B4B9C4201D1A7
:103C4000AC68D0E7094B9C4208BFEC68CBE7214643
:103C5000284600F00DF80028CCD04FF0FF3738464A
:103C6000F8BD00BF846D4000A46D4000646D40004D
:103C7000324B70B51D6806460C4625B1AB6913B9C9
:103C8000284600F091FA2E4B9C420FD16C68B4F993
:103C90000C309AB215072CD4D00611D40922326008
:103CA00043F04003A3814FF0FF3070BD254B9C4291
:103CB00001D1AC68EBE7244B9C4208BFEC68E6E717
:103CC000510712D5616B41B104F14403994202D00E
:103CD000304600F059FE00236363A38923F02403D8
:103CE000A3810023636023692360A38943F0080351
:103CF000A38123694BB9A38903F42073B3F5007F33
:103D000003D02146304600F0FDFAA28912F00103EB
:103D10000CD00023A36063695B42A361236953B99C
:103D2000B4F90C3013F08000BAD170BD920758BFBF
:103D30006369A360F2E70020F7E700BF4800402076
:103D4000846D4000A46D4000646D4000F0B58BB000
:103D50000F4608A9109C049107A9039109A9029193
:103D6000611C0191022100919DF84460129D01F0B7
:103D7000CBFA0146099842F20F73984204D13846B3
:103D800001F00BFA0BB0F0BD0B783B7045B93CB9B4
:103D90007B1C11F8012F3AB9672E0BD1652614E070
:103DA0002E22BB1C7A70F4E7002CF5DD03F8012B02
:103DB000013CEEE7472E3CD019463025621A1A44E2
:103DC000002A33DC002CA8BF1B19411E0029B8BFF4
:103DD000C0F101001A460991ACBF2B20099002F8EE
:103DE000026BA8BF58700998BCBF2D245C70632873
:103DF00011460BDD642390FBF3F303F130011170E6
:103E00006FF0630101FB03030993511C099A0A2314
:103E100092FBF3F303F1300008706FF0090000FB30
:103E2000032330334B7000238B70ABE701F8015B49
:103E3000C4E74526C9E700002DE9F04316468BB0DC
:103E40001D4681460022002330462946DDF8488081
:103E5000139C159FFFF738FD08B105F100450022BE
:103E6000002330462946FFF725FD38B13023237063
:103E70000023637020460BB0BDE8F0834EA3D3E966
:103E8000002330462946FFF729FD68B19DF85030E0
:103E9000019308F1FF330093029732462B462146E7
:103EA0004846FFF753FFE5E7404600F043FD024672
:103EB0000B4630462946FFF71BFD0028E6D10022BD
:103EC0003F4B29463046FFF7FFFC09A908AA07AB7C
:103ED000049103920293CDF80480E8B10323009388
:103EE00032462B46484601F00FFA079A42F20F730A
:103EF0009A4213D023460178079EA8EB0302054699
:103F000022440130A1B9B61A4FF0300EB018002883
:103F100037DC79B107900DE00223E0E70146204647
:103F200001F03BF9A6E7013E03F8011B0796E2E723
:103F3000002EF8DC0FB9297801B39C4202BF631C44
:103F4000302121702E2119700799013300204FF084
:103F5000300E00290E4620DB00B10791013D15F817
:103F6000011F09B1002A20DC47B118463025111A7B
:103F7000194400291DDC002AA8BF9B1800221A70D2
:103F800078E7002AC5DD03F801EB013A0121BDE71E
:103F900003F801EB013A0120DBE7002A01F10101FE
:103FA000F6DC0028DAD00796D8E703F8011B013ABF
:103FB000D5E700F8015BDAE72D431CEBE2361A3F48
:103FC0000000F03F8A892DE9F041054610070C46B4
:103FD0005AD44B68002B05DC0B6C002B02DC002054
:103FE000BDE8F081E66A002EF9D0002312F4805279
:103FF0002F682B6033D0606DA3895A0705D563689D
:10400000C01A636B0BB1236CC01A00230246E66A28
:10401000216A2846B047431CA38906D129681D2977
:104020004BD82B4ACA40D60747D500226260D90434
:104030002269226004D5421C01D12B6803B9606556
:10404000616B2F600029CAD004F14403994202D069
:10405000284600F099FC00206063BDE8F081216AE9
:1040600001232846B047411CC6D12B68002BC3D082
:104070001D2B01D0162B01D12F60B0E7A38943F08F
:104080004003A381BDE8F0810F69002FA7D09307FB
:104090000E6808BF4B690F6018BF0023A6EB070826
:1040A0008B60B8F1000F9ADD43463A46216AA66A52
:1040B0002846B047002807DCA38943F04003A381CA
:1040C0004FF0FF30BDE8F0810744A8EB0008E8E7B7
:1040D0000100402038B50B6905460C46DBB118B12C
:1040E00083690BB900F060F80C4B9C4209D16C68F5
:1040F000B4F90C307BB121462846BDE83840FFF7C3
:1041000061BF074B9C4201D1AC68F1E7054B9C4273
:1041100008BFEC68ECE7002038BD00BF846D4000AC
:10412000A46D4000646D4000014900F0A9B800BFD3
:10413000D5404000002310B504460360436083600F
:1041400081814366C281036143618361194608220C
:104150005C30FFF751FC054B6362054BA362054BD6
:10416000E362054B2462236310BD00BF155140007C
:10417000375140006F5140009351400070B54A1EC6
:10418000682555430E4605F1740100F04BFC0446CA
:1041900040B1002180E842000C30A06005F16802C7
:1041A000FFF72AFC204670BD836910B5044633BB77
:1041B0008364C3640365124B124A1B68826298428F
:1041C00004BF0123836100F01FF86060204600F007
:1041D0001BF8A060204600F017F80022E0600421E0
:1041E0006068FFF7A7FF01220921A068FFF7A2FF7F
:1041F00002221221E068FFF79DFF0123A36110BD99
:10420000606D400029414000F8B51C4B1E68B36941
:10421000074613B93046FFF7C7FF4836B4687368DE
:10422000013B03D5336833B13668F7E7B4F90C5076
:104230006DB16834F4E704213846FFF79FFF306022
:104240000028F1D10C233B6004462046F8BD4FF610
:10425000FF73E3810123A38165662560A560656026
:1042600025616561A5610822294604F15C00FFF71C
:10427000C3FB6563A563A564E564E6E7606D400084
:104280002DE9F8438046894600F14804002614B918
:104290003046BDE8F883A5686768013F01D524680A
:1042A000F5E7AB89012B07D9B5F90E30013303D0FF
:1042B00029464046C84706436835EEE770B50E46C6
:1042C000B1F90E10002990B014461D4607DA0023FC
:1042D0002B60B3891A0610D44FF480630EE001AA54
:1042E00001F0E4FD0028F2DB029A02F47042A2F52C
:1042F00000535A425A412A60EEE7402300202360CF
:1043000010B070BD8B8973B59D0706460C4607D566
:1043100004F14703236023610123636102B070BD90
:1043200001AB6A46FFF7CAFF00990546304600F028
:1043300079FB48B9B4F90C309A05EFD423F00303A4
:1043400043F00203A381E3E70D4BB362A38920602E
:1043500043F08003A381009B6361019B20615BB1FB
:10436000B4F90E10304601F0B3FD28B1A38923F053
:10437000030343F00103A381A3891D43A581CDE776
:1043800029414000024B0146186800F04BBB00BFBA
:104390004800402070B5456A04460E463DB91020DD
:1043A000FFF7F0FF6062456085600560C560656A83
:1043B000EB6883B1636ADB6853F82600B8B9012162
:1043C00001FA06F56A1D9200204600F0CFFA60B1AE
:1043D000466085600EE021220421204600F0C6FAE6
:1043E000636AE860DB68002BE4D1002070BD0268DE
:1043F00043F8262000230361C36070BD70B5446A92
:1044000006460D463CB91020FFF7BCFF70624460C1
:1044100084600460C4603DB1736A6A68DB6853F805
:104420002210296043F8225070BD2DE9F0410D693A
:104430001F4606460C4601F1140E0023DEF800006C
:1044400081B202FB01710F0C000C02FB007089B2FB
:10445000013301EB00419D424FEA10474EF8041B27
:10446000ECDCD7B1A3689D4212DB616830460131B4
:10447000FFF790FF2269023204F10C01804692009E
:104480000C3001F09DFD21463046FFF7B7FF444652
:1044900004EB850301355F6125612046BDE8F081AD
:1044A000020C12040346B2B90304102013F07F4F2C
:1044B00004BF1B02083013F0704F04BF1B0104300F
:1044C00013F0404F04BF9B000230002B06DB5B0063
:1044D00003D5013070470020E8E7202070470368CB
:1044E00013F0070201460BD0DA0723D4980749BF1F
:1044F0005B089B0801200B605CBF0B6002207047CB
:1045000098B2A8B91B0C102013F0FF0F04BF1B0AB0
:1045100008301A0704BF1B0904309A0704BF9B0820
:104520000230DA0702D45B0806D001300B60704716
:104530001046E9E7002070472020704710B50C4670
:104540000121FFF727FF01224461026110BD2DE91F
:10455000F74F14460A6923699A42B8BF0B46894649
:10456000BCBFA1461C46D9F81070D4F810A0D9F8E9
:104570000830D9F8041007EB0A069E42C8BF013183
:10458000FFF708FF00F1140505EB86082B46002213
:10459000434516D304F1140209F1140102EB8A0316
:1045A00001EB87070193019C944213460CD8002E1F
:1045B00003DD58F8043D002B54D0066103B0BDE87C
:1045C000F08F43F8042BE3E7B3F800A00432BAF10C
:1045D000000F20D0AE4689464FF0000C59F8044B2E
:1045E000BEF800B0A3B20AFB03B34FEA144BDEF8E7
:1045F000004063444FEA144C0AFB0BC404EB134421
:104600009BB243EA04434F454FEA144C4EF8043B37
:10461000E4D8CEF800C032F8029CB9F1000F1FD0E8
:104620002B68AE468C464FF0000ABCF80040BEF83E
:1046300002B009FB04B4A2449BB243EA0A434EF819
:10464000043B5CF8043BBEF800401B0C09FB034331
:1046500003EB1A4367454FEA134AE6D8CEF8003019
:104660000435A0E7013EA2E72DE9F843154612F014
:10467000030206460F4607D0013A214C002354F8A6
:104680002220FFF7D2FE0746AD1035D0746A3CB940
:104690001020FFF777FE7062446084600460C4609D
:1046A000D6F82480D8F808404CB940F27121304641
:1046B000FFF744FF0023C8F80800044603604FF0EA
:1046C0000008EB070AD5394622463046FFF73FFF80
:1046D000394681463046FFF791FE4F466D100BD0AC
:1046E000206838B9224621463046FFF730FF206067
:1046F000C0F800800446E4E73846BDE8F88300BF10
:10470000B86E40002DE9F0470C464FEA621A236963
:1047100049680AEB0309A3680746164609F1010533
:10472000AB4231DB3846FFF735FE0022804600F110
:104730001403114652452ADB20692AEAEA7A04F179
:10474000140116F01F0203EB8A0301EB800E22D046
:10475000C2F1200C00200E689640304343F8040B51
:1047600051F8040B8E4520FA0CF0F4D8186008B10B
:1047700009F10205013D3846C8F810502146FFF7FF
:104780003DFE4046BDE8F08701315B00C8E743F8D5
:1047900022100132CEE7043B51F8042B43F8042FDA
:1047A0008E45F9D8E6E703690A699B1A30B50CD142
:1047B0009200143014318418114454F8045D51F8F7
:1047C000042D954203D005D30123184630BDA042E5
:1047D000F3D3FAE74FF0FF33F7E72DE9F0470D4643
:1047E0000746114628461446FFF7DDFF061E08D18E
:1047F00031463846FFF7CEFD012303614661BDE82F
:10480000F087A4BF23462C4638466168A6BF1D46E4
:1048100000260126FFF7BEFD2B69C660266905F15B
:10482000140904F1140202EB860709EB830800F176
:1048300014054FF0000C52F804AB59F8044B1CFA65
:104840008AF1A3B2C91A230CC3EB1A4303EB214329
:1048500089B24FEA234CC84541EA0343964645F8DE
:10486000043BE8D8BE4505D355F8043D8BB106613D
:10487000BDE8F0875EF8041B1CFA81F31A1402EB02
:1048800011429BB243EA02434FEA224C45F8043BF3
:10489000E8E7013EE8E72DE9F34101211C46904697
:1048A000089E099DFFF776FDC4F31302C4F30A5472
:1048B000074634BB0192B8F1000F27D002A840F898
:1048C000088DFFF70CFE0099F0B1019AC0F12003AA
:1048D00002FA03F30B43C2407B610192019BBB616F
:1048E000002B14BF022101213961C4B1A4F2334469
:1048F00004443460C0F135002860384602B0BDE899
:10490000F08142F48012D5E77961E7E701A8FFF76B
:10491000E6FD019B7B61012139612030E5E707EB72
:104920008103A0F2324030601869FFF7B9FDC0EB97
:104930004110E1E71728D0B5044605DC084B03EB2E
:10494000C004D4E90001D0BD0649074F002000266D
:1049500032463B46FEF746FD013CF9D1D0BD00BFD3
:10496000F06D40000000F03F0000244038B502FB2D
:1049700001F4214600F056F8054618B12246002100
:10498000FFF73AF8284638BD38B50546002945D026
:1049900051F8043C0C1F002BB8BFE41801F01BFBBE
:1049A0001F4A1368104633B9636014602846BDE897
:1049B000384001F011BBA3420CD921686218934220
:1049C00004BF1A685B68636004BF52182260046009
:1049D000ECE713465A680AB1A242FAD91968581886
:1049E000A0420BD120680144581882421960DDD1E1
:1049F000106852685A6001441960D7E702D90C2345
:104A00002B60D3E7206821188A4204BF11685268DE
:104A1000626004BF091821605C60C7E738BD00BF51
:104A2000D001402070B5CD1C25F0030508350C2DB4
:104A300038BF0C25002D064601DBA94203D90C2303
:104A40003360002070BD01F0C6FA234A1468214685
:104A500091B9224C23681BB9304600F04BFB206013
:104A60002946304600F046FB431C26D10C23336018
:104A7000304601F0B1FAE4E70B685B1B1AD40B2B4C
:104A80000FD90B60CD50CC18304601F0A5FA04F1D7
:104A90000B00231D20F00700C31A1BD05A42E2501E
:104AA00070BD8C420DBF63684B686360136018BFB4
:104AB0000C46E9E70C464968CAE7C41C24F0030425
:104AC000A04205D0211A304600F014FB0130CDD0B1
:104AD0002560D9E770BD00BFD0014020D40140203F
:104AE0009368013B002B10B4936008DA9469A342E9
:104AF00002DBCBB20A2B02D110BCFFF767B81368F8
:104B0000581C10601970C8B210BC7047F8B5064642
:104B10000F461446D518AC4201D1002007E03A46B2
:104B200014F8011B3046FFF7DBFF431CF3D1F8BD3F
:104B30002DE9F04F9DB00C4617460393064618B179
:104B400083690BB9FFF730FB7C4B9C4257D17468EB
:104B5000A38918075DD52369002B5AD00023099338
:104B600020238DF8293030238DF82A304FF0010BA7
:104B7000B846454615F8013B002B55D1B8EB070A5E
:104B80000BD053463A4621463046FFF7BFFF01306F
:104B900000F0C480099B5344099398F80030002B1F
:104BA00000F0BC8000234FF0FF320493079305927E
:104BB00006938DF853301A9305222978604801F046
:104BC000AFF905F10108049B002831D1D90644BF93
:104BD00020228DF853201A0744BF2B228DF8532032
:104BE0002A782A2A2CD0079A00210A20A8460135C3
:104BF00098F80030303B092B6DD971B326E0514B4A
:104C00009C4201D1B468A3E74F4B9C4208BFF468B3
:104C10009EE721463046FFF72BF800289ED04FF044
:104C2000FF301DB0BDE8F08F252BA7D0A846A0E728
:104C3000434A801A0BFA00F0184304904546BBE73C
:104C4000039A111D12680391002A01DB079204E008
:104C5000524243F002030792049398F800302E2B3F
:104C600010D198F801302A2B08F1010137D1039BAC
:104C70001A1D1B680392002BB8BF4FF0FF3308F1D9
:104C800002080593314D98F800100322284601F0E0
:104C900047F940B14023401B03FA00F0049B034353
:104CA000049308F1010898F8001029488DF828109D
:104CB000062208F1010701F033F9002834D0254B12
:104CC00003BB039B073323F0070308330393099BBC
:104CD0004B4409934CE700FB0232012186E7002395
:104CE000059318460A258846013198F80020303A85
:104CF000092A03D9002BC5D00590C3E705FB002086
:104D00000123F0E703AB00932246134B04A930467E
:104D1000AFF30080B0F1FF3F8146D8D1A3895B0695
:104D20003FF57DAF09987CE703AB009322460A4B21
:104D300004A9304600F088F8ECE700BF846D40001D
:104D4000C46E4000A46D4000646D4000CA6E400017
:104D5000CE6E4000000000000D4B40002DE9F047F2
:104D600091461F468A680B69DDF820809342B8BFE0
:104D70001346C9F8003091F8432006460C4612B19C
:104D80000133C9F800302368990642BFD9F80030D2
:104D90000233C9F80030256815F0060507D104F183
:104DA000190AE368D9F800209B1A9D4229DB94F880
:104DB00043302268003318BF012392062ED404F139
:104DC000430239463046C047013021D02368E568A8
:104DD000D9F8002003F00603042B08BFAD1AA3681E
:104DE00022690CBF25EAE57500259342C4BF9B1AD2
:104DF000ED184FF000091A344D451BD10020BDE8D5
:104E0000F0870123524639463046C047013003D16E
:104E10004FF0FF30BDE8F0870135C2E7E1185A1CBA
:104E2000302081F84300224494F8451082F8431062
:104E30000233C4E70123224639463046C0470130D9
:104E4000E6D009F10109D7E72DE9F04317460A7EBC
:104E500085B06E2A984606460C460C9B01F1430E1F
:104E600000F0BC801AD8632A2ED00AD8002A00F09D
:104E7000C880582A00F08A8004F1420584F8422054
:104E80002AE0642A01D0692AF6D121681A6811F053
:104E9000800F23D0111D1960136827E0732A00F0DA
:104EA000B48008D86F2A2AD0702AE5D10A6842F067
:104EB00020020A6003E0752A21D0782ADCD178220A
:104EC00084F845206E4964E01A6801F14205111D1D
:104ED0001960136884F842300123A3E011F0400FF9
:104EE00002F104011960D7D0B2F90030002B03DAC7
:104EF0002D225B4284F8432062490A2217E0206891
:104F0000196810F0800F03D0081D18600B6806E0C8
:104F100010F0400F01F104001860F7D00B885949D8
:104F20006F2A14BF0A220822002084F84300656813
:104F3000A560002DC0F29C80206820F00400206055
:104F4000002B3FD1002D40F095807546082A0BD1EB
:104F50002368DA0708D5236962689A42DEBF3023E6
:104F600005F8013C05F1FF35AEEB05032361CDF8F3
:104F700000803B4603AA21463046FFF7EFFE013092
:104F800055D14FF0FF3005B0BDE8F08381F84520E2
:104F90003C492268186812F0800F00F104051D607A
:104FA00001D0036802E05506FBD50388D00744BF53
:104FB00042F0200222601BB9226822F02002226007
:104FC0001022B1E77546B3FBF2F002FB1033CB5C65
:104FD00005F8013D03460028F5D1B7E708681A68CF
:104FE000496910F0800F04D0101D18601368196013
:104FF00007E010F0400F02F1040018601368F6D0CB
:105000001980002323617546B1E71A68111D1960E4
:10501000156862680021284600F082FF08B1401B35
:10502000606063682361002384F843309FE723694D
:105030002A4639463046C0470130A2D023689B0734
:1050400007D5002504F11909E368039A9B1A9D42CC
:1050500005DBE068039B9842B8BF184693E701233D
:105060004A4639463046C04701308AD00135EBE721
:10507000002BA7D10B7884F8423004F1420565E794
:10508000E66E4000D56E400070B50D4614460646EB
:1050900018B183690BB9FFF787F8134B9C4212D103
:1050A0007468A368013B002BA36016DAA2699342DF
:1050B00002DBEBB20A2B10D1224629463046BDE86E
:1050C0007040FEF783BD094B9C4201D1B468E8E70C
:1050D000074B9C4208BFF468E3E723685A1C226030
:1050E0001D70E8B270BD00BF846D4000A46D40002B
:1050F000646D400038B5064C002305460846236021
:10510000FCF7B8FA431C02D1236803B12B6038BD09
:10511000EC05402010B50C46B1F90E1000F05EFF12
:105120000028ABBF636DA3891B1823F48053ACBF69
:105130006365A38110BD2DE9F0411F468B89DB0516
:1051400005460C46164605D502230022B1F90E107D
:1051500000F0CEFEA389B4F90E1023F48053A3818E
:1051600032463B462846BDE8F04100F01FB810B576
:105170000C46B1F90E1000F0BBFE431CA38915BF0D
:10518000606523F4805343F48053A38118BFA38147
:1051900010BDB1F90E1000F01BB8034611F8012B39
:1051A00003F8012B002AF9D17047000038B5074CED
:1051B000054608461146002222601A46FDF7B8FE51
:1051C000431C02D1236803B12B6038BDEC0540209D
:1051D00038B5064C0023054608462360FCF75CFA08
:1051E000431C02D1236803B12B6038BDEC0540207D
:1051F0002DE9F74F03690C699C42804600F38280D9
:10520000013C01F114074FEA840E00F1140657F82F
:10521000245056F8240006EB0E03013507EB0E0967
:105220000193B0FBF5F595B34FF0000A3846B4464C
:10523000D34650F8042B93B205FB03A34FEA134A5D
:105240009BB2ABEB0303120CBCF800B005FB02A24F
:1052500013FA8BF34FEA124A1FFA82FBDCF80020A4
:10526000CBEB124202EB23429BB243EA024381455D
:105270004FEA224B4CF8043BDBD256F80E3033B9E0
:10528000019B043B9E421A4630D3C8F8104040466A
:10529000FFF789FA002825DB013530464FF0000E74
:1052A00057F8042BD0F800C093B2AEEB0303120CF6
:1052B00013FA8CF3C2EB1C4202EB23429BB243EA8B
:1052C0000243B9454FEA224E40F8043BE8D256F873
:1052D000242006EB84032AB9043B9E421A460BD3D2
:1052E000C8F81040284603B0BDE8F08F1268043BB0
:1052F000002ACAD1013CC5E71268043B002AEFD15D
:10530000013CEAE70020EEE72DE9F04F466A95B050
:105310000446219DCDE902233EB91020FFF732F863
:105320006062466086600660C660636A196851B153
:105330005A684A60012393408B602046FFF75EF86D
:10534000636A00221A60039B002BBFBF01232B60FE
:10535000039B23F00043B2BF039300232B60DDF8CF
:105360000C90A94B33EA09031BD1209A42F20F7328
:105370001360029B23B9C9F31300002800F0818554
:10538000229B53B9A14B21E0A14B06930833229AEB
:105390001360069815B0BDE8F08F9C4B069303335D
:1053A000F5E7DDE902670022002330463946FEF7C3
:1053B00081FA804660B1209A01231360229B002B62
:1053C00000F05C85934B229A1360013B0693E0E763
:1053D00012AB019313AB009332463B462046FFF7D6
:1053E0005AFAC9F30A558246002D7CD0C7F313033D
:1053F00043F07F51304641F44011A5F2FF35CDF81E
:1054000040800022844BFDF739FE79A3D3E90023C5
:10541000FDF7E8FF78A3D3E90023FDF731FE064648
:1054200028460F46FDF778FF75A3D3E90023FDF763
:10543000D9FF02460B4630463946FDF721FE0646A7
:105440000F46FEF769FA00228346002330463946AC
:10545000FEF73AFA58B15846FDF75EFF02460B4692
:1054600030463946FEF726FA08B90BF1FF3BBBF18F
:10547000160F57D8694901EBCB01DDE90223D1E9C9
:105480000001FEF73FFA00284ED00BF1FF3B00234E
:105490000D93129B5D1B6B1E079343BF0023C5F149
:1054A000010807934FF00008BBF1000F3EDB079B9C
:1054B000CDF830B05B440793002308931E9B092B63
:1054C00000F2B080052BC4BF043B1E931E9BA3F1CA
:1054D0000203CCBF00260126032B00F2AF80DFE8D9
:1054E00003F083852D77139B129D1D4405F23243F3
:1054F000202B11DD029A05F21240C3F1400322FA7B
:1055000000F009FA03F31843FDF7F6FE0123A1F1B9
:10551000F871013D109374E7C3F12000029B03FA78
:1055200000F0F1E70123B3E70D90B2E7CBF1000300
:1055300008930023A8EB0B080C93BFE70123099302
:105540001F9B002B7DDD04939946656A00226A60EB
:10555000042101F114029A4278D969682046FEF7C5
:1055600019FF636A28601B680693B9F10E0F00F2F9
:10557000EE80002E00F0EB80DDE90223BBF1000F8E
:10558000CDE90E2377DD254A0BF00F0302EBC303B1
:10559000D3E900234FEA2B16F006CDE90A235AD5AA
:1055A0001F4BDDE90E01D3E90823FEF745F8CDE9ED
:1055B000020106F00F060325194F002E4DD1DDE93B
:1055C0000A23DDE90201FEF737F8CDE902016CE0BC
:1055D000012309931F9B5B4403F1010904934B468C
:1055E000012BB8BF0123B0E70023A8E70023F0E7B1
:1055F00061436F63A787D23FB3C8608B288AC63FD9
:10560000FB799F501344D33F0000F07F006F4000B0
:10561000F76E4000056F40000000F83FF06D40005D
:10562000C86D4000012600231E9309964FF0FF33FA
:1056300004939946002212231F9286E701230993BF
:10564000F4E70123049399461A46F5E76A680132A4
:105650006A6049007DE70225AEE7F10708D5DDE97C
:105660000A01D7E90023FDF7BDFECDE90A010135A6
:1056700076100837A1E700F0A580CBF10006A34B18
:10568000A34F06F00F0203EBC203D3E90023DDE9C9
:105690000E01FDF7A7FECDE9020136110023022518
:1056A000002E40F08480002B8FD10D9B002B00F04A
:1056B0008B80DDE90223CDE90A23DDE90A0100221E
:1056C000944BFEF701F900287ED0B9F1000F7BD092
:1056D000049B002B37DD00228F4BDDE90A01FDF72B
:1056E00081FECDE90201049E0BF1FF37013528460A
:1056F000FDF712FEDDE90223FDF774FE874B002261
:10570000FDF7BEFCCDE90A010B9BA3F150750B958B
:10571000002E5CD10022824BDDE90201FDF7AEFCD8
:105720000A9A2B46CDE90201FEF7ECF8002840F07A
:10573000F7820A9A05F10043DDE90201FEF7C4F899
:10574000002840F0EB82DDE90E23CDE90223139B14
:10575000002BC0F25181BBF10E0F00F34D816B4B5A
:1057600003EBCB03D3E90023CDE904231F9B002BDC
:1057700080F2DA80B9F1000F00F3D68040F0CD82DC
:105780000022674BDDE90401FDF72CFEDDE9022371
:10579000FEF7AEF84E464F46002840F0A482069B26
:1057A000069A5D1C312313700BF1010B9FE2F20787
:1057B00005D5D7E90023FDF715FE01350123761045
:1057C00008376DE7022570E75F464E468FE7069A79
:1057D0004E4B32441192099A711E002A48D003EBB5
:1057E000C103D3E9002300204E49FDF725FFDDE981
:1057F0000A23FDF743FCCDE90A01069DDDE902011C
:10580000FEF78AF80646FDF787FD02460B46DDE9FE
:105810000201FDF733FC303605F8016BDDE90A23A0
:10582000CDE90201FEF750F8002865D1DDE9022339
:1058300000203849FDF722FCDDE90A23FEF744F891
:10584000002840F0B980119B9D423FF47CAF0022BC
:10585000314BDDE90A01FDF7C5FD0022CDE90A0162
:105860002D4BDDE90201FDF7BDFDCDE90201C5E7E4
:1058700003EBC101D1E90001DDE90A23FDF7B2FD27
:10588000CDE90A01069DDDE90201FEF745F806466D
:10589000FDF742FD303602460B46DDE90201FDF719
:1058A000EDFB05F8016B119BAB42CDE902014FF016
:1058B000000225D11B4BDDE90A01FDF7E1FB0246A1
:1058C0000B46DDE90201FEF71DF8002874D1DDE981
:1058D0000A2300201349FDF7D1FB02460B46DDE900
:1058E0000201FDF7F1FF00283FF42DAF15F8013C50
:1058F000302B05F1FF3201D0BB464CE01546F5E7F1
:10590000054BFDF76FFDCDE90201BCE7F06D4000EE
:10591000C86D40000000F03F0000244000001C4023
:10592000000014400000E03FDDE90267069DDDE96C
:10593000042330463946FDF77FFEFDF7EDFF804634
:10594000FDF7EAFCDDE90423FDF74CFD02460B46BA
:105950003046394608F13006FDF790FB05F8016B3B
:10596000069EAE1BB14502460B4638D1FDF788FBBB
:1059700006460F4602460B46DDE90401FDF7A4FF8B
:10598000C8B932463B46DDE90401FDF793FF10B18B
:1059900018F0010F0FD151462046FEF72FFD0023CE
:1059A000209A2B700BF101031360229B002B3FF414
:1059B000F0AC1D60EDE45F4615F8012C392A05F1C5
:1059C000FF3306D1069A9A4207D13023137001376C
:1059D00013461A7801321A708EE71D46ECE7002252
:1059E000B44BFDF7FFFC0022002306460F46FDF7EF
:1059F00061FF00289BD0CEE7099A002A00F0298198
:105A00001E9A012A00F30E81109A002A00F00681E6
:105A100003F23343089E4546079A01211A44204663
:105A200098440792FEF78AFD0746002D0BDD079B81
:105A3000002B08DDAB42079AA8BF2B46A8EB030852
:105A4000ED1AD31A0793089BFBB1099B002B00F0BA
:105A50000481002E11DD394632462046FEF704FE51
:105A60005246014607462046FEF771FD51460A9010
:105A70002046FEF7C3FC0A9B9A46089B9A1B04D05B
:105A800051462046FEF7F0FD824601212046FEF7F2
:105A900055FD0C9B002B064640F3E1801A4601465B
:105AA0002046FEF7E1FD1E9B012B064640F3DA80FF
:105AB00000230893336906EB83031869FEF7F0FCB3
:105AC000C0F12000079B184410F01F0000F0F08088
:105AD000C0F12003042B40F3E280079BC0F11C00BF
